{
  "abi": [
    {
      "type": "constructor",
      "inputs": [],
      "stateMutability": "nonpayable"
    },
    {
      "type": "function",
      "name": "comptroller",
      "inputs": [],
      "outputs": [
        {
          "name": "",
          "type": "address",
          "internalType": "contract Comptroller"
        }
      ],
      "stateMutability": "view"
    },
    {
      "type": "function",
      "name": "getAllMarketsInfo",
      "inputs": [],
      "outputs": [
        {
          "name": "",
          "type": "tuple[]",
          "internalType": "struct BaseMoonwellViews.Market[]",
          "components": [
            {
              "name": "market",
              "type": "address",
              "internalType": "address"
            },
            {
              "name": "isListed",
              "type": "bool",
              "internalType": "bool"
            },
            {
              "name": "borrowCap",
              "type": "uint256",
              "internalType": "uint256"
            },
            {
              "name": "supplyCap",
              "type": "uint256",
              "internalType": "uint256"
            },
            {
              "name": "mintPaused",
              "type": "bool",
              "internalType": "bool"
            },
            {
              "name": "borrowPaused",
              "type": "bool",
              "internalType": "bool"
            },
            {
              "name": "collateralFactor",
              "type": "uint256",
              "internalType": "uint256"
            },
            {
              "name": "underlyingPrice",
              "type": "uint256",
              "internalType": "uint256"
            },
            {
              "name": "totalSupply",
              "type": "uint256",
              "internalType": "uint256"
            },
            {
              "name": "totalBorrows",
              "type": "uint256",
              "internalType": "uint256"
            },
            {
              "name": "totalReserves",
              "type": "uint256",
              "internalType": "uint256"
            },
            {
              "name": "cash",
              "type": "uint256",
              "internalType": "uint256"
            },
            {
              "name": "exchangeRate",
              "type": "uint256",
              "internalType": "uint256"
            },
            {
              "name": "borrowIndex",
              "type": "uint256",
              "internalType": "uint256"
            },
            {
              "name": "reserveFactor",
              "type": "uint256",
              "internalType": "uint256"
            },
            {
              "name": "borrowRate",
              "type": "uint256",
              "internalType": "uint256"
            },
            {
              "name": "supplyRate",
              "type": "uint256",
              "internalType": "uint256"
            },
            {
              "name": "incentives",
              "type": "tuple[]",
              "internalType": "struct BaseMoonwellViews.MarketIncentives[]",
              "components": [
                {
                  "name": "token",
                  "type": "address",
                  "internalType": "address"
                },
                {
                  "name": "supplyIncentivesPerSec",
                  "type": "uint256",
                  "internalType": "uint256"
                },
                {
                  "name": "borrowIncentivesPerSec",
                  "type": "uint256",
                  "internalType": "uint256"
                }
              ]
            }
          ]
        }
      ],
      "stateMutability": "view"
    },
    {
      "type": "function",
      "name": "getGovernanceTokenPrice",
      "inputs": [],
      "outputs": [
        {
          "name": "_result",
          "type": "uint256",
          "internalType": "uint256"
        }
      ],
      "stateMutability": "view"
    },
    {
      "type": "function",
      "name": "getMarketIncentives",
      "inputs": [
        {
          "name": "market",
          "type": "address",
          "internalType": "contract MToken"
        }
      ],
      "outputs": [
        {
          "name": "",
          "type": "tuple[]",
          "internalType": "struct BaseMoonwellViews.MarketIncentives[]",
          "components": [
            {
              "name": "token",
              "type": "address",
              "internalType": "address"
            },
            {
              "name": "supplyIncentivesPerSec",
              "type": "uint256",
              "internalType": "uint256"
            },
            {
              "name": "borrowIncentivesPerSec",
              "type": "uint256",
              "internalType": "uint256"
            }
          ]
        }
      ],
      "stateMutability": "view"
    },
    {
      "type": "function",
      "name": "getMarketInfo",
      "inputs": [
        {
          "name": "_mToken",
          "type": "address",
          "internalType": "contract MToken"
        }
      ],
      "outputs": [
        {
          "name": "",
          "type": "tuple",
          "internalType": "struct BaseMoonwellViews.Market",
          "components": [
            {
              "name": "market",
              "type": "address",
              "internalType": "address"
            },
            {
              "name": "isListed",
              "type": "bool",
              "internalType": "bool"
            },
            {
              "name": "borrowCap",
              "type": "uint256",
              "internalType": "uint256"
            },
            {
              "name": "supplyCap",
              "type": "uint256",
              "internalType": "uint256"
            },
            {
              "name": "mintPaused",
              "type": "bool",
              "internalType": "bool"
            },
            {
              "name": "borrowPaused",
              "type": "bool",
              "internalType": "bool"
            },
            {
              "name": "collateralFactor",
              "type": "uint256",
              "internalType": "uint256"
            },
            {
              "name": "underlyingPrice",
              "type": "uint256",
              "internalType": "uint256"
            },
            {
              "name": "totalSupply",
              "type": "uint256",
              "internalType": "uint256"
            },
            {
              "name": "totalBorrows",
              "type": "uint256",
              "internalType": "uint256"
            },
            {
              "name": "totalReserves",
              "type": "uint256",
              "internalType": "uint256"
            },
            {
              "name": "cash",
              "type": "uint256",
              "internalType": "uint256"
            },
            {
              "name": "exchangeRate",
              "type": "uint256",
              "internalType": "uint256"
            },
            {
              "name": "borrowIndex",
              "type": "uint256",
              "internalType": "uint256"
            },
            {
              "name": "reserveFactor",
              "type": "uint256",
              "internalType": "uint256"
            },
            {
              "name": "borrowRate",
              "type": "uint256",
              "internalType": "uint256"
            },
            {
              "name": "supplyRate",
              "type": "uint256",
              "internalType": "uint256"
            },
            {
              "name": "incentives",
              "type": "tuple[]",
              "internalType": "struct BaseMoonwellViews.MarketIncentives[]",
              "components": [
                {
                  "name": "token",
                  "type": "address",
                  "internalType": "address"
                },
                {
                  "name": "supplyIncentivesPerSec",
                  "type": "uint256",
                  "internalType": "uint256"
                },
                {
                  "name": "borrowIncentivesPerSec",
                  "type": "uint256",
                  "internalType": "uint256"
                }
              ]
            }
          ]
        }
      ],
      "stateMutability": "view"
    },
    {
      "type": "function",
      "name": "getMarketsInfo",
      "inputs": [
        {
          "name": "_mTokens",
          "type": "address[]",
          "internalType": "contract MToken[]"
        }
      ],
      "outputs": [
        {
          "name": "",
          "type": "tuple[]",
          "internalType": "struct BaseMoonwellViews.Market[]",
          "components": [
            {
              "name": "market",
              "type": "address",
              "internalType": "address"
            },
            {
              "name": "isListed",
              "type": "bool",
              "internalType": "bool"
            },
            {
              "name": "borrowCap",
              "type": "uint256",
              "internalType": "uint256"
            },
            {
              "name": "supplyCap",
              "type": "uint256",
              "internalType": "uint256"
            },
            {
              "name": "mintPaused",
              "type": "bool",
              "internalType": "bool"
            },
            {
              "name": "borrowPaused",
              "type": "bool",
              "internalType": "bool"
            },
            {
              "name": "collateralFactor",
              "type": "uint256",
              "internalType": "uint256"
            },
            {
              "name": "underlyingPrice",
              "type": "uint256",
              "internalType": "uint256"
            },
            {
              "name": "totalSupply",
              "type": "uint256",
              "internalType": "uint256"
            },
            {
              "name": "totalBorrows",
              "type": "uint256",
              "internalType": "uint256"
            },
            {
              "name": "totalReserves",
              "type": "uint256",
              "internalType": "uint256"
            },
            {
              "name": "cash",
              "type": "uint256",
              "internalType": "uint256"
            },
            {
              "name": "exchangeRate",
              "type": "uint256",
              "internalType": "uint256"
            },
            {
              "name": "borrowIndex",
              "type": "uint256",
              "internalType": "uint256"
            },
            {
              "name": "reserveFactor",
              "type": "uint256",
              "internalType": "uint256"
            },
            {
              "name": "borrowRate",
              "type": "uint256",
              "internalType": "uint256"
            },
            {
              "name": "supplyRate",
              "type": "uint256",
              "internalType": "uint256"
            },
            {
              "name": "incentives",
              "type": "tuple[]",
              "internalType": "struct BaseMoonwellViews.MarketIncentives[]",
              "components": [
                {
                  "name": "token",
                  "type": "address",
                  "internalType": "address"
                },
                {
                  "name": "supplyIncentivesPerSec",
                  "type": "uint256",
                  "internalType": "uint256"
                },
                {
                  "name": "borrowIncentivesPerSec",
                  "type": "uint256",
                  "internalType": "uint256"
                }
              ]
            }
          ]
        }
      ],
      "stateMutability": "view"
    },
    {
      "type": "function",
      "name": "getNativeTokenPrice",
      "inputs": [],
      "outputs": [
        {
          "name": "_result",
          "type": "uint256",
          "internalType": "uint256"
        }
      ],
      "stateMutability": "view"
    },
    {
      "type": "function",
      "name": "getProtocolInfo",
      "inputs": [],
      "outputs": [
        {
          "name": "_result",
          "type": "tuple",
          "internalType": "struct BaseMoonwellViews.ProtocolInfo",
          "components": [
            {
              "name": "seizePaused",
              "type": "bool",
              "internalType": "bool"
            },
            {
              "name": "transferPaused",
              "type": "bool",
              "internalType": "bool"
            }
          ]
        }
      ],
      "stateMutability": "view"
    },
    {
      "type": "function",
      "name": "getStakingInfo",
      "inputs": [],
      "outputs": [
        {
          "name": "_result",
          "type": "tuple",
          "internalType": "struct BaseMoonwellViews.StakingInfo",
          "components": [
            {
              "name": "cooldown",
              "type": "uint256",
              "internalType": "uint256"
            },
            {
              "name": "unstakeWindow",
              "type": "uint256",
              "internalType": "uint256"
            },
            {
              "name": "distributionEnd",
              "type": "uint256",
              "internalType": "uint256"
            },
            {
              "name": "totalSupply",
              "type": "uint256",
              "internalType": "uint256"
            },
            {
              "name": "emissionPerSecond",
              "type": "uint256",
              "internalType": "uint256"
            },
            {
              "name": "lastUpdateTimestamp",
              "type": "uint256",
              "internalType": "uint256"
            },
            {
              "name": "index",
              "type": "uint256",
              "internalType": "uint256"
            }
          ]
        }
      ],
      "stateMutability": "view"
    },
    {
      "type": "function",
      "name": "getTokensBalances",
      "inputs": [
        {
          "name": "_tokens",
          "type": "address[]",
          "internalType": "address[]"
        },
        {
          "name": "_user",
          "type": "address",
          "internalType": "address"
        }
      ],
      "outputs": [
        {
          "name": "",
          "type": "tuple[]",
          "internalType": "struct BaseMoonwellViews.Balances[]",
          "components": [
            {
              "name": "amount",
              "type": "uint256",
              "internalType": "uint256"
            },
            {
              "name": "token",
              "type": "address",
              "internalType": "address"
            }
          ]
        }
      ],
      "stateMutability": "view"
    },
    {
      "type": "function",
      "name": "getUserBalances",
      "inputs": [
        {
          "name": "_user",
          "type": "address",
          "internalType": "address"
        }
      ],
      "outputs": [
        {
          "name": "",
          "type": "tuple[]",
          "internalType": "struct BaseMoonwellViews.Balances[]",
          "components": [
            {
              "name": "amount",
              "type": "uint256",
              "internalType": "uint256"
            },
            {
              "name": "token",
              "type": "address",
              "internalType": "address"
            }
          ]
        }
      ],
      "stateMutability": "view"
    },
    {
      "type": "function",
      "name": "getUserBorrowsBalances",
      "inputs": [
        {
          "name": "_user",
          "type": "address",
          "internalType": "address"
        }
      ],
      "outputs": [
        {
          "name": "",
          "type": "tuple[]",
          "internalType": "struct BaseMoonwellViews.Balances[]",
          "components": [
            {
              "name": "amount",
              "type": "uint256",
              "internalType": "uint256"
            },
            {
              "name": "token",
              "type": "address",
              "internalType": "address"
            }
          ]
        }
      ],
      "stateMutability": "view"
    },
    {
      "type": "function",
      "name": "getUserClaimsVotingPower",
      "inputs": [
        {
          "name": "_user",
          "type": "address",
          "internalType": "address"
        }
      ],
      "outputs": [
        {
          "name": "_result",
          "type": "tuple",
          "internalType": "struct BaseMoonwellViews.Votes",
          "components": [
            {
              "name": "delegatedVotingPower",
              "type": "uint256",
              "internalType": "uint256"
            },
            {
              "name": "votingPower",
              "type": "uint256",
              "internalType": "uint256"
            },
            {
              "name": "delegates",
              "type": "address",
              "internalType": "address"
            }
          ]
        }
      ],
      "stateMutability": "view"
    },
    {
      "type": "function",
      "name": "getUserMarketsMemberships",
      "inputs": [
        {
          "name": "_user",
          "type": "address",
          "internalType": "address"
        }
      ],
      "outputs": [
        {
          "name": "",
          "type": "tuple[]",
          "internalType": "struct BaseMoonwellViews.Memberships[]",
          "components": [
            {
              "name": "membership",
              "type": "bool",
              "internalType": "bool"
            },
            {
              "name": "token",
              "type": "address",
              "internalType": "address"
            }
          ]
        }
      ],
      "stateMutability": "view"
    },
    {
      "type": "function",
      "name": "getUserRewards",
      "inputs": [
        {
          "name": "_user",
          "type": "address",
          "internalType": "address"
        }
      ],
      "outputs": [
        {
          "name": "",
          "type": "tuple[]",
          "internalType": "struct BaseMoonwellViews.Rewards[]",
          "components": [
            {
              "name": "market",
              "type": "address",
              "internalType": "address"
            },
            {
              "name": "rewardToken",
              "type": "address",
              "internalType": "address"
            },
            {
              "name": "supplyRewardsAmount",
              "type": "uint256",
              "internalType": "uint256"
            },
            {
              "name": "borrowRewardsAmount",
              "type": "uint256",
              "internalType": "uint256"
            }
          ]
        }
      ],
      "stateMutability": "view"
    },
    {
      "type": "function",
      "name": "getUserStakingInfo",
      "inputs": [
        {
          "name": "_user",
          "type": "address",
          "internalType": "address"
        }
      ],
      "outputs": [
        {
          "name": "_result",
          "type": "tuple",
          "internalType": "struct BaseMoonwellViews.UserStakingInfo",
          "components": [
            {
              "name": "cooldown",
              "type": "uint256",
              "internalType": "uint256"
            },
            {
              "name": "pendingRewards",
              "type": "uint256",
              "internalType": "uint256"
            },
            {
              "name": "totalStaked",
              "type": "uint256",
              "internalType": "uint256"
            }
          ]
        }
      ],
      "stateMutability": "view"
    },
    {
      "type": "function",
      "name": "getUserStakingVotingPower",
      "inputs": [
        {
          "name": "_user",
          "type": "address",
          "internalType": "address"
        }
      ],
      "outputs": [
        {
          "name": "_result",
          "type": "tuple",
          "internalType": "struct BaseMoonwellViews.Votes",
          "components": [
            {
              "name": "delegatedVotingPower",
              "type": "uint256",
              "internalType": "uint256"
            },
            {
              "name": "votingPower",
              "type": "uint256",
              "internalType": "uint256"
            },
            {
              "name": "delegates",
              "type": "address",
              "internalType": "address"
            }
          ]
        }
      ],
      "stateMutability": "view"
    },
    {
      "type": "function",
      "name": "getUserTokensVotingPower",
      "inputs": [
        {
          "name": "_user",
          "type": "address",
          "internalType": "address"
        }
      ],
      "outputs": [
        {
          "name": "_result",
          "type": "tuple",
          "internalType": "struct BaseMoonwellViews.Votes",
          "components": [
            {
              "name": "delegatedVotingPower",
              "type": "uint256",
              "internalType": "uint256"
            },
            {
              "name": "votingPower",
              "type": "uint256",
              "internalType": "uint256"
            },
            {
              "name": "delegates",
              "type": "address",
              "internalType": "address"
            }
          ]
        }
      ],
      "stateMutability": "view"
    },
    {
      "type": "function",
      "name": "getUserVotingPower",
      "inputs": [
        {
          "name": "_user",
          "type": "address",
          "internalType": "address"
        }
      ],
      "outputs": [
        {
          "name": "_result",
          "type": "tuple",
          "internalType": "struct BaseMoonwellViews.UserVotes",
          "components": [
            {
              "name": "claimsVotes",
              "type": "tuple",
              "internalType": "struct BaseMoonwellViews.Votes",
              "components": [
                {
                  "name": "delegatedVotingPower",
                  "type": "uint256",
                  "internalType": "uint256"
                },
                {
                  "name": "votingPower",
                  "type": "uint256",
                  "internalType": "uint256"
                },
                {
                  "name": "delegates",
                  "type": "address",
                  "internalType": "address"
                }
              ]
            },
            {
              "name": "stakingVotes",
              "type": "tuple",
              "internalType": "struct BaseMoonwellViews.Votes",
              "components": [
                {
                  "name": "delegatedVotingPower",
                  "type": "uint256",
                  "internalType": "uint256"
                },
                {
                  "name": "votingPower",
                  "type": "uint256",
                  "internalType": "uint256"
                },
                {
                  "name": "delegates",
                  "type": "address",
                  "internalType": "address"
                }
              ]
            },
            {
              "name": "tokenVotes",
              "type": "tuple",
              "internalType": "struct BaseMoonwellViews.Votes",
              "components": [
                {
                  "name": "delegatedVotingPower",
                  "type": "uint256",
                  "internalType": "uint256"
                },
                {
                  "name": "votingPower",
                  "type": "uint256",
                  "internalType": "uint256"
                },
                {
                  "name": "delegates",
                  "type": "address",
                  "internalType": "address"
                }
              ]
            }
          ]
        }
      ],
      "stateMutability": "view"
    },
    {
      "type": "function",
      "name": "governanceToken",
      "inputs": [],
      "outputs": [
        {
          "name": "",
          "type": "address",
          "internalType": "contract Well"
        }
      ],
      "stateMutability": "view"
    },
    {
      "type": "function",
      "name": "initialize",
      "inputs": [
        {
          "name": "_comptroller",
          "type": "address",
          "internalType": "address"
        },
        {
          "name": "tokenSaleDistributor",
          "type": "address",
          "internalType": "address"
        },
        {
          "name": "safetyModule",
          "type": "address",
          "internalType": "address"
        },
        {
          "name": "_governanceToken",
          "type": "address",
          "internalType": "address"
        },
        {
          "name": "nativeMarket",
          "type": "address",
          "internalType": "address"
        },
        {
          "name": "governanceTokenLP",
          "type": "address",
          "internalType": "address"
        }
      ],
      "outputs": [],
      "stateMutability": "nonpayable"
    },
    {
      "type": "event",
      "name": "Initialized",
      "inputs": [
        {
          "name": "version",
          "type": "uint8",
          "indexed": false,
          "internalType": "uint8"
        }
      ],
      "anonymous": false
    }
  ],
  "bytecode": {
    "object": "0x60806040523480156200001157600080fd5b506200001c62000022565b620000e3565b600054610100900460ff16156200008f5760405162461bcd60e51b815260206004820152602760248201527f496e697469616c697a61626c653a20636f6e747261637420697320696e697469604482015266616c697a696e6760c81b606482015260840160405180910390fd5b60005460ff90811614620000e1576000805460ff191660ff9081179091556040519081527f7f26b83ff96e1f2b6a682f133852f6798a09c465da95921460cefb38474024989060200160405180910390a15b565b61321f80620000f36000396000f3fe608060405234801561001057600080fd5b50600436106101375760003560e01c806394c77638116100b8578063cc2a9a5b1161007c578063cc2a9a5b14610355578063ce3f8aab1461036a578063e22340c81461037d578063ed4e016414610398578063f96dae0a146103ab578063fcf14dd8146103be57600080fd5b806394c776381461029b5780639966ff54146102b1578063a5be5463146102d1578063abd3f612146102e4578063b40cd21d146102f757600080fd5b80635fe3b567116100ff5780635fe3b567146101e25780636e8c5b951461021357806380933608146102335780638843abef146102685780638d0d04b91461028857600080fd5b8063078b0fb71461013c5780630baca2e5146101665780630cf85bcc146101865780630dca69f9146101a6578063139df200146101cd575b600080fd5b61015061014a366004612737565b50606090565b60405161015d919061275b565b60405180910390f35b610179610174366004612737565b6103c6565b60405161015d91906127ed565b610199610194366004612737565b6103fa565b60405161015d9190612974565b6101ae610ad7565b604080518251151581526020928301511515928101929092520161015d565b6101d5610be1565b60405161015d9190612987565b6000546101fb906201000090046001600160a01b031681565b6040516001600160a01b03909116815260200161015d565b610226610221366004612737565b610d94565b60405161015d91906129e9565b610246610241366004612737565b610f61565b604080518251815260208084015190820152918101519082015260600161015d565b61027b610276366004612737565b6110e7565b60405161015d91906129f7565b6101d5610296366004612a42565b6112c6565b6102a36113fc565b60405190815260200161015d565b6102c46102bf366004612737565b6114fa565b60405161015d9190612ab6565b61027b6102df366004612bb7565b6116d5565b61027b6102f2366004612737565b6118ac565b6102ff611b88565b60405161015d9190600060e082019050825182526020830151602083015260408301516040830152606083015160608301526080830151608083015260a083015160a083015260c083015160c083015292915050565b610368610363366004612c67565b611e43565b005b610226610378366004612737565b61210f565b61038b61014a366004612737565b60405161015d9190612ce9565b6102266103a6366004612737565b612248565b6001546101fb906001600160a01b031681565b6102a3612486565b6103ce61261e565b6103d782612248565b81526103e28261210f565b60208201526103f082610d94565b6040820152919050565b610402612650565b61040a612650565b60008054604051638e8f294b60e01b81526001600160a01b03868116600483015283926201000090041690638e8f294b906024016040805180830381865afa15801561045a573d6000803e3d6000fd5b505050506040513d601f19601f8201168201806040525081019061047e9190612d5e565b915091508115610ace576001600160a01b0385811680855260005460405163252c221960e11b8152600481019290925262010000900490911690634a58443290602401602060405180830381865afa1580156104de573d6000803e3d6000fd5b505050506040513d601f19601f820116820180604052508101906105029190612d8a565b60408401526000606084015260c08301819052811515602084015260005460405163731f0c2b60e01b81526001600160a01b038781166004830152620100009092049091169063731f0c2b90602401602060405180830381865afa15801561056e573d6000803e3d6000fd5b505050506040513d601f19601f820116820180604052508101906105929190612da3565b15156080840152600054604051636d154ea560e01b81526001600160a01b0387811660048301526201000090920490911690636d154ea590602401602060405180830381865afa1580156105ea573d6000803e3d6000fd5b505050506040513d601f19601f8201168201806040525081019061060e9190612da3565b151560a0840152600054604080516307dc0d1d60e41b81529051620100009092046001600160a01b031691637dc0d1d0916004808201926020929091908290030181865afa158015610664573d6000803e3d6000fd5b505050506040513d601f19601f820116820180604052508101906106889190612dbe565b60405163fc57d4df60e01b81526001600160a01b038781166004830152919091169063fc57d4df90602401602060405180830381865afa1580156106d0573d6000803e3d6000fd5b505050506040513d601f19601f820116820180604052508101906106f49190612d8a565b8360e0018181525050846001600160a01b03166318160ddd6040518163ffffffff1660e01b8152600401602060405180830381865afa15801561073b573d6000803e3d6000fd5b505050506040513d601f19601f8201168201806040525081019061075f9190612d8a565b83610100018181525050846001600160a01b03166347bd37186040518163ffffffff1660e01b8152600401602060405180830381865afa1580156107a7573d6000803e3d6000fd5b505050506040513d601f19601f820116820180604052508101906107cb9190612d8a565b83610120018181525050846001600160a01b0316638f840ddd6040518163ffffffff1660e01b8152600401602060405180830381865afa158015610813573d6000803e3d6000fd5b505050506040513d601f19601f820116820180604052508101906108379190612d8a565b83610140018181525050846001600160a01b0316633b1d21a26040518163ffffffff1660e01b8152600401602060405180830381865afa15801561087f573d6000803e3d6000fd5b505050506040513d601f19601f820116820180604052508101906108a39190612d8a565b83610160018181525050846001600160a01b031663182df0f56040518163ffffffff1660e01b8152600401602060405180830381865afa1580156108eb573d6000803e3d6000fd5b505050506040513d601f19601f8201168201806040525081019061090f9190612d8a565b83610180018181525050846001600160a01b031663aa5af0fd6040518163ffffffff1660e01b8152600401602060405180830381865afa158015610957573d6000803e3d6000fd5b505050506040513d601f19601f8201168201806040525081019061097b9190612d8a565b836101a0018181525050846001600160a01b031663173b99046040518163ffffffff1660e01b8152600401602060405180830381865afa1580156109c3573d6000803e3d6000fd5b505050506040513d601f19601f820116820180604052508101906109e79190612d8a565b836101c0018181525050846001600160a01b031663cd91801c6040518163ffffffff1660e01b8152600401602060405180830381865afa158015610a2f573d6000803e3d6000fd5b505050506040513d601f19601f82011682018060405250810190610a539190612d8a565b836101e0018181525050846001600160a01b031663d3bd2c726040518163ffffffff1660e01b8152600401602060405180830381865afa158015610a9b573d6000803e3d6000fd5b505050506040513d601f19601f82011682018060405250810190610abf9190612d8a565b61020084015260606102208401525b50909392505050565b6040805180820190915260008082526020820152600060029054906101000a90046001600160a01b03166001600160a01b03166387f763036040518163ffffffff1660e01b8152600401602060405180830381865afa158015610b3e573d6000803e3d6000fd5b505050506040513d601f19601f82011682018060405250810190610b629190612da3565b15156020828101919091526000546040805163ac0b0bb760e01b81529051620100009092046001600160a01b03169263ac0b0bb7926004808401938290030181865afa158015610bb6573d6000803e3d6000fd5b505050506040513d601f19601f82011682018060405250810190610bda9190612da3565b1515815290565b606060008060029054906101000a90046001600160a01b03166001600160a01b031663b0772d0b6040518163ffffffff1660e01b8152600401600060405180830381865afa158015610c37573d6000803e3d6000fd5b505050506040513d6000823e601f3d908101601f19168201604052610c5f9190810190612ddb565b9050600081516001600160401b03811115610c7c57610c7c612b03565b604051908082528060200260200182016040528015610cb557816020015b610ca2612650565b815260200190600190039081610c9a5790505b50905060005b8251811015610d8d57306001600160a01b0316630cf85bcc848381518110610ce557610ce5612e74565b60200260200101516040518263ffffffff1660e01b8152600401610d1891906001600160a01b0391909116815260200190565b600060405180830381865afa158015610d35573d6000803e3d6000fd5b505050506040513d6000823e601f3d908101601f19168201604052610d5d9190810190612f32565b828281518110610d6f57610d6f612e74565b60200260200101819052508080610d8590613088565b915050610cbb565b5092915050565b610d9c6126ea565b6001546001600160a01b031615610f5c57600180546000916001600160a01b039091169063782d6fe1908590610dd290436130a1565b6040516001600160e01b031960e085901b1681526001600160a01b0390921660048301526024820152604401602060405180830381865afa158015610e1b573d6000803e3d6000fd5b505050506040513d601f19601f82011682018060405250810190610e3f91906130b4565b600154604051632c3e6f0f60e11b81526001600160a01b0386811660048301526bffffffffffffffffffffffff9390931693506000929091169063587cde1e90602401602060405180830381865afa158015610e9f573d6000803e3d6000fd5b505050506040513d601f19601f82011682018060405250810190610ec39190612dbe565b6040805160608101825284815260015491516370a0823160e01b81526001600160a01b0388811660048301529394509092602084019216906370a0823190602401602060405180830381865afa158015610f21573d6000803e3d6000fd5b505050506040513d601f19601f82011682018060405250810190610f459190612d8a565b8152602001826001600160a01b0316815250925050505b919050565b610f8560405180606001604052806000815260200160008152602001600081525090565b6003546001600160a01b031615610f5c576003546040516346df7f7160e11b81526001600160a01b03848116600483015290911690638dbefee290602401602060405180830381865afa158015610fe0573d6000803e3d6000fd5b505050506040513d601f19601f820116820180604052508101906110049190612d8a565b602082015260035460405163091030c360e01b81526001600160a01b0384811660048301529091169063091030c390602401602060405180830381865afa158015611053573d6000803e3d6000fd5b505050506040513d601f19601f820116820180604052508101906110779190612d8a565b81526003546040516370a0823160e01b81526001600160a01b038481166004830152909116906370a0823190602401602060405180830381865afa1580156110c3573d6000803e3d6000fd5b505050506040513d601f19601f820116820180604052508101906103f09190612d8a565b606060008060029054906101000a90046001600160a01b03166001600160a01b031663b0772d0b6040518163ffffffff1660e01b8152600401600060405180830381865afa15801561113d573d6000803e3d6000fd5b505050506040513d6000823e601f3d908101601f191682016040526111659190810190612ddb565b9050600081516001600160401b0381111561118257611182612b03565b6040519080825280602002602001820160405280156111c757816020015b60408051808201909152600080825260208201528152602001906001900390816111a05790505b50905060005b82518110156112be5760008382815181106111ea576111ea612e74565b602002602001015190506040518060400160405280826001600160a01b03166395dd9193896040518263ffffffff1660e01b815260040161123a91906001600160a01b0391909116815260200190565b602060405180830381865afa158015611257573d6000803e3d6000fd5b505050506040513d601f19601f8201168201806040525081019061127b9190612d8a565b8152602001826001600160a01b031681525083838151811061129f5761129f612e74565b60200260200101819052505080806112b690613088565b9150506111cd565b509392505050565b60606000826001600160401b038111156112e2576112e2612b03565b60405190808252806020026020018201604052801561131b57816020015b611308612650565b8152602001906001900390816113005790505b50905060005b838110156113f25730630cf85bcc86868481811061134157611341612e74565b90506020020160208101906113569190612737565b6040516001600160e01b031960e084901b1681526001600160a01b039091166004820152602401600060405180830381865afa15801561139a573d6000803e3d6000fd5b505050506040513d6000823e601f3d908101601f191682016040526113c29190810190612f32565b8282815181106113d4576113d4612e74565b602002602001018190525080806113ea90613088565b915050611321565b5090505b92915050565b6005546000906001600160a01b0316156114f757600060029054906101000a90046001600160a01b03166001600160a01b0316637dc0d1d06040518163ffffffff1660e01b8152600401602060405180830381865afa158015611463573d6000803e3d6000fd5b505050506040513d601f19601f820116820180604052508101906114879190612dbe565b60055460405163fc57d4df60e01b81526001600160a01b03918216600482015291169063fc57d4df90602401602060405180830381865afa1580156114d0573d6000803e3d6000fd5b505050506040513d601f19601f820116820180604052508101906114f49190612d8a565b90505b90565b606060008060029054906101000a90046001600160a01b03166001600160a01b031663b0772d0b6040518163ffffffff1660e01b8152600401600060405180830381865afa158015611550573d6000803e3d6000fd5b505050506040513d6000823e601f3d908101601f191682016040526115789190810190612ddb565b9050600081516001600160401b0381111561159557611595612b03565b6040519080825280602002602001820160405280156115da57816020015b60408051808201909152600080825260208201528152602001906001900390816115b35790505b50905060005b82518110156112be5760008382815181106115fd576115fd612e74565b6020908102919091010151604080518082019182905260005463929fe9a160e01b9092526001600160a01b03898116604483015280841660648301529293509182916201000090041663929fe9a160848301602060405180830381865afa15801561166c573d6000803e3d6000fd5b505050506040513d601f19601f820116820180604052508101906116909190612da3565b15158152602001826001600160a01b03168152508383815181106116b6576116b6612e74565b60200260200101819052505080806116cd90613088565b9150506115e0565b6060600083516001600160401b038111156116f2576116f2612b03565b60405190808252806020026020018201604052801561173757816020015b60408051808201909152600080825260208201528152602001906001900390816117105790505b50905060005b84518110156113f25760006001600160a01b031685828151811061176357611763612e74565b60200260200101516001600160a01b0316036117c4576040518060400160405280856001600160a01b031631815260200160006001600160a01b03168152508282815181106117b4576117b4612e74565b602002602001018190525061189a565b60008582815181106117d8576117d8612e74565b602002602001015190506040518060400160405280826001600160a01b03166370a08231886040518263ffffffff1660e01b815260040161182891906001600160a01b0391909116815260200190565b602060405180830381865afa158015611845573d6000803e3d6000fd5b505050506040513d601f19601f820116820180604052508101906118699190612d8a565b8152602001826001600160a01b031681525083838151811061188d5761188d612e74565b6020026020010181905250505b806118a481613088565b91505061173d565b606060008060029054906101000a90046001600160a01b03166001600160a01b031663b0772d0b6040518163ffffffff1660e01b8152600401600060405180830381865afa158015611902573d6000803e3d6000fd5b505050506040513d6000823e601f3d908101601f1916820160405261192a9190810190612ddb565b905060008151600261193c91906130e2565b6119479060016130f9565b6001549091506000906001600160a01b03161561196c578161196881613088565b9250505b6000826001600160401b0381111561198657611986612b03565b6040519080825280602002602001820160405280156119af578160200160208202803683370190505b506001549091506001600160a01b031615611a0d5760015481516001600160a01b03909116908290849081106119e7576119e7612e74565b6001600160a01b039092166020928302919091019091015281611a0981613088565b9250505b6000818381518110611a2157611a21612e74565b6001600160a01b039092166020928302919091019091015281611a4381613088565b92505060005b8451811015611b73576000858281518110611a6657611a66612e74565b60209081029190910101516005549091506000906001600160a01b03808416911614611af157816001600160a01b0316636f307dc36040518163ffffffff1660e01b8152600401602060405180830381865afa158015611aca573d6000803e3d6000fd5b505050506040513d601f19601f82011682018060405250810190611aee9190612dbe565b90505b81848681518110611b0457611b04612e74565b6001600160a01b03909216602092830291909101909101528084611b298760016130f9565b81518110611b3957611b39612e74565b6001600160a01b0390921660209283029190910190910152611b5c6002866130f9565b945050508080611b6b90613088565b915050611a49565b50611b7e81876116d5565b9695505050505050565b611bc86040518060e00160405280600081526020016000815260200160008152602001600081526020016000815260200160008152602001600081525090565b6003546001600160a01b0316156114f757600360009054906101000a90046001600160a01b03166001600160a01b03166372b49d636040518163ffffffff1660e01b8152600401602060405180830381865afa158015611c2c573d6000803e3d6000fd5b505050506040513d601f19601f82011682018060405250810190611c509190612d8a565b815260035460408051631ace254b60e11b815290516001600160a01b039092169163359c4a96916004808201926020929091908290030181865afa158015611c9c573d6000803e3d6000fd5b505050506040513d601f19601f82011682018060405250810190611cc09190612d8a565b6020808301919091526003546040805163919cd40f60e01b815290516001600160a01b039092169263919cd40f926004808401938290030181865afa158015611d0d573d6000803e3d6000fd5b505050506040513d601f19601f82011682018060405250810190611d319190612d8a565b60408083019190915260035481516318160ddd60e01b815291516001600160a01b03909116916318160ddd9160048083019260209291908290030181865afa158015611d81573d6000803e3d6000fd5b505050506040513d601f19601f82011682018060405250810190611da59190612d8a565b6060820152600354604051631e23703160e31b81526001600160a01b039091166004820181905260009163f11b818890602401606060405180830381865afa158015611df5573d6000803e3d6000fd5b505050506040513d601f19601f82011682018060405250810190611e199190613123565b80516001600160801b03908116608085015260208201511660a08401526040015160c08301525090565b600054610100900460ff1615808015611e635750600054600160ff909116105b80611e7d5750303b158015611e7d575060005460ff166001145b611ee55760405162461bcd60e51b815260206004820152602e60248201527f496e697469616c697a61626c653a20636f6e747261637420697320616c72656160448201526d191e481a5b9a5d1a585b1a5e995960921b60648201526084015b60405180910390fd5b6000805460ff191660011790558015611f08576000805461ff0019166101001790555b6001600160a01b038716611f695760405162461bcd60e51b815260206004820152602260248201527f436f6d7074726f6c6c65722063616e7420626520746865203020616464726573604482015261732160f01b6064820152608401611edc565b86600060026101000a8154816001600160a01b0302191690836001600160a01b03160217905550600060029054906101000a90046001600160a01b03166001600160a01b0316627e3dd26040518163ffffffff1660e01b8152600401602060405180830381865afa158015611fe2573d6000803e3d6000fd5b505050506040513d601f19601f820116820180604052508101906120069190612da3565b61206a5760405162461bcd60e51b815260206004820152602f60248201527f43616e742062696e6420746f20736f6d657468696e67207468617473206e6f7460448201526e206120636f6d7074726f6c6c65722160881b6064820152608401611edc565b600280546001600160a01b03199081166001600160a01b0389811691909117909255600380548216888416179055600180548216878416179055600580548216868416179055600480549091169184169190911790558015612106576000805461ff0019169055604051600181527f7f26b83ff96e1f2b6a682f133852f6798a09c465da95921460cefb38474024989060200160405180910390a15b50505050505050565b6121176126ea565b6003546001600160a01b031615610f5c576003546000906001600160a01b031663782d6fe1846121486001436130a1565b6040516001600160e01b031960e085901b1681526001600160a01b0390921660048301526024820152604401602060405180830381865afa158015612191573d6000803e3d6000fd5b505050506040513d601f19601f820116820180604052508101906121b59190612d8a565b6040805160608101825282815260035491516370a0823160e01b81526001600160a01b0387811660048301529394509092602084019216906370a0823190602401602060405180830381865afa158015612213573d6000803e3d6000fd5b505050506040513d601f19601f820116820180604052508101906122379190612d8a565b815260006020909101529392505050565b6122506126ea565b6002546001600160a01b031615610f5c576002546000906001600160a01b031663782d6fe1846122816001436130a1565b6040516001600160e01b031960e085901b1681526001600160a01b0390921660048301526024820152604401602060405180830381865afa1580156122ca573d6000803e3d6000fd5b505050506040513d601f19601f820116820180604052508101906122ee9190612d8a565b60025460405163ed361b3560e01b81526001600160a01b0386811660048301529293506000929091169063ed361b3590602401602060405180830381865afa15801561233e573d6000803e3d6000fd5b505050506040513d601f19601f820116820180604052508101906123629190612d8a565b600254604051631debb35d60e31b81526001600160a01b0387811660048301529293506000929091169063ef5d9ae890602401602060405180830381865afa1580156123b2573d6000803e3d6000fd5b505050506040513d601f19601f820116820180604052508101906123d69190612d8a565b600254604051632c3e6f0f60e11b81526001600160a01b0388811660048301529293506000929091169063587cde1e90602401602060405180830381865afa158015612426573d6000803e3d6000fd5b505050506040513d601f19601f8201168201806040525081019061244a9190612dbe565b90506040518060600160405280858152602001838561246991906130a1565b8152602001826001600160a01b0316815250945050505050919050565b6004546000906001600160a01b0316158015906124ad57506005546001600160a01b031615155b156114f7576004805460408051630240bc6b60e21b8152905160009384936001600160a01b031692630902f1ac92818301926060928290030181865afa1580156124fb573d6000803e3d6000fd5b505050506040513d601f19601f8201168201806040525081019061251f9190613184565b506001600160701b031691506001600160701b031691506000600460009054906101000a90046001600160a01b03166001600160a01b0316630dfe16816040518163ffffffff1660e01b8152600401602060405180830381865afa15801561258b573d6000803e3d6000fd5b505050506040513d601f19601f820116820180604052508101906125af9190612dbe565b6001549091506000906001600160a01b038084169116146125d057836125d2565b825b6001549091506000906001600160a01b038481169116146125f357836125f5565b845b9050806126006113fc565b61260a90846130e2565b61261491906131c7565b9550505050505090565b60405180606001604052806126316126ea565b815260200161263e6126ea565b815260200161264b6126ea565b905290565b60405180610240016040528060006001600160a01b0316815260200160001515815260200160008152602001600081526020016000151581526020016000151581526020016000815260200160008152602001600081526020016000815260200160008152602001600081526020016000815260200160008152602001600081526020016000815260200160008152602001606081525090565b6040518060600160405280600081526020016000815260200160006001600160a01b031681525090565b6001600160a01b038116811461272957600080fd5b50565b8035610f5c81612714565b60006020828403121561274957600080fd5b813561275481612714565b9392505050565b602080825282518282018190526000919060409081850190868401855b828110156127be57815180516001600160a01b03908116865287820151168786015285810151868601526060908101519085015260809093019290850190600101612778565b5091979650505050505050565b80518252602080820151908301526040908101516001600160a01b0316910152565b6000610120820190506128018284516127cb565b602083015161281360608401826127cb565b506040830151610d8d60c08401826127cb565b600081518084526020808501945080840160005b8381101561287757815180516001600160a01b0316885260208082015190890152604090810151908801526060870196509082019060010161283a565b509495945050505050565b80516001600160a01b03168252600061024060208301516128a7602086018215159052565b50604083015160408501526060830151606085015260808301516128cf608086018215159052565b5060a08301516128e360a086018215159052565b5060c0838101519085015260e08084015190850152610100808401519085015261012080840151908501526101408084015190850152610160808401519085015261018080840151908501526101a080840151908501526101c080840151908501526101e08084015190850152610200808401519085015261022080840151818601839052611b7e83870182612826565b6020815260006127546020830184612882565b6000602080830181845280855180835260408601915060408160051b870101925083870160005b828110156129dc57603f198886030184526129ca858351612882565b945092850192908501906001016129ae565b5092979650505050505050565b606081016113f682846127cb565b602080825282518282018190526000919060409081850190868401855b828110156127be578151805185528601516001600160a01b0316868501529284019290850190600101612a14565b60008060208385031215612a5557600080fd5b82356001600160401b0380821115612a6c57600080fd5b818501915085601f830112612a8057600080fd5b813581811115612a8f57600080fd5b8660208260051b8501011115612aa457600080fd5b60209290920196919550909350505050565b602080825282518282018190526000919060409081850190868401855b828110156127be5781518051151585528601516001600160a01b0316868501529284019290850190600101612ad3565b634e487b7160e01b600052604160045260246000fd5b604051606081016001600160401b0381118282101715612b3b57612b3b612b03565b60405290565b60405161024081016001600160401b0381118282101715612b3b57612b3b612b03565b604051601f8201601f191681016001600160401b0381118282101715612b8c57612b8c612b03565b604052919050565b60006001600160401b03821115612bad57612bad612b03565b5060051b60200190565b60008060408385031215612bca57600080fd5b82356001600160401b03811115612be057600080fd5b8301601f81018513612bf157600080fd5b80356020612c06612c0183612b94565b612b64565b82815260059290921b83018101918181019088841115612c2557600080fd5b938201935b83851015612c4c578435612c3d81612714565b82529382019390820190612c2a565b9550612c5b905086820161272c565b93505050509250929050565b60008060008060008060c08789031215612c8057600080fd5b8635612c8b81612714565b95506020870135612c9b81612714565b94506040870135612cab81612714565b93506060870135612cbb81612714565b92506080870135612ccb81612714565b915060a0870135612cdb81612714565b809150509295509295509295565b6020808252825182820181905260009190848201906040850190845b81811015612d4257835180516001600160a01b03168452602080820151908501526040908101519084015260608301938501939250600101612d05565b50909695505050505050565b80518015158114610f5c57600080fd5b60008060408385031215612d7157600080fd5b612d7a83612d4e565b9150602083015190509250929050565b600060208284031215612d9c57600080fd5b5051919050565b600060208284031215612db557600080fd5b61275482612d4e565b600060208284031215612dd057600080fd5b815161275481612714565b60006020808385031215612dee57600080fd5b82516001600160401b03811115612e0457600080fd5b8301601f81018513612e1557600080fd5b8051612e23612c0182612b94565b81815260059190911b82018301908381019087831115612e4257600080fd5b928401925b82841015612e69578351612e5a81612714565b82529284019290840190612e47565b979650505050505050565b634e487b7160e01b600052603260045260246000fd5b8051610f5c81612714565b600082601f830112612ea657600080fd5b81516020612eb6612c0183612b94565b82815260609283028501820192828201919087851115612ed557600080fd5b8387015b85811015612f255781818a031215612ef15760008081fd5b612ef9612b19565b8151612f0481612714565b81528186015186820152604080830151908201528452928401928101612ed9565b5090979650505050505050565b600060208284031215612f4457600080fd5b81516001600160401b0380821115612f5b57600080fd5b908301906102408286031215612f7057600080fd5b612f78612b41565b612f8183612e8a565b8152612f8f60208401612d4e565b60208201526040830151604082015260608301516060820152612fb460808401612d4e565b6080820152612fc560a08401612d4e565b60a082015260c0838101519082015260e08084015190820152610100808401519082015261012080840151908201526101408084015190820152610160808401519082015261018080840151908201526101a080840151908201526101c080840151908201526101e080840151908201526102008084015190820152610220808401518381111561305557600080fd5b61306188828701612e95565b918301919091525095945050505050565b634e487b7160e01b600052601160045260246000fd5b60006001820161309a5761309a613072565b5060010190565b818103818111156113f6576113f6613072565b6000602082840312156130c657600080fd5b81516bffffffffffffffffffffffff8116811461275457600080fd5b80820281158282048414176113f6576113f6613072565b808201808211156113f6576113f6613072565b80516001600160801b0381168114610f5c57600080fd5b60006060828403121561313557600080fd5b61313d612b19565b6131468361310c565b81526131546020840161310c565b6020820152604083015160408201528091505092915050565b80516001600160701b0381168114610f5c57600080fd5b60008060006060848603121561319957600080fd5b6131a28461316d565b92506131b06020850161316d565b91506131be6040850161316d565b90509250925092565b6000826131e457634e487b7160e01b600052601260045260246000fd5b50049056fea264697066735822122044fd4d52efe2ad7ee9cda6df6f86f840cfed1040ae1676c08cfe722bc2938e8c64736f6c63430008130033",
    "linkReferences": {}
  },
  "methodIdentifiers": {
    "comptroller()": "5fe3b567",
    "getAllMarketsInfo()": "139df200",
    "getGovernanceTokenPrice()": "fcf14dd8",
    "getMarketIncentives(address)": "e22340c8",
    "getMarketInfo(address)": "0cf85bcc",
    "getMarketsInfo(address[])": "8d0d04b9",
    "getNativeTokenPrice()": "94c77638",
    "getProtocolInfo()": "0dca69f9",
    "getStakingInfo()": "b40cd21d",
    "getTokensBalances(address[],address)": "a5be5463",
    "getUserBalances(address)": "abd3f612",
    "getUserBorrowsBalances(address)": "8843abef",
    "getUserClaimsVotingPower(address)": "ed4e0164",
    "getUserMarketsMemberships(address)": "9966ff54",
    "getUserRewards(address)": "078b0fb7",
    "getUserStakingInfo(address)": "80933608",
    "getUserStakingVotingPower(address)": "ce3f8aab",
    "getUserTokensVotingPower(address)": "6e8c5b95",
    "getUserVotingPower(address)": "0baca2e5",
    "governanceToken()": "f96dae0a",
    "initialize(address,address,address,address,address,address)": "cc2a9a5b"
  },
  "id": 177
}