{
  "_format": "hh-sol-artifact-1",
  "contractName": "ChainlinkOracle",
  "sourceName": "moonwell-contracts-private/contracts/core/Chainlink/ChainlinkOracle.sol",
  "abi": [
    {
      "inputs": [
        {
          "internalType": "string",
          "name": "_nativeToken",
          "type": "string"
        }
      ],
      "payable": false,
      "stateMutability": "nonpayable",
      "type": "constructor"
    },
    {
      "anonymous": false,
      "inputs": [
        {
          "indexed": false,
          "internalType": "address",
          "name": "feed",
          "type": "address"
        },
        {
          "indexed": false,
          "internalType": "string",
          "name": "symbol",
          "type": "string"
        }
      ],
      "name": "FeedSet",
      "type": "event"
    },
    {
      "anonymous": false,
      "inputs": [
        {
          "indexed": false,
          "internalType": "address",
          "name": "oldAdmin",
          "type": "address"
        },
        {
          "indexed": false,
          "internalType": "address",
          "name": "newAdmin",
          "type": "address"
        }
      ],
      "name": "NewAdmin",
      "type": "event"
    },
    {
      "anonymous": false,
      "inputs": [
        {
          "indexed": false,
          "internalType": "address",
          "name": "asset",
          "type": "address"
        },
        {
          "indexed": false,
          "internalType": "uint256",
          "name": "previousPriceMantissa",
          "type": "uint256"
        },
        {
          "indexed": false,
          "internalType": "uint256",
          "name": "requestedPriceMantissa",
          "type": "uint256"
        },
        {
          "indexed": false,
          "internalType": "uint256",
          "name": "newPriceMantissa",
          "type": "uint256"
        }
      ],
      "name": "PricePosted",
      "type": "event"
    },
    {
      "constant": true,
      "inputs": [],
      "name": "admin",
      "outputs": [
        {
          "internalType": "address",
          "name": "",
          "type": "address"
        }
      ],
      "payable": false,
      "stateMutability": "view",
      "type": "function"
    },
    {
      "constant": true,
      "inputs": [
        {
          "internalType": "address",
          "name": "asset",
          "type": "address"
        }
      ],
      "name": "assetPrices",
      "outputs": [
        {
          "internalType": "uint256",
          "name": "",
          "type": "uint256"
        }
      ],
      "payable": false,
      "stateMutability": "view",
      "type": "function"
    },
    {
      "constant": true,
      "inputs": [
        {
          "internalType": "string",
          "name": "symbol",
          "type": "string"
        }
      ],
      "name": "getFeed",
      "outputs": [
        {
          "internalType": "contract AggregatorV2V3Interface",
          "name": "",
          "type": "address"
        }
      ],
      "payable": false,
      "stateMutability": "view",
      "type": "function"
    },
    {
      "constant": true,
      "inputs": [
        {
          "internalType": "contract MToken",
          "name": "mToken",
          "type": "address"
        }
      ],
      "name": "getUnderlyingPrice",
      "outputs": [
        {
          "internalType": "uint256",
          "name": "",
          "type": "uint256"
        }
      ],
      "payable": false,
      "stateMutability": "view",
      "type": "function"
    },
    {
      "constant": true,
      "inputs": [],
      "name": "isPriceOracle",
      "outputs": [
        {
          "internalType": "bool",
          "name": "",
          "type": "bool"
        }
      ],
      "payable": false,
      "stateMutability": "view",
      "type": "function"
    },
    {
      "constant": true,
      "inputs": [],
      "name": "nativeToken",
      "outputs": [
        {
          "internalType": "bytes32",
          "name": "",
          "type": "bytes32"
        }
      ],
      "payable": false,
      "stateMutability": "view",
      "type": "function"
    },
    {
      "constant": false,
      "inputs": [
        {
          "internalType": "address",
          "name": "newAdmin",
          "type": "address"
        }
      ],
      "name": "setAdmin",
      "outputs": [],
      "payable": false,
      "stateMutability": "nonpayable",
      "type": "function"
    },
    {
      "constant": false,
      "inputs": [
        {
          "internalType": "address",
          "name": "asset",
          "type": "address"
        },
        {
          "internalType": "uint256",
          "name": "price",
          "type": "uint256"
        }
      ],
      "name": "setDirectPrice",
      "outputs": [],
      "payable": false,
      "stateMutability": "nonpayable",
      "type": "function"
    },
    {
      "constant": false,
      "inputs": [
        {
          "internalType": "string",
          "name": "symbol",
          "type": "string"
        },
        {
          "internalType": "address",
          "name": "feed",
          "type": "address"
        }
      ],
      "name": "setFeed",
      "outputs": [],
      "payable": false,
      "stateMutability": "nonpayable",
      "type": "function"
    },
    {
      "constant": false,
      "inputs": [
        {
          "internalType": "contract MToken",
          "name": "mToken",
          "type": "address"
        },
        {
          "internalType": "uint256",
          "name": "underlyingPriceMantissa",
          "type": "uint256"
        }
      ],
      "name": "setUnderlyingPrice",
      "outputs": [],
      "payable": false,
      "stateMutability": "nonpayable",
      "type": "function"
    }
  ],
  "bytecode": "0x608060405234801561001057600080fd5b5060405161110c38038061110c8339818101604052602081101561003357600080fd5b810190808051604051939291908464010000000082111561005357600080fd5b90830190602082018581111561006857600080fd5b825164010000000081118282018810171561008257600080fd5b82525081516020918201929091019080838360005b838110156100af578181015183820152602001610097565b50505050905090810190601f1680156100dc5780820380516001836020036101000a031916815260200191505b506040819052600080546001600160a01b03191633179055845185945060209182019350839250908401908083835b6020831061012a5780518252601f19909201916020918201910161010b565b6001836020036101000a0380198251168184511680821785525050505050509050019150506040516020818303038152906040528051906020012060018190555050610f918061017b6000396000f3fe608060405234801561001057600080fd5b506004361061009e5760003560e01c806366331bba1161006657806366331bba1461026c578063704b6c0214610288578063e1758bd8146102ae578063f851a440146102b6578063fc57d4df146102be5761009e565b806309a8acb0146100a35780630c607acf146100d1578063127ffda0146101485780633b39a51c146101745780635e9a523c14610234575b600080fd5b6100cf600480360360408110156100b957600080fd5b506001600160a01b0381351690602001356102e4565b005b6100cf600480360360408110156100e757600080fd5b810190602081018135600160201b81111561010157600080fd5b82018360208201111561011357600080fd5b803590602001918460018302840111600160201b8311171561013457600080fd5b9193509150356001600160a01b03166103b3565b6100cf6004803603604081101561015e57600080fd5b506001600160a01b038135169060200135610557565b6102186004803603602081101561018a57600080fd5b810190602081018135600160201b8111156101a457600080fd5b8201836020820111156101b657600080fd5b803590602001918460018302840111600160201b831117156101d757600080fd5b91908080601f016020809104026020016040519081016040528093929190818152602001838380828437600092019190915250929550610690945050505050565b604080516001600160a01b039092168252519081900360200190f35b61025a6004803603602081101561024a57600080fd5b50356001600160a01b031661072e565b60408051918252519081900360200190f35b610274610749565b604080519115158252519081900360200190f35b6100cf6004803603602081101561029e57600080fd5b50356001600160a01b031661074e565b61025a610806565b61021861080c565b61025a600480360360208110156102d457600080fd5b50356001600160a01b031661081b565b6000546001600160a01b03163314610339576040805162461bcd60e51b81526020600482015260136024820152721bdb9b1e4818591b5a5b881b585e4818d85b1b606a1b604482015290519081900360640190fd5b6001600160a01b0382166000818152600260209081526040918290205482519384529083015281810183905260608201839052517fdd71a1d19fcba687442a1d5c58578f1e409af71a79d10fd95a4d66efd8fa9ae79181900360800190a16001600160a01b03909116600090815260026020526040902055565b6000546001600160a01b03163314610408576040805162461bcd60e51b81526020600482015260136024820152721bdb9b1e4818591b5a5b881b585e4818d85b1b606a1b604482015290519081900360640190fd5b6001600160a01b0381161580159061042957506001600160a01b0381163014155b610471576040805162461bcd60e51b8152602060048201526014602482015273696e76616c69642066656564206164647265737360601b604482015290519081900360640190fd5b7fd9e7d1778ca05570ced72c9aeb12a41fcc76f7f57ea25853dea228f8836d002281848460405180846001600160a01b03166001600160a01b03168152602001806020018281038252848482818152602001925080828437600083820152604051601f909101601f1916909201829003965090945050505050a18060036000858560405160200180838380828437808301925050509250505060405160208183030381529060405280519060200120815260200190815260200160002060006101000a8154816001600160a01b0302191690836001600160a01b03160217905550505050565b6000546001600160a01b031633146105ac576040805162461bcd60e51b81526020600482015260136024820152721bdb9b1e4818591b5a5b881b585e4818d85b1b606a1b604482015290519081900360640190fd5b6000826001600160a01b0316636f307dc36040518163ffffffff1660e01b815260040160206040518083038186803b1580156105e757600080fd5b505afa1580156105fb573d6000803e3d6000fd5b505050506040513d602081101561061157600080fd5b50516001600160a01b0381166000818152600260209081526040918290205482519384529083015281810185905260608201859052519192507fdd71a1d19fcba687442a1d5c58578f1e409af71a79d10fd95a4d66efd8fa9ae7919081900360800190a16001600160a01b031660009081526002602052604090205550565b600060036000836040516020018082805190602001908083835b602083106106c95780518252601f1990920191602091820191016106aa565b6001836020036101000a03801982511681845116808217855250505050505090500191505060405160208183030381529060405280519060200120815260200190815260200160002060009054906101000a90046001600160a01b031690505b919050565b6001600160a01b031660009081526002602052604090205490565b600181565b6000546001600160a01b031633146107a3576040805162461bcd60e51b81526020600482015260136024820152721bdb9b1e4818591b5a5b881b585e4818d85b1b606a1b604482015290519081900360640190fd5b600080546001600160a01b038381166001600160a01b0319831681179093556040805191909216808252602082019390935281517ff9ffabca9c8276e99321725bcb43fb076a6c66a54b7f21c4e8146d8519b417dc929181900390910190a15050565b60015481565b6000546001600160a01b031681565b60006060826001600160a01b03166395d89b416040518163ffffffff1660e01b815260040160006040518083038186803b15801561085857600080fd5b505afa15801561086c573d6000803e3d6000fd5b505050506040513d6000823e601f3d908101601f19168201604052602081101561089557600080fd5b8101908080516040519392919084600160201b8211156108b457600080fd5b9083019060208201858111156108c957600080fd5b8251600160201b8111828201881017156108e257600080fd5b82525081516020918201929091019080838360005b8381101561090f5781810151838201526020016108f7565b50505050905090810190601f16801561093c5780820380516001836020036101000a031916815260200191505b506040525050509050600154816040516020018082805190602001908083835b6020831061097b5780518252601f19909201916020918201910161095c565b6001836020036101000a0380198251168184511680821785525050505050509050019150506040516020818303038152906040528051906020012014156109d5576109cd6109c882610690565b6109de565b915050610729565b6109cd83610b94565b6000806000836001600160a01b031663feaf968c6040518163ffffffff1660e01b815260040160a06040518083038186803b158015610a1c57600080fd5b505afa158015610a30573d6000803e3d6000fd5b505050506040513d60a0811015610a4657600080fd5b506020810151606090910151909250905060008213610a965760405162461bcd60e51b8152600401808060200182810382526026815260200180610f166026913960400191505060405180910390fd5b80610ae8576040805162461bcd60e51b815260206004820152601d60248201527f526f756e6420697320696e20696e636f6d706c65746564207374617465000000604482015290519081900360640190fd5b6000610b63856001600160a01b031663313ce5676040518163ffffffff1660e01b815260040160206040518083038186803b158015610b2657600080fd5b505afa158015610b3a573d6000803e3d6000fd5b505050506040513d6020811015610b5057600080fd5b505160129060ff1663ffffffff610dda16565b90508015610b8957610b7f83600a83900a63ffffffff610e2516565b9350505050610729565b829350505050610729565b600080826001600160a01b0316636f307dc36040518163ffffffff1660e01b815260040160206040518083038186803b158015610bd057600080fd5b505afa158015610be4573d6000803e3d6000fd5b505050506040513d6020811015610bfa57600080fd5b50516001600160a01b03811660009081526002602052604090205490915015610c3d576001600160a01b0381166000908152600260205260409020549150610d6f565b610d6c6109c8826001600160a01b03166395d89b416040518163ffffffff1660e01b815260040160006040518083038186803b158015610c7c57600080fd5b505afa158015610c90573d6000803e3d6000fd5b505050506040513d6000823e601f3d908101601f191682016040526020811015610cb957600080fd5b8101908080516040519392919084600160201b821115610cd857600080fd5b908301906020820185811115610ced57600080fd5b8251600160201b811182820188101715610d0657600080fd5b82525081516020918201929091019080838360005b83811015610d33578181015183820152602001610d1b565b50505050905090810190601f168015610d605780820380516001836020036101000a031916815260200191505b50604052505050610690565b91505b6000610dad826001600160a01b031663313ce5676040518163ffffffff1660e01b815260040160206040518083038186803b158015610b2657600080fd5b90508015610dd257610dc983600a83900a63ffffffff610e2516565b92505050610729565b506107299050565b6000610e1c83836040518060400160405280601f81526020017f536166654d6174683a207375627472616374696f6e20756e646572666c6f7700815250610e7e565b90505b92915050565b600082610e3457506000610e1f565b82820282848281610e4157fe5b0414610e1c5760405162461bcd60e51b8152600401808060200182810382526021815260200180610f3c6021913960400191505060405180910390fd5b60008184841115610f0d5760405162461bcd60e51b81526004018080602001828103825283818151815260200191508051906020019080838360005b83811015610ed2578181015183820152602001610eba565b50505050905090810190601f168015610eff5780820380516001836020036101000a031916815260200191505b509250505060405180910390fd5b50505090039056fe436861696e6c696e6b2070726963652063616e6e6f74206265206c6f776572207468616e2030536166654d6174683a206d756c7469706c69636174696f6e206f766572666c6f77a265627a7a7231582027523b64749672f849552d276c5d37b10a95f595e8c2647bb5e36bc2eb8900f064736f6c63430005110032",
  "linkReferences": {},
  "deployedLinkReferences": {}
}