{
  "abi": [
    {
      "inputs": [
        {
          "internalType": "uint256",
          "name": "baseRatePerYear",
          "type": "uint256"
        },
        {
          "internalType": "uint256",
          "name": "multiplierPerYear",
          "type": "uint256"
        },
        {
          "internalType": "uint256",
          "name": "jumpMultiplierPerYear",
          "type": "uint256"
        },
        {
          "internalType": "uint256",
          "name": "kink_",
          "type": "uint256"
        }
      ],
      "stateMutability": "nonpayable",
      "type": "constructor"
    },
    {
      "anonymous": false,
      "inputs": [
        {
          "indexed": false,
          "internalType": "uint256",
          "name": "baseRatePerTimestamp",
          "type": "uint256"
        },
        {
          "indexed": false,
          "internalType": "uint256",
          "name": "multiplierPerTimestamp",
          "type": "uint256"
        },
        {
          "indexed": false,
          "internalType": "uint256",
          "name": "jumpMultiplierPerTimestamp",
          "type": "uint256"
        },
        {
          "indexed": false,
          "internalType": "uint256",
          "name": "kink",
          "type": "uint256"
        }
      ],
      "name": "NewInterestParams",
      "type": "event"
    },
    {
      "inputs": [],
      "name": "baseRatePerTimestamp",
      "outputs": [
        {
          "internalType": "uint256",
          "name": "",
          "type": "uint256"
        }
      ],
      "stateMutability": "view",
      "type": "function"
    },
    {
      "inputs": [
        {
          "internalType": "uint256",
          "name": "cash",
          "type": "uint256"
        },
        {
          "internalType": "uint256",
          "name": "borrows",
          "type": "uint256"
        },
        {
          "internalType": "uint256",
          "name": "reserves",
          "type": "uint256"
        }
      ],
      "name": "getBorrowRate",
      "outputs": [
        {
          "internalType": "uint256",
          "name": "",
          "type": "uint256"
        }
      ],
      "stateMutability": "view",
      "type": "function"
    },
    {
      "inputs": [
        {
          "internalType": "uint256",
          "name": "cash",
          "type": "uint256"
        },
        {
          "internalType": "uint256",
          "name": "borrows",
          "type": "uint256"
        },
        {
          "internalType": "uint256",
          "name": "reserves",
          "type": "uint256"
        },
        {
          "internalType": "uint256",
          "name": "reserveFactorMantissa",
          "type": "uint256"
        }
      ],
      "name": "getSupplyRate",
      "outputs": [
        {
          "internalType": "uint256",
          "name": "",
          "type": "uint256"
        }
      ],
      "stateMutability": "view",
      "type": "function"
    },
    {
      "inputs": [],
      "name": "isInterestRateModel",
      "outputs": [
        {
          "internalType": "bool",
          "name": "",
          "type": "bool"
        }
      ],
      "stateMutability": "view",
      "type": "function"
    },
    {
      "inputs": [],
      "name": "jumpMultiplierPerTimestamp",
      "outputs": [
        {
          "internalType": "uint256",
          "name": "",
          "type": "uint256"
        }
      ],
      "stateMutability": "view",
      "type": "function"
    },
    {
      "inputs": [],
      "name": "kink",
      "outputs": [
        {
          "internalType": "uint256",
          "name": "",
          "type": "uint256"
        }
      ],
      "stateMutability": "view",
      "type": "function"
    },
    {
      "inputs": [],
      "name": "multiplierPerTimestamp",
      "outputs": [
        {
          "internalType": "uint256",
          "name": "",
          "type": "uint256"
        }
      ],
      "stateMutability": "view",
      "type": "function"
    },
    {
      "inputs": [],
      "name": "timestampsPerYear",
      "outputs": [
        {
          "internalType": "uint256",
          "name": "",
          "type": "uint256"
        }
      ],
      "stateMutability": "view",
      "type": "function"
    },
    {
      "inputs": [
        {
          "internalType": "uint256",
          "name": "cash",
          "type": "uint256"
        },
        {
          "internalType": "uint256",
          "name": "borrows",
          "type": "uint256"
        },
        {
          "internalType": "uint256",
          "name": "reserves",
          "type": "uint256"
        }
      ],
      "name": "utilizationRate",
      "outputs": [
        {
          "internalType": "uint256",
          "name": "",
          "type": "uint256"
        }
      ],
      "stateMutability": "pure",
      "type": "function"
    }
  ],
  "bytecode": {
    "object": "0x608060405234801561001057600080fd5b506040516108ec3803806108ec83398101604081905261002f91610239565b610074670de0b6b3a76400006100626301e13380610062670de0b6b3a76400008961012a60201b6102a71790919060201c565b6101ba60201b6103371790919060201c565b60015561009e670de0b6b3a76400006100626301e1338081878461012a602090811b6102a717901c565b6000556100c8670de0b6b3a76400006100626301e1338081868461012a602090811b6102a717901c565b60028190556003829055600154600054604080519283526020830191909152810191909152606081018290527f6960ab234c7ef4b0c9197100f5393cfcde7c453ac910a27bd2000aa1dd4c068d9060800160405180910390a150505050610304565b60008260000361013c575060006101b4565b6000610148838561026f565b9050826101558583610294565b146101b15760405162461bcd60e51b815260206004820152602160248201527f536166654d6174683a206d756c7469706c69636174696f6e206f766572666c6f6044820152607760f81b60648201526084015b60405180910390fd5b90505b92915050565b60006101b183836040518060400160405280601a81526020017f536166654d6174683a206469766973696f6e206279207a65726f00000000000081525061020260201b60201c565b600081836102235760405162461bcd60e51b81526004016101a891906102b6565b5060006102308486610294565b95945050505050565b6000806000806080858703121561024f57600080fd5b505082516020840151604085015160609095015191969095509092509050565b80820281158282048414176101b457634e487b7160e01b600052601160045260246000fd5b6000826102b157634e487b7160e01b600052601260045260246000fd5b500490565b600060208083528351808285015260005b818110156102e3578581018301518582016040015282016102c7565b506000604082860101526040601f19601f8301168501019250505092915050565b6105d9806103136000396000f3fe608060405234801561001057600080fd5b50600436106100935760003560e01c806340bc0af41161006657806340bc0af4146100ea5780636c2df6a7146100f35780636e71e2d8146100fc578063b81688161461010f578063fd2da3391461012257600080fd5b80630c5748611461009857806315f24053146100b65780632191f92a146100c957806326c394f7146100e1575b600080fd5b6100a36301e1338081565b6040519081526020015b60405180910390f35b6100a36100c4366004610482565b61012b565b6100d1600181565b60405190151581526020016100ad565b6100a360025481565b6100a360015481565b6100a360005481565b6100a361010a366004610482565b6101f7565b6100a361011d3660046104ae565b61023a565b6100a360035481565b6000806101398585856101f7565b9050600354811161017f57610177600154610171670de0b6b3a764000061016b600054866102a790919063ffffffff16565b90610337565b90610379565b9150506101f0565b60006101aa600154610171670de0b6b3a764000061016b6000546003546102a790919063ffffffff16565b905060006101c3600354846103d890919063ffffffff16565b90506101ea82610171670de0b6b3a764000061016b600254866102a790919063ffffffff16565b93505050505b9392505050565b600082600003610209575060006101f0565b6102326102208361021a8787610379565b906103d8565b61016b85670de0b6b3a76400006102a7565b949350505050565b60008061024f670de0b6b3a7640000846103d8565b9050600061025e87878761012b565b90506000610278670de0b6b3a764000061016b84866102a7565b905061029b670de0b6b3a764000061016b836102958c8c8c6101f7565b906102a7565b98975050505050505050565b6000826000036102b957506000610331565b60006102c583856104f6565b9050826102d2858361050d565b1461032e5760405162461bcd60e51b815260206004820152602160248201527f536166654d6174683a206d756c7469706c69636174696f6e206f766572666c6f6044820152607760f81b60648201526084015b60405180910390fd5b90505b92915050565b600061032e83836040518060400160405280601a81526020017f536166654d6174683a206469766973696f6e206279207a65726f00000000000081525061041a565b600080610386838561052f565b90508381101561032e5760405162461bcd60e51b815260206004820152601b60248201527f536166654d6174683a206164646974696f6e206f766572666c6f7700000000006044820152606401610325565b600061032e83836040518060400160405280601f81526020017f536166654d6174683a207375627472616374696f6e20756e646572666c6f7700815250610451565b6000818361043b5760405162461bcd60e51b81526004016103259190610542565b506000610448848661050d565b95945050505050565b600081848411156104755760405162461bcd60e51b81526004016103259190610542565b5060006104488486610590565b60008060006060848603121561049757600080fd5b505081359360208301359350604090920135919050565b600080600080608085870312156104c457600080fd5b5050823594602084013594506040840135936060013592509050565b634e487b7160e01b600052601160045260246000fd5b8082028115828204841417610331576103316104e0565b60008261052a57634e487b7160e01b600052601260045260246000fd5b500490565b80820180821115610331576103316104e0565b600060208083528351808285015260005b8181101561056f57858101830151858201604001528201610553565b506000604082860101526040601f19601f8301168501019250505092915050565b81810381811115610331576103316104e056fea264697066735822122054000e6b25264c9d4fce0a9b47ddfb9fa652512e81a56a4528be9422ec14675464736f6c63430008110033",
    "linkReferences": {}
  },
  "methodIdentifiers": {
    "baseRatePerTimestamp()": "40bc0af4",
    "getBorrowRate(uint256,uint256,uint256)": "15f24053",
    "getSupplyRate(uint256,uint256,uint256,uint256)": "b8168816",
    "isInterestRateModel()": "2191f92a",
    "jumpMultiplierPerTimestamp()": "26c394f7",
    "kink()": "fd2da339",
    "multiplierPerTimestamp()": "6c2df6a7",
    "timestampsPerYear()": "0c574861",
    "utilizationRate(uint256,uint256,uint256)": "6e71e2d8"
  },
  "id": 84
}