{
  "_format": "hh-sol-artifact-1",
  "contractName": "Maximillion",
  "sourceName": "moonwell-contracts-private/contracts/core/Maximillion.sol",
  "abi": [
    {
      "inputs": [
        {
          "internalType": "contract MGlimmer",
          "name": "mGlimmer_",
          "type": "address"
        }
      ],
      "payable": false,
      "stateMutability": "nonpayable",
      "type": "constructor"
    },
    {
      "constant": true,
      "inputs": [],
      "name": "mGlimmer",
      "outputs": [
        {
          "internalType": "contract MGlimmer",
          "name": "",
          "type": "address"
        }
      ],
      "payable": false,
      "stateMutability": "view",
      "type": "function"
    },
    {
      "constant": false,
      "inputs": [
        {
          "internalType": "address",
          "name": "borrower",
          "type": "address"
        }
      ],
      "name": "repayBehalf",
      "outputs": [],
      "payable": true,
      "stateMutability": "payable",
      "type": "function"
    },
    {
      "constant": false,
      "inputs": [
        {
          "internalType": "address",
          "name": "borrower",
          "type": "address"
        },
        {
          "internalType": "contract MGlimmer",
          "name": "mGlimmer_",
          "type": "address"
        }
      ],
      "name": "repayBehalfExplicit",
      "outputs": [],
      "payable": true,
      "stateMutability": "payable",
      "type": "function"
    }
  ],
  "bytecode": "0x608060405234801561001057600080fd5b506040516103363803806103368339818101604052602081101561003357600080fd5b5051600080546001600160a01b039092166001600160a01b03199092169190911790556102d1806100656000396000f3fe6080604052600436106100345760003560e01c8063367b7f051461003957806365898051146100695780639f35c3d51461009a575b600080fd5b6100676004803603604081101561004f57600080fd5b506001600160a01b03813581169160200135166100c0565b005b34801561007557600080fd5b5061007e610273565b604080516001600160a01b039092168252519081900360200190f35b610067600480360360208110156100b057600080fd5b50356001600160a01b0316610282565b60003490506000826001600160a01b03166317bfdfbc856040518263ffffffff1660e01b815260040180826001600160a01b03166001600160a01b03168152602001915050602060405180830381600087803b15801561011f57600080fd5b505af1158015610133573d6000803e3d6000fd5b505050506040513d602081101561014957600080fd5b50519050808211156101fb57826001600160a01b031663e597461982866040518363ffffffff1660e01b815260040180826001600160a01b03166001600160a01b031681526020019150506000604051808303818588803b1580156101ad57600080fd5b505af11580156101c1573d6000803e3d6000fd5b505060405133935084860380156108fc02935091506000818181858888f193505050501580156101f5573d6000803e3d6000fd5b5061026d565b826001600160a01b031663e597461983866040518363ffffffff1660e01b815260040180826001600160a01b03166001600160a01b031681526020019150506000604051808303818588803b15801561025357600080fd5b505af1158015610267573d6000803e3d6000fd5b50505050505b50505050565b6000546001600160a01b031681565b6000546102999082906001600160a01b03166100c0565b5056fea265627a7a72315820d89d9e42b8221578565ac6ba59136c4f085f4691c106933f1ed674f61500317264736f6c63430005110032",
  "linkReferences": {},
  "deployedLinkReferences": {}
}