{
  "abi": [
    {
      "inputs": [
        {
          "internalType": "address",
          "name": "underlying_",
          "type": "address"
        },
        {
          "internalType": "contract ComptrollerInterface",
          "name": "comptroller_",
          "type": "address"
        },
        {
          "internalType": "contract InterestRateModel",
          "name": "interestRateModel_",
          "type": "address"
        },
        {
          "internalType": "uint256",
          "name": "initialExchangeRateMantissa_",
          "type": "uint256"
        },
        {
          "internalType": "string",
          "name": "name_",
          "type": "string"
        },
        {
          "internalType": "string",
          "name": "symbol_",
          "type": "string"
        },
        {
          "internalType": "uint8",
          "name": "decimals_",
          "type": "uint8"
        },
        {
          "internalType": "address payable",
          "name": "admin_",
          "type": "address"
        },
        {
          "internalType": "address",
          "name": "implementation_",
          "type": "address"
        },
        {
          "internalType": "bytes",
          "name": "becomeImplementationData",
          "type": "bytes"
        }
      ],
      "stateMutability": "nonpayable",
      "type": "constructor"
    },
    {
      "anonymous": false,
      "inputs": [
        {
          "indexed": false,
          "internalType": "uint256",
          "name": "cashPrior",
          "type": "uint256"
        },
        {
          "indexed": false,
          "internalType": "uint256",
          "name": "interestAccumulated",
          "type": "uint256"
        },
        {
          "indexed": false,
          "internalType": "uint256",
          "name": "borrowIndex",
          "type": "uint256"
        },
        {
          "indexed": false,
          "internalType": "uint256",
          "name": "totalBorrows",
          "type": "uint256"
        }
      ],
      "name": "AccrueInterest",
      "type": "event"
    },
    {
      "anonymous": false,
      "inputs": [
        {
          "indexed": true,
          "internalType": "address",
          "name": "owner",
          "type": "address"
        },
        {
          "indexed": true,
          "internalType": "address",
          "name": "spender",
          "type": "address"
        },
        {
          "indexed": false,
          "internalType": "uint256",
          "name": "amount",
          "type": "uint256"
        }
      ],
      "name": "Approval",
      "type": "event"
    },
    {
      "anonymous": false,
      "inputs": [
        {
          "indexed": false,
          "internalType": "address",
          "name": "borrower",
          "type": "address"
        },
        {
          "indexed": false,
          "internalType": "uint256",
          "name": "borrowAmount",
          "type": "uint256"
        },
        {
          "indexed": false,
          "internalType": "uint256",
          "name": "accountBorrows",
          "type": "uint256"
        },
        {
          "indexed": false,
          "internalType": "uint256",
          "name": "totalBorrows",
          "type": "uint256"
        }
      ],
      "name": "Borrow",
      "type": "event"
    },
    {
      "anonymous": false,
      "inputs": [
        {
          "indexed": false,
          "internalType": "address",
          "name": "liquidator",
          "type": "address"
        },
        {
          "indexed": false,
          "internalType": "address",
          "name": "borrower",
          "type": "address"
        },
        {
          "indexed": false,
          "internalType": "uint256",
          "name": "repayAmount",
          "type": "uint256"
        },
        {
          "indexed": false,
          "internalType": "address",
          "name": "mTokenCollateral",
          "type": "address"
        },
        {
          "indexed": false,
          "internalType": "uint256",
          "name": "seizeTokens",
          "type": "uint256"
        }
      ],
      "name": "LiquidateBorrow",
      "type": "event"
    },
    {
      "anonymous": false,
      "inputs": [
        {
          "indexed": false,
          "internalType": "address",
          "name": "minter",
          "type": "address"
        },
        {
          "indexed": false,
          "internalType": "uint256",
          "name": "mintAmount",
          "type": "uint256"
        },
        {
          "indexed": false,
          "internalType": "uint256",
          "name": "mintTokens",
          "type": "uint256"
        }
      ],
      "name": "Mint",
      "type": "event"
    },
    {
      "anonymous": false,
      "inputs": [
        {
          "indexed": false,
          "internalType": "address",
          "name": "oldAdmin",
          "type": "address"
        },
        {
          "indexed": false,
          "internalType": "address",
          "name": "newAdmin",
          "type": "address"
        }
      ],
      "name": "NewAdmin",
      "type": "event"
    },
    {
      "anonymous": false,
      "inputs": [
        {
          "indexed": false,
          "internalType": "contract ComptrollerInterface",
          "name": "oldComptroller",
          "type": "address"
        },
        {
          "indexed": false,
          "internalType": "contract ComptrollerInterface",
          "name": "newComptroller",
          "type": "address"
        }
      ],
      "name": "NewComptroller",
      "type": "event"
    },
    {
      "anonymous": false,
      "inputs": [
        {
          "indexed": false,
          "internalType": "address",
          "name": "oldImplementation",
          "type": "address"
        },
        {
          "indexed": false,
          "internalType": "address",
          "name": "newImplementation",
          "type": "address"
        }
      ],
      "name": "NewImplementation",
      "type": "event"
    },
    {
      "anonymous": false,
      "inputs": [
        {
          "indexed": false,
          "internalType": "contract InterestRateModel",
          "name": "oldInterestRateModel",
          "type": "address"
        },
        {
          "indexed": false,
          "internalType": "contract InterestRateModel",
          "name": "newInterestRateModel",
          "type": "address"
        }
      ],
      "name": "NewMarketInterestRateModel",
      "type": "event"
    },
    {
      "anonymous": false,
      "inputs": [
        {
          "indexed": false,
          "internalType": "address",
          "name": "oldPendingAdmin",
          "type": "address"
        },
        {
          "indexed": false,
          "internalType": "address",
          "name": "newPendingAdmin",
          "type": "address"
        }
      ],
      "name": "NewPendingAdmin",
      "type": "event"
    },
    {
      "anonymous": false,
      "inputs": [
        {
          "indexed": false,
          "internalType": "uint256",
          "name": "oldProtocolSeizeShareMantissa",
          "type": "uint256"
        },
        {
          "indexed": false,
          "internalType": "uint256",
          "name": "newProtocolSeizeShareMantissa",
          "type": "uint256"
        }
      ],
      "name": "NewProtocolSeizeShare",
      "type": "event"
    },
    {
      "anonymous": false,
      "inputs": [
        {
          "indexed": false,
          "internalType": "uint256",
          "name": "oldReserveFactorMantissa",
          "type": "uint256"
        },
        {
          "indexed": false,
          "internalType": "uint256",
          "name": "newReserveFactorMantissa",
          "type": "uint256"
        }
      ],
      "name": "NewReserveFactor",
      "type": "event"
    },
    {
      "anonymous": false,
      "inputs": [
        {
          "indexed": false,
          "internalType": "address",
          "name": "redeemer",
          "type": "address"
        },
        {
          "indexed": false,
          "internalType": "uint256",
          "name": "redeemAmount",
          "type": "uint256"
        },
        {
          "indexed": false,
          "internalType": "uint256",
          "name": "redeemTokens",
          "type": "uint256"
        }
      ],
      "name": "Redeem",
      "type": "event"
    },
    {
      "anonymous": false,
      "inputs": [
        {
          "indexed": false,
          "internalType": "address",
          "name": "payer",
          "type": "address"
        },
        {
          "indexed": false,
          "internalType": "address",
          "name": "borrower",
          "type": "address"
        },
        {
          "indexed": false,
          "internalType": "uint256",
          "name": "repayAmount",
          "type": "uint256"
        },
        {
          "indexed": false,
          "internalType": "uint256",
          "name": "accountBorrows",
          "type": "uint256"
        },
        {
          "indexed": false,
          "internalType": "uint256",
          "name": "totalBorrows",
          "type": "uint256"
        }
      ],
      "name": "RepayBorrow",
      "type": "event"
    },
    {
      "anonymous": false,
      "inputs": [
        {
          "indexed": false,
          "internalType": "address",
          "name": "benefactor",
          "type": "address"
        },
        {
          "indexed": false,
          "internalType": "uint256",
          "name": "addAmount",
          "type": "uint256"
        },
        {
          "indexed": false,
          "internalType": "uint256",
          "name": "newTotalReserves",
          "type": "uint256"
        }
      ],
      "name": "ReservesAdded",
      "type": "event"
    },
    {
      "anonymous": false,
      "inputs": [
        {
          "indexed": false,
          "internalType": "address",
          "name": "admin",
          "type": "address"
        },
        {
          "indexed": false,
          "internalType": "uint256",
          "name": "reduceAmount",
          "type": "uint256"
        },
        {
          "indexed": false,
          "internalType": "uint256",
          "name": "newTotalReserves",
          "type": "uint256"
        }
      ],
      "name": "ReservesReduced",
      "type": "event"
    },
    {
      "anonymous": false,
      "inputs": [
        {
          "indexed": true,
          "internalType": "address",
          "name": "from",
          "type": "address"
        },
        {
          "indexed": true,
          "internalType": "address",
          "name": "to",
          "type": "address"
        },
        {
          "indexed": false,
          "internalType": "uint256",
          "name": "amount",
          "type": "uint256"
        }
      ],
      "name": "Transfer",
      "type": "event"
    },
    {
      "stateMutability": "payable",
      "type": "fallback"
    },
    {
      "inputs": [],
      "name": "_acceptAdmin",
      "outputs": [
        {
          "internalType": "uint256",
          "name": "",
          "type": "uint256"
        }
      ],
      "stateMutability": "nonpayable",
      "type": "function"
    },
    {
      "inputs": [
        {
          "internalType": "uint256",
          "name": "addAmount",
          "type": "uint256"
        }
      ],
      "name": "_addReserves",
      "outputs": [
        {
          "internalType": "uint256",
          "name": "",
          "type": "uint256"
        }
      ],
      "stateMutability": "nonpayable",
      "type": "function"
    },
    {
      "inputs": [
        {
          "internalType": "uint256",
          "name": "reduceAmount",
          "type": "uint256"
        }
      ],
      "name": "_reduceReserves",
      "outputs": [
        {
          "internalType": "uint256",
          "name": "",
          "type": "uint256"
        }
      ],
      "stateMutability": "nonpayable",
      "type": "function"
    },
    {
      "inputs": [
        {
          "internalType": "contract ComptrollerInterface",
          "name": "newComptroller",
          "type": "address"
        }
      ],
      "name": "_setComptroller",
      "outputs": [
        {
          "internalType": "uint256",
          "name": "",
          "type": "uint256"
        }
      ],
      "stateMutability": "nonpayable",
      "type": "function"
    },
    {
      "inputs": [
        {
          "internalType": "address",
          "name": "implementation_",
          "type": "address"
        },
        {
          "internalType": "bool",
          "name": "allowResign",
          "type": "bool"
        },
        {
          "internalType": "bytes",
          "name": "becomeImplementationData",
          "type": "bytes"
        }
      ],
      "name": "_setImplementation",
      "outputs": [],
      "stateMutability": "nonpayable",
      "type": "function"
    },
    {
      "inputs": [
        {
          "internalType": "contract InterestRateModel",
          "name": "newInterestRateModel",
          "type": "address"
        }
      ],
      "name": "_setInterestRateModel",
      "outputs": [
        {
          "internalType": "uint256",
          "name": "",
          "type": "uint256"
        }
      ],
      "stateMutability": "nonpayable",
      "type": "function"
    },
    {
      "inputs": [
        {
          "internalType": "address payable",
          "name": "newPendingAdmin",
          "type": "address"
        }
      ],
      "name": "_setPendingAdmin",
      "outputs": [
        {
          "internalType": "uint256",
          "name": "",
          "type": "uint256"
        }
      ],
      "stateMutability": "nonpayable",
      "type": "function"
    },
    {
      "inputs": [
        {
          "internalType": "uint256",
          "name": "newProtocolSeizeShareMantissa",
          "type": "uint256"
        }
      ],
      "name": "_setProtocolSeizeShare",
      "outputs": [
        {
          "internalType": "uint256",
          "name": "",
          "type": "uint256"
        }
      ],
      "stateMutability": "nonpayable",
      "type": "function"
    },
    {
      "inputs": [
        {
          "internalType": "uint256",
          "name": "newReserveFactorMantissa",
          "type": "uint256"
        }
      ],
      "name": "_setReserveFactor",
      "outputs": [
        {
          "internalType": "uint256",
          "name": "",
          "type": "uint256"
        }
      ],
      "stateMutability": "nonpayable",
      "type": "function"
    },
    {
      "inputs": [],
      "name": "accrualBlockTimestamp",
      "outputs": [
        {
          "internalType": "uint256",
          "name": "",
          "type": "uint256"
        }
      ],
      "stateMutability": "view",
      "type": "function"
    },
    {
      "inputs": [],
      "name": "accrueInterest",
      "outputs": [
        {
          "internalType": "uint256",
          "name": "",
          "type": "uint256"
        }
      ],
      "stateMutability": "nonpayable",
      "type": "function"
    },
    {
      "inputs": [],
      "name": "admin",
      "outputs": [
        {
          "internalType": "address payable",
          "name": "",
          "type": "address"
        }
      ],
      "stateMutability": "view",
      "type": "function"
    },
    {
      "inputs": [
        {
          "internalType": "address",
          "name": "owner",
          "type": "address"
        },
        {
          "internalType": "address",
          "name": "spender",
          "type": "address"
        }
      ],
      "name": "allowance",
      "outputs": [
        {
          "internalType": "uint256",
          "name": "",
          "type": "uint256"
        }
      ],
      "stateMutability": "view",
      "type": "function"
    },
    {
      "inputs": [
        {
          "internalType": "address",
          "name": "spender",
          "type": "address"
        },
        {
          "internalType": "uint256",
          "name": "amount",
          "type": "uint256"
        }
      ],
      "name": "approve",
      "outputs": [
        {
          "internalType": "bool",
          "name": "",
          "type": "bool"
        }
      ],
      "stateMutability": "nonpayable",
      "type": "function"
    },
    {
      "inputs": [
        {
          "internalType": "address",
          "name": "owner",
          "type": "address"
        }
      ],
      "name": "balanceOf",
      "outputs": [
        {
          "internalType": "uint256",
          "name": "",
          "type": "uint256"
        }
      ],
      "stateMutability": "view",
      "type": "function"
    },
    {
      "inputs": [
        {
          "internalType": "address",
          "name": "owner",
          "type": "address"
        }
      ],
      "name": "balanceOfUnderlying",
      "outputs": [
        {
          "internalType": "uint256",
          "name": "",
          "type": "uint256"
        }
      ],
      "stateMutability": "nonpayable",
      "type": "function"
    },
    {
      "inputs": [
        {
          "internalType": "uint256",
          "name": "borrowAmount",
          "type": "uint256"
        }
      ],
      "name": "borrow",
      "outputs": [
        {
          "internalType": "uint256",
          "name": "",
          "type": "uint256"
        }
      ],
      "stateMutability": "nonpayable",
      "type": "function"
    },
    {
      "inputs": [
        {
          "internalType": "address",
          "name": "account",
          "type": "address"
        }
      ],
      "name": "borrowBalanceCurrent",
      "outputs": [
        {
          "internalType": "uint256",
          "name": "",
          "type": "uint256"
        }
      ],
      "stateMutability": "nonpayable",
      "type": "function"
    },
    {
      "inputs": [
        {
          "internalType": "address",
          "name": "account",
          "type": "address"
        }
      ],
      "name": "borrowBalanceStored",
      "outputs": [
        {
          "internalType": "uint256",
          "name": "",
          "type": "uint256"
        }
      ],
      "stateMutability": "view",
      "type": "function"
    },
    {
      "inputs": [],
      "name": "borrowIndex",
      "outputs": [
        {
          "internalType": "uint256",
          "name": "",
          "type": "uint256"
        }
      ],
      "stateMutability": "view",
      "type": "function"
    },
    {
      "inputs": [],
      "name": "borrowRatePerTimestamp",
      "outputs": [
        {
          "internalType": "uint256",
          "name": "",
          "type": "uint256"
        }
      ],
      "stateMutability": "view",
      "type": "function"
    },
    {
      "inputs": [],
      "name": "comptroller",
      "outputs": [
        {
          "internalType": "contract ComptrollerInterface",
          "name": "",
          "type": "address"
        }
      ],
      "stateMutability": "view",
      "type": "function"
    },
    {
      "inputs": [],
      "name": "decimals",
      "outputs": [
        {
          "internalType": "uint8",
          "name": "",
          "type": "uint8"
        }
      ],
      "stateMutability": "view",
      "type": "function"
    },
    {
      "inputs": [
        {
          "internalType": "bytes",
          "name": "data",
          "type": "bytes"
        }
      ],
      "name": "delegateToImplementation",
      "outputs": [
        {
          "internalType": "bytes",
          "name": "",
          "type": "bytes"
        }
      ],
      "stateMutability": "nonpayable",
      "type": "function"
    },
    {
      "inputs": [
        {
          "internalType": "bytes",
          "name": "data",
          "type": "bytes"
        }
      ],
      "name": "delegateToViewImplementation",
      "outputs": [
        {
          "internalType": "bytes",
          "name": "",
          "type": "bytes"
        }
      ],
      "stateMutability": "view",
      "type": "function"
    },
    {
      "inputs": [],
      "name": "exchangeRateCurrent",
      "outputs": [
        {
          "internalType": "uint256",
          "name": "",
          "type": "uint256"
        }
      ],
      "stateMutability": "nonpayable",
      "type": "function"
    },
    {
      "inputs": [],
      "name": "exchangeRateStored",
      "outputs": [
        {
          "internalType": "uint256",
          "name": "",
          "type": "uint256"
        }
      ],
      "stateMutability": "view",
      "type": "function"
    },
    {
      "inputs": [
        {
          "internalType": "address",
          "name": "account",
          "type": "address"
        }
      ],
      "name": "getAccountSnapshot",
      "outputs": [
        {
          "internalType": "uint256",
          "name": "",
          "type": "uint256"
        },
        {
          "internalType": "uint256",
          "name": "",
          "type": "uint256"
        },
        {
          "internalType": "uint256",
          "name": "",
          "type": "uint256"
        },
        {
          "internalType": "uint256",
          "name": "",
          "type": "uint256"
        }
      ],
      "stateMutability": "view",
      "type": "function"
    },
    {
      "inputs": [],
      "name": "getCash",
      "outputs": [
        {
          "internalType": "uint256",
          "name": "",
          "type": "uint256"
        }
      ],
      "stateMutability": "view",
      "type": "function"
    },
    {
      "inputs": [],
      "name": "implementation",
      "outputs": [
        {
          "internalType": "address",
          "name": "",
          "type": "address"
        }
      ],
      "stateMutability": "view",
      "type": "function"
    },
    {
      "inputs": [],
      "name": "interestRateModel",
      "outputs": [
        {
          "internalType": "contract InterestRateModel",
          "name": "",
          "type": "address"
        }
      ],
      "stateMutability": "view",
      "type": "function"
    },
    {
      "inputs": [],
      "name": "isMToken",
      "outputs": [
        {
          "internalType": "bool",
          "name": "",
          "type": "bool"
        }
      ],
      "stateMutability": "view",
      "type": "function"
    },
    {
      "inputs": [
        {
          "internalType": "address",
          "name": "borrower",
          "type": "address"
        },
        {
          "internalType": "uint256",
          "name": "repayAmount",
          "type": "uint256"
        },
        {
          "internalType": "contract MTokenInterface",
          "name": "mTokenCollateral",
          "type": "address"
        }
      ],
      "name": "liquidateBorrow",
      "outputs": [
        {
          "internalType": "uint256",
          "name": "",
          "type": "uint256"
        }
      ],
      "stateMutability": "nonpayable",
      "type": "function"
    },
    {
      "inputs": [
        {
          "internalType": "uint256",
          "name": "mintAmount",
          "type": "uint256"
        }
      ],
      "name": "mint",
      "outputs": [
        {
          "internalType": "uint256",
          "name": "",
          "type": "uint256"
        }
      ],
      "stateMutability": "nonpayable",
      "type": "function"
    },
    {
      "inputs": [
        {
          "internalType": "uint256",
          "name": "mintAmount",
          "type": "uint256"
        },
        {
          "internalType": "uint256",
          "name": "deadline",
          "type": "uint256"
        },
        {
          "internalType": "uint8",
          "name": "v",
          "type": "uint8"
        },
        {
          "internalType": "bytes32",
          "name": "r",
          "type": "bytes32"
        },
        {
          "internalType": "bytes32",
          "name": "s",
          "type": "bytes32"
        }
      ],
      "name": "mintWithPermit",
      "outputs": [
        {
          "internalType": "uint256",
          "name": "",
          "type": "uint256"
        }
      ],
      "stateMutability": "nonpayable",
      "type": "function"
    },
    {
      "inputs": [],
      "name": "name",
      "outputs": [
        {
          "internalType": "string",
          "name": "",
          "type": "string"
        }
      ],
      "stateMutability": "view",
      "type": "function"
    },
    {
      "inputs": [],
      "name": "pendingAdmin",
      "outputs": [
        {
          "internalType": "address payable",
          "name": "",
          "type": "address"
        }
      ],
      "stateMutability": "view",
      "type": "function"
    },
    {
      "inputs": [],
      "name": "protocolSeizeShareMantissa",
      "outputs": [
        {
          "internalType": "uint256",
          "name": "",
          "type": "uint256"
        }
      ],
      "stateMutability": "view",
      "type": "function"
    },
    {
      "inputs": [
        {
          "internalType": "uint256",
          "name": "redeemTokens",
          "type": "uint256"
        }
      ],
      "name": "redeem",
      "outputs": [
        {
          "internalType": "uint256",
          "name": "",
          "type": "uint256"
        }
      ],
      "stateMutability": "nonpayable",
      "type": "function"
    },
    {
      "inputs": [
        {
          "internalType": "uint256",
          "name": "redeemAmount",
          "type": "uint256"
        }
      ],
      "name": "redeemUnderlying",
      "outputs": [
        {
          "internalType": "uint256",
          "name": "",
          "type": "uint256"
        }
      ],
      "stateMutability": "nonpayable",
      "type": "function"
    },
    {
      "inputs": [
        {
          "internalType": "uint256",
          "name": "repayAmount",
          "type": "uint256"
        }
      ],
      "name": "repayBorrow",
      "outputs": [
        {
          "internalType": "uint256",
          "name": "",
          "type": "uint256"
        }
      ],
      "stateMutability": "nonpayable",
      "type": "function"
    },
    {
      "inputs": [
        {
          "internalType": "address",
          "name": "borrower",
          "type": "address"
        },
        {
          "internalType": "uint256",
          "name": "repayAmount",
          "type": "uint256"
        }
      ],
      "name": "repayBorrowBehalf",
      "outputs": [
        {
          "internalType": "uint256",
          "name": "",
          "type": "uint256"
        }
      ],
      "stateMutability": "nonpayable",
      "type": "function"
    },
    {
      "inputs": [],
      "name": "reserveFactorMantissa",
      "outputs": [
        {
          "internalType": "uint256",
          "name": "",
          "type": "uint256"
        }
      ],
      "stateMutability": "view",
      "type": "function"
    },
    {
      "inputs": [
        {
          "internalType": "address",
          "name": "liquidator",
          "type": "address"
        },
        {
          "internalType": "address",
          "name": "borrower",
          "type": "address"
        },
        {
          "internalType": "uint256",
          "name": "seizeTokens",
          "type": "uint256"
        }
      ],
      "name": "seize",
      "outputs": [
        {
          "internalType": "uint256",
          "name": "",
          "type": "uint256"
        }
      ],
      "stateMutability": "nonpayable",
      "type": "function"
    },
    {
      "inputs": [],
      "name": "supplyRatePerTimestamp",
      "outputs": [
        {
          "internalType": "uint256",
          "name": "",
          "type": "uint256"
        }
      ],
      "stateMutability": "view",
      "type": "function"
    },
    {
      "inputs": [
        {
          "internalType": "contract EIP20NonStandardInterface",
          "name": "token",
          "type": "address"
        }
      ],
      "name": "sweepToken",
      "outputs": [],
      "stateMutability": "nonpayable",
      "type": "function"
    },
    {
      "inputs": [],
      "name": "symbol",
      "outputs": [
        {
          "internalType": "string",
          "name": "",
          "type": "string"
        }
      ],
      "stateMutability": "view",
      "type": "function"
    },
    {
      "inputs": [],
      "name": "totalBorrows",
      "outputs": [
        {
          "internalType": "uint256",
          "name": "",
          "type": "uint256"
        }
      ],
      "stateMutability": "view",
      "type": "function"
    },
    {
      "inputs": [],
      "name": "totalBorrowsCurrent",
      "outputs": [
        {
          "internalType": "uint256",
          "name": "",
          "type": "uint256"
        }
      ],
      "stateMutability": "nonpayable",
      "type": "function"
    },
    {
      "inputs": [],
      "name": "totalReserves",
      "outputs": [
        {
          "internalType": "uint256",
          "name": "",
          "type": "uint256"
        }
      ],
      "stateMutability": "view",
      "type": "function"
    },
    {
      "inputs": [],
      "name": "totalSupply",
      "outputs": [
        {
          "internalType": "uint256",
          "name": "",
          "type": "uint256"
        }
      ],
      "stateMutability": "view",
      "type": "function"
    },
    {
      "inputs": [
        {
          "internalType": "address",
          "name": "dst",
          "type": "address"
        },
        {
          "internalType": "uint256",
          "name": "amount",
          "type": "uint256"
        }
      ],
      "name": "transfer",
      "outputs": [
        {
          "internalType": "bool",
          "name": "",
          "type": "bool"
        }
      ],
      "stateMutability": "nonpayable",
      "type": "function"
    },
    {
      "inputs": [
        {
          "internalType": "address",
          "name": "src",
          "type": "address"
        },
        {
          "internalType": "address",
          "name": "dst",
          "type": "address"
        },
        {
          "internalType": "uint256",
          "name": "amount",
          "type": "uint256"
        }
      ],
      "name": "transferFrom",
      "outputs": [
        {
          "internalType": "bool",
          "name": "",
          "type": "bool"
        }
      ],
      "stateMutability": "nonpayable",
      "type": "function"
    },
    {
      "inputs": [],
      "name": "underlying",
      "outputs": [
        {
          "internalType": "address",
          "name": "",
          "type": "address"
        }
      ],
      "stateMutability": "view",
      "type": "function"
    }
  ],
  "bytecode": {
    "object": "0x60806040523480156200001157600080fd5b50604051620023713803806200237183398101604081905262000034916200040a565b60038054610100600160a81b0319163361010002179055604051620000a590839062000071908d908d908d908d908d908d908d9060240162000546565b60408051601f198184030181529190526020810180516001600160e01b03908116631a31d46560e01b17909152620000ea16565b50620000b48260008362000166565b5050600380546001600160a01b0390921661010002610100600160a81b031990921691909117905550620005e995505050505050565b6060600080846001600160a01b031684604051620001099190620005af565b600060405180830381855af49150503d806000811462000146576040519150601f19603f3d011682016040523d82523d6000602084013e6200014b565b606091505b509092509050816200015e573d60208201fd5b949350505050565b60035461010090046001600160a01b03163314620001f05760405162461bcd60e51b815260206004820152603960248201527f4d457263323044656c656761746f723a3a5f736574496d706c656d656e74617460448201527f696f6e3a2043616c6c6572206d7573742062652061646d696e00000000000000606482015260840160405180910390fd5b811562000232576040805160048152602481019091526020810180516001600160e01b0390811663153ab50560e01b17909152620002309190620002ed16565b505b601380546001600160a01b038581166001600160a01b03198316179092556040519116906200029f906200026b908490602401620005cd565b60408051601f198184030181529190526020810180516001600160e01b03908116630adccee560e31b17909152620002ed16565b50601354604080516001600160a01b03808516825290921660208301527fd604de94d45953f9138079ec1b82d533cb2160c906d1076d1f7ed54befbca97a910160405180910390a150505050565b60135460609062000308906001600160a01b031683620000ea565b92915050565b80516001600160a01b03811681146200032657600080fd5b919050565b634e487b7160e01b600052604160045260246000fd5b60005b838110156200035e57818101518382015260200162000344565b50506000910152565b600082601f8301126200037957600080fd5b81516001600160401b03808211156200039657620003966200032b565b604051601f8301601f19908116603f01168101908282118183101715620003c157620003c16200032b565b81604052838152866020858801011115620003db57600080fd5b620003ee84602083016020890162000341565b9695505050505050565b805160ff811681146200032657600080fd5b6000806000806000806000806000806101408b8d0312156200042b57600080fd5b620004368b6200030e565b99506200044660208c016200030e565b98506200045660408c016200030e565b60608c015160808d015191995097506001600160401b03808211156200047b57600080fd5b620004898e838f0162000367565b975060a08d0151915080821115620004a057600080fd5b620004ae8e838f0162000367565b9650620004be60c08e01620003f8565b9550620004ce60e08e016200030e565b9450620004df6101008e016200030e565b93506101208d0151915080821115620004f757600080fd5b50620005068d828e0162000367565b9150509295989b9194979a5092959850565b600081518084526200053281602086016020860162000341565b601f01601f19169290920160200192915050565b6001600160a01b0388811682528781166020830152861660408201526060810185905260e060808201819052600090620005839083018662000518565b82810360a084015262000597818662000518565b91505060ff831660c083015298975050505050505050565b60008251620005c381846020870162000341565b9190910192915050565b602081526000620005e2602083018462000518565b9392505050565b611d7880620005f96000396000f3fe6080604052600436106103355760003560e01c806373acee98116101ab578063c37f68e2116100f7578063dd62ed3e11610095578063f3fdb15a1161006f578063f3fdb15a14610a24578063f5e3c46214610a44578063f851a44014610a64578063fca7820b14610a8957610335565b8063dd62ed3e146109cf578063e9c714f2146109ef578063f2b3abbd14610a0457610335565b8063cfa99201116100d1578063cfa9920114610964578063d0248fb41461097a578063d3bd2c721461099a578063db006a75146109af57610335565b8063c37f68e2146108ef578063c5ebeaec1461092f578063cd91801c1461094f57610335565b8063a0712d6811610164578063aa5af0fd1161013e578063aa5af0fd14610884578063b2a02ff11461089a578063b71d1a0c146108ba578063bd6d894d146108da57610335565b8063a0712d681461082f578063a6afed951461084f578063a9059cbb1461086457610335565b806373acee981461078f57806383030846146107a4578063852a12e3146107c45780638f840ddd146107e457806395d89b41146107fa57806395dd91931461080f57610335565b80633af9e669116102855780635c60da1b116102235780636752e702116101fd5780636752e70214610724578063699cd5e21461073a5780636f307dc31461074f57806370a082311461076f57610335565b80635c60da1b146106c45780635fe3b567146106e4578063601a0bf11461070457610335565b80634487152f1161025f5780634487152f1461064e5780634576b5db1461066e57806347bd37181461068e578063555bcc40146106a457610335565b80633af9e669146105f95780633b1d21a2146106195780633e9410101461062e57610335565b806318160ddd116102f257806323b872dd116102cc57806323b872dd146105555780632608f818146105755780632678224714610595578063313ce567146105cd57610335565b806318160ddd1461050a578063182df0f5146105205780631be195601461053557610335565b806306fdde031461042b5780630933c1ed14610456578063095ea7b3146104765780630e752702146104a6578063173b9904146104d457806317bfdfbc146104ea575b34156103ae5760405162461bcd60e51b815260206004820152603760248201527f4d457263323044656c656761746f723a66616c6c6261636b3a2063616e6e6f7460448201527f2073656e642076616c756520746f2066616c6c6261636b00000000000000000060648201526084015b60405180910390fd5b6013546040516000916001600160a01b0316906103ce90839036906118b0565b600060405180830381855af49150503d8060008114610409576040519150601f19603f3d011682016040523d82523d6000602084013e61040e565b606091505b505090506040513d6000823e818015610425573d82f35b3d82fd5b005b34801561043757600080fd5b50610440610aa9565b60405161044d9190611910565b60405180910390f35b34801561046257600080fd5b506104406104713660046119e8565b610b37565b34801561048257600080fd5b50610496610491366004611a35565b610b56565b604051901515815260200161044d565b3480156104b257600080fd5b506104c66104c1366004611a61565b610bc8565b60405190815260200161044d565b3480156104e057600080fd5b506104c660085481565b3480156104f657600080fd5b506104c6610505366004611a7a565b610c2d565b34801561051657600080fd5b506104c6600d5481565b34801561052c57600080fd5b506104c6610c7a565b34801561054157600080fd5b50610429610550366004611a7a565b610ccd565b34801561056157600080fd5b50610496610570366004611a97565b610d18565b34801561058157600080fd5b506104c6610590366004611a35565b610d93565b3480156105a157600080fd5b506004546105b5906001600160a01b031681565b6040516001600160a01b03909116815260200161044d565b3480156105d957600080fd5b506003546105e79060ff1681565b60405160ff909116815260200161044d565b34801561060557600080fd5b506104c6610614366004611a7a565b610dfd565b34801561062557600080fd5b506104c6610e4a565b34801561063a57600080fd5b506104c6610649366004611a61565b610e81565b34801561065a57600080fd5b506104406106693660046119e8565b610ec9565b34801561067a57600080fd5b506104c6610689366004611a7a565b610f84565b34801561069a57600080fd5b506104c6600b5481565b3480156106b057600080fd5b506104296106bf366004611ae6565b610fd1565b3480156106d057600080fd5b506013546105b5906001600160a01b031681565b3480156106f057600080fd5b506005546105b5906001600160a01b031681565b34801561071057600080fd5b506104c661071f366004611a61565b611143565b34801561073057600080fd5b506104c660115481565b34801561074657600080fd5b50610496600181565b34801561075b57600080fd5b506012546105b5906001600160a01b031681565b34801561077b57600080fd5b506104c661078a366004611a7a565b61118b565b34801561079b57600080fd5b506104c66111d8565b3480156107b057600080fd5b506104c66107bf366004611a61565b61120f565b3480156107d057600080fd5b506104c66107df366004611a61565b611257565b3480156107f057600080fd5b506104c6600c5481565b34801561080657600080fd5b5061044061129f565b34801561081b57600080fd5b506104c661082a366004611a7a565b6112ac565b34801561083b57600080fd5b506104c661084a366004611a61565b6112f9565b34801561085b57600080fd5b506104c6611341565b34801561087057600080fd5b5061049661087f366004611a35565b611378565b34801561089057600080fd5b506104c6600a5481565b3480156108a657600080fd5b506104c66108b5366004611a97565b6113cc565b3480156108c657600080fd5b506104c66108d5366004611a7a565b61143e565b3480156108e657600080fd5b506104c661148b565b3480156108fb57600080fd5b5061090f61090a366004611a7a565b6114c2565b60408051948552602085019390935291830152606082015260800161044d565b34801561093b57600080fd5b506104c661094a366004611a61565b611542565b34801561095b57600080fd5b506104c661158a565b34801561097057600080fd5b506104c660095481565b34801561098657600080fd5b506104c6610995366004611b48565b6115c1565b3480156109a657600080fd5b506104c6611645565b3480156109bb57600080fd5b506104c66109ca366004611a61565b61167c565b3480156109db57600080fd5b506104c66109ea366004611b97565b6116c4565b3480156109fb57600080fd5b506104c6611719565b348015610a1057600080fd5b506104c6610a1f366004611a7a565b611750565b348015610a3057600080fd5b506006546105b5906001600160a01b031681565b348015610a5057600080fd5b506104c6610a5f366004611bd0565b61179d565b348015610a7057600080fd5b506003546105b59061010090046001600160a01b031681565b348015610a9557600080fd5b506104c6610aa4366004611a61565b6117f9565b60018054610ab690611c12565b80601f0160208091040260200160405190810160405280929190818152602001828054610ae290611c12565b8015610b2f5780601f10610b0457610100808354040283529160200191610b2f565b820191906000526020600020905b815481529060010190602001808311610b1257829003601f168201915b505050505081565b601354606090610b50906001600160a01b031683611841565b92915050565b6040516001600160a01b0383166024820152604481018290526000908190610baa9060640160408051601f198184030181529190526020810180516001600160e01b031663095ea7b360e01b179052610b37565b905080806020019051810190610bc09190611c4c565b949350505050565b600080610c1083604051602401610be191815260200190565b60408051601f198184030181529190526020810180516001600160e01b031663073a938160e11b179052610b37565b905080806020019051810190610c269190611c69565b9392505050565b6040516001600160a01b03821660248201526000908190610c109060440160408051601f198184030181529190526020810180516001600160e01b03166305eff7ef60e21b179052610b37565b6040805160048152602481019091526020810180516001600160e01b031663182df0f560e01b1790526000908190610cb190610ec9565b905080806020019051810190610cc79190611c69565b91505090565b6040516001600160a01b0382166024820152610d149060440160408051601f198184030181529190526020810180516001600160e01b031662df0cab60e51b179052610b37565b5050565b6040516001600160a01b03808516602483015283166044820152606481018290526000908190610d749060840160408051601f198184030181529190526020810180516001600160e01b03166323b872dd60e01b179052610b37565b905080806020019051810190610d8a9190611c4c565b95945050505050565b6040516001600160a01b0383166024820152604481018290526000908190610de79060640160408051601f198184030181529190526020810180516001600160e01b03166304c11f0360e31b179052610b37565b905080806020019051810190610bc09190611c69565b6040516001600160a01b03821660248201526000908190610c109060440160408051601f198184030181529190526020810180516001600160e01b0316633af9e66960e01b179052610b37565b6040805160048152602481019091526020810180516001600160e01b0316631d8e90d160e11b1790526000908190610cb190610ec9565b600080610c1083604051602401610e9a91815260200190565b60408051601f198184030181529190526020810180516001600160e01b03166303e9410160e41b179052610b37565b6060600080306001600160a01b031684604051602401610ee99190611910565b60408051601f198184030181529181526020820180516001600160e01b0316630933c1ed60e01b17905251610f1e9190611c82565b600060405180830381855afa9150503d8060008114610f59576040519150601f19603f3d011682016040523d82523d6000602084013e610f5e565b606091505b50909250905081610f70573d60208201fd5b80806020019051810190610bc09190611c9e565b6040516001600160a01b03821660248201526000908190610c109060440160408051601f198184030181529190526020810180516001600160e01b0316634576b5db60e01b179052610b37565b60035461010090046001600160a01b031633146110565760405162461bcd60e51b815260206004820152603960248201527f4d457263323044656c656761746f723a3a5f736574496d706c656d656e74617460448201527f696f6e3a2043616c6c6572206d7573742062652061646d696e0000000000000060648201526084016103a5565b8115611090576040805160048152602481019091526020810180516001600160e01b031663153ab50560e01b17905261108e90610b37565b505b601380546001600160a01b038581166001600160a01b03198316179092556040519116906110f5906110c6908490602401611910565b60408051601f198184030181529190526020810180516001600160e01b0316630adccee560e31b179052610b37565b50601354604080516001600160a01b03808516825290921660208301527fd604de94d45953f9138079ec1b82d533cb2160c906d1076d1f7ed54befbca97a910160405180910390a150505050565b600080610c108360405160240161115c91815260200190565b60408051601f198184030181529190526020810180516001600160e01b031663601a0bf160e01b179052610b37565b6040516001600160a01b03821660248201526000908190610c109060440160408051601f198184030181529190526020810180516001600160e01b03166370a0823160e01b179052610ec9565b6040805160048152602481019091526020810180516001600160e01b0316630e759dd360e31b1790526000908190610cb190610b37565b600080610c108360405160240161122891815260200190565b60408051601f198184030181529190526020810180516001600160e01b0316634181842360e11b179052610b37565b600080610c108360405160240161127091815260200190565b60408051601f198184030181529190526020810180516001600160e01b031663852a12e360e01b179052610b37565b60028054610ab690611c12565b6040516001600160a01b03821660248201526000908190610c109060440160408051601f198184030181529190526020810180516001600160e01b03166395dd919360e01b179052610ec9565b600080610c108360405160240161131291815260200190565b60408051601f198184030181529190526020810180516001600160e01b031663140e25ad60e31b179052610b37565b6040805160048152602481019091526020810180516001600160e01b031663a6afed9560e01b1790526000908190610cb190610b37565b6040516001600160a01b0383166024820152604481018290526000908190610baa9060640160408051601f198184030181529190526020810180516001600160e01b031663a9059cbb60e01b179052610b37565b6040516001600160a01b038085166024830152831660448201526064810182905260009081906114289060840160408051601f198184030181529190526020810180516001600160e01b031663b2a02ff160e01b179052610b37565b905080806020019051810190610d8a9190611c69565b6040516001600160a01b03821660248201526000908190610c109060440160408051601f198184030181529190526020810180516001600160e01b0316632dc7468360e21b179052610b37565b6040805160048152602481019091526020810180516001600160e01b031663bd6d894d60e01b1790526000908190610cb190610b37565b600080600080600061151c866040516024016114ed91906001600160a01b0391909116815260200190565b60408051601f198184030181529190526020810180516001600160e01b03166361bfb47160e11b179052610ec9565b9050808060200190518101906115329190611d0c565b9450945094509450509193509193565b600080610c108360405160240161155b91815260200190565b60408051601f198184030181529190526020810180516001600160e01b031663317afabb60e21b179052610b37565b6040805160048152602481019091526020810180516001600160e01b0316633364600760e21b1790526000908190610cb190610ec9565b604051602481018690526044810185905260ff841660648201526084810183905260a4810182905260009081906116249060c40160408051601f198184030181529190526020810180516001600160e01b031663340923ed60e21b179052610b37565b90508080602001905181019061163a9190611c69565b979650505050505050565b6040805160048152602481019091526020810180516001600160e01b03166369de963960e11b1790526000908190610cb190610ec9565b600080610c108360405160240161169591815260200190565b60408051601f198184030181529190526020810180516001600160e01b031663db006a7560e01b179052610b37565b6040516001600160a01b038084166024830152821660448201526000908190610de79060640160408051601f198184030181529190526020810180516001600160e01b0316636eb1769f60e11b179052610ec9565b6040805160048152602481019091526020810180516001600160e01b03166374e38a7960e11b1790526000908190610cb190610b37565b6040516001600160a01b03821660248201526000908190610c109060440160408051601f198184030181529190526020810180516001600160e01b031663f2b3abbd60e01b179052610b37565b6040516001600160a01b038085166024830152604482018490528216606482015260009081906114289060840160408051601f198184030181529190526020810180516001600160e01b0316637af1e23160e11b179052610b37565b600080610c108360405160240161181291815260200190565b60408051601f198184030181529190526020810180516001600160e01b031663fca7820b60e01b179052610b37565b6060600080846001600160a01b03168460405161185e9190611c82565b600060405180830381855af49150503d8060008114611899576040519150601f19603f3d011682016040523d82523d6000602084013e61189e565b606091505b50909250905081610bc0573d60208201fd5b8183823760009101908152919050565b60005b838110156118db5781810151838201526020016118c3565b50506000910152565b600081518084526118fc8160208601602086016118c0565b601f01601f19169290920160200192915050565b602081526000610c2660208301846118e4565b634e487b7160e01b600052604160045260246000fd5b604051601f8201601f1916810167ffffffffffffffff8111828210171561196257611962611923565b604052919050565b600067ffffffffffffffff82111561198457611984611923565b50601f01601f191660200190565b600082601f8301126119a357600080fd5b81356119b66119b18261196a565b611939565b8181528460208386010111156119cb57600080fd5b816020850160208301376000918101602001919091529392505050565b6000602082840312156119fa57600080fd5b813567ffffffffffffffff811115611a1157600080fd5b610bc084828501611992565b6001600160a01b0381168114611a3257600080fd5b50565b60008060408385031215611a4857600080fd5b8235611a5381611a1d565b946020939093013593505050565b600060208284031215611a7357600080fd5b5035919050565b600060208284031215611a8c57600080fd5b8135610c2681611a1d565b600080600060608486031215611aac57600080fd5b8335611ab781611a1d565b92506020840135611ac781611a1d565b929592945050506040919091013590565b8015158114611a3257600080fd5b600080600060608486031215611afb57600080fd5b8335611b0681611a1d565b92506020840135611b1681611ad8565b9150604084013567ffffffffffffffff811115611b3257600080fd5b611b3e86828701611992565b9150509250925092565b600080600080600060a08688031215611b6057600080fd5b8535945060208601359350604086013560ff81168114611b7f57600080fd5b94979396509394606081013594506080013592915050565b60008060408385031215611baa57600080fd5b8235611bb581611a1d565b91506020830135611bc581611a1d565b809150509250929050565b600080600060608486031215611be557600080fd5b8335611bf081611a1d565b9250602084013591506040840135611c0781611a1d565b809150509250925092565b600181811c90821680611c2657607f821691505b602082108103611c4657634e487b7160e01b600052602260045260246000fd5b50919050565b600060208284031215611c5e57600080fd5b8151610c2681611ad8565b600060208284031215611c7b57600080fd5b5051919050565b60008251611c948184602087016118c0565b9190910192915050565b600060208284031215611cb057600080fd5b815167ffffffffffffffff811115611cc757600080fd5b8201601f81018413611cd857600080fd5b8051611ce66119b18261196a565b818152856020838501011115611cfb57600080fd5b610d8a8260208301602086016118c0565b60008060008060808587031215611d2257600080fd5b50508251602084015160408501516060909501519196909550909250905056fea2646970667358221220df48df24dc83d721fbc049c8f366448dc781c5975478bd98a670d31b9111e2f464736f6c63430008110033",
    "linkReferences": {}
  },
  "methodIdentifiers": {
    "_acceptAdmin()": "e9c714f2",
    "_addReserves(uint256)": "3e941010",
    "_reduceReserves(uint256)": "601a0bf1",
    "_setComptroller(address)": "4576b5db",
    "_setImplementation(address,bool,bytes)": "555bcc40",
    "_setInterestRateModel(address)": "f2b3abbd",
    "_setPendingAdmin(address)": "b71d1a0c",
    "_setProtocolSeizeShare(uint256)": "83030846",
    "_setReserveFactor(uint256)": "fca7820b",
    "accrualBlockTimestamp()": "cfa99201",
    "accrueInterest()": "a6afed95",
    "admin()": "f851a440",
    "allowance(address,address)": "dd62ed3e",
    "approve(address,uint256)": "095ea7b3",
    "balanceOf(address)": "70a08231",
    "balanceOfUnderlying(address)": "3af9e669",
    "borrow(uint256)": "c5ebeaec",
    "borrowBalanceCurrent(address)": "17bfdfbc",
    "borrowBalanceStored(address)": "95dd9193",
    "borrowIndex()": "aa5af0fd",
    "borrowRatePerTimestamp()": "cd91801c",
    "comptroller()": "5fe3b567",
    "decimals()": "313ce567",
    "delegateToImplementation(bytes)": "0933c1ed",
    "delegateToViewImplementation(bytes)": "4487152f",
    "exchangeRateCurrent()": "bd6d894d",
    "exchangeRateStored()": "182df0f5",
    "getAccountSnapshot(address)": "c37f68e2",
    "getCash()": "3b1d21a2",
    "implementation()": "5c60da1b",
    "interestRateModel()": "f3fdb15a",
    "isMToken()": "699cd5e2",
    "liquidateBorrow(address,uint256,address)": "f5e3c462",
    "mint(uint256)": "a0712d68",
    "mintWithPermit(uint256,uint256,uint8,bytes32,bytes32)": "d0248fb4",
    "name()": "06fdde03",
    "pendingAdmin()": "26782247",
    "protocolSeizeShareMantissa()": "6752e702",
    "redeem(uint256)": "db006a75",
    "redeemUnderlying(uint256)": "852a12e3",
    "repayBorrow(uint256)": "0e752702",
    "repayBorrowBehalf(address,uint256)": "2608f818",
    "reserveFactorMantissa()": "173b9904",
    "seize(address,address,uint256)": "b2a02ff1",
    "supplyRatePerTimestamp()": "d3bd2c72",
    "sweepToken(address)": "1be19560",
    "symbol()": "95d89b41",
    "totalBorrows()": "47bd3718",
    "totalBorrowsCurrent()": "73acee98",
    "totalReserves()": "8f840ddd",
    "totalSupply()": "18160ddd",
    "transfer(address,uint256)": "a9059cbb",
    "transferFrom(address,address,uint256)": "23b872dd",
    "underlying()": "6f307dc3"
  },
  "id": 88
}