{
  "abi": [
    {
      "anonymous": false,
      "inputs": [
        {
          "indexed": false,
          "internalType": "uint8",
          "name": "version",
          "type": "uint8"
        }
      ],
      "name": "Initialized",
      "type": "event"
    },
    {
      "inputs": [],
      "name": "comptroller",
      "outputs": [
        {
          "internalType": "contract Comptroller",
          "name": "",
          "type": "address"
        }
      ],
      "stateMutability": "view",
      "type": "function"
    },
    {
      "inputs": [],
      "name": "getAllMarketsInfo",
      "outputs": [
        {
          "components": [
            {
              "internalType": "address",
              "name": "market",
              "type": "address"
            },
            {
              "internalType": "bool",
              "name": "isListed",
              "type": "bool"
            },
            {
              "internalType": "uint256",
              "name": "borrowCap",
              "type": "uint256"
            },
            {
              "internalType": "uint256",
              "name": "supplyCap",
              "type": "uint256"
            },
            {
              "internalType": "bool",
              "name": "mintPaused",
              "type": "bool"
            },
            {
              "internalType": "bool",
              "name": "borrowPaused",
              "type": "bool"
            },
            {
              "internalType": "uint256",
              "name": "collateralFactor",
              "type": "uint256"
            },
            {
              "internalType": "uint256",
              "name": "underlyingPrice",
              "type": "uint256"
            },
            {
              "internalType": "uint256",
              "name": "totalSupply",
              "type": "uint256"
            },
            {
              "internalType": "uint256",
              "name": "totalBorrows",
              "type": "uint256"
            },
            {
              "internalType": "uint256",
              "name": "totalReserves",
              "type": "uint256"
            },
            {
              "internalType": "uint256",
              "name": "cash",
              "type": "uint256"
            },
            {
              "internalType": "uint256",
              "name": "exchangeRate",
              "type": "uint256"
            },
            {
              "internalType": "uint256",
              "name": "borrowIndex",
              "type": "uint256"
            },
            {
              "internalType": "uint256",
              "name": "reserveFactor",
              "type": "uint256"
            },
            {
              "internalType": "uint256",
              "name": "borrowRate",
              "type": "uint256"
            },
            {
              "internalType": "uint256",
              "name": "supplyRate",
              "type": "uint256"
            },
            {
              "components": [
                {
                  "internalType": "address",
                  "name": "token",
                  "type": "address"
                },
                {
                  "internalType": "uint256",
                  "name": "supplyIncentivesPerSec",
                  "type": "uint256"
                },
                {
                  "internalType": "uint256",
                  "name": "borrowIncentivesPerSec",
                  "type": "uint256"
                }
              ],
              "internalType": "struct BaseMoonwellViews.MarketIncentives[]",
              "name": "incentives",
              "type": "tuple[]"
            }
          ],
          "internalType": "struct BaseMoonwellViews.Market[]",
          "name": "",
          "type": "tuple[]"
        }
      ],
      "stateMutability": "view",
      "type": "function"
    },
    {
      "inputs": [],
      "name": "getGovernanceTokenPrice",
      "outputs": [
        {
          "internalType": "uint256",
          "name": "_result",
          "type": "uint256"
        }
      ],
      "stateMutability": "view",
      "type": "function"
    },
    {
      "inputs": [
        {
          "internalType": "contract MToken",
          "name": "market",
          "type": "address"
        }
      ],
      "name": "getMarketIncentives",
      "outputs": [
        {
          "components": [
            {
              "internalType": "address",
              "name": "token",
              "type": "address"
            },
            {
              "internalType": "uint256",
              "name": "supplyIncentivesPerSec",
              "type": "uint256"
            },
            {
              "internalType": "uint256",
              "name": "borrowIncentivesPerSec",
              "type": "uint256"
            }
          ],
          "internalType": "struct BaseMoonwellViews.MarketIncentives[]",
          "name": "",
          "type": "tuple[]"
        }
      ],
      "stateMutability": "view",
      "type": "function"
    },
    {
      "inputs": [
        {
          "internalType": "contract MToken",
          "name": "_mToken",
          "type": "address"
        }
      ],
      "name": "getMarketInfo",
      "outputs": [
        {
          "components": [
            {
              "internalType": "address",
              "name": "market",
              "type": "address"
            },
            {
              "internalType": "bool",
              "name": "isListed",
              "type": "bool"
            },
            {
              "internalType": "uint256",
              "name": "borrowCap",
              "type": "uint256"
            },
            {
              "internalType": "uint256",
              "name": "supplyCap",
              "type": "uint256"
            },
            {
              "internalType": "bool",
              "name": "mintPaused",
              "type": "bool"
            },
            {
              "internalType": "bool",
              "name": "borrowPaused",
              "type": "bool"
            },
            {
              "internalType": "uint256",
              "name": "collateralFactor",
              "type": "uint256"
            },
            {
              "internalType": "uint256",
              "name": "underlyingPrice",
              "type": "uint256"
            },
            {
              "internalType": "uint256",
              "name": "totalSupply",
              "type": "uint256"
            },
            {
              "internalType": "uint256",
              "name": "totalBorrows",
              "type": "uint256"
            },
            {
              "internalType": "uint256",
              "name": "totalReserves",
              "type": "uint256"
            },
            {
              "internalType": "uint256",
              "name": "cash",
              "type": "uint256"
            },
            {
              "internalType": "uint256",
              "name": "exchangeRate",
              "type": "uint256"
            },
            {
              "internalType": "uint256",
              "name": "borrowIndex",
              "type": "uint256"
            },
            {
              "internalType": "uint256",
              "name": "reserveFactor",
              "type": "uint256"
            },
            {
              "internalType": "uint256",
              "name": "borrowRate",
              "type": "uint256"
            },
            {
              "internalType": "uint256",
              "name": "supplyRate",
              "type": "uint256"
            },
            {
              "components": [
                {
                  "internalType": "address",
                  "name": "token",
                  "type": "address"
                },
                {
                  "internalType": "uint256",
                  "name": "supplyIncentivesPerSec",
                  "type": "uint256"
                },
                {
                  "internalType": "uint256",
                  "name": "borrowIncentivesPerSec",
                  "type": "uint256"
                }
              ],
              "internalType": "struct BaseMoonwellViews.MarketIncentives[]",
              "name": "incentives",
              "type": "tuple[]"
            }
          ],
          "internalType": "struct BaseMoonwellViews.Market",
          "name": "",
          "type": "tuple"
        }
      ],
      "stateMutability": "view",
      "type": "function"
    },
    {
      "inputs": [
        {
          "internalType": "contract MToken[]",
          "name": "_mTokens",
          "type": "address[]"
        }
      ],
      "name": "getMarketsInfo",
      "outputs": [
        {
          "components": [
            {
              "internalType": "address",
              "name": "market",
              "type": "address"
            },
            {
              "internalType": "bool",
              "name": "isListed",
              "type": "bool"
            },
            {
              "internalType": "uint256",
              "name": "borrowCap",
              "type": "uint256"
            },
            {
              "internalType": "uint256",
              "name": "supplyCap",
              "type": "uint256"
            },
            {
              "internalType": "bool",
              "name": "mintPaused",
              "type": "bool"
            },
            {
              "internalType": "bool",
              "name": "borrowPaused",
              "type": "bool"
            },
            {
              "internalType": "uint256",
              "name": "collateralFactor",
              "type": "uint256"
            },
            {
              "internalType": "uint256",
              "name": "underlyingPrice",
              "type": "uint256"
            },
            {
              "internalType": "uint256",
              "name": "totalSupply",
              "type": "uint256"
            },
            {
              "internalType": "uint256",
              "name": "totalBorrows",
              "type": "uint256"
            },
            {
              "internalType": "uint256",
              "name": "totalReserves",
              "type": "uint256"
            },
            {
              "internalType": "uint256",
              "name": "cash",
              "type": "uint256"
            },
            {
              "internalType": "uint256",
              "name": "exchangeRate",
              "type": "uint256"
            },
            {
              "internalType": "uint256",
              "name": "borrowIndex",
              "type": "uint256"
            },
            {
              "internalType": "uint256",
              "name": "reserveFactor",
              "type": "uint256"
            },
            {
              "internalType": "uint256",
              "name": "borrowRate",
              "type": "uint256"
            },
            {
              "internalType": "uint256",
              "name": "supplyRate",
              "type": "uint256"
            },
            {
              "components": [
                {
                  "internalType": "address",
                  "name": "token",
                  "type": "address"
                },
                {
                  "internalType": "uint256",
                  "name": "supplyIncentivesPerSec",
                  "type": "uint256"
                },
                {
                  "internalType": "uint256",
                  "name": "borrowIncentivesPerSec",
                  "type": "uint256"
                }
              ],
              "internalType": "struct BaseMoonwellViews.MarketIncentives[]",
              "name": "incentives",
              "type": "tuple[]"
            }
          ],
          "internalType": "struct BaseMoonwellViews.Market[]",
          "name": "",
          "type": "tuple[]"
        }
      ],
      "stateMutability": "view",
      "type": "function"
    },
    {
      "inputs": [],
      "name": "getNativeTokenPrice",
      "outputs": [
        {
          "internalType": "uint256",
          "name": "_result",
          "type": "uint256"
        }
      ],
      "stateMutability": "view",
      "type": "function"
    },
    {
      "inputs": [],
      "name": "getProtocolInfo",
      "outputs": [
        {
          "components": [
            {
              "internalType": "bool",
              "name": "seizePaused",
              "type": "bool"
            },
            {
              "internalType": "bool",
              "name": "transferPaused",
              "type": "bool"
            }
          ],
          "internalType": "struct BaseMoonwellViews.ProtocolInfo",
          "name": "_result",
          "type": "tuple"
        }
      ],
      "stateMutability": "view",
      "type": "function"
    },
    {
      "inputs": [],
      "name": "getStakingInfo",
      "outputs": [
        {
          "components": [
            {
              "internalType": "uint256",
              "name": "cooldown",
              "type": "uint256"
            },
            {
              "internalType": "uint256",
              "name": "unstakeWindow",
              "type": "uint256"
            },
            {
              "internalType": "uint256",
              "name": "distributionEnd",
              "type": "uint256"
            },
            {
              "internalType": "uint256",
              "name": "totalSupply",
              "type": "uint256"
            },
            {
              "internalType": "uint256",
              "name": "emissionPerSecond",
              "type": "uint256"
            },
            {
              "internalType": "uint256",
              "name": "lastUpdateTimestamp",
              "type": "uint256"
            },
            {
              "internalType": "uint256",
              "name": "index",
              "type": "uint256"
            }
          ],
          "internalType": "struct BaseMoonwellViews.StakingInfo",
          "name": "_result",
          "type": "tuple"
        }
      ],
      "stateMutability": "view",
      "type": "function"
    },
    {
      "inputs": [
        {
          "internalType": "address[]",
          "name": "_tokens",
          "type": "address[]"
        },
        {
          "internalType": "address",
          "name": "_user",
          "type": "address"
        }
      ],
      "name": "getTokensBalances",
      "outputs": [
        {
          "components": [
            {
              "internalType": "uint256",
              "name": "amount",
              "type": "uint256"
            },
            {
              "internalType": "address",
              "name": "token",
              "type": "address"
            }
          ],
          "internalType": "struct BaseMoonwellViews.Balances[]",
          "name": "",
          "type": "tuple[]"
        }
      ],
      "stateMutability": "view",
      "type": "function"
    },
    {
      "inputs": [
        {
          "internalType": "address",
          "name": "_user",
          "type": "address"
        }
      ],
      "name": "getUserBalances",
      "outputs": [
        {
          "components": [
            {
              "internalType": "uint256",
              "name": "amount",
              "type": "uint256"
            },
            {
              "internalType": "address",
              "name": "token",
              "type": "address"
            }
          ],
          "internalType": "struct BaseMoonwellViews.Balances[]",
          "name": "",
          "type": "tuple[]"
        }
      ],
      "stateMutability": "view",
      "type": "function"
    },
    {
      "inputs": [
        {
          "internalType": "address",
          "name": "_user",
          "type": "address"
        }
      ],
      "name": "getUserBorrowsBalances",
      "outputs": [
        {
          "components": [
            {
              "internalType": "uint256",
              "name": "amount",
              "type": "uint256"
            },
            {
              "internalType": "address",
              "name": "token",
              "type": "address"
            }
          ],
          "internalType": "struct BaseMoonwellViews.Balances[]",
          "name": "",
          "type": "tuple[]"
        }
      ],
      "stateMutability": "view",
      "type": "function"
    },
    {
      "inputs": [
        {
          "internalType": "address",
          "name": "_user",
          "type": "address"
        }
      ],
      "name": "getUserClaimsVotingPower",
      "outputs": [
        {
          "components": [
            {
              "internalType": "uint256",
              "name": "delegatedVotingPower",
              "type": "uint256"
            },
            {
              "internalType": "uint256",
              "name": "votingPower",
              "type": "uint256"
            },
            {
              "internalType": "address",
              "name": "delegates",
              "type": "address"
            }
          ],
          "internalType": "struct BaseMoonwellViews.Votes",
          "name": "_result",
          "type": "tuple"
        }
      ],
      "stateMutability": "view",
      "type": "function"
    },
    {
      "inputs": [
        {
          "internalType": "address",
          "name": "_user",
          "type": "address"
        }
      ],
      "name": "getUserMarketsMemberships",
      "outputs": [
        {
          "components": [
            {
              "internalType": "bool",
              "name": "membership",
              "type": "bool"
            },
            {
              "internalType": "address",
              "name": "token",
              "type": "address"
            }
          ],
          "internalType": "struct BaseMoonwellViews.Memberships[]",
          "name": "",
          "type": "tuple[]"
        }
      ],
      "stateMutability": "view",
      "type": "function"
    },
    {
      "inputs": [
        {
          "internalType": "address",
          "name": "_user",
          "type": "address"
        }
      ],
      "name": "getUserRewards",
      "outputs": [
        {
          "components": [
            {
              "internalType": "address",
              "name": "market",
              "type": "address"
            },
            {
              "internalType": "address",
              "name": "rewardToken",
              "type": "address"
            },
            {
              "internalType": "uint256",
              "name": "supplyRewardsAmount",
              "type": "uint256"
            },
            {
              "internalType": "uint256",
              "name": "borrowRewardsAmount",
              "type": "uint256"
            }
          ],
          "internalType": "struct BaseMoonwellViews.Rewards[]",
          "name": "",
          "type": "tuple[]"
        }
      ],
      "stateMutability": "view",
      "type": "function"
    },
    {
      "inputs": [
        {
          "internalType": "address",
          "name": "_user",
          "type": "address"
        }
      ],
      "name": "getUserStakingInfo",
      "outputs": [
        {
          "components": [
            {
              "internalType": "uint256",
              "name": "cooldown",
              "type": "uint256"
            },
            {
              "internalType": "uint256",
              "name": "pendingRewards",
              "type": "uint256"
            },
            {
              "internalType": "uint256",
              "name": "totalStaked",
              "type": "uint256"
            }
          ],
          "internalType": "struct BaseMoonwellViews.UserStakingInfo",
          "name": "_result",
          "type": "tuple"
        }
      ],
      "stateMutability": "view",
      "type": "function"
    },
    {
      "inputs": [
        {
          "internalType": "address",
          "name": "_user",
          "type": "address"
        }
      ],
      "name": "getUserStakingVotingPower",
      "outputs": [
        {
          "components": [
            {
              "internalType": "uint256",
              "name": "delegatedVotingPower",
              "type": "uint256"
            },
            {
              "internalType": "uint256",
              "name": "votingPower",
              "type": "uint256"
            },
            {
              "internalType": "address",
              "name": "delegates",
              "type": "address"
            }
          ],
          "internalType": "struct BaseMoonwellViews.Votes",
          "name": "_result",
          "type": "tuple"
        }
      ],
      "stateMutability": "view",
      "type": "function"
    },
    {
      "inputs": [
        {
          "internalType": "address",
          "name": "_user",
          "type": "address"
        }
      ],
      "name": "getUserTokensVotingPower",
      "outputs": [
        {
          "components": [
            {
              "internalType": "uint256",
              "name": "delegatedVotingPower",
              "type": "uint256"
            },
            {
              "internalType": "uint256",
              "name": "votingPower",
              "type": "uint256"
            },
            {
              "internalType": "address",
              "name": "delegates",
              "type": "address"
            }
          ],
          "internalType": "struct BaseMoonwellViews.Votes",
          "name": "_result",
          "type": "tuple"
        }
      ],
      "stateMutability": "view",
      "type": "function"
    },
    {
      "inputs": [
        {
          "internalType": "address",
          "name": "_user",
          "type": "address"
        }
      ],
      "name": "getUserVotingPower",
      "outputs": [
        {
          "components": [
            {
              "components": [
                {
                  "internalType": "uint256",
                  "name": "delegatedVotingPower",
                  "type": "uint256"
                },
                {
                  "internalType": "uint256",
                  "name": "votingPower",
                  "type": "uint256"
                },
                {
                  "internalType": "address",
                  "name": "delegates",
                  "type": "address"
                }
              ],
              "internalType": "struct BaseMoonwellViews.Votes",
              "name": "claimsVotes",
              "type": "tuple"
            },
            {
              "components": [
                {
                  "internalType": "uint256",
                  "name": "delegatedVotingPower",
                  "type": "uint256"
                },
                {
                  "internalType": "uint256",
                  "name": "votingPower",
                  "type": "uint256"
                },
                {
                  "internalType": "address",
                  "name": "delegates",
                  "type": "address"
                }
              ],
              "internalType": "struct BaseMoonwellViews.Votes",
              "name": "stakingVotes",
              "type": "tuple"
            },
            {
              "components": [
                {
                  "internalType": "uint256",
                  "name": "delegatedVotingPower",
                  "type": "uint256"
                },
                {
                  "internalType": "uint256",
                  "name": "votingPower",
                  "type": "uint256"
                },
                {
                  "internalType": "address",
                  "name": "delegates",
                  "type": "address"
                }
              ],
              "internalType": "struct BaseMoonwellViews.Votes",
              "name": "tokenVotes",
              "type": "tuple"
            }
          ],
          "internalType": "struct BaseMoonwellViews.UserVotes",
          "name": "_result",
          "type": "tuple"
        }
      ],
      "stateMutability": "view",
      "type": "function"
    },
    {
      "inputs": [
        {
          "internalType": "address",
          "name": "_comptroller",
          "type": "address"
        },
        {
          "internalType": "address",
          "name": "tokenSaleDistributor",
          "type": "address"
        },
        {
          "internalType": "address",
          "name": "safetyModule",
          "type": "address"
        },
        {
          "internalType": "address",
          "name": "governanceToken",
          "type": "address"
        },
        {
          "internalType": "address",
          "name": "nativeMarket",
          "type": "address"
        },
        {
          "internalType": "address",
          "name": "governanceTokenLP",
          "type": "address"
        }
      ],
      "name": "initialize",
      "outputs": [],
      "stateMutability": "nonpayable",
      "type": "function"
    }
  ],
  "bytecode": {
    "object": "0x60806040523480156200001157600080fd5b506200001c62000022565b620000e3565b600054610100900460ff16156200008f5760405162461bcd60e51b815260206004820152602760248201527f496e697469616c697a61626c653a20636f6e747261637420697320696e697469604482015266616c697a696e6760c81b606482015260840160405180910390fd5b60005460ff90811614620000e1576000805460ff191660ff9081179091556040519081527f7f26b83ff96e1f2b6a682f133852f6798a09c465da95921460cefb38474024989060200160405180910390a15b565b6148eb80620000f36000396000f3fe608060405234801561001057600080fd5b506004361061012c5760003560e01c806394c77638116100ad578063cc2a9a5b11610071578063cc2a9a5b14610349578063ce3f8aab1461035e578063e22340c814610371578063ed4e016414610391578063fcf14dd8146103a457600080fd5b806394c776381461028f5780639966ff54146102a5578063a5be5463146102c5578063abd3f612146102d8578063b40cd21d146102eb57600080fd5b80635fe3b567116100f45780635fe3b567146101d65780636e8c5b951461020757806380933608146102275780638843abef1461025c5780638d0d04b91461027c57600080fd5b8063078b0fb7146101315780630baca2e51461015a5780630cf85bcc1461017a5780630dca69f91461019a578063139df200146101c1575b600080fd5b61014461013f366004613c81565b6103ac565b6040516101519190613c9e565b60405180910390f35b61016d610168366004613c81565b6108cf565b6040516101519190613d30565b61018d610188366004613c81565b610903565b6040516101519190613eb7565b6101a2610fe7565b6040805182511515815260209283015115159281019290925201610151565b6101c96110f1565b6040516101519190613eca565b6000546101ef906201000090046001600160a01b031681565b6040516001600160a01b039091168152602001610151565b61021a610215366004613c81565b6112a4565b6040516101519190613f2c565b61023a610235366004613c81565b61146c565b6040805182518152602080840151908201529181015190820152606001610151565b61026f61026a366004613c81565b6115f2565b6040516101519190613f3a565b6101c961028a366004613f85565b6117d1565b610297611907565b604051908152602001610151565b6102b86102b3366004613c81565b611a05565b6040516101519190613ff9565b61026f6102d336600461411c565b611be0565b61026f6102e6366004613c81565b611db7565b6102f3612093565b6040516101519190600060e082019050825182526020830151602083015260408301516040830152606083015160608301526080830151608083015260a083015160a083015260c083015160c083015292915050565b61035c6103573660046141cc565b61234e565b005b61021a61036c366004613c81565b61261a565b61038461037f366004613c81565b612753565b604051610151919061424e565b61021a61039f366004613c81565b6129ae565b610297612bf1565b606060008060029054906101000a90046001600160a01b03166001600160a01b031663b0772d0b6040518163ffffffff1660e01b8152600401600060405180830381865afa158015610402573d6000803e3d6000fd5b505050506040513d6000823e601f3d908101601f1916820160405261042a91908101906142b3565b6000805482519293506201000090046001600160a01b03169161044e906002614362565b6001600160401b0381111561046557610465614046565b6040519080825280602002602001820160405280156104b757816020015b6040805160808101825260008082526020808301829052928201819052606082015282526000199092019101816104835790505b509050600080805b85518110156108c35760008682815181106104dc576104dc614379565b60200260200101519050808585815181106104f9576104f9614379565b6020026020010151600001906001600160a01b031690816001600160a01b031681525050856001600160a01b03166333bb48f96040518163ffffffff1660e01b8152600401602060405180830381865afa15801561055b573d6000803e3d6000fd5b505050506040513d601f19601f8201168201806040525081019061057f919061439a565b85858151811061059157610591614379565b6020908102919091018101516001600160a01b0390921691015280856105b88660016143b7565b815181106105c8576105c8614379565b60209081029190910101516001600160a01b0390911690526000856105ee8660016143b7565b815181106105fe576105fe614379565b6020908102919091018101516001600160a01b03928316910152604051638e8f294b60e01b8152828216600482015290871690638e8f294b906024016040805180830381865afa158015610656573d6000803e3d6000fd5b505050506040513d601f19601f8201168201806040525081019061067a91906143da565b51156108a25761068d866000838c612d89565b85858151811061069f5761069f614379565b602002602001015160400181815250506106bc866000838c612f26565b8585815181106106ce576106ce614379565b602002602001015160600181815250506106eb866001838c612d89565b856106f78660016143b7565b8151811061070757610707614379565b60200260200101516040018181525050610724866001838c612f26565b856107308660016143b7565b8151811061074057610740614379565b6020908102919091010151606001528215156000036108a2576040516305b9783d60e01b81526001600160a01b038716906305b9783d90610788906000908d90600401614413565b602060405180830381865afa1580156107a5573d6000803e3d6000fd5b505050506040513d601f19601f820116820180604052508101906107c9919061442f565b8585815181106107db576107db614379565b60200260200101516040018181516107f391906143b7565b9052506040516305b9783d60e01b81526001600160a01b038716906305b9783d90610825906001908d90600401614413565b602060405180830381865afa158015610842573d6000803e3d6000fd5b505050506040513d601f19601f82011682018060405250810190610866919061442f565b856108728660016143b7565b8151811061088257610882614379565b602002602001015160400181815161089a91906143b7565b905250600192505b6108ad6002856143b7565b93505080806108bb90614448565b9150506104bf565b50919695505050505050565b6108d7613b4a565b6108e0826129ae565b81526108eb8261261a565b60208201526108f9826112a4565b6040820152919050565b61090b613b7c565b610913613b7c565b60008054604051638e8f294b60e01b81526001600160a01b03868116600483015283926201000090041690638e8f294b906024016040805180830381865afa158015610963573d6000803e3d6000fd5b505050506040513d601f19601f820116820180604052508101906109879190614461565b915091508115610fde576001600160a01b0385811680855260005460405163252c221960e11b8152600481019290925262010000900490911690634a58443290602401602060405180830381865afa1580156109e7573d6000803e3d6000fd5b505050506040513d601f19601f82011682018060405250810190610a0b919061442f565b60408401526000606084015260c08301819052811515602084015260005460405163731f0c2b60e01b81526001600160a01b038781166004830152620100009092049091169063731f0c2b90602401602060405180830381865afa158015610a77573d6000803e3d6000fd5b505050506040513d601f19601f82011682018060405250810190610a9b919061448d565b15156080840152600054604051636d154ea560e01b81526001600160a01b0387811660048301526201000090920490911690636d154ea590602401602060405180830381865afa158015610af3573d6000803e3d6000fd5b505050506040513d601f19601f82011682018060405250810190610b17919061448d565b151560a0840152600054604080516307dc0d1d60e41b81529051620100009092046001600160a01b031691637dc0d1d0916004808201926020929091908290030181865afa158015610b6d573d6000803e3d6000fd5b505050506040513d601f19601f82011682018060405250810190610b91919061439a565b60405163fc57d4df60e01b81526001600160a01b038781166004830152919091169063fc57d4df90602401602060405180830381865afa158015610bd9573d6000803e3d6000fd5b505050506040513d601f19601f82011682018060405250810190610bfd919061442f565b8360e0018181525050846001600160a01b03166318160ddd6040518163ffffffff1660e01b8152600401602060405180830381865afa158015610c44573d6000803e3d6000fd5b505050506040513d601f19601f82011682018060405250810190610c68919061442f565b83610100018181525050846001600160a01b03166347bd37186040518163ffffffff1660e01b8152600401602060405180830381865afa158015610cb0573d6000803e3d6000fd5b505050506040513d601f19601f82011682018060405250810190610cd4919061442f565b83610120018181525050846001600160a01b0316638f840ddd6040518163ffffffff1660e01b8152600401602060405180830381865afa158015610d1c573d6000803e3d6000fd5b505050506040513d601f19601f82011682018060405250810190610d40919061442f565b83610140018181525050846001600160a01b0316633b1d21a26040518163ffffffff1660e01b8152600401602060405180830381865afa158015610d88573d6000803e3d6000fd5b505050506040513d601f19601f82011682018060405250810190610dac919061442f565b83610160018181525050846001600160a01b031663182df0f56040518163ffffffff1660e01b8152600401602060405180830381865afa158015610df4573d6000803e3d6000fd5b505050506040513d601f19601f82011682018060405250810190610e18919061442f565b83610180018181525050846001600160a01b031663aa5af0fd6040518163ffffffff1660e01b8152600401602060405180830381865afa158015610e60573d6000803e3d6000fd5b505050506040513d601f19601f82011682018060405250810190610e84919061442f565b836101a0018181525050846001600160a01b031663173b99046040518163ffffffff1660e01b8152600401602060405180830381865afa158015610ecc573d6000803e3d6000fd5b505050506040513d601f19601f82011682018060405250810190610ef0919061442f565b836101c0018181525050846001600160a01b031663cd91801c6040518163ffffffff1660e01b8152600401602060405180830381865afa158015610f38573d6000803e3d6000fd5b505050506040513d601f19601f82011682018060405250810190610f5c919061442f565b836101e0018181525050846001600160a01b031663d3bd2c726040518163ffffffff1660e01b8152600401602060405180830381865afa158015610fa4573d6000803e3d6000fd5b505050506040513d601f19601f82011682018060405250810190610fc8919061442f565b610200840152610fd785612753565b6102208401525b50909392505050565b6040805180820190915260008082526020820152600060029054906101000a90046001600160a01b03166001600160a01b03166387f763036040518163ffffffff1660e01b8152600401602060405180830381865afa15801561104e573d6000803e3d6000fd5b505050506040513d601f19601f82011682018060405250810190611072919061448d565b15156020828101919091526000546040805163ac0b0bb760e01b81529051620100009092046001600160a01b03169263ac0b0bb7926004808401938290030181865afa1580156110c6573d6000803e3d6000fd5b505050506040513d601f19601f820116820180604052508101906110ea919061448d565b1515815290565b606060008060029054906101000a90046001600160a01b03166001600160a01b031663b0772d0b6040518163ffffffff1660e01b8152600401600060405180830381865afa158015611147573d6000803e3d6000fd5b505050506040513d6000823e601f3d908101601f1916820160405261116f91908101906142b3565b9050600081516001600160401b0381111561118c5761118c614046565b6040519080825280602002602001820160405280156111c557816020015b6111b2613b7c565b8152602001906001900390816111aa5790505b50905060005b825181101561129d57306001600160a01b0316630cf85bcc8483815181106111f5576111f5614379565b60200260200101516040518263ffffffff1660e01b815260040161122891906001600160a01b0391909116815260200190565b600060405180830381865afa158015611245573d6000803e3d6000fd5b505050506040513d6000823e601f3d908101601f1916820160405261126d9190810190614545565b82828151811061127f5761127f614379565b6020026020010181905250808061129590614448565b9150506111cb565b5092915050565b6112ac613c16565b6003546001600160a01b031615611467576003546000906001600160a01b031663782d6fe1846112dd600143614685565b6040516001600160e01b031960e085901b1681526001600160a01b0390921660048301526024820152604401602060405180830381865afa158015611326573d6000803e3d6000fd5b505050506040513d601f19601f8201168201806040525081019061134a9190614698565b600354604051632c3e6f0f60e11b81526001600160a01b0386811660048301526bffffffffffffffffffffffff9390931693506000929091169063587cde1e90602401602060405180830381865afa1580156113aa573d6000803e3d6000fd5b505050506040513d601f19601f820116820180604052508101906113ce919061439a565b6040805160608101825284815260035491516370a0823160e01b81526001600160a01b0388811660048301529394509092602084019216906370a0823190602401602060405180830381865afa15801561142c573d6000803e3d6000fd5b505050506040513d601f19601f82011682018060405250810190611450919061442f565b8152602001826001600160a01b0316815250925050505b919050565b61149060405180606001604052806000815260200160008152602001600081525090565b6002546001600160a01b031615611467576002546040516346df7f7160e11b81526001600160a01b03848116600483015290911690638dbefee290602401602060405180830381865afa1580156114eb573d6000803e3d6000fd5b505050506040513d601f19601f8201168201806040525081019061150f919061442f565b602082015260025460405163091030c360e01b81526001600160a01b0384811660048301529091169063091030c390602401602060405180830381865afa15801561155e573d6000803e3d6000fd5b505050506040513d601f19601f82011682018060405250810190611582919061442f565b81526002546040516370a0823160e01b81526001600160a01b038481166004830152909116906370a0823190602401602060405180830381865afa1580156115ce573d6000803e3d6000fd5b505050506040513d601f19601f820116820180604052508101906108f9919061442f565b606060008060029054906101000a90046001600160a01b03166001600160a01b031663b0772d0b6040518163ffffffff1660e01b8152600401600060405180830381865afa158015611648573d6000803e3d6000fd5b505050506040513d6000823e601f3d908101601f1916820160405261167091908101906142b3565b9050600081516001600160401b0381111561168d5761168d614046565b6040519080825280602002602001820160405280156116d257816020015b60408051808201909152600080825260208201528152602001906001900390816116ab5790505b50905060005b82518110156117c95760008382815181106116f5576116f5614379565b602002602001015190506040518060400160405280826001600160a01b03166395dd9193896040518263ffffffff1660e01b815260040161174591906001600160a01b0391909116815260200190565b602060405180830381865afa158015611762573d6000803e3d6000fd5b505050506040513d601f19601f82011682018060405250810190611786919061442f565b8152602001826001600160a01b03168152508383815181106117aa576117aa614379565b60200260200101819052505080806117c190614448565b9150506116d8565b509392505050565b60606000826001600160401b038111156117ed576117ed614046565b60405190808252806020026020018201604052801561182657816020015b611813613b7c565b81526020019060019003908161180b5790505b50905060005b838110156118fd5730630cf85bcc86868481811061184c5761184c614379565b90506020020160208101906118619190613c81565b6040516001600160e01b031960e084901b1681526001600160a01b039091166004820152602401600060405180830381865afa1580156118a5573d6000803e3d6000fd5b505050506040513d6000823e601f3d908101601f191682016040526118cd9190810190614545565b8282815181106118df576118df614379565b602002602001018190525080806118f590614448565b91505061182c565b5090505b92915050565b6005546000906001600160a01b031615611a0257600060029054906101000a90046001600160a01b03166001600160a01b0316637dc0d1d06040518163ffffffff1660e01b8152600401602060405180830381865afa15801561196e573d6000803e3d6000fd5b505050506040513d601f19601f82011682018060405250810190611992919061439a565b60055460405163fc57d4df60e01b81526001600160a01b03918216600482015291169063fc57d4df90602401602060405180830381865afa1580156119db573d6000803e3d6000fd5b505050506040513d601f19601f820116820180604052508101906119ff919061442f565b90505b90565b606060008060029054906101000a90046001600160a01b03166001600160a01b031663b0772d0b6040518163ffffffff1660e01b8152600401600060405180830381865afa158015611a5b573d6000803e3d6000fd5b505050506040513d6000823e601f3d908101601f19168201604052611a8391908101906142b3565b9050600081516001600160401b03811115611aa057611aa0614046565b604051908082528060200260200182016040528015611ae557816020015b6040805180820190915260008082526020820152815260200190600190039081611abe5790505b50905060005b82518110156117c9576000838281518110611b0857611b08614379565b6020908102919091010151604080518082019182905260005463929fe9a160e01b9092526001600160a01b03898116604483015280841660648301529293509182916201000090041663929fe9a160848301602060405180830381865afa158015611b77573d6000803e3d6000fd5b505050506040513d601f19601f82011682018060405250810190611b9b919061448d565b15158152602001826001600160a01b0316815250838381518110611bc157611bc1614379565b6020026020010181905250508080611bd890614448565b915050611aeb565b6060600083516001600160401b03811115611bfd57611bfd614046565b604051908082528060200260200182016040528015611c4257816020015b6040805180820190915260008082526020820152815260200190600190039081611c1b5790505b50905060005b84518110156118fd5760006001600160a01b0316858281518110611c6e57611c6e614379565b60200260200101516001600160a01b031603611ccf576040518060400160405280856001600160a01b031631815260200160006001600160a01b0316815250828281518110611cbf57611cbf614379565b6020026020010181905250611da5565b6000858281518110611ce357611ce3614379565b602002602001015190506040518060400160405280826001600160a01b03166370a08231886040518263ffffffff1660e01b8152600401611d3391906001600160a01b0391909116815260200190565b602060405180830381865afa158015611d50573d6000803e3d6000fd5b505050506040513d601f19601f82011682018060405250810190611d74919061442f565b8152602001826001600160a01b0316815250838381518110611d9857611d98614379565b6020026020010181905250505b80611daf81614448565b915050611c48565b606060008060029054906101000a90046001600160a01b03166001600160a01b031663b0772d0b6040518163ffffffff1660e01b8152600401600060405180830381865afa158015611e0d573d6000803e3d6000fd5b505050506040513d6000823e601f3d908101601f19168201604052611e3591908101906142b3565b9050600081516002611e479190614362565b611e529060016143b7565b6003549091506000906001600160a01b031615611e775781611e7381614448565b9250505b6000826001600160401b03811115611e9157611e91614046565b604051908082528060200260200182016040528015611eba578160200160208202803683370190505b506003549091506001600160a01b031615611f185760035481516001600160a01b0390911690829084908110611ef257611ef2614379565b6001600160a01b039092166020928302919091019091015281611f1481614448565b9250505b6000818381518110611f2c57611f2c614379565b6001600160a01b039092166020928302919091019091015281611f4e81614448565b92505060005b845181101561207e576000858281518110611f7157611f71614379565b60209081029190910101516005549091506000906001600160a01b03808416911614611ffc57816001600160a01b0316636f307dc36040518163ffffffff1660e01b8152600401602060405180830381865afa158015611fd5573d6000803e3d6000fd5b505050506040513d601f19601f82011682018060405250810190611ff9919061439a565b90505b8184868151811061200f5761200f614379565b6001600160a01b039092166020928302919091019091015280846120348760016143b7565b8151811061204457612044614379565b6001600160a01b03909216602092830291909101909101526120676002866143b7565b94505050808061207690614448565b915050611f54565b506120898187611be0565b9695505050505050565b6120d36040518060e00160405280600081526020016000815260200160008152602001600081526020016000815260200160008152602001600081525090565b6002546001600160a01b031615611a0257600260009054906101000a90046001600160a01b03166001600160a01b03166372b49d636040518163ffffffff1660e01b8152600401602060405180830381865afa158015612137573d6000803e3d6000fd5b505050506040513d601f19601f8201168201806040525081019061215b919061442f565b815260025460408051631ace254b60e11b815290516001600160a01b039092169163359c4a96916004808201926020929091908290030181865afa1580156121a7573d6000803e3d6000fd5b505050506040513d601f19601f820116820180604052508101906121cb919061442f565b6020808301919091526002546040805163919cd40f60e01b815290516001600160a01b039092169263919cd40f926004808401938290030181865afa158015612218573d6000803e3d6000fd5b505050506040513d601f19601f8201168201806040525081019061223c919061442f565b60408083019190915260025481516318160ddd60e01b815291516001600160a01b03909116916318160ddd9160048083019260209291908290030181865afa15801561228c573d6000803e3d6000fd5b505050506040513d601f19601f820116820180604052508101906122b0919061442f565b6060820152600254604051631e23703160e31b81526001600160a01b039091166004820181905260009163f11b818890602401606060405180830381865afa158015612300573d6000803e3d6000fd5b505050506040513d601f19601f8201168201806040525081019061232491906146dd565b80516001600160801b03908116608085015260208201511660a08401526040015160c08301525090565b600054610100900460ff161580801561236e5750600054600160ff909116105b806123885750303b158015612388575060005460ff166001145b6123f05760405162461bcd60e51b815260206004820152602e60248201527f496e697469616c697a61626c653a20636f6e747261637420697320616c72656160448201526d191e481a5b9a5d1a585b1a5e995960921b60648201526084015b60405180910390fd5b6000805460ff191660011790558015612413576000805461ff0019166101001790555b6001600160a01b0387166124745760405162461bcd60e51b815260206004820152602260248201527f436f6d7074726f6c6c65722063616e7420626520746865203020616464726573604482015261732160f01b60648201526084016123e7565b86600060026101000a8154816001600160a01b0302191690836001600160a01b03160217905550600060029054906101000a90046001600160a01b03166001600160a01b0316627e3dd26040518163ffffffff1660e01b8152600401602060405180830381865afa1580156124ed573d6000803e3d6000fd5b505050506040513d601f19601f82011682018060405250810190612511919061448d565b6125755760405162461bcd60e51b815260206004820152602f60248201527f43616e742062696e6420746f20736f6d657468696e67207468617473206e6f7460448201526e206120636f6d7074726f6c6c65722160881b60648201526084016123e7565b600180546001600160a01b03199081166001600160a01b0389811691909117909255600280548216888416179055600380548216878416179055600580548216868416179055600480549091169184169190911790558015612611576000805461ff0019169055604051600181527f7f26b83ff96e1f2b6a682f133852f6798a09c465da95921460cefb38474024989060200160405180910390a15b50505050505050565b612622613c16565b6002546001600160a01b031615611467576002546000906001600160a01b031663782d6fe184612653600143614685565b6040516001600160e01b031960e085901b1681526001600160a01b0390921660048301526024820152604401602060405180830381865afa15801561269c573d6000803e3d6000fd5b505050506040513d601f19601f820116820180604052508101906126c0919061442f565b6040805160608101825282815260025491516370a0823160e01b81526001600160a01b0387811660048301529394509092602084019216906370a0823190602401602060405180830381865afa15801561271e573d6000803e3d6000fd5b505050506040513d601f19601f82011682018060405250810190612742919061442f565b815260006020909101529392505050565b606060008060029054906101000a90046001600160a01b031690506000816001600160a01b03166333bb48f96040518163ffffffff1660e01b8152600401602060405180830381865afa1580156127ae573d6000803e3d6000fd5b505050506040513d601f19601f820116820180604052508101906127d2919061439a565b90506127dc613c40565b6001600160a01b03821681526000602082018190526040805160028082526060820190925290816020015b612834604051806060016040528060006001600160a01b0316815260200160008152602001600081525090565b81526020019060019003908161280757905050905060005b60028160ff1610156129a4576040518060600160405280848360ff166002811061287857612878614379565b60200201516001600160a01b03168152602001866001600160a01b031663cf9cfb61848b6040518363ffffffff1660e01b81526004016128b9929190614413565b602060405180830381865afa1580156128d6573d6000803e3d6000fd5b505050506040513d601f19601f820116820180604052508101906128fa919061442f565b8152602001866001600160a01b031663c376fada848b6040518363ffffffff1660e01b815260040161292d929190614413565b602060405180830381865afa15801561294a573d6000803e3d6000fd5b505050506040513d601f19601f8201168201806040525081019061296e919061442f565b815250828260ff168151811061298657612986614379565b6020026020010181905250808061299c90614727565b91505061284c565b5095945050505050565b6129b6613c16565b6001546001600160a01b03161561146757600180546000916001600160a01b039091169063782d6fe19085906129ec9043614685565b6040516001600160e01b031960e085901b1681526001600160a01b0390921660048301526024820152604401602060405180830381865afa158015612a35573d6000803e3d6000fd5b505050506040513d601f19601f82011682018060405250810190612a59919061442f565b60015460405163ed361b3560e01b81526001600160a01b0386811660048301529293506000929091169063ed361b3590602401602060405180830381865afa158015612aa9573d6000803e3d6000fd5b505050506040513d601f19601f82011682018060405250810190612acd919061442f565b600154604051631debb35d60e31b81526001600160a01b0387811660048301529293506000929091169063ef5d9ae890602401602060405180830381865afa158015612b1d573d6000803e3d6000fd5b505050506040513d601f19601f82011682018060405250810190612b41919061442f565b600154604051632c3e6f0f60e11b81526001600160a01b0388811660048301529293506000929091169063587cde1e90602401602060405180830381865afa158015612b91573d6000803e3d6000fd5b505050506040513d601f19601f82011682018060405250810190612bb5919061439a565b905060405180606001604052808581526020018385612bd49190614685565b8152602001826001600160a01b0316815250945050505050919050565b6004546000906001600160a01b031615801590612c1857506005546001600160a01b031615155b15611a02576004805460408051630240bc6b60e21b8152905160009384936001600160a01b031692630902f1ac92818301926060928290030181865afa158015612c66573d6000803e3d6000fd5b505050506040513d601f19601f82011682018060405250810190612c8a919061475d565b506001600160701b031691506001600160701b031691506000600460009054906101000a90046001600160a01b03166001600160a01b0316630dfe16816040518163ffffffff1660e01b8152600401602060405180830381865afa158015612cf6573d6000803e3d6000fd5b505050506040513d601f19601f82011682018060405250810190612d1a919061439a565b6003549091506000906001600160a01b03808416911614612d3b5783612d3d565b825b6003549091506000906001600160a01b03848116911614612d5e5783612d60565b845b905080612d6b611907565b612d759084614362565b612d7f91906147a0565b9550505050505090565b600060018460ff161115612daf5760405162461bcd60e51b81526004016123e7906147c2565b6000612dbc86868661312e565b604080516020808201835283516001600160e01b0316825282519081019283905263111d2e5760e31b90925260ff881660248301526001600160a01b0387811660448401528681166064840152929350916000919081908a166388e972b860848301602060405180830381865afa158015612e3b573d6000803e3d6000fd5b505050506040513d601f19601f82011682018060405250810190612e5f919061442f565b90528051909150158015612e735750815115155b15612e8b576ec097ce7bc90715b34b9f100000000081525b6000612e97838361348a565b6040516370a0823160e01b81526001600160a01b0388811660048301529192506000918916906370a0823190602401602060405180830381865afa158015612ee3573d6000803e3d6000fd5b505050506040513d601f19601f82011682018060405250810190612f07919061442f565b90506000612f1582846134bf565b96505050505050505b949350505050565b600060018460ff161115612f4c5760405162461bcd60e51b81526004016123e7906147c2565b60006040518060200160405280856001600160a01b031663aa5af0fd6040518163ffffffff1660e01b8152600401602060405180830381865afa158015612f97573d6000803e3d6000fd5b505050506040513d601f19601f82011682018060405250810190612fbb919061442f565b905290506000612fcc8787876134f0565b604080516020808201835283516001600160e01b03168252825190810192839052637937969d60e01b90925260ff891660248301526001600160a01b0388811660448401528781166064840152929350916000919081908b16637937969d60848301602060405180830381865afa15801561304b573d6000803e3d6000fd5b505050506040513d601f19601f8201168201806040525081019061306f919061442f565b905280519091501561311f576000613087838361348a565b6040516395dd919360e01b81526001600160a01b03898116600483015291925060009161310291908b16906395dd919390602401602060405180830381865afa1580156130d8573d6000803e3d6000fd5b505050506040513d601f19601f820116820180604052508101906130fc919061442f565b876138a0565b9050600061311082846134bf565b9750612f1e9650505050505050565b50600098975050505050505050565b604080518082019091526000808252602082015260018360ff1611156131665760405162461bcd60e51b81526004016123e7906147c2565b60405163d81c5e4560e01b81526000906001600160a01b0386169063d81c5e45906131979087908790600401614413565b6040805180830381865afa1580156131b3573d6000803e3d6000fd5b505050506040513d601f19601f820116820180604052508101906131d791906147f1565b90506000856001600160a01b031663cf9cfb6186866040518363ffffffff1660e01b8152600401613209929190614413565b602060405180830381865afa158015613226573d6000803e3d6000fd5b505050506040513d601f19601f8201168201806040525081019061324a919061442f565b90506000429050600061326782856020015163ffffffff166138be565b90506000811180156132795750600083115b156133df576000866001600160a01b03166318160ddd6040518163ffffffff1660e01b8152600401602060405180830381865afa1580156132be573d6000803e3d6000fd5b505050506040513d601f19601f820116820180604052508101906132e2919061442f565b905060006132f083866138f8565b90506000808311613310576040518060200160405280600081525061331a565b61331a828461393a565b9050600061334360405180602001604052808a600001516001600160e01b031681525083613976565b9050604051806040016040528061339083600001516040518060400160405280601a8152602001796e657720696e646578206578636565647320323234206269747360301b8152506139a2565b6001600160e01b031681526020016133cb886040518060400160405280601f81526020016000805160206148968339815191528152506139d1565b63ffffffff1681525098505050505061347f565b801561347f57604051806040016040528061343986600001516001600160e01b03166040518060400160405280601a8152602001796e657720696e646578206578636565647320323234206269747360301b8152506139a2565b6001600160e01b03168152602001613474846040518060400160405280601f81526020016000805160206148968339815191528152506139d1565b63ffffffff16905294505b505050509392505050565b60408051602081019091526000815260405180602001604052806134b6856000015185600001516138be565b90529392505050565b60006ec097ce7bc90715b34b9f10000000006134df8484600001516138f8565b6134e991906147a0565b9392505050565b604080518082019091526000808252602082015260018360ff1611156135285760405162461bcd60e51b81526004016123e7906147c2565b60006040518060200160405280846001600160a01b031663aa5af0fd6040518163ffffffff1660e01b8152600401602060405180830381865afa158015613573573d6000803e3d6000fd5b505050506040513d601f19601f82011682018060405250810190613597919061442f565b90526040516312ce829d60e21b81529091506000906001600160a01b03871690634b3a0a74906135cd9088908890600401614413565b6040805180830381865afa1580156135e9573d6000803e3d6000fd5b505050506040513d601f19601f8201168201806040525081019061360d91906147f1565b90506000866001600160a01b031663c376fada87876040518363ffffffff1660e01b815260040161363f929190614413565b602060405180830381865afa15801561365c573d6000803e3d6000fd5b505050506040513d601f19601f82011682018060405250810190613680919061442f565b90506000429050600061369d82856020015163ffffffff166138be565b90506000811180156136af5750600083115b156137f45760006136f7886001600160a01b03166347bd37186040518163ffffffff1660e01b8152600401602060405180830381865afa1580156130d8573d6000803e3d6000fd5b9050600061370583866138f8565b90506000808311613725576040518060200160405280600081525061372f565b61372f828461393a565b9050600061375860405180602001604052808a600001516001600160e01b031681525083613976565b905060405180604001604052806137a583600001516040518060400160405280601a8152602001796e657720696e646578206578636565647320323234206269747360301b8152506139a2565b6001600160e01b031681526020016137e0886040518060400160405280601f81526020016000805160206148968339815191528152506139d1565b63ffffffff16815250995050505050613894565b801561389457604051806040016040528061384e86600001516001600160e01b03166040518060400160405280601a8152602001796e657720696e646578206578636565647320323234206269747360301b8152506139a2565b6001600160e01b03168152602001613889846040518060400160405280601f81526020016000805160206148968339815191528152506139d1565b63ffffffff16905295505b50505050509392505050565b60006134e96138b784670de0b6b3a76400006138f8565b83516139f9565b60006134e98383604051806040016040528060158152602001747375627472616374696f6e20756e646572666c6f7760581b815250613a2c565b60006134e983836040518060400160405280601781526020017f6d756c7469706c69636174696f6e206f766572666c6f77000000000000000000815250613a5b565b60408051602081019091526000815260405180602001604052806134b6613970866ec097ce7bc90715b34b9f10000000006138f8565b856139f9565b60408051602081019091526000815260405180602001604052806134b685600001518560000151613ab7565b600081600160e01b84106139c95760405162461bcd60e51b81526004016123e79190614847565b509192915050565b60008164010000000084106139c95760405162461bcd60e51b81526004016123e79190614847565b60006134e983836040518060400160405280600e81526020016d646976696465206279207a65726f60901b815250613aed565b60008184841115613a505760405162461bcd60e51b81526004016123e79190614847565b50612f1e8385614685565b6000831580613a68575082155b15613a75575060006134e9565b6000613a818486614362565b905083613a8e86836147a0565b148390613aae5760405162461bcd60e51b81526004016123e79190614847565b50949350505050565b60006134e98383604051806040016040528060118152602001706164646974696f6e206f766572666c6f7760781b815250613b19565b60008183613b0e5760405162461bcd60e51b81526004016123e79190614847565b50612f1e83856147a0565b600080613b2684866143b7565b90508285821015613aae5760405162461bcd60e51b81526004016123e79190614847565b6040518060600160405280613b5d613c16565b8152602001613b6a613c16565b8152602001613b77613c16565b905290565b60405180610240016040528060006001600160a01b0316815260200160001515815260200160008152602001600081526020016000151581526020016000151581526020016000815260200160008152602001600081526020016000815260200160008152602001600081526020016000815260200160008152602001600081526020016000815260200160008152602001606081525090565b6040518060600160405280600081526020016000815260200160006001600160a01b031681525090565b60405180604001604052806002906020820280368337509192915050565b6001600160a01b0381168114613c7357600080fd5b50565b803561146781613c5e565b600060208284031215613c9357600080fd5b81356134e981613c5e565b602080825282518282018190526000919060409081850190868401855b82811015613d0157815180516001600160a01b03908116865287820151168786015285810151868601526060908101519085015260809093019290850190600101613cbb565b5091979650505050505050565b80518252602080820151908301526040908101516001600160a01b0316910152565b600061012082019050613d44828451613d0e565b6020830151613d566060840182613d0e565b50604083015161129d60c0840182613d0e565b600081518084526020808501945080840160005b83811015613dba57815180516001600160a01b03168852602080820151908901526040908101519088015260608701965090820190600101613d7d565b509495945050505050565b80516001600160a01b0316825260006102406020830151613dea602086018215159052565b5060408301516040850152606083015160608501526080830151613e12608086018215159052565b5060a0830151613e2660a086018215159052565b5060c0838101519085015260e08084015190850152610100808401519085015261012080840151908501526101408084015190850152610160808401519085015261018080840151908501526101a080840151908501526101c080840151908501526101e0808401519085015261020080840151908501526102208084015181860183905261208983870182613d69565b6020815260006134e96020830184613dc5565b6000602080830181845280855180835260408601915060408160051b870101925083870160005b82811015613f1f57603f19888603018452613f0d858351613dc5565b94509285019290850190600101613ef1565b5092979650505050505050565b606081016119018284613d0e565b602080825282518282018190526000919060409081850190868401855b82811015613d01578151805185528601516001600160a01b0316868501529284019290850190600101613f57565b60008060208385031215613f9857600080fd5b82356001600160401b0380821115613faf57600080fd5b818501915085601f830112613fc357600080fd5b813581811115613fd257600080fd5b8660208260051b8501011115613fe757600080fd5b60209290920196919550909350505050565b602080825282518282018190526000919060409081850190868401855b82811015613d015781518051151585528601516001600160a01b0316868501529284019290850190600101614016565b634e487b7160e01b600052604160045260246000fd5b604080519081016001600160401b038111828210171561407e5761407e614046565b60405290565b604051606081016001600160401b038111828210171561407e5761407e614046565b60405161024081016001600160401b038111828210171561407e5761407e614046565b604051601f8201601f191681016001600160401b03811182821017156140f1576140f1614046565b604052919050565b60006001600160401b0382111561411257614112614046565b5060051b60200190565b6000806040838503121561412f57600080fd5b82356001600160401b0381111561414557600080fd5b8301601f8101851361415657600080fd5b8035602061416b614166836140f9565b6140c9565b82815260059290921b8301810191818101908884111561418a57600080fd5b938201935b838510156141b15784356141a281613c5e565b8252938201939082019061418f565b95506141c09050868201613c76565b93505050509250929050565b60008060008060008060c087890312156141e557600080fd5b86356141f081613c5e565b9550602087013561420081613c5e565b9450604087013561421081613c5e565b9350606087013561422081613c5e565b9250608087013561423081613c5e565b915060a087013561424081613c5e565b809150509295509295509295565b6020808252825182820181905260009190848201906040850190845b818110156142a757835180516001600160a01b0316845260208082015190850152604090810151908401526060830193850193925060010161426a565b50909695505050505050565b600060208083850312156142c657600080fd5b82516001600160401b038111156142dc57600080fd5b8301601f810185136142ed57600080fd5b80516142fb614166826140f9565b81815260059190911b8201830190838101908783111561431a57600080fd5b928401925b8284101561434157835161433281613c5e565b8252928401929084019061431f565b979650505050505050565b634e487b7160e01b600052601160045260246000fd5b80820281158282048414176119015761190161434c565b634e487b7160e01b600052603260045260246000fd5b805161146781613c5e565b6000602082840312156143ac57600080fd5b81516134e981613c5e565b808201808211156119015761190161434c565b8051801515811461146757600080fd5b6000604082840312156143ec57600080fd5b6143f461405c565b6143fd836143ca565b8152602083015160208201528091505092915050565b60ff9290921682526001600160a01b0316602082015260400190565b60006020828403121561444157600080fd5b5051919050565b60006001820161445a5761445a61434c565b5060010190565b6000806040838503121561447457600080fd5b61447d836143ca565b9150602083015190509250929050565b60006020828403121561449f57600080fd5b6134e9826143ca565b600082601f8301126144b957600080fd5b815160206144c9614166836140f9565b828152606092830285018201928282019190878511156144e857600080fd5b8387015b858110156145385781818a0312156145045760008081fd5b61450c614084565b815161451781613c5e565b815281860151868201526040808301519082015284529284019281016144ec565b5090979650505050505050565b60006020828403121561455757600080fd5b81516001600160401b038082111561456e57600080fd5b90830190610240828603121561458357600080fd5b61458b6140a6565b6145948361438f565b81526145a2602084016143ca565b602082015260408301516040820152606083015160608201526145c7608084016143ca565b60808201526145d860a084016143ca565b60a082015260c0838101519082015260e08084015190820152610100808401519082015261012080840151908201526101408084015190820152610160808401519082015261018080840151908201526101a080840151908201526101c080840151908201526101e080840151908201526102008084015190820152610220808401518381111561466857600080fd5b614674888287016144a8565b918301919091525095945050505050565b818103818111156119015761190161434c565b6000602082840312156146aa57600080fd5b81516bffffffffffffffffffffffff811681146134e957600080fd5b80516001600160801b038116811461146757600080fd5b6000606082840312156146ef57600080fd5b6146f7614084565b614700836146c6565b815261470e602084016146c6565b6020820152604083015160408201528091505092915050565b600060ff821660ff810361473d5761473d61434c565b60010192915050565b80516001600160701b038116811461146757600080fd5b60008060006060848603121561477257600080fd5b61477b84614746565b925061478960208501614746565b915061479760408501614746565b90509250925092565b6000826147bd57634e487b7160e01b600052601260045260246000fd5b500490565b6020808252601590820152741c995dd85c99151e5c19481a5cc81a5b9d985b1a59605a1b604082015260600190565b60006040828403121561480357600080fd5b61480b61405c565b82516001600160e01b038116811461482257600080fd5b8152602083015163ffffffff8116811461483b57600080fd5b60208201529392505050565b600060208083528351808285015260005b8181101561487457858101830151858201604001528201614858565b506000604082860101526040601f19601f830116850101925050509291505056fe626c6f636b2074696d657374616d702065786365656473203332206269747300a2646970667358221220111d28332a60b80a4c1c92a287bc7f2348dd1eff9f3e20f988dff79f3c3fcd9664736f6c63430008130033",
    "linkReferences": {}
  },
  "methodIdentifiers": {
    "comptroller()": "5fe3b567",
    "getAllMarketsInfo()": "139df200",
    "getGovernanceTokenPrice()": "fcf14dd8",
    "getMarketIncentives(address)": "e22340c8",
    "getMarketInfo(address)": "0cf85bcc",
    "getMarketsInfo(address[])": "8d0d04b9",
    "getNativeTokenPrice()": "94c77638",
    "getProtocolInfo()": "0dca69f9",
    "getStakingInfo()": "b40cd21d",
    "getTokensBalances(address[],address)": "a5be5463",
    "getUserBalances(address)": "abd3f612",
    "getUserBorrowsBalances(address)": "8843abef",
    "getUserClaimsVotingPower(address)": "ed4e0164",
    "getUserMarketsMemberships(address)": "9966ff54",
    "getUserRewards(address)": "078b0fb7",
    "getUserStakingInfo(address)": "80933608",
    "getUserStakingVotingPower(address)": "ce3f8aab",
    "getUserTokensVotingPower(address)": "6e8c5b95",
    "getUserVotingPower(address)": "0baca2e5",
    "initialize(address,address,address,address,address,address)": "cc2a9a5b"
  },
  "id": 63
}