{
  "_format": "hh-sol-artifact-1",
  "contractName": "MoonwellGovernorArtemis",
  "sourceName": "moonwell-contracts-private/contracts/core/Governance/MoonwellArtemisGovernor.sol",
  "abi": [
    {
      "inputs": [
        {
          "internalType": "address",
          "name": "timelock_",
          "type": "address"
        },
        {
          "internalType": "address",
          "name": "well_",
          "type": "address"
        },
        {
          "internalType": "address",
          "name": "distributor_",
          "type": "address"
        },
        {
          "internalType": "address",
          "name": "safetyModule_",
          "type": "address"
        },
        {
          "internalType": "address",
          "name": "breakGlassGuardian_",
          "type": "address"
        },
        {
          "internalType": "address",
          "name": "governanceReturnAddress_",
          "type": "address"
        },
        {
          "internalType": "address",
          "name": "governanceReturnGuardian_",
          "type": "address"
        },
        {
          "internalType": "uint256",
          "name": "guardianSunset_",
          "type": "uint256"
        }
      ],
      "stateMutability": "nonpayable",
      "type": "constructor"
    },
    {
      "anonymous": false,
      "inputs": [
        {
          "indexed": false,
          "internalType": "address",
          "name": "oldValue",
          "type": "address"
        },
        {
          "indexed": false,
          "internalType": "address",
          "name": "newValue",
          "type": "address"
        }
      ],
      "name": "BreakGlassGuardianChanged",
      "type": "event"
    },
    {
      "anonymous": false,
      "inputs": [
        {
          "indexed": false,
          "internalType": "address",
          "name": "oldValue",
          "type": "address"
        },
        {
          "indexed": false,
          "internalType": "address",
          "name": "newValue",
          "type": "address"
        }
      ],
      "name": "GovernanceReturnAddressChanged",
      "type": "event"
    },
    {
      "anonymous": false,
      "inputs": [
        {
          "indexed": false,
          "internalType": "uint256",
          "name": "id",
          "type": "uint256"
        }
      ],
      "name": "ProposalCanceled",
      "type": "event"
    },
    {
      "anonymous": false,
      "inputs": [
        {
          "indexed": false,
          "internalType": "uint256",
          "name": "id",
          "type": "uint256"
        },
        {
          "indexed": false,
          "internalType": "address",
          "name": "proposer",
          "type": "address"
        },
        {
          "indexed": false,
          "internalType": "address[]",
          "name": "targets",
          "type": "address[]"
        },
        {
          "indexed": false,
          "internalType": "uint256[]",
          "name": "values",
          "type": "uint256[]"
        },
        {
          "indexed": false,
          "internalType": "string[]",
          "name": "signatures",
          "type": "string[]"
        },
        {
          "indexed": false,
          "internalType": "bytes[]",
          "name": "calldatas",
          "type": "bytes[]"
        },
        {
          "indexed": false,
          "internalType": "uint256",
          "name": "startTimestamp",
          "type": "uint256"
        },
        {
          "indexed": false,
          "internalType": "uint256",
          "name": "endTimestamp",
          "type": "uint256"
        },
        {
          "indexed": false,
          "internalType": "string",
          "name": "description",
          "type": "string"
        }
      ],
      "name": "ProposalCreated",
      "type": "event"
    },
    {
      "anonymous": false,
      "inputs": [
        {
          "indexed": false,
          "internalType": "uint256",
          "name": "id",
          "type": "uint256"
        }
      ],
      "name": "ProposalExecuted",
      "type": "event"
    },
    {
      "anonymous": false,
      "inputs": [
        {
          "indexed": false,
          "internalType": "uint256",
          "name": "oldValue",
          "type": "uint256"
        },
        {
          "indexed": false,
          "internalType": "uint256",
          "name": "newValue",
          "type": "uint256"
        }
      ],
      "name": "ProposalMaxOperationsChanged",
      "type": "event"
    },
    {
      "anonymous": false,
      "inputs": [
        {
          "indexed": false,
          "internalType": "uint256",
          "name": "id",
          "type": "uint256"
        },
        {
          "indexed": false,
          "internalType": "uint256",
          "name": "eta",
          "type": "uint256"
        }
      ],
      "name": "ProposalQueued",
      "type": "event"
    },
    {
      "anonymous": false,
      "inputs": [
        {
          "indexed": false,
          "internalType": "uint256",
          "name": "oldValue",
          "type": "uint256"
        },
        {
          "indexed": false,
          "internalType": "uint256",
          "name": "newValue",
          "type": "uint256"
        }
      ],
      "name": "ProposalThresholdChanged",
      "type": "event"
    },
    {
      "anonymous": false,
      "inputs": [
        {
          "indexed": false,
          "internalType": "uint256",
          "name": "oldValue",
          "type": "uint256"
        },
        {
          "indexed": false,
          "internalType": "uint256",
          "name": "newValue",
          "type": "uint256"
        }
      ],
      "name": "QuroumVotesChanged",
      "type": "event"
    },
    {
      "anonymous": false,
      "inputs": [
        {
          "indexed": false,
          "internalType": "uint256",
          "name": "proposalId",
          "type": "uint256"
        },
        {
          "indexed": false,
          "internalType": "uint256",
          "name": "startBlock",
          "type": "uint256"
        }
      ],
      "name": "StartBlockSet",
      "type": "event"
    },
    {
      "anonymous": false,
      "inputs": [
        {
          "indexed": false,
          "internalType": "address",
          "name": "voter",
          "type": "address"
        },
        {
          "indexed": false,
          "internalType": "uint256",
          "name": "proposalId",
          "type": "uint256"
        },
        {
          "indexed": false,
          "internalType": "uint8",
          "name": "voteValue",
          "type": "uint8"
        },
        {
          "indexed": false,
          "internalType": "uint256",
          "name": "votes",
          "type": "uint256"
        }
      ],
      "name": "VoteCast",
      "type": "event"
    },
    {
      "anonymous": false,
      "inputs": [
        {
          "indexed": false,
          "internalType": "uint256",
          "name": "oldValue",
          "type": "uint256"
        },
        {
          "indexed": false,
          "internalType": "uint256",
          "name": "newValue",
          "type": "uint256"
        }
      ],
      "name": "VotingDelayChanged",
      "type": "event"
    },
    {
      "anonymous": false,
      "inputs": [
        {
          "indexed": false,
          "internalType": "uint256",
          "name": "oldValue",
          "type": "uint256"
        },
        {
          "indexed": false,
          "internalType": "uint256",
          "name": "newValue",
          "type": "uint256"
        }
      ],
      "name": "VotingPeriodChanged",
      "type": "event"
    },
    {
      "inputs": [],
      "name": "BALLOT_TYPEHASH",
      "outputs": [
        {
          "internalType": "bytes32",
          "name": "",
          "type": "bytes32"
        }
      ],
      "stateMutability": "view",
      "type": "function"
    },
    {
      "inputs": [],
      "name": "DOMAIN_TYPEHASH",
      "outputs": [
        {
          "internalType": "bytes32",
          "name": "",
          "type": "bytes32"
        }
      ],
      "stateMutability": "view",
      "type": "function"
    },
    {
      "inputs": [],
      "name": "__acceptAdminOnTimelock",
      "outputs": [],
      "stateMutability": "nonpayable",
      "type": "function"
    },
    {
      "inputs": [
        {
          "internalType": "address[]",
          "name": "addresses",
          "type": "address[]"
        }
      ],
      "name": "__executeAcceptAdminOnContract",
      "outputs": [],
      "stateMutability": "nonpayable",
      "type": "function"
    },
    {
      "inputs": [
        {
          "internalType": "contract ChangeAdminInterface[]",
          "name": "addresses",
          "type": "address[]"
        }
      ],
      "name": "__executeBreakGlassOnChangeAdmin",
      "outputs": [],
      "stateMutability": "nonpayable",
      "type": "function"
    },
    {
      "inputs": [
        {
          "internalType": "contract CompoundSetPendingAdminInterface[]",
          "name": "addresses",
          "type": "address[]"
        }
      ],
      "name": "__executeBreakGlassOnCompound",
      "outputs": [],
      "stateMutability": "nonpayable",
      "type": "function"
    },
    {
      "inputs": [
        {
          "internalType": "contract SetEmissionsManagerInterface[]",
          "name": "addresses",
          "type": "address[]"
        }
      ],
      "name": "__executeBreakGlassOnEmissionsManager",
      "outputs": [],
      "stateMutability": "nonpayable",
      "type": "function"
    },
    {
      "inputs": [
        {
          "internalType": "contract OwnableInterface[]",
          "name": "addresses",
          "type": "address[]"
        }
      ],
      "name": "__executeBreakGlassOnOwnable",
      "outputs": [],
      "stateMutability": "nonpayable",
      "type": "function"
    },
    {
      "inputs": [
        {
          "internalType": "contract SetAdminInterface[]",
          "name": "addresses",
          "type": "address[]"
        }
      ],
      "name": "__executeBreakGlassOnSetAdmin",
      "outputs": [],
      "stateMutability": "nonpayable",
      "type": "function"
    },
    {
      "inputs": [
        {
          "internalType": "contract SetPendingAdminInterface[]",
          "name": "addresses",
          "type": "address[]"
        }
      ],
      "name": "__executeBreakGlassOnSetPendingAdmin",
      "outputs": [],
      "stateMutability": "nonpayable",
      "type": "function"
    },
    {
      "inputs": [
        {
          "internalType": "address[]",
          "name": "addresses",
          "type": "address[]"
        }
      ],
      "name": "__executeCompoundAcceptAdminOnContract",
      "outputs": [],
      "stateMutability": "nonpayable",
      "type": "function"
    },
    {
      "inputs": [],
      "name": "__removeGuardians",
      "outputs": [],
      "stateMutability": "nonpayable",
      "type": "function"
    },
    {
      "inputs": [
        {
          "internalType": "address",
          "name": "governanceReturnAddress_",
          "type": "address"
        }
      ],
      "name": "__setGovernanceReturnAddress",
      "outputs": [],
      "stateMutability": "nonpayable",
      "type": "function"
    },
    {
      "inputs": [],
      "name": "breakGlassGuardian",
      "outputs": [
        {
          "internalType": "address",
          "name": "",
          "type": "address"
        }
      ],
      "stateMutability": "view",
      "type": "function"
    },
    {
      "inputs": [
        {
          "internalType": "uint256",
          "name": "proposalId",
          "type": "uint256"
        }
      ],
      "name": "cancel",
      "outputs": [],
      "stateMutability": "nonpayable",
      "type": "function"
    },
    {
      "inputs": [
        {
          "internalType": "uint256",
          "name": "proposalId",
          "type": "uint256"
        },
        {
          "internalType": "uint8",
          "name": "voteValue",
          "type": "uint8"
        }
      ],
      "name": "castVote",
      "outputs": [],
      "stateMutability": "nonpayable",
      "type": "function"
    },
    {
      "inputs": [
        {
          "internalType": "uint256",
          "name": "proposalId",
          "type": "uint256"
        },
        {
          "internalType": "uint8",
          "name": "voteValue",
          "type": "uint8"
        },
        {
          "internalType": "uint8",
          "name": "v",
          "type": "uint8"
        },
        {
          "internalType": "bytes32",
          "name": "r",
          "type": "bytes32"
        },
        {
          "internalType": "bytes32",
          "name": "s",
          "type": "bytes32"
        }
      ],
      "name": "castVoteBySig",
      "outputs": [],
      "stateMutability": "nonpayable",
      "type": "function"
    },
    {
      "inputs": [],
      "name": "distributor",
      "outputs": [
        {
          "internalType": "contract SnapshotInterface",
          "name": "",
          "type": "address"
        }
      ],
      "stateMutability": "view",
      "type": "function"
    },
    {
      "inputs": [
        {
          "internalType": "uint256",
          "name": "proposalId",
          "type": "uint256"
        }
      ],
      "name": "execute",
      "outputs": [],
      "stateMutability": "nonpayable",
      "type": "function"
    },
    {
      "inputs": [
        {
          "internalType": "uint256",
          "name": "proposalId",
          "type": "uint256"
        }
      ],
      "name": "getActions",
      "outputs": [
        {
          "internalType": "address[]",
          "name": "targets",
          "type": "address[]"
        },
        {
          "internalType": "uint256[]",
          "name": "values",
          "type": "uint256[]"
        },
        {
          "internalType": "string[]",
          "name": "signatures",
          "type": "string[]"
        },
        {
          "internalType": "bytes[]",
          "name": "calldatas",
          "type": "bytes[]"
        }
      ],
      "stateMutability": "view",
      "type": "function"
    },
    {
      "inputs": [
        {
          "internalType": "uint256",
          "name": "proposalId",
          "type": "uint256"
        },
        {
          "internalType": "address",
          "name": "voter",
          "type": "address"
        }
      ],
      "name": "getReceipt",
      "outputs": [
        {
          "components": [
            {
              "internalType": "bool",
              "name": "hasVoted",
              "type": "bool"
            },
            {
              "internalType": "uint8",
              "name": "voteValue",
              "type": "uint8"
            },
            {
              "internalType": "uint256",
              "name": "votes",
              "type": "uint256"
            }
          ],
          "internalType": "struct MoonwellGovernorArtemis.Receipt",
          "name": "",
          "type": "tuple"
        }
      ],
      "stateMutability": "view",
      "type": "function"
    },
    {
      "inputs": [],
      "name": "governanceReturnAddress",
      "outputs": [
        {
          "internalType": "address",
          "name": "",
          "type": "address"
        }
      ],
      "stateMutability": "view",
      "type": "function"
    },
    {
      "inputs": [],
      "name": "governanceReturnGuardian",
      "outputs": [
        {
          "internalType": "address",
          "name": "",
          "type": "address"
        }
      ],
      "stateMutability": "view",
      "type": "function"
    },
    {
      "inputs": [],
      "name": "guardianSunset",
      "outputs": [
        {
          "internalType": "uint256",
          "name": "",
          "type": "uint256"
        }
      ],
      "stateMutability": "view",
      "type": "function"
    },
    {
      "inputs": [
        {
          "internalType": "address",
          "name": "",
          "type": "address"
        }
      ],
      "name": "latestProposalIds",
      "outputs": [
        {
          "internalType": "uint256",
          "name": "",
          "type": "uint256"
        }
      ],
      "stateMutability": "view",
      "type": "function"
    },
    {
      "inputs": [],
      "name": "name",
      "outputs": [
        {
          "internalType": "string",
          "name": "",
          "type": "string"
        }
      ],
      "stateMutability": "view",
      "type": "function"
    },
    {
      "inputs": [],
      "name": "proposalCount",
      "outputs": [
        {
          "internalType": "uint256",
          "name": "",
          "type": "uint256"
        }
      ],
      "stateMutability": "view",
      "type": "function"
    },
    {
      "inputs": [],
      "name": "proposalMaxOperations",
      "outputs": [
        {
          "internalType": "uint256",
          "name": "",
          "type": "uint256"
        }
      ],
      "stateMutability": "view",
      "type": "function"
    },
    {
      "inputs": [],
      "name": "proposalThreshold",
      "outputs": [
        {
          "internalType": "uint256",
          "name": "",
          "type": "uint256"
        }
      ],
      "stateMutability": "view",
      "type": "function"
    },
    {
      "inputs": [
        {
          "internalType": "uint256",
          "name": "",
          "type": "uint256"
        }
      ],
      "name": "proposals",
      "outputs": [
        {
          "internalType": "uint256",
          "name": "id",
          "type": "uint256"
        },
        {
          "internalType": "address",
          "name": "proposer",
          "type": "address"
        },
        {
          "internalType": "uint256",
          "name": "eta",
          "type": "uint256"
        },
        {
          "internalType": "uint256",
          "name": "startTimestamp",
          "type": "uint256"
        },
        {
          "internalType": "uint256",
          "name": "endTimestamp",
          "type": "uint256"
        },
        {
          "internalType": "uint256",
          "name": "startBlock",
          "type": "uint256"
        },
        {
          "internalType": "uint256",
          "name": "forVotes",
          "type": "uint256"
        },
        {
          "internalType": "uint256",
          "name": "againstVotes",
          "type": "uint256"
        },
        {
          "internalType": "uint256",
          "name": "abstainVotes",
          "type": "uint256"
        },
        {
          "internalType": "uint256",
          "name": "totalVotes",
          "type": "uint256"
        },
        {
          "internalType": "bool",
          "name": "canceled",
          "type": "bool"
        },
        {
          "internalType": "bool",
          "name": "executed",
          "type": "bool"
        }
      ],
      "stateMutability": "view",
      "type": "function"
    },
    {
      "inputs": [
        {
          "internalType": "address[]",
          "name": "targets",
          "type": "address[]"
        },
        {
          "internalType": "uint256[]",
          "name": "values",
          "type": "uint256[]"
        },
        {
          "internalType": "string[]",
          "name": "signatures",
          "type": "string[]"
        },
        {
          "internalType": "bytes[]",
          "name": "calldatas",
          "type": "bytes[]"
        },
        {
          "internalType": "string",
          "name": "description",
          "type": "string"
        }
      ],
      "name": "propose",
      "outputs": [
        {
          "internalType": "uint256",
          "name": "",
          "type": "uint256"
        }
      ],
      "stateMutability": "nonpayable",
      "type": "function"
    },
    {
      "inputs": [
        {
          "internalType": "uint256",
          "name": "proposalId",
          "type": "uint256"
        }
      ],
      "name": "queue",
      "outputs": [],
      "stateMutability": "nonpayable",
      "type": "function"
    },
    {
      "inputs": [],
      "name": "quorumVotes",
      "outputs": [
        {
          "internalType": "uint256",
          "name": "",
          "type": "uint256"
        }
      ],
      "stateMutability": "view",
      "type": "function"
    },
    {
      "inputs": [],
      "name": "safetyModule",
      "outputs": [
        {
          "internalType": "contract SnapshotInterface",
          "name": "",
          "type": "address"
        }
      ],
      "stateMutability": "view",
      "type": "function"
    },
    {
      "inputs": [
        {
          "internalType": "address",
          "name": "newGuardian",
          "type": "address"
        }
      ],
      "name": "setBreakGlassGuardian",
      "outputs": [],
      "stateMutability": "nonpayable",
      "type": "function"
    },
    {
      "inputs": [
        {
          "internalType": "uint256",
          "name": "newValue",
          "type": "uint256"
        }
      ],
      "name": "setProposalMaxOperations",
      "outputs": [],
      "stateMutability": "nonpayable",
      "type": "function"
    },
    {
      "inputs": [
        {
          "internalType": "uint256",
          "name": "newValue",
          "type": "uint256"
        }
      ],
      "name": "setProposalThreshold",
      "outputs": [],
      "stateMutability": "nonpayable",
      "type": "function"
    },
    {
      "inputs": [
        {
          "internalType": "uint256",
          "name": "newValue",
          "type": "uint256"
        }
      ],
      "name": "setQuorumVotes",
      "outputs": [],
      "stateMutability": "nonpayable",
      "type": "function"
    },
    {
      "inputs": [
        {
          "internalType": "uint256",
          "name": "newValue",
          "type": "uint256"
        }
      ],
      "name": "setVotingDelay",
      "outputs": [],
      "stateMutability": "nonpayable",
      "type": "function"
    },
    {
      "inputs": [
        {
          "internalType": "uint256",
          "name": "newValue",
          "type": "uint256"
        }
      ],
      "name": "setVotingPeriod",
      "outputs": [],
      "stateMutability": "nonpayable",
      "type": "function"
    },
    {
      "inputs": [
        {
          "internalType": "uint256",
          "name": "proposalId",
          "type": "uint256"
        }
      ],
      "name": "state",
      "outputs": [
        {
          "internalType": "enum MoonwellGovernorArtemis.ProposalState",
          "name": "",
          "type": "uint8"
        }
      ],
      "stateMutability": "view",
      "type": "function"
    },
    {
      "inputs": [
        {
          "internalType": "address",
          "name": "tokenAddress",
          "type": "address"
        },
        {
          "internalType": "address",
          "name": "destinationAddress",
          "type": "address"
        }
      ],
      "name": "sweepTokens",
      "outputs": [],
      "stateMutability": "nonpayable",
      "type": "function"
    },
    {
      "inputs": [],
      "name": "timelock",
      "outputs": [
        {
          "internalType": "contract TimelockInterface",
          "name": "",
          "type": "address"
        }
      ],
      "stateMutability": "view",
      "type": "function"
    },
    {
      "inputs": [],
      "name": "voteValueAbstain",
      "outputs": [
        {
          "internalType": "uint8",
          "name": "",
          "type": "uint8"
        }
      ],
      "stateMutability": "view",
      "type": "function"
    },
    {
      "inputs": [],
      "name": "voteValueNo",
      "outputs": [
        {
          "internalType": "uint8",
          "name": "",
          "type": "uint8"
        }
      ],
      "stateMutability": "view",
      "type": "function"
    },
    {
      "inputs": [],
      "name": "voteValueYes",
      "outputs": [
        {
          "internalType": "uint8",
          "name": "",
          "type": "uint8"
        }
      ],
      "stateMutability": "view",
      "type": "function"
    },
    {
      "inputs": [],
      "name": "votingDelay",
      "outputs": [
        {
          "internalType": "uint256",
          "name": "",
          "type": "uint256"
        }
      ],
      "stateMutability": "view",
      "type": "function"
    },
    {
      "inputs": [],
      "name": "votingPeriod",
      "outputs": [
        {
          "internalType": "uint256",
          "name": "",
          "type": "uint256"
        }
      ],
      "stateMutability": "view",
      "type": "function"
    },
    {
      "inputs": [],
      "name": "well",
      "outputs": [
        {
          "internalType": "contract WellInterface",
          "name": "",
          "type": "address"
        }
      ],
      "stateMutability": "view",
      "type": "function"
    }
  ],
  "bytecode": "0x60806040526a52b7d2dcc80cd2e40000006000556954b40b1f852bda0000006001556019600255603c6003556203f4806004553480156200003f57600080fd5b506040516200567438038062005674833981016040819052620000629162000105565b600580546001600160a01b03199081166001600160a01b039a8b1617909155600680548216988a16989098179097556007805488169689169690961790955560088054871694881694909417909355600a8054861692871692909217909155600c80548516918616919091179055600b80549093169316929092179055600d55620001a4565b80516001600160a01b03811681146200010057600080fd5b919050565b600080600080600080600080610100898b0312156200012357600080fd5b6200012e89620000e8565b97506200013e60208a01620000e8565b96506200014e60408a01620000e8565b95506200015e60608a01620000e8565b94506200016e60808a01620000e8565b93506200017e60a08a01620000e8565b92506200018e60c08a01620000e8565b915060e089015190509295985092959890939650565b6154c080620001b46000396000f3fe608060405234801561001057600080fd5b506004361061032b5760003560e01c806375fe572e116101b2578063c5f62ca2116100f9578063dd66f168116100a2578063e23a9a521161007c578063e23a9a5214610823578063ea0217cf1461085d578063ece40cc114610870578063fe0d94c11461088357600080fd5b8063dd66f168146107d6578063ddf0b009146107e9578063deaaa7cc146107fc57600080fd5b8063d33219b4116100d3578063d33219b41461079a578063da35c664146107ba578063da95691a146107c357600080fd5b8063c5f62ca21461076b578063c9ba036b14610774578063cbfcc4dc1461078757600080fd5b8063912ae9fa1161015b578063bef3a06f11610135578063bef3a06f1461070b578063bfe109281461072b578063c0878f0c1461074b57600080fd5b8063912ae9fa146106dc578063b58131b0146106ef578063bd0119b6146106f857600080fd5b80637bdbe4d01161018c5780637bdbe4d0146106ab5780638ad84491146106b45780638f71120b146106d457600080fd5b806375fe572e1461068857806377f386cf1461069b578063795c8180146106a357600080fd5b8063328dd98211610276578063567813881161021f5780636fe3db21116101f95780636fe3db211461064857806370b0f6601461065b57806370da93371461066e57600080fd5b8063567813881461060d57806358656baa146106205780636a23651c1461064057600080fd5b80633e4f49e6116102505780633e4f49e6146105c757806340e58ee5146105e757806342c9ad23146105fa57600080fd5b8063328dd982146105885780633932abb1146105ab5780633bccf4fd146105b457600080fd5b806317977c61116102d857806323a56b17116102b257806323a56b1714610559578063241dcdbc1461056c57806324bc1a641461057f57600080fd5b806317977c61146104ff5780631d314f761461051f57806320606b701461053257600080fd5b806306fdde031161030957806306fdde031461045e5780630fbc82b8146104a75780631609be1d146104ec57600080fd5b8063013cf08b1461033057806302a251a31461043257806302ec8f9e14610449575b600080fd5b6103bb61033e36600461442b565b600e602081905260009182526040909120805460018201546002830154600784015460088501546009860154600a870154600b880154600c890154600d8a015499909a0154979973ffffffffffffffffffffffffffffffffffffffff90971698959794969395929491939092909160ff808216916101009004168c565b604080519c8d5273ffffffffffffffffffffffffffffffffffffffff909b1660208d0152998b019890985260608a0196909652608089019490945260a088019290925260c087015260e086015261010085015261012084015215156101408301521515610160820152610180015b60405180910390f35b61043b60045481565b604051908152602001610429565b61045c61045736600461442b565b610896565b005b61049a6040518060400160405280601981526020017f4d6f6f6e77656c6c20417274656d697320476f7665726e6f720000000000000081525081565b60405161042991906144b2565b600a546104c79073ffffffffffffffffffffffffffffffffffffffff1681565b60405173ffffffffffffffffffffffffffffffffffffffff9091168152602001610429565b61045c6104fa3660046144e7565b610962565b61043b61050d366004614520565b600f6020526000908152604090205481565b61045c61052d366004614589565b610b40565b61043b7f8cad95687ba82c2ce50e74f7b754645e5117c3a5bec8151c0726d5857980a86681565b61045c610567366004614520565b610d09565b61045c61057a366004614589565b610e55565b61043b60005481565b61059b61059636600461442b565b611018565b60405161042994939291906146a1565b61043b60035481565b61045c6105c236600461470f565b6112b6565b6105da6105d536600461442b565b611560565b604051610429919061478c565b61045c6105f536600461442b565b611766565b61045c61060836600461442b565b611a81565b61045c61061b3660046147cd565b611b40565b600c546104c79073ffffffffffffffffffffffffffffffffffffffff1681565b61045c611b4f565b61045c610656366004614589565b611cbe565b61045c61066936600461442b565b611e81565b610676600181565b60405160ff9091168152602001610429565b61045c610696366004614589565b611f40565b61045c612103565b610676600281565b61043b60025481565b600b546104c79073ffffffffffffffffffffffffffffffffffffffff1681565b610676600081565b61045c6106ea366004614589565b612228565b61043b60015481565b61045c610706366004614589565b6123eb565b6008546104c79073ffffffffffffffffffffffffffffffffffffffff1681565b6007546104c79073ffffffffffffffffffffffffffffffffffffffff1681565b6006546104c79073ffffffffffffffffffffffffffffffffffffffff1681565b61043b600d5481565b61045c610782366004614520565b6125ae565b61045c610795366004614589565b6126ae565b6005546104c79073ffffffffffffffffffffffffffffffffffffffff1681565b61043b60095481565b61043b6107d1366004614b1e565b61288c565b61045c6107e4366004614589565b612f83565b61045c6107f736600461442b565b613161565b61043b7f37670881f0d73587a809febdc7019f9c5e67a68a0881607e05c87023968d496181565b610836610831366004614bf0565b6134ca565b6040805182511515815260208084015160ff16908201529181015190820152606001610429565b61045c61086b36600461442b565b613547565b61045c61087e36600461442b565b613606565b61045c61089136600461442b565b6136c5565b60055473ffffffffffffffffffffffffffffffffffffffff16331461091c576040517f08c379a000000000000000000000000000000000000000000000000000000000815260206004820152600d60248201527f6f6e6c792074696d656c6f636b0000000000000000000000000000000000000060448201526064015b60405180910390fd5b600080549082905560408051828152602081018490527f881e29202a36aa27b2e7dbd1086b0679e9212ac38029ba9959623b58d66a56b291015b60405180910390a15050565b60055473ffffffffffffffffffffffffffffffffffffffff163314610a09576040517f08c379a000000000000000000000000000000000000000000000000000000000815260206004820152603560248201527f476f7665726e6f72417274656d69733a3a7377656570546f6b656e733a20736560448201527f6e646572206d7573742062652074696d656c6f636b00000000000000000000006064820152608401610913565b6040517f70a08231000000000000000000000000000000000000000000000000000000008152306004820152829060009073ffffffffffffffffffffffffffffffffffffffff8316906370a0823190602401602060405180830381865afa158015610a78573d6000803e3d6000fd5b505050506040513d601f19601f82011682018060405250810190610a9c9190614c15565b6040517fa9059cbb00000000000000000000000000000000000000000000000000000000815273ffffffffffffffffffffffffffffffffffffffff8581166004830152602482018390529192509083169063a9059cbb906044016020604051808303816000875af1158015610b15573d6000803e3d6000fd5b505050506040513d601f19601f82011682018060405250810190610b399190614c2e565b5050505050565b600a5473ffffffffffffffffffffffffffffffffffffffff163314610be7576040517f08c379a000000000000000000000000000000000000000000000000000000000815260206004820152603960248201527f476f7665726e6f72417274656d69733a3a5f5f627265616b676c6173733a207360448201527f656e646572206d75737420626520626720677561726469616e000000000000006064820152608401610913565b8060005b81811015610d035760055473ffffffffffffffffffffffffffffffffffffffff1663ae2ba3c4858584818110610c2357610c23614c50565b9050602002016020810190610c389190614520565b600c546040805173ffffffffffffffffffffffffffffffffffffffff9092166020830152600091016040516020818303038152906040526040518463ffffffff1660e01b8152600401610c8d93929190614c7f565b6000604051808303816000875af1158015610cac573d6000803e3d6000fd5b505050506040513d6000823e601f3d9081017fffffffffffffffffffffffffffffffffffffffffffffffffffffffffffffffe0168201604052610cf29190810190614cf1565b50610cfc81614d8e565b9050610beb565b50505050565b600b5473ffffffffffffffffffffffffffffffffffffffff163314610dd6576040517f08c379a000000000000000000000000000000000000000000000000000000000815260206004820152605160248201527f476f7665726e6f72417274656d69733a3a5f5f736574476f7665726e616e636560448201527f52657475726e416464726573733a2073656e646572206d75737420626520676f60648201527f762072657475726e20677561726469616e000000000000000000000000000000608482015260a401610913565b600c805473ffffffffffffffffffffffffffffffffffffffff8381167fffffffffffffffffffffffff000000000000000000000000000000000000000083168117909355604080519190921680825260208201939093527f37276f7ac42bca4e34ce7e35e0c714561034815f69bd9b5156226a0ac779d0989101610956565b600a5473ffffffffffffffffffffffffffffffffffffffff163314610efc576040517f08c379a000000000000000000000000000000000000000000000000000000000815260206004820152603960248201527f476f7665726e6f72417274656d69733a3a5f5f627265616b676c6173733a207360448201527f656e646572206d75737420626520626720677561726469616e000000000000006064820152608401610913565b8060005b81811015610d035760055473ffffffffffffffffffffffffffffffffffffffff1663ae2ba3c4858584818110610f3857610f38614c50565b9050602002016020810190610f4d9190614520565b600c546040805173ffffffffffffffffffffffffffffffffffffffff9092166020830152600091016040516020818303038152906040526040518463ffffffff1660e01b8152600401610fa293929190614dc6565b6000604051808303816000875af1158015610fc1573d6000803e3d6000fd5b505050506040513d6000823e601f3d9081017fffffffffffffffffffffffffffffffffffffffffffffffffffffffffffffffe01682016040526110079190810190614cf1565b5061101181614d8e565b9050610f00565b6060806060806000600e6000878152602001908152602001600020905080600301816004018260050183600601838054806020026020016040519081016040528092919081815260200182805480156110a757602002820191906000526020600020905b815473ffffffffffffffffffffffffffffffffffffffff16815260019091019060200180831161107c575b50505050509350828054806020026020016040519081016040528092919081815260200182805480156110f957602002820191906000526020600020905b8154815260200190600101908083116110e5575b5050505050925081805480602002602001604051908101604052809291908181526020016000905b828210156111cd57838290600052602060002001805461114090614e2f565b80601f016020809104026020016040519081016040528092919081815260200182805461116c90614e2f565b80156111b95780601f1061118e576101008083540402835291602001916111b9565b820191906000526020600020905b81548152906001019060200180831161119c57829003601f168201915b505050505081526020019060010190611121565b50505050915080805480602002602001604051908101604052809291908181526020016000905b828210156112a057838290600052602060002001805461121390614e2f565b80601f016020809104026020016040519081016040528092919081815260200182805461123f90614e2f565b801561128c5780601f106112615761010080835404028352916020019161128c565b820191906000526020600020905b81548152906001019060200180831161126f57829003601f168201915b5050505050815260200190600101906111f4565b5050505090509450945094509450509193509193565b604080518082018252601981527f4d6f6f6e77656c6c20417274656d697320476f7665726e6f720000000000000060209182015281517f8cad95687ba82c2ce50e74f7b754645e5117c3a5bec8151c0726d5857980a866818301527f223bb758b930fd9aafbf32cfb035ea5f1fc9baaf33a27a058a5be80e96da888f81840152466060820152306080808301919091528351808303909101815260a0820184528051908301207f37670881f0d73587a809febdc7019f9c5e67a68a0881607e05c87023968d496160c083015260e0820189905260ff881661010080840191909152845180840390910181526101208301909452835193909201929092207f190100000000000000000000000000000000000000000000000000000000000061014084015261014283018290526101628301819052909160009061018201604080517fffffffffffffffffffffffffffffffffffffffffffffffffffffffffffffffe08184030181528282528051602091820120600080855291840180845281905260ff8a169284019290925260608301889052608083018790529092509060019060a0016020604051602081039080840390855afa15801561147c573d6000803e3d6000fd5b50506040517fffffffffffffffffffffffffffffffffffffffffffffffffffffffffffffffe0015191505073ffffffffffffffffffffffffffffffffffffffff811661154a576040517f08c379a000000000000000000000000000000000000000000000000000000000815260206004820152603160248201527f476f7665726e6f72417274656d69733a3a63617374566f746542795369673a2060448201527f696e76616c6964207369676e61747572650000000000000000000000000000006064820152608401610913565b611555818a8a61396a565b505050505050505050565b600081600954101580156115745750600082115b611600576040517f08c379a000000000000000000000000000000000000000000000000000000000815260206004820152602b60248201527f476f7665726e6f72417274656d69733a3a73746174653a20696e76616c69642060448201527f70726f706f73616c2069640000000000000000000000000000000000000000006064820152608401610913565b6000828152600e602081905260409091209081015460ff16156116265750600292915050565b8060070154421161163a5750600092915050565b8060080154421161164e5750600192915050565b80600b015481600a015411158061166a575060005481600d0154105b156116785750600392915050565b806002015460000361168d5750600492915050565b600e810154610100900460ff16156116a85750600792915050565b6002810154600554604080517fc1a287e20000000000000000000000000000000000000000000000000000000081529051611748939273ffffffffffffffffffffffffffffffffffffffff169163c1a287e29160048083019260209291908290030181865afa15801561171f573d6000803e3d6000fd5b505050506040513d601f19601f820116820180604052508101906117439190614c15565b613d26565b42106117575750600692915050565b50600592915050565b50919050565b600061177182611560565b905060078160078111156117875761178761475d565b03611814576040517f08c379a000000000000000000000000000000000000000000000000000000000815260206004820152603860248201527f476f7665726e6f72417274656d69733a3a63616e63656c3a2063616e6e6f742060448201527f63616e63656c2065786563757465642070726f706f73616c00000000000000006064820152608401610913565b6000828152600e60205260409020600180548183015490916118579173ffffffffffffffffffffffffffffffffffffffff1690611852904390613da6565b613e1c565b106118e4576040517f08c379a000000000000000000000000000000000000000000000000000000000815260206004820152603160248201527f476f7665726e6f72417274656d69733a3a63616e63656c3a2070726f706f736560448201527f722061626f7665207468726573686f6c640000000000000000000000000000006064820152608401610913565b600e810180547fffffffffffffffffffffffffffffffffffffffffffffffffffffffffffffff0016600117905560005b6003820154811015611a475760055460038301805473ffffffffffffffffffffffffffffffffffffffff9092169163591fcdfe91908490811061195957611959614c50565b60009182526020909120015460048501805473ffffffffffffffffffffffffffffffffffffffff909216918590811061199457611994614c50565b90600052602060002001548560050185815481106119b4576119b4614c50565b906000526020600020018660060186815481106119d3576119d3614c50565b9060005260206000200187600201546040518663ffffffff1660e01b8152600401611a02959493929190614f17565b600060405180830381600087803b158015611a1c57600080fd5b505af1158015611a30573d6000803e3d6000fd5b505050508080611a3f90614d8e565b915050611914565b506040518381527f789cf55be980739dad1d0699b93b58e806b51c9d96619bfa8fe0a28abaa7b30c906020015b60405180910390a1505050565b60055473ffffffffffffffffffffffffffffffffffffffff163314611b02576040517f08c379a000000000000000000000000000000000000000000000000000000000815260206004820152600d60248201527f6f6e6c792074696d656c6f636b000000000000000000000000000000000000006044820152606401610913565b600280549082905560408051828152602081018490527fb01232ed22dbb40f1dfb4eb71b12bfd12a322ee2ceeeaa85fffbad30771d64ab9101610956565b611b4b33838361396a565b5050565b60055473ffffffffffffffffffffffffffffffffffffffff163314611bf6576040517f08c379a000000000000000000000000000000000000000000000000000000000815260206004820152603f60248201527f476f7665726e6f72417274656d69733a3a5f5f72656d6f76654775617264696160448201527f6e733a2073656e646572206d757374206265207468652074696d656c6f636b006064820152608401610913565b600d54421015611c88576040517f08c379a000000000000000000000000000000000000000000000000000000000815260206004820152603e60248201527f476f7665726e6f72417274656d69733a3a5f5f72656d6f76654775617264696160448201527f6e732063616e6e6f742072656d6f7665206265666f72652073756e73657400006064820152608401610913565b600a80547fffffffffffffffffffffffff0000000000000000000000000000000000000000908116909155600b80549091169055565b600a5473ffffffffffffffffffffffffffffffffffffffff163314611d65576040517f08c379a000000000000000000000000000000000000000000000000000000000815260206004820152603960248201527f476f7665726e6f72417274656d69733a3a5f5f627265616b676c6173733a207360448201527f656e646572206d75737420626520626720677561726469616e000000000000006064820152608401610913565b8060005b81811015610d035760055473ffffffffffffffffffffffffffffffffffffffff1663ae2ba3c4858584818110611da157611da1614c50565b9050602002016020810190611db69190614520565b600c546040805173ffffffffffffffffffffffffffffffffffffffff9092166020830152600091016040516020818303038152906040526040518463ffffffff1660e01b8152600401611e0b93929190614f71565b6000604051808303816000875af1158015611e2a573d6000803e3d6000fd5b505050506040513d6000823e601f3d9081017fffffffffffffffffffffffffffffffffffffffffffffffffffffffffffffffe0168201604052611e709190810190614cf1565b50611e7a81614d8e565b9050611d69565b60055473ffffffffffffffffffffffffffffffffffffffff163314611f02576040517f08c379a000000000000000000000000000000000000000000000000000000000815260206004820152600d60248201527f6f6e6c792074696d656c6f636b000000000000000000000000000000000000006044820152606401610913565b600380549082905560408051828152602081018490527fbf1c009bdea70c22e4944ae8ac92b5f100449ab6f2fdedd0f7c991d3a6e29d259101610956565b600a5473ffffffffffffffffffffffffffffffffffffffff163314611fe7576040517f08c379a000000000000000000000000000000000000000000000000000000000815260206004820152603960248201527f476f7665726e6f72417274656d69733a3a5f5f627265616b676c6173733a207360448201527f656e646572206d75737420626520626720677561726469616e000000000000006064820152608401610913565b8060005b81811015610d035760055473ffffffffffffffffffffffffffffffffffffffff1663ae2ba3c485858481811061202357612023614c50565b90506020020160208101906120389190614520565b600c546040805173ffffffffffffffffffffffffffffffffffffffff9092166020830152600091016040516020818303038152906040526040518463ffffffff1660e01b815260040161208d93929190614fda565b6000604051808303816000875af11580156120ac573d6000803e3d6000fd5b505050506040513d6000823e601f3d9081017fffffffffffffffffffffffffffffffffffffffffffffffffffffffffffffffe01682016040526120f29190810190614cf1565b506120fc81614d8e565b9050611feb565b600a5473ffffffffffffffffffffffffffffffffffffffff1633146121aa576040517f08c379a000000000000000000000000000000000000000000000000000000000815260206004820152603a60248201527f476f7665726e6f72417274656d69733a3a5f5f61636365707441646d696e3a2060448201527f73656e646572206d75737420626520626720677561726469616e0000000000006064820152608401610913565b600560009054906101000a900473ffffffffffffffffffffffffffffffffffffffff1673ffffffffffffffffffffffffffffffffffffffff16630e18b6816040518163ffffffff1660e01b8152600401600060405180830381600087803b15801561221457600080fd5b505af1158015610d03573d6000803e3d6000fd5b600a5473ffffffffffffffffffffffffffffffffffffffff1633146122cf576040517f08c379a000000000000000000000000000000000000000000000000000000000815260206004820152603960248201527f476f7665726e6f72417274656d69733a3a5f5f627265616b676c6173733a207360448201527f656e646572206d75737420626520626720677561726469616e000000000000006064820152608401610913565b8060005b81811015610d035760055473ffffffffffffffffffffffffffffffffffffffff1663ae2ba3c485858481811061230b5761230b614c50565b90506020020160208101906123209190614520565b600c546040805173ffffffffffffffffffffffffffffffffffffffff9092166020830152600091016040516020818303038152906040526040518463ffffffff1660e01b815260040161237593929190615043565b6000604051808303816000875af1158015612394573d6000803e3d6000fd5b505050506040513d6000823e601f3d9081017fffffffffffffffffffffffffffffffffffffffffffffffffffffffffffffffe01682016040526123da9190810190614cf1565b506123e481614d8e565b90506122d3565b600a5473ffffffffffffffffffffffffffffffffffffffff163314612492576040517f08c379a000000000000000000000000000000000000000000000000000000000815260206004820152603960248201527f476f7665726e6f72417274656d69733a3a5f5f627265616b676c6173733a207360448201527f656e646572206d75737420626520626720677561726469616e000000000000006064820152608401610913565b8060005b81811015610d035760055473ffffffffffffffffffffffffffffffffffffffff1663ae2ba3c48585848181106124ce576124ce614c50565b90506020020160208101906124e39190614520565b600c546040805173ffffffffffffffffffffffffffffffffffffffff9092166020830152600091016040516020818303038152906040526040518463ffffffff1660e01b8152600401612538939291906150ac565b6000604051808303816000875af1158015612557573d6000803e3d6000fd5b505050506040513d6000823e601f3d9081017fffffffffffffffffffffffffffffffffffffffffffffffffffffffffffffffe016820160405261259d9190810190614cf1565b506125a781614d8e565b9050612496565b600a5473ffffffffffffffffffffffffffffffffffffffff16331461262f576040517f08c379a000000000000000000000000000000000000000000000000000000000815260206004820152601960248201527f6f6e6c7920627265616b20676c61737320677561726469616e000000000000006044820152606401610913565b600a805473ffffffffffffffffffffffffffffffffffffffff8381167fffffffffffffffffffffffff000000000000000000000000000000000000000083168117909355604080519190921680825260208201939093527f19be0cefd4235c57b29c828297a3e160306f359677ce5dc07f5b4f546fc29de69101610956565b600a5473ffffffffffffffffffffffffffffffffffffffff16331461277b576040517f08c379a000000000000000000000000000000000000000000000000000000000815260206004820152605360248201527f476f7665726e6f72417274656d69733a3a5f5f65786563757465436f6d706f7560448201527f6e6441636365707441646d696e4f6e436f6e74726163743a2073656e6465722060648201527f6d75737420626520626720677561726469616e00000000000000000000000000608482015260a401610913565b8060005b81811015610d035760055473ffffffffffffffffffffffffffffffffffffffff1663ae2ba3c48585848181106127b7576127b7614c50565b90506020020160208101906127cc9190614520565b60408051600080825260208201928390527fffffffff0000000000000000000000000000000000000000000000000000000060e086901b1690925261281692919060248101615115565b6000604051808303816000875af1158015612835573d6000803e3d6000fd5b505050506040513d6000823e601f3d9081017fffffffffffffffffffffffffffffffffffffffffffffffffffffffffffffffe016820160405261287b9190810190614cf1565b5061288581614d8e565b905061277f565b60006001546128a033611852436001613da6565b11612953576040517f08c379a000000000000000000000000000000000000000000000000000000000815260206004820152604160248201527f476f7665726e6f72417274656d69733a3a70726f706f73653a2070726f706f7360448201527f657220766f7465732062656c6f772070726f706f73616c207468726573686f6c60648201527f6400000000000000000000000000000000000000000000000000000000000000608482015260a401610913565b84518651148015612965575083518651145b8015612972575082518651145b612a24576040517f08c379a000000000000000000000000000000000000000000000000000000000815260206004820152604660248201527f476f7665726e6f72417274656d69733a3a70726f706f73653a2070726f706f7360448201527f616c2066756e6374696f6e20696e666f726d6174696f6e206172697479206d6960648201527f736d617463680000000000000000000000000000000000000000000000000000608482015260a401610913565b8551600003612ab5576040517f08c379a000000000000000000000000000000000000000000000000000000000815260206004820152602e60248201527f476f7665726e6f72417274656d69733a3a70726f706f73653a206d757374207060448201527f726f7669646520616374696f6e730000000000000000000000000000000000006064820152608401610913565b60025486511115612b48576040517f08c379a000000000000000000000000000000000000000000000000000000000815260206004820152602a60248201527f476f7665726e6f72417274656d69733a3a70726f706f73653a20746f6f206d6160448201527f6e7920616374696f6e73000000000000000000000000000000000000000000006064820152608401610913565b6000825111612bb3576040517f08c379a000000000000000000000000000000000000000000000000000000000815260206004820152601c60248201527f6465736372697074696f6e2063616e206e6f7420626520656d707479000000006044820152606401610913565b336000908152600f60205260409020548015612d66576000612bd482611560565b90506001816007811115612bea57612bea61475d565b03612c9d576040517f08c379a000000000000000000000000000000000000000000000000000000000815260206004820152605a60248201527f476f7665726e6f72417274656d69733a3a70726f706f73653a206f6e65206c6960448201527f76652070726f706f73616c207065722070726f706f7365722c20666f756e642060648201527f616e20616c7265616479206163746976652070726f706f73616c000000000000608482015260a401610913565b6000816007811115612cb157612cb161475d565b03612d64576040517f08c379a000000000000000000000000000000000000000000000000000000000815260206004820152605b60248201527f476f7665726e6f72417274656d69733a3a70726f706f73653a206f6e65206c6960448201527f76652070726f706f73616c207065722070726f706f7365722c20666f756e642060648201527f616e20616c72656164792070656e64696e672070726f706f73616c0000000000608482015260a401610913565b505b6000612d7442600354613d26565b90506000612d8a42611743600454600354613d26565b600980549192506000612d9c83614d8e565b90915550506009546000818152600e6020908152604082209283556001830180547fffffffffffffffffffffffff0000000000000000000000000000000000000000163317905560028301919091558a51612dff916003840191908d0190614236565b508851612e1590600483019060208c01906142c0565b508751612e2b90600583019060208b01906142fb565b508651612e4190600683019060208a019061434d565b5082816007018190555081816008018190555060008160090181905550600081600a0181905550600081600b0181905550600081600c0181905550600081600d0181905550600081600e0160006101000a81548160ff021916908315150217905550600081600e0160016101000a81548160ff021916908315150217905550600954600f60008360010160009054906101000a900473ffffffffffffffffffffffffffffffffffffffff1673ffffffffffffffffffffffffffffffffffffffff1673ffffffffffffffffffffffffffffffffffffffff168152602001908152602001600020819055507f7d84a6263ae0d98d3329bd7b46bb4e8d6f98cd35a7adb45c274c8b7fd5ebd5e08160000154338c8c8c8c89898e604051612f6d9998979695949392919061517e565b60405180910390a1549998505050505050505050565b600a5473ffffffffffffffffffffffffffffffffffffffff163314613050576040517f08c379a000000000000000000000000000000000000000000000000000000000815260206004820152604b60248201527f476f7665726e6f72417274656d69733a3a5f5f6578656375746541636365707460448201527f41646d696e4f6e436f6e74726163743a2073656e646572206d7573742062652060648201527f626720677561726469616e000000000000000000000000000000000000000000608482015260a401610913565b8060005b81811015610d035760055473ffffffffffffffffffffffffffffffffffffffff1663ae2ba3c485858481811061308c5761308c614c50565b90506020020160208101906130a19190614520565b60408051600080825260208201928390527fffffffff0000000000000000000000000000000000000000000000000000000060e086901b169092526130eb92919060248101615221565b6000604051808303816000875af115801561310a573d6000803e3d6000fd5b505050506040513d6000823e601f3d9081017fffffffffffffffffffffffffffffffffffffffffffffffffffffffffffffffe01682016040526131509190810190614cf1565b5061315a81614d8e565b9050613054565b600461316c82611560565b600781111561317d5761317d61475d565b14613230576040517f08c379a000000000000000000000000000000000000000000000000000000000815260206004820152604660248201527f476f7665726e6f72417274656d69733a3a71756575653a2070726f706f73616c60448201527f2063616e206f6e6c79206265207175657565642069662069742069732073756360648201527f6365656465640000000000000000000000000000000000000000000000000000608482015260a401610913565b6000818152600e6020908152604080832060055482517f6a42b8f800000000000000000000000000000000000000000000000000000000815292519194936132b593429373ffffffffffffffffffffffffffffffffffffffff90931692636a42b8f8926004808401939192918290030181865afa15801561171f573d6000803e3d6000fd5b905060005b600383015481101561348c5761347a8360030182815481106132de576132de614c50565b60009182526020909120015460048501805473ffffffffffffffffffffffffffffffffffffffff909216918490811061331957613319614c50565b906000526020600020015485600501848154811061333957613339614c50565b90600052602060002001805461334e90614e2f565b80601f016020809104026020016040519081016040528092919081815260200182805461337a90614e2f565b80156133c75780601f1061339c576101008083540402835291602001916133c7565b820191906000526020600020905b8154815290600101906020018083116133aa57829003601f168201915b50505050508660060185815481106133e1576133e1614c50565b9060005260206000200180546133f690614e2f565b80601f016020809104026020016040519081016040528092919081815260200182805461342290614e2f565b801561346f5780601f106134445761010080835404028352916020019161346f565b820191906000526020600020905b81548152906001019060200180831161345257829003601f168201915b50505050508661402a565b8061348481614d8e565b9150506132ba565b506002820181905560408051848152602081018390527f9a2e42fd6722813d69113e7d0079d3d940171428df7373df9c7f7617cfda28929101611a74565b604080516060808201835260008083526020808401829052928401819052858152600e835283812073ffffffffffffffffffffffffffffffffffffffff86168252600f01835283902083519182018452805460ff808216151584526101009091041692820192909252600190910154918101919091525b92915050565b60055473ffffffffffffffffffffffffffffffffffffffff1633146135c8576040517f08c379a000000000000000000000000000000000000000000000000000000000815260206004820152600d60248201527f6f6e6c792074696d656c6f636b000000000000000000000000000000000000006044820152606401610913565b600480549082905560408051828152602081018490527f0157f874643e34dea2d71607bde6378f09880b59546f9e2386608eb7154b89759101610956565b60055473ffffffffffffffffffffffffffffffffffffffff163314613687576040517f08c379a000000000000000000000000000000000000000000000000000000000815260206004820152600d60248201527f6f6e6c792074696d656c6f636b000000000000000000000000000000000000006044820152606401610913565b600180549082905560408051828152602081018490527f9b772ef27711c872f217a0c52a72ba00d7552f2d6c3b3d0f0593fc2549359df39101610956565b60056136d082611560565b60078111156136e1576136e161475d565b14613794576040517f08c379a000000000000000000000000000000000000000000000000000000000815260206004820152604760248201527f476f7665726e6f72417274656d69733a3a657865637574653a2070726f706f7360448201527f616c2063616e206f6e6c7920626520657865637574656420696620697420697360648201527f2071756575656400000000000000000000000000000000000000000000000000608482015260a401610913565b6000818152600e60208190526040822090810180547fffffffffffffffffffffffffffffffffffffffffffffffffffffffffffff00ff16610100179055905b60038201548110156139395760055460038301805473ffffffffffffffffffffffffffffffffffffffff90921691630825f38f91908490811061381857613818614c50565b60009182526020909120015460048501805473ffffffffffffffffffffffffffffffffffffffff909216918590811061385357613853614c50565b906000526020600020015485600501858154811061387357613873614c50565b9060005260206000200186600601868154811061389257613892614c50565b9060005260206000200187600201546040518663ffffffff1660e01b81526004016138c1959493929190614f17565b6000604051808303816000875af11580156138e0573d6000803e3d6000fd5b505050506040513d6000823e601f3d9081017fffffffffffffffffffffffffffffffffffffffffffffffffffffffffffffffe01682016040526139269190810190614cf1565b508061393181614d8e565b9150506137d3565b506040518281527f712ae1383f79ac853f8d882153778e0260ef8f03b504e2866e0593e04d2b291f90602001610956565b600161397583611560565b60078111156139865761398661475d565b14613a13576040517f08c379a000000000000000000000000000000000000000000000000000000000815260206004820152602c60248201527f476f7665726e6f72417274656d69733a3a5f63617374566f74653a20766f746960448201527f6e6720697320636c6f73656400000000000000000000000000000000000000006064820152608401610913565b6000828152600e602052604081206009810154909103613a7657613a3860014361528a565b6009820155604080518481524360208201527f0d1e02ccd52fe49c19093261ba25ca959463e72ed10577de6069a95c14cd04ee910160405180910390a15b73ffffffffffffffffffffffffffffffffffffffff84166000908152600f820160205260409020805460ff1615613b2f576040517f08c379a000000000000000000000000000000000000000000000000000000000815260206004820152602f60248201527f476f7665726e6f72417274656d69733a3a5f63617374566f74653a20766f746560448201527f7220616c726561647920766f74656400000000000000000000000000000000006064820152608401610913565b6000613b3f868460090154613e1c565b905060ff8416613b6157613b5783600a015482613d26565b600a840155613c6d565b7fffffffffffffffffffffffffffffffffffffffffffffffffffffffffffffffff60ff851601613ba357613b9983600b015482613d26565b600b840155613c6d565b7ffffffffffffffffffffffffffffffffffffffffffffffffffffffffffffffffe60ff851601613be557613bdb83600c015482613d26565b600c840155613c6d565b6040517f08c379a000000000000000000000000000000000000000000000000000000000815260206004820152602e60248201527f476f7665726e6f72417274656d69733a3a5f63617374566f74653a20696e766160448201527f6c696420766f74652076616c75650000000000000000000000000000000000006064820152608401610913565b613c7b83600d015482613d26565b600d840155815460ff851661010081027fffffffffffffffffffffffffffffffffffffffffffffffffffffffffffff0000909216919091176001908117845583018290556040805173ffffffffffffffffffffffffffffffffffffffff891681526020810188905290810191909152606081018290527f2c9deb38f462962eadbd85a9d3a4120503ee091f1582eaaa10aa8c6797651d299060800160405180910390a1505050505050565b600080613d33838561529d565b905083811015613d9f576040517f08c379a000000000000000000000000000000000000000000000000000000000815260206004820152601160248201527f6164646974696f6e206f766572666c6f770000000000000000000000000000006044820152606401610913565b9392505050565b600082821115613e12576040517f08c379a000000000000000000000000000000000000000000000000000000000815260206004820152601560248201527f7375627472616374696f6e20756e646572666c6f7700000000000000000000006044820152606401610913565b613d9f828461528a565b6006546040517f782d6fe100000000000000000000000000000000000000000000000000000000815273ffffffffffffffffffffffffffffffffffffffff848116600483015260248201849052600092839291169063782d6fe190604401602060405180830381865afa158015613e97573d6000803e3d6000fd5b505050506040513d601f19601f82011682018060405250810190613ebb91906152b0565b6007546040517f782d6fe100000000000000000000000000000000000000000000000000000000815273ffffffffffffffffffffffffffffffffffffffff8781166004830152602482018790529293506000929091169063782d6fe190604401602060405180830381865afa158015613f38573d6000803e3d6000fd5b505050506040513d601f19601f82011682018060405250810190613f5c9190614c15565b6008546040517f782d6fe100000000000000000000000000000000000000000000000000000000815273ffffffffffffffffffffffffffffffffffffffff8881166004830152602482018890529293506000929091169063782d6fe190604401602060405180830381865afa158015613fd9573d6000803e3d6000fd5b505050506040513d601f19601f82011682018060405250810190613ffd9190614c15565b905061402061401a846bffffffffffffffffffffffff1684613d26565b82613d26565b9695505050505050565b60055460405173ffffffffffffffffffffffffffffffffffffffff9091169063f2b065379061406590889088908890889088906020016152de565b604051602081830303815290604052805190602001206040518263ffffffff1660e01b815260040161409991815260200190565b602060405180830381865afa1580156140b6573d6000803e3d6000fd5b505050506040513d601f19601f820116820180604052508101906140da9190614c2e565b1561418d576040517f08c379a000000000000000000000000000000000000000000000000000000000815260206004820152604660248201527f476f7665726e6f72417274656d69733a3a5f71756575654f725265766572743a60448201527f2070726f706f73616c20616374696f6e20616c7265616479207175657565642060648201527f6174206574610000000000000000000000000000000000000000000000000000608482015260a401610913565b6005546040517f3a66f90100000000000000000000000000000000000000000000000000000000815273ffffffffffffffffffffffffffffffffffffffff90911690633a66f901906141eb90889088908890889088906004016152de565b6020604051808303816000875af115801561420a573d6000803e3d6000fd5b505050506040513d601f19601f8201168201806040525081019061422e9190614c15565b505050505050565b8280548282559060005260206000209081019282156142b0579160200282015b828111156142b057825182547fffffffffffffffffffffffff00000000000000000000000000000000000000001673ffffffffffffffffffffffffffffffffffffffff909116178255602090920191600190910190614256565b506142bc92915061439f565b5090565b8280548282559060005260206000209081019282156142b0579160200282015b828111156142b05782518255916020019190600101906142e0565b828054828255906000526020600020908101928215614341579160200282015b8281111561434157825182906143319082615370565b509160200191906001019061431b565b506142bc9291506143b4565b828054828255906000526020600020908101928215614393579160200282015b8281111561439357825182906143839082615370565b509160200191906001019061436d565b506142bc9291506143d1565b5b808211156142bc57600081556001016143a0565b808211156142bc5760006143c882826143ee565b506001016143b4565b808211156142bc5760006143e582826143ee565b506001016143d1565b5080546143fa90614e2f565b6000825580601f1061440a575050565b601f016020900490600052602060002090810190614428919061439f565b50565b60006020828403121561443d57600080fd5b5035919050565b60005b8381101561445f578181015183820152602001614447565b50506000910152565b60008151808452614480816020860160208601614444565b601f017fffffffffffffffffffffffffffffffffffffffffffffffffffffffffffffffe0169290920160200192915050565b602081526000613d9f6020830184614468565b73ffffffffffffffffffffffffffffffffffffffff8116811461442857600080fd5b600080604083850312156144fa57600080fd5b8235614505816144c5565b91506020830135614515816144c5565b809150509250929050565b60006020828403121561453257600080fd5b8135613d9f816144c5565b60008083601f84011261454f57600080fd5b50813567ffffffffffffffff81111561456757600080fd5b6020830191508360208260051b850101111561458257600080fd5b9250929050565b6000806020838503121561459c57600080fd5b823567ffffffffffffffff8111156145b357600080fd5b6145bf8582860161453d565b90969095509350505050565b600081518084526020808501945080840160005b8381101561461157815173ffffffffffffffffffffffffffffffffffffffff16875295820195908201906001016145df565b509495945050505050565b600081518084526020808501945080840160005b8381101561461157815187529582019590820190600101614630565b600081518084526020808501808196508360051b8101915082860160005b85811015614694578284038952614682848351614468565b9885019893509084019060010161466a565b5091979650505050505050565b6080815260006146b460808301876145cb565b82810360208401526146c6818761461c565b905082810360408401526146da818661464c565b905082810360608401526146ee818561464c565b979650505050505050565b803560ff8116811461470a57600080fd5b919050565b600080600080600060a0868803121561472757600080fd5b85359450614737602087016146f9565b9350614745604087016146f9565b94979396509394606081013594506080013592915050565b7f4e487b7100000000000000000000000000000000000000000000000000000000600052602160045260246000fd5b60208101600883106147c7577f4e487b7100000000000000000000000000000000000000000000000000000000600052602160045260246000fd5b91905290565b600080604083850312156147e057600080fd5b823591506147f0602084016146f9565b90509250929050565b7f4e487b7100000000000000000000000000000000000000000000000000000000600052604160045260246000fd5b604051601f82017fffffffffffffffffffffffffffffffffffffffffffffffffffffffffffffffe016810167ffffffffffffffff8111828210171561486f5761486f6147f9565b604052919050565b600067ffffffffffffffff821115614891576148916147f9565b5060051b60200190565b600082601f8301126148ac57600080fd5b813560206148c16148bc83614877565b614828565b82815260059290921b840181019181810190868411156148e057600080fd5b8286015b848110156149045780356148f7816144c5565b83529183019183016148e4565b509695505050505050565b600082601f83011261492057600080fd5b813560206149306148bc83614877565b82815260059290921b8401810191818101908684111561494f57600080fd5b8286015b848110156149045780358352918301918301614953565b600067ffffffffffffffff821115614984576149846147f9565b50601f017fffffffffffffffffffffffffffffffffffffffffffffffffffffffffffffffe01660200190565b60006149be6148bc8461496a565b90508281528383830111156149d257600080fd5b828260208301376000602084830101529392505050565b600082601f8301126149fa57600080fd5b613d9f838335602085016149b0565b600082601f830112614a1a57600080fd5b81356020614a2a6148bc83614877565b82815260059290921b84018101918181019086841115614a4957600080fd5b8286015b8481101561490457803567ffffffffffffffff811115614a6d5760008081fd5b614a7b8986838b01016149e9565b845250918301918301614a4d565b600082601f830112614a9a57600080fd5b81356020614aaa6148bc83614877565b82815260059290921b84018101918181019086841115614ac957600080fd5b8286015b8481101561490457803567ffffffffffffffff811115614aed5760008081fd5b8701603f81018913614aff5760008081fd5b614b108986830135604084016149b0565b845250918301918301614acd565b600080600080600060a08688031215614b3657600080fd5b853567ffffffffffffffff80821115614b4e57600080fd5b614b5a89838a0161489b565b96506020880135915080821115614b7057600080fd5b614b7c89838a0161490f565b95506040880135915080821115614b9257600080fd5b614b9e89838a01614a09565b94506060880135915080821115614bb457600080fd5b614bc089838a01614a89565b93506080880135915080821115614bd657600080fd5b50614be3888289016149e9565b9150509295509295909350565b60008060408385031215614c0357600080fd5b823591506020830135614515816144c5565b600060208284031215614c2757600080fd5b5051919050565b600060208284031215614c4057600080fd5b81518015158114613d9f57600080fd5b7f4e487b7100000000000000000000000000000000000000000000000000000000600052603260045260246000fd5b73ffffffffffffffffffffffffffffffffffffffff8416815282602082015260806040820152601960808201527f5f73657450656e64696e6741646d696e2861646472657373290000000000000060a082015260c060608201526000614ce860c0830184614468565b95945050505050565b600060208284031215614d0357600080fd5b815167ffffffffffffffff811115614d1a57600080fd5b8201601f81018413614d2b57600080fd5b8051614d396148bc8261496a565b818152856020838501011115614d4e57600080fd5b614ce8826020830160208601614444565b7f4e487b7100000000000000000000000000000000000000000000000000000000600052601160045260246000fd5b60007fffffffffffffffffffffffffffffffffffffffffffffffffffffffffffffffff8203614dbf57614dbf614d5f565b5060010190565b73ffffffffffffffffffffffffffffffffffffffff8416815282602082015260806040820152601c60808201527f736574456d697373696f6e734d616e616765722861646472657373290000000060a082015260c060608201526000614ce860c0830184614468565b600181811c90821680614e4357607f821691505b602082108103611760577f4e487b7100000000000000000000000000000000000000000000000000000000600052602260045260246000fd5b60008154614e8981614e2f565b808552602060018381168015614ea65760018114614ede57614f0c565b7fffffffffffffffffffffffffffffffffffffffffffffffffffffffffffffff008516838901528284151560051b8901019550614f0c565b866000528260002060005b85811015614f045781548a8201860152908301908401614ee9565b890184019650505b505050505092915050565b73ffffffffffffffffffffffffffffffffffffffff8616815284602082015260a060408201526000614f4c60a0830186614e7c565b8281036060840152614f5e8186614e7c565b9150508260808301529695505050505050565b73ffffffffffffffffffffffffffffffffffffffff8416815282602082015260806040820152601160808201527f73657441646d696e28616464726573732900000000000000000000000000000060a082015260c060608201526000614ce860c0830184614468565b73ffffffffffffffffffffffffffffffffffffffff8416815282602082015260806040820152601460808201527f6368616e676541646d696e28616464726573732900000000000000000000000060a082015260c060608201526000614ce860c0830184614468565b73ffffffffffffffffffffffffffffffffffffffff8416815282602082015260806040820152601860808201527f73657450656e64696e6741646d696e286164647265737329000000000000000060a082015260c060608201526000614ce860c0830184614468565b73ffffffffffffffffffffffffffffffffffffffff8416815282602082015260806040820152601a60808201527f7472616e736665724f776e65727368697028616464726573732900000000000060a082015260c060608201526000614ce860c0830184614468565b73ffffffffffffffffffffffffffffffffffffffff8416815282602082015260806040820152600e60808201527f5f61636365707441646d696e282900000000000000000000000000000000000060a082015260c060608201526000614ce860c0830184614468565b60006101208b835273ffffffffffffffffffffffffffffffffffffffff8b1660208401528060408401526151b48184018b6145cb565b905082810360608401526151c8818a61461c565b905082810360808401526151dc818961464c565b905082810360a08401526151f0818861464c565b90508560c08401528460e08401528281036101008401526152118185614468565b9c9b505050505050505050505050565b73ffffffffffffffffffffffffffffffffffffffff8416815282602082015260806040820152601460808201527f61636365707450656e64696e6741646d696e282900000000000000000000000060a082015260c060608201526000614ce860c0830184614468565b8181038181111561354157613541614d5f565b8082018082111561354157613541614d5f565b6000602082840312156152c257600080fd5b81516bffffffffffffffffffffffff81168114613d9f57600080fd5b73ffffffffffffffffffffffffffffffffffffffff8616815284602082015260a06040820152600061531360a0830186614468565b8281036060840152614f5e8186614468565b601f82111561536b57600081815260208120601f850160051c8101602086101561534c5750805b601f850160051c820191505b8181101561422e57828155600101615358565b505050565b815167ffffffffffffffff81111561538a5761538a6147f9565b61539e816153988454614e2f565b84615325565b602080601f8311600181146153f157600084156153bb5750858301515b7fffffffffffffffffffffffffffffffffffffffffffffffffffffffffffffffff600386901b1c1916600185901b17855561422e565b6000858152602081207fffffffffffffffffffffffffffffffffffffffffffffffffffffffffffffffe08616915b8281101561543e5788860151825594840194600190910190840161541f565b508582101561547a57878501517fffffffffffffffffffffffffffffffffffffffffffffffffffffffffffffffff600388901b60f8161c191681555b5050505050600190811b0190555056fea2646970667358221220b0dd1da60b07457e2e792bb0cfdedc5bfc17d5134d8e8c80d78130ff3e42b4c864736f6c63430008110033",
  "linkReferences": {},
  "deployedLinkReferences": {}
}