{
  "abi": [
    {
      "anonymous": false,
      "inputs": [
        {
          "indexed": false,
          "internalType": "uint8",
          "name": "version",
          "type": "uint8"
        }
      ],
      "name": "Initialized",
      "type": "event"
    },
    {
      "inputs": [],
      "name": "comptroller",
      "outputs": [
        {
          "internalType": "contract Comptroller",
          "name": "",
          "type": "address"
        }
      ],
      "stateMutability": "view",
      "type": "function"
    },
    {
      "inputs": [],
      "name": "getAllMarketsInfo",
      "outputs": [
        {
          "components": [
            {
              "internalType": "address",
              "name": "market",
              "type": "address"
            },
            {
              "internalType": "bool",
              "name": "isListed",
              "type": "bool"
            },
            {
              "internalType": "uint256",
              "name": "borrowCap",
              "type": "uint256"
            },
            {
              "internalType": "uint256",
              "name": "supplyCap",
              "type": "uint256"
            },
            {
              "internalType": "bool",
              "name": "mintPaused",
              "type": "bool"
            },
            {
              "internalType": "bool",
              "name": "borrowPaused",
              "type": "bool"
            },
            {
              "internalType": "uint256",
              "name": "collateralFactor",
              "type": "uint256"
            },
            {
              "internalType": "uint256",
              "name": "underlyingPrice",
              "type": "uint256"
            },
            {
              "internalType": "uint256",
              "name": "totalSupply",
              "type": "uint256"
            },
            {
              "internalType": "uint256",
              "name": "totalBorrows",
              "type": "uint256"
            },
            {
              "internalType": "uint256",
              "name": "totalReserves",
              "type": "uint256"
            },
            {
              "internalType": "uint256",
              "name": "cash",
              "type": "uint256"
            },
            {
              "internalType": "uint256",
              "name": "exchangeRate",
              "type": "uint256"
            },
            {
              "internalType": "uint256",
              "name": "borrowIndex",
              "type": "uint256"
            },
            {
              "internalType": "uint256",
              "name": "reserveFactor",
              "type": "uint256"
            },
            {
              "internalType": "uint256",
              "name": "borrowRate",
              "type": "uint256"
            },
            {
              "internalType": "uint256",
              "name": "supplyRate",
              "type": "uint256"
            },
            {
              "components": [
                {
                  "internalType": "address",
                  "name": "token",
                  "type": "address"
                },
                {
                  "internalType": "uint256",
                  "name": "supplyIncentivesPerSec",
                  "type": "uint256"
                },
                {
                  "internalType": "uint256",
                  "name": "borrowIncentivesPerSec",
                  "type": "uint256"
                }
              ],
              "internalType": "struct BaseMoonwellViews.MarketIncentives[]",
              "name": "incentives",
              "type": "tuple[]"
            }
          ],
          "internalType": "struct BaseMoonwellViews.Market[]",
          "name": "",
          "type": "tuple[]"
        }
      ],
      "stateMutability": "view",
      "type": "function"
    },
    {
      "inputs": [],
      "name": "getGovernanceTokenPrice",
      "outputs": [
        {
          "internalType": "uint256",
          "name": "_result",
          "type": "uint256"
        }
      ],
      "stateMutability": "view",
      "type": "function"
    },
    {
      "inputs": [
        {
          "internalType": "contract MToken",
          "name": "market",
          "type": "address"
        }
      ],
      "name": "getMarketIncentives",
      "outputs": [
        {
          "components": [
            {
              "internalType": "address",
              "name": "token",
              "type": "address"
            },
            {
              "internalType": "uint256",
              "name": "supplyIncentivesPerSec",
              "type": "uint256"
            },
            {
              "internalType": "uint256",
              "name": "borrowIncentivesPerSec",
              "type": "uint256"
            }
          ],
          "internalType": "struct BaseMoonwellViews.MarketIncentives[]",
          "name": "",
          "type": "tuple[]"
        }
      ],
      "stateMutability": "view",
      "type": "function"
    },
    {
      "inputs": [
        {
          "internalType": "contract MToken",
          "name": "_mToken",
          "type": "address"
        }
      ],
      "name": "getMarketInfo",
      "outputs": [
        {
          "components": [
            {
              "internalType": "address",
              "name": "market",
              "type": "address"
            },
            {
              "internalType": "bool",
              "name": "isListed",
              "type": "bool"
            },
            {
              "internalType": "uint256",
              "name": "borrowCap",
              "type": "uint256"
            },
            {
              "internalType": "uint256",
              "name": "supplyCap",
              "type": "uint256"
            },
            {
              "internalType": "bool",
              "name": "mintPaused",
              "type": "bool"
            },
            {
              "internalType": "bool",
              "name": "borrowPaused",
              "type": "bool"
            },
            {
              "internalType": "uint256",
              "name": "collateralFactor",
              "type": "uint256"
            },
            {
              "internalType": "uint256",
              "name": "underlyingPrice",
              "type": "uint256"
            },
            {
              "internalType": "uint256",
              "name": "totalSupply",
              "type": "uint256"
            },
            {
              "internalType": "uint256",
              "name": "totalBorrows",
              "type": "uint256"
            },
            {
              "internalType": "uint256",
              "name": "totalReserves",
              "type": "uint256"
            },
            {
              "internalType": "uint256",
              "name": "cash",
              "type": "uint256"
            },
            {
              "internalType": "uint256",
              "name": "exchangeRate",
              "type": "uint256"
            },
            {
              "internalType": "uint256",
              "name": "borrowIndex",
              "type": "uint256"
            },
            {
              "internalType": "uint256",
              "name": "reserveFactor",
              "type": "uint256"
            },
            {
              "internalType": "uint256",
              "name": "borrowRate",
              "type": "uint256"
            },
            {
              "internalType": "uint256",
              "name": "supplyRate",
              "type": "uint256"
            },
            {
              "components": [
                {
                  "internalType": "address",
                  "name": "token",
                  "type": "address"
                },
                {
                  "internalType": "uint256",
                  "name": "supplyIncentivesPerSec",
                  "type": "uint256"
                },
                {
                  "internalType": "uint256",
                  "name": "borrowIncentivesPerSec",
                  "type": "uint256"
                }
              ],
              "internalType": "struct BaseMoonwellViews.MarketIncentives[]",
              "name": "incentives",
              "type": "tuple[]"
            }
          ],
          "internalType": "struct BaseMoonwellViews.Market",
          "name": "",
          "type": "tuple"
        }
      ],
      "stateMutability": "view",
      "type": "function"
    },
    {
      "inputs": [
        {
          "internalType": "contract MToken[]",
          "name": "_mTokens",
          "type": "address[]"
        }
      ],
      "name": "getMarketsInfo",
      "outputs": [
        {
          "components": [
            {
              "internalType": "address",
              "name": "market",
              "type": "address"
            },
            {
              "internalType": "bool",
              "name": "isListed",
              "type": "bool"
            },
            {
              "internalType": "uint256",
              "name": "borrowCap",
              "type": "uint256"
            },
            {
              "internalType": "uint256",
              "name": "supplyCap",
              "type": "uint256"
            },
            {
              "internalType": "bool",
              "name": "mintPaused",
              "type": "bool"
            },
            {
              "internalType": "bool",
              "name": "borrowPaused",
              "type": "bool"
            },
            {
              "internalType": "uint256",
              "name": "collateralFactor",
              "type": "uint256"
            },
            {
              "internalType": "uint256",
              "name": "underlyingPrice",
              "type": "uint256"
            },
            {
              "internalType": "uint256",
              "name": "totalSupply",
              "type": "uint256"
            },
            {
              "internalType": "uint256",
              "name": "totalBorrows",
              "type": "uint256"
            },
            {
              "internalType": "uint256",
              "name": "totalReserves",
              "type": "uint256"
            },
            {
              "internalType": "uint256",
              "name": "cash",
              "type": "uint256"
            },
            {
              "internalType": "uint256",
              "name": "exchangeRate",
              "type": "uint256"
            },
            {
              "internalType": "uint256",
              "name": "borrowIndex",
              "type": "uint256"
            },
            {
              "internalType": "uint256",
              "name": "reserveFactor",
              "type": "uint256"
            },
            {
              "internalType": "uint256",
              "name": "borrowRate",
              "type": "uint256"
            },
            {
              "internalType": "uint256",
              "name": "supplyRate",
              "type": "uint256"
            },
            {
              "components": [
                {
                  "internalType": "address",
                  "name": "token",
                  "type": "address"
                },
                {
                  "internalType": "uint256",
                  "name": "supplyIncentivesPerSec",
                  "type": "uint256"
                },
                {
                  "internalType": "uint256",
                  "name": "borrowIncentivesPerSec",
                  "type": "uint256"
                }
              ],
              "internalType": "struct BaseMoonwellViews.MarketIncentives[]",
              "name": "incentives",
              "type": "tuple[]"
            }
          ],
          "internalType": "struct BaseMoonwellViews.Market[]",
          "name": "",
          "type": "tuple[]"
        }
      ],
      "stateMutability": "view",
      "type": "function"
    },
    {
      "inputs": [],
      "name": "getNativeTokenPrice",
      "outputs": [
        {
          "internalType": "uint256",
          "name": "_result",
          "type": "uint256"
        }
      ],
      "stateMutability": "view",
      "type": "function"
    },
    {
      "inputs": [],
      "name": "getProtocolInfo",
      "outputs": [
        {
          "components": [
            {
              "internalType": "bool",
              "name": "seizePaused",
              "type": "bool"
            },
            {
              "internalType": "bool",
              "name": "transferPaused",
              "type": "bool"
            }
          ],
          "internalType": "struct BaseMoonwellViews.ProtocolInfo",
          "name": "_result",
          "type": "tuple"
        }
      ],
      "stateMutability": "view",
      "type": "function"
    },
    {
      "inputs": [],
      "name": "getStakingInfo",
      "outputs": [
        {
          "components": [
            {
              "internalType": "uint256",
              "name": "cooldown",
              "type": "uint256"
            },
            {
              "internalType": "uint256",
              "name": "unstakeWindow",
              "type": "uint256"
            },
            {
              "internalType": "uint256",
              "name": "distributionEnd",
              "type": "uint256"
            },
            {
              "internalType": "uint256",
              "name": "totalSupply",
              "type": "uint256"
            },
            {
              "internalType": "uint256",
              "name": "emissionPerSecond",
              "type": "uint256"
            },
            {
              "internalType": "uint256",
              "name": "lastUpdateTimestamp",
              "type": "uint256"
            },
            {
              "internalType": "uint256",
              "name": "index",
              "type": "uint256"
            }
          ],
          "internalType": "struct BaseMoonwellViews.StakingInfo",
          "name": "_result",
          "type": "tuple"
        }
      ],
      "stateMutability": "view",
      "type": "function"
    },
    {
      "inputs": [
        {
          "internalType": "address[]",
          "name": "_tokens",
          "type": "address[]"
        },
        {
          "internalType": "address",
          "name": "_user",
          "type": "address"
        }
      ],
      "name": "getTokensBalances",
      "outputs": [
        {
          "components": [
            {
              "internalType": "uint256",
              "name": "amount",
              "type": "uint256"
            },
            {
              "internalType": "address",
              "name": "token",
              "type": "address"
            }
          ],
          "internalType": "struct BaseMoonwellViews.Balances[]",
          "name": "",
          "type": "tuple[]"
        }
      ],
      "stateMutability": "view",
      "type": "function"
    },
    {
      "inputs": [
        {
          "internalType": "address",
          "name": "_user",
          "type": "address"
        }
      ],
      "name": "getUserBalances",
      "outputs": [
        {
          "components": [
            {
              "internalType": "uint256",
              "name": "amount",
              "type": "uint256"
            },
            {
              "internalType": "address",
              "name": "token",
              "type": "address"
            }
          ],
          "internalType": "struct BaseMoonwellViews.Balances[]",
          "name": "",
          "type": "tuple[]"
        }
      ],
      "stateMutability": "view",
      "type": "function"
    },
    {
      "inputs": [
        {
          "internalType": "address",
          "name": "_user",
          "type": "address"
        }
      ],
      "name": "getUserBorrowsBalances",
      "outputs": [
        {
          "components": [
            {
              "internalType": "uint256",
              "name": "amount",
              "type": "uint256"
            },
            {
              "internalType": "address",
              "name": "token",
              "type": "address"
            }
          ],
          "internalType": "struct BaseMoonwellViews.Balances[]",
          "name": "",
          "type": "tuple[]"
        }
      ],
      "stateMutability": "view",
      "type": "function"
    },
    {
      "inputs": [
        {
          "internalType": "address",
          "name": "_user",
          "type": "address"
        }
      ],
      "name": "getUserClaimsVotingPower",
      "outputs": [
        {
          "components": [
            {
              "internalType": "uint256",
              "name": "delegatedVotingPower",
              "type": "uint256"
            },
            {
              "internalType": "uint256",
              "name": "votingPower",
              "type": "uint256"
            },
            {
              "internalType": "address",
              "name": "delegates",
              "type": "address"
            }
          ],
          "internalType": "struct BaseMoonwellViews.Votes",
          "name": "_result",
          "type": "tuple"
        }
      ],
      "stateMutability": "view",
      "type": "function"
    },
    {
      "inputs": [
        {
          "internalType": "address",
          "name": "_user",
          "type": "address"
        }
      ],
      "name": "getUserMarketsMemberships",
      "outputs": [
        {
          "components": [
            {
              "internalType": "bool",
              "name": "membership",
              "type": "bool"
            },
            {
              "internalType": "address",
              "name": "token",
              "type": "address"
            }
          ],
          "internalType": "struct BaseMoonwellViews.Memberships[]",
          "name": "",
          "type": "tuple[]"
        }
      ],
      "stateMutability": "view",
      "type": "function"
    },
    {
      "inputs": [
        {
          "internalType": "address",
          "name": "_user",
          "type": "address"
        }
      ],
      "name": "getUserRewards",
      "outputs": [
        {
          "components": [
            {
              "internalType": "address",
              "name": "market",
              "type": "address"
            },
            {
              "internalType": "address",
              "name": "rewardToken",
              "type": "address"
            },
            {
              "internalType": "uint256",
              "name": "supplyRewardsAmount",
              "type": "uint256"
            },
            {
              "internalType": "uint256",
              "name": "borrowRewardsAmount",
              "type": "uint256"
            }
          ],
          "internalType": "struct BaseMoonwellViews.Rewards[]",
          "name": "",
          "type": "tuple[]"
        }
      ],
      "stateMutability": "view",
      "type": "function"
    },
    {
      "inputs": [
        {
          "internalType": "address",
          "name": "_user",
          "type": "address"
        }
      ],
      "name": "getUserStakingInfo",
      "outputs": [
        {
          "components": [
            {
              "internalType": "uint256",
              "name": "cooldown",
              "type": "uint256"
            },
            {
              "internalType": "uint256",
              "name": "pendingRewards",
              "type": "uint256"
            },
            {
              "internalType": "uint256",
              "name": "totalStaked",
              "type": "uint256"
            }
          ],
          "internalType": "struct BaseMoonwellViews.UserStakingInfo",
          "name": "_result",
          "type": "tuple"
        }
      ],
      "stateMutability": "view",
      "type": "function"
    },
    {
      "inputs": [
        {
          "internalType": "address",
          "name": "_user",
          "type": "address"
        }
      ],
      "name": "getUserStakingVotingPower",
      "outputs": [
        {
          "components": [
            {
              "internalType": "uint256",
              "name": "delegatedVotingPower",
              "type": "uint256"
            },
            {
              "internalType": "uint256",
              "name": "votingPower",
              "type": "uint256"
            },
            {
              "internalType": "address",
              "name": "delegates",
              "type": "address"
            }
          ],
          "internalType": "struct BaseMoonwellViews.Votes",
          "name": "_result",
          "type": "tuple"
        }
      ],
      "stateMutability": "view",
      "type": "function"
    },
    {
      "inputs": [
        {
          "internalType": "address",
          "name": "_user",
          "type": "address"
        }
      ],
      "name": "getUserTokensVotingPower",
      "outputs": [
        {
          "components": [
            {
              "internalType": "uint256",
              "name": "delegatedVotingPower",
              "type": "uint256"
            },
            {
              "internalType": "uint256",
              "name": "votingPower",
              "type": "uint256"
            },
            {
              "internalType": "address",
              "name": "delegates",
              "type": "address"
            }
          ],
          "internalType": "struct BaseMoonwellViews.Votes",
          "name": "_result",
          "type": "tuple"
        }
      ],
      "stateMutability": "view",
      "type": "function"
    },
    {
      "inputs": [
        {
          "internalType": "address",
          "name": "_user",
          "type": "address"
        }
      ],
      "name": "getUserVotingPower",
      "outputs": [
        {
          "components": [
            {
              "components": [
                {
                  "internalType": "uint256",
                  "name": "delegatedVotingPower",
                  "type": "uint256"
                },
                {
                  "internalType": "uint256",
                  "name": "votingPower",
                  "type": "uint256"
                },
                {
                  "internalType": "address",
                  "name": "delegates",
                  "type": "address"
                }
              ],
              "internalType": "struct BaseMoonwellViews.Votes",
              "name": "claimsVotes",
              "type": "tuple"
            },
            {
              "components": [
                {
                  "internalType": "uint256",
                  "name": "delegatedVotingPower",
                  "type": "uint256"
                },
                {
                  "internalType": "uint256",
                  "name": "votingPower",
                  "type": "uint256"
                },
                {
                  "internalType": "address",
                  "name": "delegates",
                  "type": "address"
                }
              ],
              "internalType": "struct BaseMoonwellViews.Votes",
              "name": "stakingVotes",
              "type": "tuple"
            },
            {
              "components": [
                {
                  "internalType": "uint256",
                  "name": "delegatedVotingPower",
                  "type": "uint256"
                },
                {
                  "internalType": "uint256",
                  "name": "votingPower",
                  "type": "uint256"
                },
                {
                  "internalType": "address",
                  "name": "delegates",
                  "type": "address"
                }
              ],
              "internalType": "struct BaseMoonwellViews.Votes",
              "name": "tokenVotes",
              "type": "tuple"
            }
          ],
          "internalType": "struct BaseMoonwellViews.UserVotes",
          "name": "_result",
          "type": "tuple"
        }
      ],
      "stateMutability": "view",
      "type": "function"
    },
    {
      "inputs": [
        {
          "internalType": "address",
          "name": "_comptroller",
          "type": "address"
        },
        {
          "internalType": "address",
          "name": "tokenSaleDistributor",
          "type": "address"
        },
        {
          "internalType": "address",
          "name": "safetyModule",
          "type": "address"
        },
        {
          "internalType": "address",
          "name": "governanceToken",
          "type": "address"
        },
        {
          "internalType": "address",
          "name": "nativeMarket",
          "type": "address"
        },
        {
          "internalType": "address",
          "name": "governanceTokenLP",
          "type": "address"
        }
      ],
      "name": "initialize",
      "outputs": [],
      "stateMutability": "nonpayable",
      "type": "function"
    }
  ],
  "bytecode": {
    "object": "0x60806040523480156200001157600080fd5b506200001c62000022565b620000e3565b600054610100900460ff16156200008f5760405162461bcd60e51b815260206004820152602760248201527f496e697469616c697a61626c653a20636f6e747261637420697320696e697469604482015266616c697a696e6760c81b606482015260840160405180910390fd5b60005460ff90811614620000e1576000805460ff191660ff9081179091556040519081527f7f26b83ff96e1f2b6a682f133852f6798a09c465da95921460cefb38474024989060200160405180910390a15b565b613b5480620000f36000396000f3fe608060405234801561001057600080fd5b506004361061012c5760003560e01c806394c77638116100ad578063cc2a9a5b11610071578063cc2a9a5b14610349578063ce3f8aab1461035e578063e22340c814610371578063ed4e016414610391578063fcf14dd8146103a457600080fd5b806394c776381461028f5780639966ff54146102a5578063a5be5463146102c5578063abd3f612146102d8578063b40cd21d146102eb57600080fd5b80635fe3b567116100f45780635fe3b567146101d65780636e8c5b951461020757806380933608146102275780638843abef1461025c5780638d0d04b91461027c57600080fd5b8063078b0fb7146101315780630baca2e51461015a5780630cf85bcc1461017a5780630dca69f91461019a578063139df200146101c1575b600080fd5b61014461013f366004612d1d565b6103ac565b6040516101519190612d41565b60405180910390f35b61016d610168366004612d1d565b6106ba565b6040516101519190612dd3565b61018d610188366004612d1d565b6106ee565b6040516101519190612f5a565b6101a2610dd9565b6040805182511515815260209283015115159281019290925201610151565b6101c9610ee3565b6040516101519190612f6d565b6000546101ef906201000090046001600160a01b031681565b6040516001600160a01b039091168152602001610151565b61021a610215366004612d1d565b611096565b6040516101519190612fcf565b61023a610235366004612d1d565b61125e565b6040805182518152602080840151908201529181015190820152606001610151565b61026f61026a366004612d1d565b6113e4565b6040516101519190612fdd565b6101c961028a366004613028565b6115c3565b6102976116f9565b604051908152602001610151565b6102b86102b3366004612d1d565b6117f7565b604051610151919061309c565b61026f6102d3366004613204565b6119d2565b61026f6102e6366004612d1d565b611ba9565b6102f3611e85565b6040516101519190600060e082019050825182526020830151602083015260408301516040830152606083015160608301526080830151608083015260a083015160a083015260c083015160c083015292915050565b61035c6103573660046132b4565b612140565b005b61021a61036c366004612d1d565b61240c565b61038461037f366004612d1d565b612545565b6040516101519190613336565b61021a61039f366004612d1d565b6127b3565b6102976129f6565b606060008060029054906101000a90046001600160a01b03166001600160a01b031663acc2166a6040518163ffffffff1660e01b8152600401602060405180830381865afa158015610402573d6000803e3d6000fd5b505050506040513d601f19601f82011682018060405250810190610426919061339b565b60405163c9a06b4560e01b81526001600160a01b03858116600483015291925060009183169063c9a06b4590602401600060405180830381865afa158015610472573d6000803e3d6000fd5b505050506040513d6000823e601f3d908101601f1916820160405261049a91908101906133c3565b90506000805b825181101561053c5760008382815181106104bd576104bd613567565b6020026020010151905060005b816020015151811015610527576000826020015182815181106104ef576104ef613567565b60200260200101519050600081602001511115610514578461051081613593565b9550505b508061051f81613593565b9150506104ca565b5050808061053490613593565b9150506104a0565b506000816001600160401b03811115610557576105576130e9565b6040519080825280602002602001820160405280156105a957816020015b6040805160808101825260008082526020808301829052928201819052606082015282526000199092019101816105755790505b5090506000915060005b83518110156106b05760008482815181106105d0576105d0613567565b6020026020010151905060005b81602001515181101561069b5760008260200151828151811061060257610602613567565b6020026020010151905060008160200151111561068857604051806080016040528084600001516001600160a01b0316815260200182600001516001600160a01b0316815260200182604001518152602001826060015181525085878151811061066e5761066e613567565b6020026020010181905250858061068490613593565b9650505b508061069381613593565b9150506105dd565b505080806106a890613593565b9150506105b3565b5095945050505050565b6106c2612c04565b6106cb826127b3565b81526106d68261240c565b60208201526106e482611096565b6040820152919050565b6106f6612c36565b6106fe612c36565b60008054604051638e8f294b60e01b81526001600160a01b03868116600483015283926201000090041690638e8f294b906024016040805180830381865afa15801561074e573d6000803e3d6000fd5b505050506040513d601f19601f8201168201806040525081019061077291906135bc565b915091508115610dd0576001600160a01b0385811680855260005460405163252c221960e11b8152600481019290925262010000900490911690634a58443290602401602060405180830381865afa1580156107d2573d6000803e3d6000fd5b505050506040513d601f19601f820116820180604052508101906107f691906135e8565b604084015261080485612b8e565b606084015260c08301819052811515602084015260005460405163731f0c2b60e01b81526001600160a01b038781166004830152620100009092049091169063731f0c2b90602401602060405180830381865afa158015610869573d6000803e3d6000fd5b505050506040513d601f19601f8201168201806040525081019061088d9190613601565b15156080840152600054604051636d154ea560e01b81526001600160a01b0387811660048301526201000090920490911690636d154ea590602401602060405180830381865afa1580156108e5573d6000803e3d6000fd5b505050506040513d601f19601f820116820180604052508101906109099190613601565b151560a0840152600054604080516307dc0d1d60e41b81529051620100009092046001600160a01b031691637dc0d1d0916004808201926020929091908290030181865afa15801561095f573d6000803e3d6000fd5b505050506040513d601f19601f82011682018060405250810190610983919061339b565b60405163fc57d4df60e01b81526001600160a01b038781166004830152919091169063fc57d4df90602401602060405180830381865afa1580156109cb573d6000803e3d6000fd5b505050506040513d601f19601f820116820180604052508101906109ef91906135e8565b8360e0018181525050846001600160a01b03166318160ddd6040518163ffffffff1660e01b8152600401602060405180830381865afa158015610a36573d6000803e3d6000fd5b505050506040513d601f19601f82011682018060405250810190610a5a91906135e8565b83610100018181525050846001600160a01b03166347bd37186040518163ffffffff1660e01b8152600401602060405180830381865afa158015610aa2573d6000803e3d6000fd5b505050506040513d601f19601f82011682018060405250810190610ac691906135e8565b83610120018181525050846001600160a01b0316638f840ddd6040518163ffffffff1660e01b8152600401602060405180830381865afa158015610b0e573d6000803e3d6000fd5b505050506040513d601f19601f82011682018060405250810190610b3291906135e8565b83610140018181525050846001600160a01b0316633b1d21a26040518163ffffffff1660e01b8152600401602060405180830381865afa158015610b7a573d6000803e3d6000fd5b505050506040513d601f19601f82011682018060405250810190610b9e91906135e8565b83610160018181525050846001600160a01b031663182df0f56040518163ffffffff1660e01b8152600401602060405180830381865afa158015610be6573d6000803e3d6000fd5b505050506040513d601f19601f82011682018060405250810190610c0a91906135e8565b83610180018181525050846001600160a01b031663aa5af0fd6040518163ffffffff1660e01b8152600401602060405180830381865afa158015610c52573d6000803e3d6000fd5b505050506040513d601f19601f82011682018060405250810190610c7691906135e8565b836101a0018181525050846001600160a01b031663173b99046040518163ffffffff1660e01b8152600401602060405180830381865afa158015610cbe573d6000803e3d6000fd5b505050506040513d601f19601f82011682018060405250810190610ce291906135e8565b836101c0018181525050846001600160a01b031663cd91801c6040518163ffffffff1660e01b8152600401602060405180830381865afa158015610d2a573d6000803e3d6000fd5b505050506040513d601f19601f82011682018060405250810190610d4e91906135e8565b836101e0018181525050846001600160a01b031663d3bd2c726040518163ffffffff1660e01b8152600401602060405180830381865afa158015610d96573d6000803e3d6000fd5b505050506040513d601f19601f82011682018060405250810190610dba91906135e8565b610200840152610dc985612545565b6102208401525b50909392505050565b6040805180820190915260008082526020820152600060029054906101000a90046001600160a01b03166001600160a01b03166387f763036040518163ffffffff1660e01b8152600401602060405180830381865afa158015610e40573d6000803e3d6000fd5b505050506040513d601f19601f82011682018060405250810190610e649190613601565b15156020828101919091526000546040805163ac0b0bb760e01b81529051620100009092046001600160a01b03169263ac0b0bb7926004808401938290030181865afa158015610eb8573d6000803e3d6000fd5b505050506040513d601f19601f82011682018060405250810190610edc9190613601565b1515815290565b606060008060029054906101000a90046001600160a01b03166001600160a01b031663b0772d0b6040518163ffffffff1660e01b8152600401600060405180830381865afa158015610f39573d6000803e3d6000fd5b505050506040513d6000823e601f3d908101601f19168201604052610f61919081019061361c565b9050600081516001600160401b03811115610f7e57610f7e6130e9565b604051908082528060200260200182016040528015610fb757816020015b610fa4612c36565b815260200190600190039081610f9c5790505b50905060005b825181101561108f57306001600160a01b0316630cf85bcc848381518110610fe757610fe7613567565b60200260200101516040518263ffffffff1660e01b815260040161101a91906001600160a01b0391909116815260200190565b600060405180830381865afa158015611037573d6000803e3d6000fd5b505050506040513d6000823e601f3d908101601f1916820160405261105f9190810190613752565b82828151811061107157611071613567565b6020026020010181905250808061108790613593565b915050610fbd565b5092915050565b61109e612cd0565b6003546001600160a01b031615611259576003546000906001600160a01b031663782d6fe1846110cf600143613892565b6040516001600160e01b031960e085901b1681526001600160a01b0390921660048301526024820152604401602060405180830381865afa158015611118573d6000803e3d6000fd5b505050506040513d601f19601f8201168201806040525081019061113c91906138a5565b600354604051632c3e6f0f60e11b81526001600160a01b0386811660048301526bffffffffffffffffffffffff9390931693506000929091169063587cde1e90602401602060405180830381865afa15801561119c573d6000803e3d6000fd5b505050506040513d601f19601f820116820180604052508101906111c0919061339b565b6040805160608101825284815260035491516370a0823160e01b81526001600160a01b0388811660048301529394509092602084019216906370a0823190602401602060405180830381865afa15801561121e573d6000803e3d6000fd5b505050506040513d601f19601f8201168201806040525081019061124291906135e8565b8152602001826001600160a01b0316815250925050505b919050565b61128260405180606001604052806000815260200160008152602001600081525090565b6002546001600160a01b031615611259576002546040516346df7f7160e11b81526001600160a01b03848116600483015290911690638dbefee290602401602060405180830381865afa1580156112dd573d6000803e3d6000fd5b505050506040513d601f19601f8201168201806040525081019061130191906135e8565b602082015260025460405163091030c360e01b81526001600160a01b0384811660048301529091169063091030c390602401602060405180830381865afa158015611350573d6000803e3d6000fd5b505050506040513d601f19601f8201168201806040525081019061137491906135e8565b81526002546040516370a0823160e01b81526001600160a01b038481166004830152909116906370a0823190602401602060405180830381865afa1580156113c0573d6000803e3d6000fd5b505050506040513d601f19601f820116820180604052508101906106e491906135e8565b606060008060029054906101000a90046001600160a01b03166001600160a01b031663b0772d0b6040518163ffffffff1660e01b8152600401600060405180830381865afa15801561143a573d6000803e3d6000fd5b505050506040513d6000823e601f3d908101601f19168201604052611462919081019061361c565b9050600081516001600160401b0381111561147f5761147f6130e9565b6040519080825280602002602001820160405280156114c457816020015b604080518082019091526000808252602082015281526020019060019003908161149d5790505b50905060005b82518110156115bb5760008382815181106114e7576114e7613567565b602002602001015190506040518060400160405280826001600160a01b03166395dd9193896040518263ffffffff1660e01b815260040161153791906001600160a01b0391909116815260200190565b602060405180830381865afa158015611554573d6000803e3d6000fd5b505050506040513d601f19601f8201168201806040525081019061157891906135e8565b8152602001826001600160a01b031681525083838151811061159c5761159c613567565b60200260200101819052505080806115b390613593565b9150506114ca565b509392505050565b60606000826001600160401b038111156115df576115df6130e9565b60405190808252806020026020018201604052801561161857816020015b611605612c36565b8152602001906001900390816115fd5790505b50905060005b838110156116ef5730630cf85bcc86868481811061163e5761163e613567565b90506020020160208101906116539190612d1d565b6040516001600160e01b031960e084901b1681526001600160a01b039091166004820152602401600060405180830381865afa158015611697573d6000803e3d6000fd5b505050506040513d6000823e601f3d908101601f191682016040526116bf9190810190613752565b8282815181106116d1576116d1613567565b602002602001018190525080806116e790613593565b91505061161e565b5090505b92915050565b6005546000906001600160a01b0316156117f457600060029054906101000a90046001600160a01b03166001600160a01b0316637dc0d1d06040518163ffffffff1660e01b8152600401602060405180830381865afa158015611760573d6000803e3d6000fd5b505050506040513d601f19601f82011682018060405250810190611784919061339b565b60055460405163fc57d4df60e01b81526001600160a01b03918216600482015291169063fc57d4df90602401602060405180830381865afa1580156117cd573d6000803e3d6000fd5b505050506040513d601f19601f820116820180604052508101906117f191906135e8565b90505b90565b606060008060029054906101000a90046001600160a01b03166001600160a01b031663b0772d0b6040518163ffffffff1660e01b8152600401600060405180830381865afa15801561184d573d6000803e3d6000fd5b505050506040513d6000823e601f3d908101601f19168201604052611875919081019061361c565b9050600081516001600160401b03811115611892576118926130e9565b6040519080825280602002602001820160405280156118d757816020015b60408051808201909152600080825260208201528152602001906001900390816118b05790505b50905060005b82518110156115bb5760008382815181106118fa576118fa613567565b6020908102919091010151604080518082019182905260005463929fe9a160e01b9092526001600160a01b03898116604483015280841660648301529293509182916201000090041663929fe9a160848301602060405180830381865afa158015611969573d6000803e3d6000fd5b505050506040513d601f19601f8201168201806040525081019061198d9190613601565b15158152602001826001600160a01b03168152508383815181106119b3576119b3613567565b60200260200101819052505080806119ca90613593565b9150506118dd565b6060600083516001600160401b038111156119ef576119ef6130e9565b604051908082528060200260200182016040528015611a3457816020015b6040805180820190915260008082526020820152815260200190600190039081611a0d5790505b50905060005b84518110156116ef5760006001600160a01b0316858281518110611a6057611a60613567565b60200260200101516001600160a01b031603611ac1576040518060400160405280856001600160a01b031631815260200160006001600160a01b0316815250828281518110611ab157611ab1613567565b6020026020010181905250611b97565b6000858281518110611ad557611ad5613567565b602002602001015190506040518060400160405280826001600160a01b03166370a08231886040518263ffffffff1660e01b8152600401611b2591906001600160a01b0391909116815260200190565b602060405180830381865afa158015611b42573d6000803e3d6000fd5b505050506040513d601f19601f82011682018060405250810190611b6691906135e8565b8152602001826001600160a01b0316815250838381518110611b8a57611b8a613567565b6020026020010181905250505b80611ba181613593565b915050611a3a565b606060008060029054906101000a90046001600160a01b03166001600160a01b031663b0772d0b6040518163ffffffff1660e01b8152600401600060405180830381865afa158015611bff573d6000803e3d6000fd5b505050506040513d6000823e601f3d908101601f19168201604052611c27919081019061361c565b9050600081516002611c3991906138d3565b611c449060016138ea565b6003549091506000906001600160a01b031615611c695781611c6581613593565b9250505b6000826001600160401b03811115611c8357611c836130e9565b604051908082528060200260200182016040528015611cac578160200160208202803683370190505b506003549091506001600160a01b031615611d0a5760035481516001600160a01b0390911690829084908110611ce457611ce4613567565b6001600160a01b039092166020928302919091019091015281611d0681613593565b9250505b6000818381518110611d1e57611d1e613567565b6001600160a01b039092166020928302919091019091015281611d4081613593565b92505060005b8451811015611e70576000858281518110611d6357611d63613567565b60209081029190910101516005549091506000906001600160a01b03808416911614611dee57816001600160a01b0316636f307dc36040518163ffffffff1660e01b8152600401602060405180830381865afa158015611dc7573d6000803e3d6000fd5b505050506040513d601f19601f82011682018060405250810190611deb919061339b565b90505b81848681518110611e0157611e01613567565b6001600160a01b03909216602092830291909101909101528084611e268760016138ea565b81518110611e3657611e36613567565b6001600160a01b0390921660209283029190910190910152611e596002866138ea565b945050508080611e6890613593565b915050611d46565b50611e7b81876119d2565b9695505050505050565b611ec56040518060e00160405280600081526020016000815260200160008152602001600081526020016000815260200160008152602001600081525090565b6002546001600160a01b0316156117f457600260009054906101000a90046001600160a01b03166001600160a01b03166372b49d636040518163ffffffff1660e01b8152600401602060405180830381865afa158015611f29573d6000803e3d6000fd5b505050506040513d601f19601f82011682018060405250810190611f4d91906135e8565b815260025460408051631ace254b60e11b815290516001600160a01b039092169163359c4a96916004808201926020929091908290030181865afa158015611f99573d6000803e3d6000fd5b505050506040513d601f19601f82011682018060405250810190611fbd91906135e8565b6020808301919091526002546040805163919cd40f60e01b815290516001600160a01b039092169263919cd40f926004808401938290030181865afa15801561200a573d6000803e3d6000fd5b505050506040513d601f19601f8201168201806040525081019061202e91906135e8565b60408083019190915260025481516318160ddd60e01b815291516001600160a01b03909116916318160ddd9160048083019260209291908290030181865afa15801561207e573d6000803e3d6000fd5b505050506040513d601f19601f820116820180604052508101906120a291906135e8565b6060820152600254604051631e23703160e31b81526001600160a01b039091166004820181905260009163f11b818890602401606060405180830381865afa1580156120f2573d6000803e3d6000fd5b505050506040513d601f19601f820116820180604052508101906121169190613914565b80516001600160801b03908116608085015260208201511660a08401526040015160c08301525090565b600054610100900460ff16158080156121605750600054600160ff909116105b8061217a5750303b15801561217a575060005460ff166001145b6121e25760405162461bcd60e51b815260206004820152602e60248201527f496e697469616c697a61626c653a20636f6e747261637420697320616c72656160448201526d191e481a5b9a5d1a585b1a5e995960921b60648201526084015b60405180910390fd5b6000805460ff191660011790558015612205576000805461ff0019166101001790555b6001600160a01b0387166122665760405162461bcd60e51b815260206004820152602260248201527f436f6d7074726f6c6c65722063616e7420626520746865203020616464726573604482015261732160f01b60648201526084016121d9565b86600060026101000a8154816001600160a01b0302191690836001600160a01b03160217905550600060029054906101000a90046001600160a01b03166001600160a01b0316627e3dd26040518163ffffffff1660e01b8152600401602060405180830381865afa1580156122df573d6000803e3d6000fd5b505050506040513d601f19601f820116820180604052508101906123039190613601565b6123675760405162461bcd60e51b815260206004820152602f60248201527f43616e742062696e6420746f20736f6d657468696e67207468617473206e6f7460448201526e206120636f6d7074726f6c6c65722160881b60648201526084016121d9565b600180546001600160a01b03199081166001600160a01b0389811691909117909255600280548216888416179055600380548216878416179055600580548216868416179055600480549091169184169190911790558015612403576000805461ff0019169055604051600181527f7f26b83ff96e1f2b6a682f133852f6798a09c465da95921460cefb38474024989060200160405180910390a15b50505050505050565b612414612cd0565b6002546001600160a01b031615611259576002546000906001600160a01b031663782d6fe184612445600143613892565b6040516001600160e01b031960e085901b1681526001600160a01b0390921660048301526024820152604401602060405180830381865afa15801561248e573d6000803e3d6000fd5b505050506040513d601f19601f820116820180604052508101906124b291906135e8565b6040805160608101825282815260025491516370a0823160e01b81526001600160a01b0387811660048301529394509092602084019216906370a0823190602401602060405180830381865afa158015612510573d6000803e3d6000fd5b505050506040513d601f19601f8201168201806040525081019061253491906135e8565b815260006020909101529392505050565b606060008060029054906101000a90046001600160a01b03166001600160a01b031663acc2166a6040518163ffffffff1660e01b8152600401602060405180830381865afa15801561259b573d6000803e3d6000fd5b505050506040513d601f19601f820116820180604052508101906125bf919061339b565b6040516307e218f960e41b81526001600160a01b038581166004830152919250600091831690637e218f9090602401600060405180830381865afa15801561260b573d6000803e3d6000fd5b505050506040513d6000823e601f3d908101601f191682016040526126339190810190613989565b90506000805b825181101561268d57600083828151811061265657612656613567565b60200260200101519050428160400151111561267a578261267681613593565b9350505b508061268581613593565b915050612639565b506000816001600160401b038111156126a8576126a86130e9565b60405190808252806020026020018201604052801561270657816020015b6126f3604051806060016040528060006001600160a01b0316815260200160008152602001600081525090565b8152602001906001900390816126c65790505b5090506000915060005b83518110156106b057600084828151811061272d5761272d613567565b6020026020010151905042816040015111156127a057604051806060016040528082602001516001600160a01b031681526020018260e00151815260200182610100015181525083858151811061278657612786613567565b6020026020010181905250838061279c90613593565b9450505b50806127ab81613593565b915050612710565b6127bb612cd0565b6001546001600160a01b03161561125957600180546000916001600160a01b039091169063782d6fe19085906127f19043613892565b6040516001600160e01b031960e085901b1681526001600160a01b0390921660048301526024820152604401602060405180830381865afa15801561283a573d6000803e3d6000fd5b505050506040513d601f19601f8201168201806040525081019061285e91906135e8565b60015460405163ed361b3560e01b81526001600160a01b0386811660048301529293506000929091169063ed361b3590602401602060405180830381865afa1580156128ae573d6000803e3d6000fd5b505050506040513d601f19601f820116820180604052508101906128d291906135e8565b600154604051631debb35d60e31b81526001600160a01b0387811660048301529293506000929091169063ef5d9ae890602401602060405180830381865afa158015612922573d6000803e3d6000fd5b505050506040513d601f19601f8201168201806040525081019061294691906135e8565b600154604051632c3e6f0f60e11b81526001600160a01b0388811660048301529293506000929091169063587cde1e90602401602060405180830381865afa158015612996573d6000803e3d6000fd5b505050506040513d601f19601f820116820180604052508101906129ba919061339b565b9050604051806060016040528085815260200183856129d99190613892565b8152602001826001600160a01b0316815250945050505050919050565b6004546000906001600160a01b031615801590612a1d57506005546001600160a01b031615155b156117f4576004805460408051630240bc6b60e21b8152905160009384936001600160a01b031692630902f1ac92818301926060928290030181865afa158015612a6b573d6000803e3d6000fd5b505050506040513d601f19601f82011682018060405250810190612a8f9190613ab9565b506001600160701b031691506001600160701b031691506000600460009054906101000a90046001600160a01b03166001600160a01b0316630dfe16816040518163ffffffff1660e01b8152600401602060405180830381865afa158015612afb573d6000803e3d6000fd5b505050506040513d601f19601f82011682018060405250810190612b1f919061339b565b6003549091506000906001600160a01b03808416911614612b405783612b42565b825b6003549091506000906001600160a01b03848116911614612b635783612b65565b845b905080612b706116f9565b612b7a90846138d3565b612b849190613afc565b9550505050505090565b600080546040516302c3bcbb60e01b81526001600160a01b03848116600483015262010000909204909116906302c3bcbb90602401602060405180830381865afa158015612be0573d6000803e3d6000fd5b505050506040513d601f19601f820116820180604052508101906116f391906135e8565b6040518060600160405280612c17612cd0565b8152602001612c24612cd0565b8152602001612c31612cd0565b905290565b60405180610240016040528060006001600160a01b0316815260200160001515815260200160008152602001600081526020016000151581526020016000151581526020016000815260200160008152602001600081526020016000815260200160008152602001600081526020016000815260200160008152602001600081526020016000815260200160008152602001606081525090565b6040518060600160405280600081526020016000815260200160006001600160a01b031681525090565b6001600160a01b0381168114612d0f57600080fd5b50565b803561125981612cfa565b600060208284031215612d2f57600080fd5b8135612d3a81612cfa565b9392505050565b602080825282518282018190526000919060409081850190868401855b82811015612da457815180516001600160a01b03908116865287820151168786015285810151868601526060908101519085015260809093019290850190600101612d5e565b5091979650505050505050565b80518252602080820151908301526040908101516001600160a01b0316910152565b600061012082019050612de7828451612db1565b6020830151612df96060840182612db1565b50604083015161108f60c0840182612db1565b600081518084526020808501945080840160005b83811015612e5d57815180516001600160a01b03168852602080820151908901526040908101519088015260608701965090820190600101612e20565b509495945050505050565b80516001600160a01b0316825260006102406020830151612e8d602086018215159052565b5060408301516040850152606083015160608501526080830151612eb5608086018215159052565b5060a0830151612ec960a086018215159052565b5060c0838101519085015260e08084015190850152610100808401519085015261012080840151908501526101408084015190850152610160808401519085015261018080840151908501526101a080840151908501526101c080840151908501526101e08084015190850152610200808401519085015261022080840151818601839052611e7b83870182612e0c565b602081526000612d3a6020830184612e68565b6000602080830181845280855180835260408601915060408160051b870101925083870160005b82811015612fc257603f19888603018452612fb0858351612e68565b94509285019290850190600101612f94565b5092979650505050505050565b606081016116f38284612db1565b602080825282518282018190526000919060409081850190868401855b82811015612da4578151805185528601516001600160a01b0316868501529284019290850190600101612ffa565b6000806020838503121561303b57600080fd5b82356001600160401b038082111561305257600080fd5b818501915085601f83011261306657600080fd5b81358181111561307557600080fd5b8660208260051b850101111561308a57600080fd5b60209290920196919550909350505050565b602080825282518282018190526000919060409081850190868401855b82811015612da45781518051151585528601516001600160a01b03168685015292840192908501906001016130b9565b634e487b7160e01b600052604160045260246000fd5b604080519081016001600160401b0381118282101715613121576131216130e9565b60405290565b604051608081016001600160401b0381118282101715613121576131216130e9565b604051606081016001600160401b0381118282101715613121576131216130e9565b60405161024081016001600160401b0381118282101715613121576131216130e9565b60405161012081016001600160401b0381118282101715613121576131216130e9565b604051601f8201601f191681016001600160401b03811182821017156131d9576131d96130e9565b604052919050565b60006001600160401b038211156131fa576131fa6130e9565b5060051b60200190565b6000806040838503121561321757600080fd5b82356001600160401b0381111561322d57600080fd5b8301601f8101851361323e57600080fd5b8035602061325361324e836131e1565b6131b1565b82815260059290921b8301810191818101908884111561327257600080fd5b938201935b8385101561329957843561328a81612cfa565b82529382019390820190613277565b95506132a89050868201612d12565b93505050509250929050565b60008060008060008060c087890312156132cd57600080fd5b86356132d881612cfa565b955060208701356132e881612cfa565b945060408701356132f881612cfa565b9350606087013561330881612cfa565b9250608087013561331881612cfa565b915060a087013561332881612cfa565b809150509295509295509295565b6020808252825182820181905260009190848201906040850190845b8181101561338f57835180516001600160a01b03168452602080820151908501526040908101519084015260608301938501939250600101613352565b50909695505050505050565b6000602082840312156133ad57600080fd5b8151612d3a81612cfa565b805161125981612cfa565b6000602082840312156133d557600080fd5b81516001600160401b03808211156133ec57600080fd5b818401915084601f83011261340057600080fd5b815161340e61324e826131e1565b8082825260208201915060208360051b86010192508783111561343057600080fd5b602085015b8381101561355b5780518581111561344c57600080fd5b86016040818b03601f1901121561346257600080fd5b61346a6130ff565b602082015161347881612cfa565b815260408201518781111561348c57600080fd5b8083019250508a603f8301126134a157600080fd5b60208201516134b261324e826131e1565b81815260079190911b83016040019060208101908d8311156134d357600080fd5b6040850194505b8285101561353c576080858f0312156134f257600080fd5b6134fa613127565b855161350581612cfa565b80825250602086015160208201526040860151604082015260608601516060820152808352506020820191506080850194506134da565b8060208501525050508085525050602083019250602081019050613435565b50979650505050505050565b634e487b7160e01b600052603260045260246000fd5b634e487b7160e01b600052601160045260246000fd5b6000600182016135a5576135a561357d565b5060010190565b8051801515811461125957600080fd5b600080604083850312156135cf57600080fd5b6135d8836135ac565b9150602083015190509250929050565b6000602082840312156135fa57600080fd5b5051919050565b60006020828403121561361357600080fd5b612d3a826135ac565b6000602080838503121561362f57600080fd5b82516001600160401b0381111561364557600080fd5b8301601f8101851361365657600080fd5b805161366461324e826131e1565b81815260059190911b8201830190838101908783111561368357600080fd5b928401925b828410156136aa57835161369b81612cfa565b82529284019290840190613688565b979650505050505050565b600082601f8301126136c657600080fd5b815160206136d661324e836131e1565b828152606092830285018201928282019190878511156136f557600080fd5b8387015b858110156137455781818a0312156137115760008081fd5b613719613149565b815161372481612cfa565b815281860151868201526040808301519082015284529284019281016136f9565b5090979650505050505050565b60006020828403121561376457600080fd5b81516001600160401b038082111561377b57600080fd5b90830190610240828603121561379057600080fd5b61379861316b565b6137a1836133b8565b81526137af602084016135ac565b602082015260408301516040820152606083015160608201526137d4608084016135ac565b60808201526137e560a084016135ac565b60a082015260c0838101519082015260e08084015190820152610100808401519082015261012080840151908201526101408084015190820152610160808401519082015261018080840151908201526101a080840151908201526101c080840151908201526101e080840151908201526102008084015190820152610220808401518381111561387557600080fd5b613881888287016136b5565b918301919091525095945050505050565b818103818111156116f3576116f361357d565b6000602082840312156138b757600080fd5b81516bffffffffffffffffffffffff81168114612d3a57600080fd5b80820281158282048414176116f3576116f361357d565b808201808211156116f3576116f361357d565b80516001600160801b038116811461125957600080fd5b60006060828403121561392657600080fd5b61392e613149565b613937836138fd565b8152613945602084016138fd565b6020820152604083015160408201528091505092915050565b80516001600160e01b038116811461125957600080fd5b805163ffffffff8116811461125957600080fd5b6000602080838503121561399c57600080fd5b82516001600160401b038111156139b257600080fd5b8301601f810185136139c357600080fd5b80516139d161324e826131e1565b81815261012091820283018401918482019190888411156139f157600080fd5b938501935b8385101561355b5780858a031215613a0e5760008081fd5b613a1661318e565b613a1f866133b8565b8152613a2c8787016133b8565b81880152604086810151908201526060613a4781880161395e565b908201526080613a58878201613975565b9082015260a0613a6987820161395e565b9082015260c0613a7a878201613975565b9082015260e086810151908201526101008087015190820152835293840193918501916139f6565b80516001600160701b038116811461125957600080fd5b600080600060608486031215613ace57600080fd5b613ad784613aa2565b9250613ae560208501613aa2565b9150613af360408501613aa2565b90509250925092565b600082613b1957634e487b7160e01b600052601260045260246000fd5b50049056fea2646970667358221220c68d7bf96daf10e8562079ba47bab29015cc8884803a1c3820cb08185160f07d64736f6c63430008130033",
    "linkReferences": {}
  },
  "methodIdentifiers": {
    "comptroller()": "5fe3b567",
    "getAllMarketsInfo()": "139df200",
    "getGovernanceTokenPrice()": "fcf14dd8",
    "getMarketIncentives(address)": "e22340c8",
    "getMarketInfo(address)": "0cf85bcc",
    "getMarketsInfo(address[])": "8d0d04b9",
    "getNativeTokenPrice()": "94c77638",
    "getProtocolInfo()": "0dca69f9",
    "getStakingInfo()": "b40cd21d",
    "getTokensBalances(address[],address)": "a5be5463",
    "getUserBalances(address)": "abd3f612",
    "getUserBorrowsBalances(address)": "8843abef",
    "getUserClaimsVotingPower(address)": "ed4e0164",
    "getUserMarketsMemberships(address)": "9966ff54",
    "getUserRewards(address)": "078b0fb7",
    "getUserStakingInfo(address)": "80933608",
    "getUserStakingVotingPower(address)": "ce3f8aab",
    "getUserTokensVotingPower(address)": "6e8c5b95",
    "getUserVotingPower(address)": "0baca2e5",
    "initialize(address,address,address,address,address,address)": "cc2a9a5b"
  },
  "id": 104
}