{
  "abi": [
    {
      "type": "constructor",
      "inputs": [],
      "stateMutability": "nonpayable"
    },
    {
      "type": "function",
      "name": "addExternalChainConfigs",
      "inputs": [
        {
          "name": "_trustedSenders",
          "type": "tuple[]",
          "internalType": "struct WormholeTrustedSender.TrustedSender[]",
          "components": [
            {
              "name": "chainId",
              "type": "uint16",
              "internalType": "uint16"
            },
            {
              "name": "addr",
              "type": "address",
              "internalType": "address"
            }
          ]
        }
      ],
      "outputs": [],
      "stateMutability": "nonpayable"
    },
    {
      "type": "function",
      "name": "breakGlassGuardian",
      "inputs": [],
      "outputs": [
        {
          "name": "",
          "type": "address",
          "internalType": "address"
        }
      ],
      "stateMutability": "view"
    },
    {
      "type": "function",
      "name": "bridgeCost",
      "inputs": [
        {
          "name": "dstWormholeChainId",
          "type": "uint16",
          "internalType": "uint16"
        }
      ],
      "outputs": [
        {
          "name": "gasCost",
          "type": "uint256",
          "internalType": "uint256"
        }
      ],
      "stateMutability": "view"
    },
    {
      "type": "function",
      "name": "bridgeCostAll",
      "inputs": [],
      "outputs": [
        {
          "name": "",
          "type": "uint256",
          "internalType": "uint256"
        }
      ],
      "stateMutability": "view"
    },
    {
      "type": "function",
      "name": "cancel",
      "inputs": [
        {
          "name": "proposalId",
          "type": "uint256",
          "internalType": "uint256"
        }
      ],
      "outputs": [],
      "stateMutability": "nonpayable"
    },
    {
      "type": "function",
      "name": "castVote",
      "inputs": [
        {
          "name": "proposalId",
          "type": "uint256",
          "internalType": "uint256"
        },
        {
          "name": "voteValue",
          "type": "uint8",
          "internalType": "uint8"
        }
      ],
      "outputs": [],
      "stateMutability": "nonpayable"
    },
    {
      "type": "function",
      "name": "chainAddressVotes",
      "inputs": [
        {
          "name": "proposalId",
          "type": "uint256",
          "internalType": "uint256"
        },
        {
          "name": "wormholeChainId",
          "type": "uint16",
          "internalType": "uint16"
        }
      ],
      "outputs": [
        {
          "name": "forVotes",
          "type": "uint256",
          "internalType": "uint256"
        },
        {
          "name": "againstVotes",
          "type": "uint256",
          "internalType": "uint256"
        },
        {
          "name": "abstainVotes",
          "type": "uint256",
          "internalType": "uint256"
        }
      ],
      "stateMutability": "view"
    },
    {
      "type": "function",
      "name": "chainVoteCollectorVotes",
      "inputs": [
        {
          "name": "wormholeChainId",
          "type": "uint16",
          "internalType": "uint16"
        },
        {
          "name": "proposalId",
          "type": "uint256",
          "internalType": "uint256"
        }
      ],
      "outputs": [
        {
          "name": "forVotes",
          "type": "uint256",
          "internalType": "uint256"
        },
        {
          "name": "againstVotes",
          "type": "uint256",
          "internalType": "uint256"
        },
        {
          "name": "abstainVotes",
          "type": "uint256",
          "internalType": "uint256"
        }
      ],
      "stateMutability": "view"
    },
    {
      "type": "function",
      "name": "crossChainVoteCollectionPeriod",
      "inputs": [],
      "outputs": [
        {
          "name": "",
          "type": "uint256",
          "internalType": "uint256"
        }
      ],
      "stateMutability": "view"
    },
    {
      "type": "function",
      "name": "currentUserLiveProposals",
      "inputs": [
        {
          "name": "user",
          "type": "address",
          "internalType": "address"
        }
      ],
      "outputs": [
        {
          "name": "",
          "type": "uint256",
          "internalType": "uint256"
        }
      ],
      "stateMutability": "view"
    },
    {
      "type": "function",
      "name": "distributor",
      "inputs": [],
      "outputs": [
        {
          "name": "",
          "type": "address",
          "internalType": "contract SnapshotInterface"
        }
      ],
      "stateMutability": "view"
    },
    {
      "type": "function",
      "name": "execute",
      "inputs": [
        {
          "name": "proposalId",
          "type": "uint256",
          "internalType": "uint256"
        }
      ],
      "outputs": [],
      "stateMutability": "payable"
    },
    {
      "type": "function",
      "name": "executeBreakGlass",
      "inputs": [
        {
          "name": "targets",
          "type": "address[]",
          "internalType": "address[]"
        },
        {
          "name": "calldatas",
          "type": "bytes[]",
          "internalType": "bytes[]"
        }
      ],
      "outputs": [],
      "stateMutability": "nonpayable"
    },
    {
      "type": "function",
      "name": "fromWormholeFormat",
      "inputs": [
        {
          "name": "whFormatAddress",
          "type": "bytes32",
          "internalType": "bytes32"
        }
      ],
      "outputs": [
        {
          "name": "",
          "type": "address",
          "internalType": "address"
        }
      ],
      "stateMutability": "pure"
    },
    {
      "type": "function",
      "name": "gasLimit",
      "inputs": [],
      "outputs": [
        {
          "name": "",
          "type": "uint96",
          "internalType": "uint96"
        }
      ],
      "stateMutability": "view"
    },
    {
      "type": "function",
      "name": "getAllTargetChains",
      "inputs": [],
      "outputs": [
        {
          "name": "",
          "type": "uint16[]",
          "internalType": "uint16[]"
        }
      ],
      "stateMutability": "view"
    },
    {
      "type": "function",
      "name": "getAllTargetChainsLength",
      "inputs": [],
      "outputs": [
        {
          "name": "",
          "type": "uint256",
          "internalType": "uint256"
        }
      ],
      "stateMutability": "view"
    },
    {
      "type": "function",
      "name": "getCurrentVotes",
      "inputs": [
        {
          "name": "account",
          "type": "address",
          "internalType": "address"
        }
      ],
      "outputs": [
        {
          "name": "",
          "type": "uint256",
          "internalType": "uint256"
        }
      ],
      "stateMutability": "view"
    },
    {
      "type": "function",
      "name": "getNumLiveProposals",
      "inputs": [],
      "outputs": [
        {
          "name": "count",
          "type": "uint256",
          "internalType": "uint256"
        }
      ],
      "stateMutability": "view"
    },
    {
      "type": "function",
      "name": "getProposalData",
      "inputs": [
        {
          "name": "proposalId",
          "type": "uint256",
          "internalType": "uint256"
        }
      ],
      "outputs": [
        {
          "name": "targets",
          "type": "address[]",
          "internalType": "address[]"
        },
        {
          "name": "values",
          "type": "uint256[]",
          "internalType": "uint256[]"
        },
        {
          "name": "calldatas",
          "type": "bytes[]",
          "internalType": "bytes[]"
        }
      ],
      "stateMutability": "view"
    },
    {
      "type": "function",
      "name": "getReceipt",
      "inputs": [
        {
          "name": "proposalId",
          "type": "uint256",
          "internalType": "uint256"
        },
        {
          "name": "voter",
          "type": "address",
          "internalType": "address"
        }
      ],
      "outputs": [
        {
          "name": "hasVoted",
          "type": "bool",
          "internalType": "bool"
        },
        {
          "name": "voteValue",
          "type": "uint8",
          "internalType": "uint8"
        },
        {
          "name": "votes",
          "type": "uint256",
          "internalType": "uint256"
        }
      ],
      "stateMutability": "view"
    },
    {
      "type": "function",
      "name": "getUserLiveProposals",
      "inputs": [
        {
          "name": "user",
          "type": "address",
          "internalType": "address"
        }
      ],
      "outputs": [
        {
          "name": "",
          "type": "uint256[]",
          "internalType": "uint256[]"
        }
      ],
      "stateMutability": "view"
    },
    {
      "type": "function",
      "name": "getVotes",
      "inputs": [
        {
          "name": "account",
          "type": "address",
          "internalType": "address"
        },
        {
          "name": "timestamp",
          "type": "uint256",
          "internalType": "uint256"
        },
        {
          "name": "blockNumber",
          "type": "uint256",
          "internalType": "uint256"
        }
      ],
      "outputs": [
        {
          "name": "",
          "type": "uint256",
          "internalType": "uint256"
        }
      ],
      "stateMutability": "view"
    },
    {
      "type": "function",
      "name": "initialize",
      "inputs": [
        {
          "name": "initData",
          "type": "tuple",
          "internalType": "struct MultichainGovernor.InitializeData",
          "components": [
            {
              "name": "well",
              "type": "address",
              "internalType": "address"
            },
            {
              "name": "xWell",
              "type": "address",
              "internalType": "address"
            },
            {
              "name": "stkWell",
              "type": "address",
              "internalType": "address"
            },
            {
              "name": "distributor",
              "type": "address",
              "internalType": "address"
            },
            {
              "name": "proposalThreshold",
              "type": "uint256",
              "internalType": "uint256"
            },
            {
              "name": "votingPeriodSeconds",
              "type": "uint256",
              "internalType": "uint256"
            },
            {
              "name": "crossChainVoteCollectionPeriod",
              "type": "uint256",
              "internalType": "uint256"
            },
            {
              "name": "quorum",
              "type": "uint256",
              "internalType": "uint256"
            },
            {
              "name": "maxUserLiveProposals",
              "type": "uint256",
              "internalType": "uint256"
            },
            {
              "name": "pauseDuration",
              "type": "uint128",
              "internalType": "uint128"
            },
            {
              "name": "pauseGuardian",
              "type": "address",
              "internalType": "address"
            },
            {
              "name": "breakGlassGuardian",
              "type": "address",
              "internalType": "address"
            },
            {
              "name": "wormholeRelayer",
              "type": "address",
              "internalType": "address"
            }
          ]
        },
        {
          "name": "trustedSenders",
          "type": "tuple[]",
          "internalType": "struct WormholeTrustedSender.TrustedSender[]",
          "components": [
            {
              "name": "chainId",
              "type": "uint16",
              "internalType": "uint16"
            },
            {
              "name": "addr",
              "type": "address",
              "internalType": "address"
            }
          ]
        },
        {
          "name": "calldatas",
          "type": "bytes[]",
          "internalType": "bytes[]"
        }
      ],
      "outputs": [],
      "stateMutability": "nonpayable"
    },
    {
      "type": "function",
      "name": "isTrustedSender",
      "inputs": [
        {
          "name": "chainId",
          "type": "uint16",
          "internalType": "uint16"
        },
        {
          "name": "addr",
          "type": "address",
          "internalType": "address"
        }
      ],
      "outputs": [
        {
          "name": "",
          "type": "bool",
          "internalType": "bool"
        }
      ],
      "stateMutability": "view"
    },
    {
      "type": "function",
      "name": "isTrustedSender",
      "inputs": [
        {
          "name": "chainId",
          "type": "uint16",
          "internalType": "uint16"
        },
        {
          "name": "addr",
          "type": "bytes32",
          "internalType": "bytes32"
        }
      ],
      "outputs": [
        {
          "name": "",
          "type": "bool",
          "internalType": "bool"
        }
      ],
      "stateMutability": "view"
    },
    {
      "type": "function",
      "name": "kickGuardian",
      "inputs": [],
      "outputs": [],
      "stateMutability": "nonpayable"
    },
    {
      "type": "function",
      "name": "liveProposals",
      "inputs": [],
      "outputs": [
        {
          "name": "",
          "type": "uint256[]",
          "internalType": "uint256[]"
        }
      ],
      "stateMutability": "view"
    },
    {
      "type": "function",
      "name": "maxUserLiveProposals",
      "inputs": [],
      "outputs": [
        {
          "name": "",
          "type": "uint256",
          "internalType": "uint256"
        }
      ],
      "stateMutability": "view"
    },
    {
      "type": "function",
      "name": "pause",
      "inputs": [],
      "outputs": [],
      "stateMutability": "nonpayable"
    },
    {
      "type": "function",
      "name": "pauseDuration",
      "inputs": [],
      "outputs": [
        {
          "name": "",
          "type": "uint128",
          "internalType": "uint128"
        }
      ],
      "stateMutability": "view"
    },
    {
      "type": "function",
      "name": "pauseGuardian",
      "inputs": [],
      "outputs": [
        {
          "name": "",
          "type": "address",
          "internalType": "address"
        }
      ],
      "stateMutability": "view"
    },
    {
      "type": "function",
      "name": "pauseStartTime",
      "inputs": [],
      "outputs": [
        {
          "name": "",
          "type": "uint128",
          "internalType": "uint128"
        }
      ],
      "stateMutability": "view"
    },
    {
      "type": "function",
      "name": "pauseUsed",
      "inputs": [],
      "outputs": [
        {
          "name": "",
          "type": "bool",
          "internalType": "bool"
        }
      ],
      "stateMutability": "view"
    },
    {
      "type": "function",
      "name": "paused",
      "inputs": [],
      "outputs": [
        {
          "name": "",
          "type": "bool",
          "internalType": "bool"
        }
      ],
      "stateMutability": "view"
    },
    {
      "type": "function",
      "name": "processedNonces",
      "inputs": [
        {
          "name": "nonce",
          "type": "bytes32",
          "internalType": "bytes32"
        }
      ],
      "outputs": [
        {
          "name": "processed",
          "type": "bool",
          "internalType": "bool"
        }
      ],
      "stateMutability": "view"
    },
    {
      "type": "function",
      "name": "proposalActive",
      "inputs": [
        {
          "name": "proposalId",
          "type": "uint256",
          "internalType": "uint256"
        }
      ],
      "outputs": [
        {
          "name": "",
          "type": "bool",
          "internalType": "bool"
        }
      ],
      "stateMutability": "view"
    },
    {
      "type": "function",
      "name": "proposalCount",
      "inputs": [],
      "outputs": [
        {
          "name": "",
          "type": "uint256",
          "internalType": "uint256"
        }
      ],
      "stateMutability": "view"
    },
    {
      "type": "function",
      "name": "proposalInformation",
      "inputs": [
        {
          "name": "proposalId",
          "type": "uint256",
          "internalType": "uint256"
        }
      ],
      "outputs": [
        {
          "name": "proposer",
          "type": "address",
          "internalType": "address"
        },
        {
          "name": "voteSnapshotTimestamp",
          "type": "uint256",
          "internalType": "uint256"
        },
        {
          "name": "votingStartTime",
          "type": "uint256",
          "internalType": "uint256"
        },
        {
          "name": "endTimestamp",
          "type": "uint256",
          "internalType": "uint256"
        },
        {
          "name": "crossChainVoteCollectionEndTimestamp",
          "type": "uint256",
          "internalType": "uint256"
        },
        {
          "name": "totalVotes",
          "type": "uint256",
          "internalType": "uint256"
        },
        {
          "name": "forVotes",
          "type": "uint256",
          "internalType": "uint256"
        },
        {
          "name": "againstVotes",
          "type": "uint256",
          "internalType": "uint256"
        },
        {
          "name": "abstainVotes",
          "type": "uint256",
          "internalType": "uint256"
        }
      ],
      "stateMutability": "view"
    },
    {
      "type": "function",
      "name": "proposalThreshold",
      "inputs": [],
      "outputs": [
        {
          "name": "",
          "type": "uint256",
          "internalType": "uint256"
        }
      ],
      "stateMutability": "view"
    },
    {
      "type": "function",
      "name": "proposalVotes",
      "inputs": [
        {
          "name": "proposalId",
          "type": "uint256",
          "internalType": "uint256"
        }
      ],
      "outputs": [
        {
          "name": "totalVotes",
          "type": "uint256",
          "internalType": "uint256"
        },
        {
          "name": "forVotes",
          "type": "uint256",
          "internalType": "uint256"
        },
        {
          "name": "againstVotes",
          "type": "uint256",
          "internalType": "uint256"
        },
        {
          "name": "abstainVotes",
          "type": "uint256",
          "internalType": "uint256"
        }
      ],
      "stateMutability": "view"
    },
    {
      "type": "function",
      "name": "proposals",
      "inputs": [
        {
          "name": "proposalId",
          "type": "uint256",
          "internalType": "uint256"
        }
      ],
      "outputs": [
        {
          "name": "proposer",
          "type": "address",
          "internalType": "address"
        },
        {
          "name": "voteSnapshotTimestamp",
          "type": "uint256",
          "internalType": "uint256"
        },
        {
          "name": "votingStartTime",
          "type": "uint256",
          "internalType": "uint256"
        },
        {
          "name": "votingEndTime",
          "type": "uint256",
          "internalType": "uint256"
        },
        {
          "name": "crossChainVoteCollectionEndTimestamp",
          "type": "uint256",
          "internalType": "uint256"
        },
        {
          "name": "voteSnapshotBlock",
          "type": "uint256",
          "internalType": "uint256"
        },
        {
          "name": "forVotes",
          "type": "uint256",
          "internalType": "uint256"
        },
        {
          "name": "againstVotes",
          "type": "uint256",
          "internalType": "uint256"
        },
        {
          "name": "abstainVotes",
          "type": "uint256",
          "internalType": "uint256"
        },
        {
          "name": "totalVotes",
          "type": "uint256",
          "internalType": "uint256"
        },
        {
          "name": "canceled",
          "type": "bool",
          "internalType": "bool"
        },
        {
          "name": "executed",
          "type": "bool",
          "internalType": "bool"
        }
      ],
      "stateMutability": "view"
    },
    {
      "type": "function",
      "name": "propose",
      "inputs": [
        {
          "name": "targets",
          "type": "address[]",
          "internalType": "address[]"
        },
        {
          "name": "values",
          "type": "uint256[]",
          "internalType": "uint256[]"
        },
        {
          "name": "calldatas",
          "type": "bytes[]",
          "internalType": "bytes[]"
        },
        {
          "name": "description",
          "type": "string",
          "internalType": "string"
        }
      ],
      "outputs": [
        {
          "name": "",
          "type": "uint256",
          "internalType": "uint256"
        }
      ],
      "stateMutability": "payable"
    },
    {
      "type": "function",
      "name": "quorum",
      "inputs": [],
      "outputs": [
        {
          "name": "",
          "type": "uint256",
          "internalType": "uint256"
        }
      ],
      "stateMutability": "view"
    },
    {
      "type": "function",
      "name": "rebroadcastProposal",
      "inputs": [
        {
          "name": "proposalId",
          "type": "uint256",
          "internalType": "uint256"
        }
      ],
      "outputs": [],
      "stateMutability": "payable"
    },
    {
      "type": "function",
      "name": "receiveWormholeMessages",
      "inputs": [
        {
          "name": "payload",
          "type": "bytes",
          "internalType": "bytes"
        },
        {
          "name": "",
          "type": "bytes[]",
          "internalType": "bytes[]"
        },
        {
          "name": "senderAddress",
          "type": "bytes32",
          "internalType": "bytes32"
        },
        {
          "name": "sourceChain",
          "type": "uint16",
          "internalType": "uint16"
        },
        {
          "name": "nonce",
          "type": "bytes32",
          "internalType": "bytes32"
        }
      ],
      "outputs": [],
      "stateMutability": "payable"
    },
    {
      "type": "function",
      "name": "removeExternalChainConfigs",
      "inputs": [
        {
          "name": "_trustedSenders",
          "type": "tuple[]",
          "internalType": "struct WormholeTrustedSender.TrustedSender[]",
          "components": [
            {
              "name": "chainId",
              "type": "uint16",
              "internalType": "uint16"
            },
            {
              "name": "addr",
              "type": "address",
              "internalType": "address"
            }
          ]
        }
      ],
      "outputs": [],
      "stateMutability": "nonpayable"
    },
    {
      "type": "function",
      "name": "setBreakGlassGuardian",
      "inputs": [
        {
          "name": "newGuardian",
          "type": "address",
          "internalType": "address"
        }
      ],
      "outputs": [],
      "stateMutability": "nonpayable"
    },
    {
      "type": "function",
      "name": "setGasLimit",
      "inputs": [
        {
          "name": "newGasLimit",
          "type": "uint96",
          "internalType": "uint96"
        }
      ],
      "outputs": [],
      "stateMutability": "nonpayable"
    },
    {
      "type": "function",
      "name": "setNewStakedWell",
      "inputs": [
        {
          "name": "newStakedWell",
          "type": "address",
          "internalType": "address"
        },
        {
          "name": "toUseTimestamps",
          "type": "bool",
          "internalType": "bool"
        }
      ],
      "outputs": [],
      "stateMutability": "nonpayable"
    },
    {
      "type": "function",
      "name": "state",
      "inputs": [
        {
          "name": "proposalId",
          "type": "uint256",
          "internalType": "uint256"
        }
      ],
      "outputs": [
        {
          "name": "",
          "type": "uint8",
          "internalType": "enum IMultichainGovernor.ProposalState"
        }
      ],
      "stateMutability": "view"
    },
    {
      "type": "function",
      "name": "stkWell",
      "inputs": [],
      "outputs": [
        {
          "name": "",
          "type": "address",
          "internalType": "contract SnapshotInterface"
        }
      ],
      "stateMutability": "view"
    },
    {
      "type": "function",
      "name": "targetAddress",
      "inputs": [
        {
          "name": "chainId",
          "type": "uint16",
          "internalType": "uint16"
        }
      ],
      "outputs": [
        {
          "name": "target",
          "type": "address",
          "internalType": "address"
        }
      ],
      "stateMutability": "view"
    },
    {
      "type": "function",
      "name": "unpause",
      "inputs": [],
      "outputs": [],
      "stateMutability": "nonpayable"
    },
    {
      "type": "function",
      "name": "updateApprovedCalldata",
      "inputs": [
        {
          "name": "data",
          "type": "bytes",
          "internalType": "bytes"
        },
        {
          "name": "approved",
          "type": "bool",
          "internalType": "bool"
        }
      ],
      "outputs": [],
      "stateMutability": "nonpayable"
    },
    {
      "type": "function",
      "name": "updateCrossChainVoteCollectionPeriod",
      "inputs": [
        {
          "name": "newCrossChainVoteCollectionPeriod",
          "type": "uint256",
          "internalType": "uint256"
        }
      ],
      "outputs": [],
      "stateMutability": "nonpayable"
    },
    {
      "type": "function",
      "name": "updateMaxUserLiveProposals",
      "inputs": [
        {
          "name": "newMaxLiveProposals",
          "type": "uint256",
          "internalType": "uint256"
        }
      ],
      "outputs": [],
      "stateMutability": "nonpayable"
    },
    {
      "type": "function",
      "name": "updateProposalThreshold",
      "inputs": [
        {
          "name": "newProposalThreshold",
          "type": "uint256",
          "internalType": "uint256"
        }
      ],
      "outputs": [],
      "stateMutability": "nonpayable"
    },
    {
      "type": "function",
      "name": "updateQuorum",
      "inputs": [
        {
          "name": "newQuorum",
          "type": "uint256",
          "internalType": "uint256"
        }
      ],
      "outputs": [],
      "stateMutability": "nonpayable"
    },
    {
      "type": "function",
      "name": "updateVotingPeriod",
      "inputs": [
        {
          "name": "newVotingPeriod",
          "type": "uint256",
          "internalType": "uint256"
        }
      ],
      "outputs": [],
      "stateMutability": "nonpayable"
    },
    {
      "type": "function",
      "name": "useTimestamps",
      "inputs": [],
      "outputs": [
        {
          "name": "",
          "type": "bool",
          "internalType": "bool"
        }
      ],
      "stateMutability": "view"
    },
    {
      "type": "function",
      "name": "votingPeriod",
      "inputs": [],
      "outputs": [
        {
          "name": "",
          "type": "uint256",
          "internalType": "uint256"
        }
      ],
      "stateMutability": "view"
    },
    {
      "type": "function",
      "name": "well",
      "inputs": [],
      "outputs": [
        {
          "name": "",
          "type": "address",
          "internalType": "contract SnapshotInterface"
        }
      ],
      "stateMutability": "view"
    },
    {
      "type": "function",
      "name": "whitelistedCalldatas",
      "inputs": [
        {
          "name": "whitelistedCalldata",
          "type": "bytes",
          "internalType": "bytes"
        }
      ],
      "outputs": [
        {
          "name": "",
          "type": "bool",
          "internalType": "bool"
        }
      ],
      "stateMutability": "view"
    },
    {
      "type": "function",
      "name": "wormholeRelayer",
      "inputs": [],
      "outputs": [
        {
          "name": "",
          "type": "address",
          "internalType": "contract IWormholeRelayer"
        }
      ],
      "stateMutability": "view"
    },
    {
      "type": "function",
      "name": "xWell",
      "inputs": [],
      "outputs": [
        {
          "name": "",
          "type": "address",
          "internalType": "contract xWELL"
        }
      ],
      "stateMutability": "view"
    },
    {
      "type": "event",
      "name": "BreakGlassExecuted",
      "inputs": [
        {
          "name": "breakGlassGuardian",
          "type": "address",
          "indexed": false,
          "internalType": "address"
        },
        {
          "name": "targets",
          "type": "address[]",
          "indexed": false,
          "internalType": "address[]"
        },
        {
          "name": "calldatas",
          "type": "bytes[]",
          "indexed": false,
          "internalType": "bytes[]"
        }
      ],
      "anonymous": false
    },
    {
      "type": "event",
      "name": "BreakGlassGuardianChanged",
      "inputs": [
        {
          "name": "oldValue",
          "type": "address",
          "indexed": false,
          "internalType": "address"
        },
        {
          "name": "newValue",
          "type": "address",
          "indexed": false,
          "internalType": "address"
        }
      ],
      "anonymous": false
    },
    {
      "type": "event",
      "name": "BridgeOutFailed",
      "inputs": [
        {
          "name": "dstChainId",
          "type": "uint16",
          "indexed": false,
          "internalType": "uint16"
        },
        {
          "name": "payload",
          "type": "bytes",
          "indexed": false,
          "internalType": "bytes"
        },
        {
          "name": "refundAmount",
          "type": "uint256",
          "indexed": false,
          "internalType": "uint256"
        }
      ],
      "anonymous": false
    },
    {
      "type": "event",
      "name": "BridgeOutSuccess",
      "inputs": [
        {
          "name": "dstWormholeChainId",
          "type": "uint16",
          "indexed": false,
          "internalType": "uint16"
        },
        {
          "name": "cost",
          "type": "uint256",
          "indexed": false,
          "internalType": "uint256"
        },
        {
          "name": "dst",
          "type": "address",
          "indexed": false,
          "internalType": "address"
        },
        {
          "name": "payload",
          "type": "bytes",
          "indexed": false,
          "internalType": "bytes"
        }
      ],
      "anonymous": false
    },
    {
      "type": "event",
      "name": "CalldataApprovalUpdated",
      "inputs": [
        {
          "name": "data",
          "type": "bytes",
          "indexed": false,
          "internalType": "bytes"
        },
        {
          "name": "approved",
          "type": "bool",
          "indexed": false,
          "internalType": "bool"
        }
      ],
      "anonymous": false
    },
    {
      "type": "event",
      "name": "CrossChainVoteCollected",
      "inputs": [
        {
          "name": "proposalId",
          "type": "uint256",
          "indexed": false,
          "internalType": "uint256"
        },
        {
          "name": "sourceChain",
          "type": "uint16",
          "indexed": false,
          "internalType": "uint16"
        },
        {
          "name": "forVotes",
          "type": "uint256",
          "indexed": false,
          "internalType": "uint256"
        },
        {
          "name": "againstVotes",
          "type": "uint256",
          "indexed": false,
          "internalType": "uint256"
        },
        {
          "name": "abstainVotes",
          "type": "uint256",
          "indexed": false,
          "internalType": "uint256"
        }
      ],
      "anonymous": false
    },
    {
      "type": "event",
      "name": "CrossChainVoteCollectionPeriodChanged",
      "inputs": [
        {
          "name": "oldValue",
          "type": "uint256",
          "indexed": false,
          "internalType": "uint256"
        },
        {
          "name": "newValue",
          "type": "uint256",
          "indexed": false,
          "internalType": "uint256"
        }
      ],
      "anonymous": false
    },
    {
      "type": "event",
      "name": "GasLimitUpdated",
      "inputs": [
        {
          "name": "oldGasLimit",
          "type": "uint96",
          "indexed": false,
          "internalType": "uint96"
        },
        {
          "name": "newGasLimit",
          "type": "uint96",
          "indexed": false,
          "internalType": "uint96"
        }
      ],
      "anonymous": false
    },
    {
      "type": "event",
      "name": "GovernanceReturnAddressChanged",
      "inputs": [
        {
          "name": "oldValue",
          "type": "address",
          "indexed": false,
          "internalType": "address"
        },
        {
          "name": "newValue",
          "type": "address",
          "indexed": false,
          "internalType": "address"
        }
      ],
      "anonymous": false
    },
    {
      "type": "event",
      "name": "Initialized",
      "inputs": [
        {
          "name": "version",
          "type": "uint8",
          "indexed": false,
          "internalType": "uint8"
        }
      ],
      "anonymous": false
    },
    {
      "type": "event",
      "name": "NewStakedWellSet",
      "inputs": [
        {
          "name": "newStakedWell",
          "type": "address",
          "indexed": false,
          "internalType": "address"
        },
        {
          "name": "toUseTimestamps",
          "type": "bool",
          "indexed": false,
          "internalType": "bool"
        }
      ],
      "anonymous": false
    },
    {
      "type": "event",
      "name": "PauseDurationUpdated",
      "inputs": [
        {
          "name": "oldPauseDuration",
          "type": "uint256",
          "indexed": false,
          "internalType": "uint256"
        },
        {
          "name": "newPauseDuration",
          "type": "uint256",
          "indexed": false,
          "internalType": "uint256"
        }
      ],
      "anonymous": false
    },
    {
      "type": "event",
      "name": "PauseGuardianUpdated",
      "inputs": [
        {
          "name": "oldPauseGuardian",
          "type": "address",
          "indexed": true,
          "internalType": "address"
        },
        {
          "name": "newPauseGuardian",
          "type": "address",
          "indexed": true,
          "internalType": "address"
        }
      ],
      "anonymous": false
    },
    {
      "type": "event",
      "name": "PauseTimeUpdated",
      "inputs": [
        {
          "name": "newPauseStartTime",
          "type": "uint256",
          "indexed": true,
          "internalType": "uint256"
        }
      ],
      "anonymous": false
    },
    {
      "type": "event",
      "name": "Paused",
      "inputs": [
        {
          "name": "account",
          "type": "address",
          "indexed": false,
          "internalType": "address"
        }
      ],
      "anonymous": false
    },
    {
      "type": "event",
      "name": "ProposalCanceled",
      "inputs": [
        {
          "name": "id",
          "type": "uint256",
          "indexed": false,
          "internalType": "uint256"
        }
      ],
      "anonymous": false
    },
    {
      "type": "event",
      "name": "ProposalCreated",
      "inputs": [
        {
          "name": "id",
          "type": "uint256",
          "indexed": false,
          "internalType": "uint256"
        },
        {
          "name": "proposer",
          "type": "address",
          "indexed": false,
          "internalType": "address"
        },
        {
          "name": "targets",
          "type": "address[]",
          "indexed": false,
          "internalType": "address[]"
        },
        {
          "name": "values",
          "type": "uint256[]",
          "indexed": false,
          "internalType": "uint256[]"
        },
        {
          "name": "calldatas",
          "type": "bytes[]",
          "indexed": false,
          "internalType": "bytes[]"
        },
        {
          "name": "votingStartTime",
          "type": "uint256",
          "indexed": false,
          "internalType": "uint256"
        },
        {
          "name": "votingEndTime",
          "type": "uint256",
          "indexed": false,
          "internalType": "uint256"
        },
        {
          "name": "description",
          "type": "string",
          "indexed": false,
          "internalType": "string"
        }
      ],
      "anonymous": false
    },
    {
      "type": "event",
      "name": "ProposalExecuted",
      "inputs": [
        {
          "name": "id",
          "type": "uint256",
          "indexed": false,
          "internalType": "uint256"
        }
      ],
      "anonymous": false
    },
    {
      "type": "event",
      "name": "ProposalQueued",
      "inputs": [
        {
          "name": "id",
          "type": "uint256",
          "indexed": false,
          "internalType": "uint256"
        },
        {
          "name": "eta",
          "type": "uint256",
          "indexed": false,
          "internalType": "uint256"
        }
      ],
      "anonymous": false
    },
    {
      "type": "event",
      "name": "ProposalRebroadcasted",
      "inputs": [
        {
          "name": "proposalId",
          "type": "uint256",
          "indexed": false,
          "internalType": "uint256"
        },
        {
          "name": "data",
          "type": "bytes",
          "indexed": false,
          "internalType": "bytes"
        }
      ],
      "anonymous": false
    },
    {
      "type": "event",
      "name": "ProposalThresholdChanged",
      "inputs": [
        {
          "name": "oldValue",
          "type": "uint256",
          "indexed": false,
          "internalType": "uint256"
        },
        {
          "name": "newValue",
          "type": "uint256",
          "indexed": false,
          "internalType": "uint256"
        }
      ],
      "anonymous": false
    },
    {
      "type": "event",
      "name": "QuroumVotesChanged",
      "inputs": [
        {
          "name": "oldValue",
          "type": "uint256",
          "indexed": false,
          "internalType": "uint256"
        },
        {
          "name": "newValue",
          "type": "uint256",
          "indexed": false,
          "internalType": "uint256"
        }
      ],
      "anonymous": false
    },
    {
      "type": "event",
      "name": "StartBlockSet",
      "inputs": [
        {
          "name": "proposalId",
          "type": "uint256",
          "indexed": false,
          "internalType": "uint256"
        },
        {
          "name": "startBlock",
          "type": "uint256",
          "indexed": false,
          "internalType": "uint256"
        }
      ],
      "anonymous": false
    },
    {
      "type": "event",
      "name": "TargetAddressUpdated",
      "inputs": [
        {
          "name": "dstChainId",
          "type": "uint16",
          "indexed": true,
          "internalType": "uint16"
        },
        {
          "name": "target",
          "type": "address",
          "indexed": true,
          "internalType": "address"
        }
      ],
      "anonymous": false
    },
    {
      "type": "event",
      "name": "Unpaused",
      "inputs": [
        {
          "name": "account",
          "type": "address",
          "indexed": false,
          "internalType": "address"
        }
      ],
      "anonymous": false
    },
    {
      "type": "event",
      "name": "UserMaxProposalsChanged",
      "inputs": [
        {
          "name": "oldValue",
          "type": "uint256",
          "indexed": false,
          "internalType": "uint256"
        },
        {
          "name": "newValue",
          "type": "uint256",
          "indexed": false,
          "internalType": "uint256"
        }
      ],
      "anonymous": false
    },
    {
      "type": "event",
      "name": "VoteCast",
      "inputs": [
        {
          "name": "voter",
          "type": "address",
          "indexed": false,
          "internalType": "address"
        },
        {
          "name": "proposalId",
          "type": "uint256",
          "indexed": false,
          "internalType": "uint256"
        },
        {
          "name": "voteValue",
          "type": "uint8",
          "indexed": false,
          "internalType": "uint8"
        },
        {
          "name": "votes",
          "type": "uint256",
          "indexed": false,
          "internalType": "uint256"
        }
      ],
      "anonymous": false
    },
    {
      "type": "event",
      "name": "VotingPeriodChanged",
      "inputs": [
        {
          "name": "oldValue",
          "type": "uint256",
          "indexed": false,
          "internalType": "uint256"
        },
        {
          "name": "newValue",
          "type": "uint256",
          "indexed": false,
          "internalType": "uint256"
        }
      ],
      "anonymous": false
    }
  ],
  "bytecode": {
    "object": "0x60806040523480156200001157600080fd5b506200001c62000022565b620000e3565b600054610100900460ff16156200008f5760405162461bcd60e51b815260206004820152602760248201527f496e697469616c697a61626c653a20636f6e747261637420697320696e697469604482015266616c697a696e6760c81b606482015260840160405180910390fd5b60005460ff90811614620000e1576000805460ff191660ff9081179091556040519081527f7f26b83ff96e1f2b6a682f133852f6798a09c465da95921460cefb38474024989060200160405180910390a15b565b615e9780620000f36000396000f3fe6080604052600436106102e95760003560e01c8063013cf08b146102ee57806302a251a3146103e45780630526679c1461040857806306a108ec146104475780630d3cfee2146104695780630fbc82b81461049657806311fd26f4146104b657806313cb1652146104d65780631703a018146104f65780631fb6b1321461050c57806324a3d622146105c857806335680dc2146105e857806335743ac91461060857806335a2017d1461063857806337d6d1621461065857806339cbd602146106785780633e4f49e6146106b35780633f4ba83a146106e0578063404a4edb146106f5578063406ea4a21461072557806340e58ee5146107455780634b7e920914610765578063529dca3214610785578063544ffc9c1461079857806355703ceb146107fe578063567813881461081357806357ad6279146108335780635c975abb146108535780636bda81bf146108685780636e7685301461088957806375a80a57146108b857806379173a2d146108e55780637d5e81e21461090557806380e6769d146109185780638456cb591461097a57806387850f811461098f5780638cd96644146109af578063912f8a65146109c45780639380a704146109d957806394d7eaa4146109ec57806399f99c8e14610a0c5780639ba9c39d14610a2c5780639d47ea5514610a415780639ffe56f714610a61578063a62fb56314610a81578063a8d164ac14610a96578063ae8e397f14610aab578063b4b5ea5714610ae1578063b58131b014610b01578063bfe1092814610b17578063c0878f0c14610b37578063c798d6b114610b57578063c9ba036b14610b6d578063d2c0cefd14610b8d578063d4f3826b14610bad578063da25b72514610bcd578063da35c66414610bed578063e17563df14610c03578063e23a9a5214610c23578063ef00ef4314610c9c578063f3804cff14610cbc578063f5c1802214610cdc578063f68016b714610d24578063f9bae9d014610d63578063fc3452c914610d85578063fe0d94c114610d9b575b600080fd5b3480156102fa57600080fd5b50610378610309366004614acd565b60716020526000908152604090208054600482015460058301546006840154600785015460088601546009870154600a880154600b890154600c8a0154600d909a01546001600160a01b0390991699979896979596949593949293919290919060ff808216916101009004168c565b604080516001600160a01b03909d168d5260208d019b909b52998b019890985260608a0196909652608089019490945260a088019290925260c087015260e086015261010085015261012084015215156101408301521515610160820152610180015b60405180910390f35b3480156103f057600080fd5b506103fa607b5481565b6040519081526020016103db565b34801561041457600080fd5b5060655461042f90600160801b90046001600160801b031681565b6040516001600160801b0390911681526020016103db565b34801561045357600080fd5b50610467610462366004614b31565b610dae565b005b34801561047557600080fd5b50607554610489906001600160a01b031681565b6040516103db9190614b9c565b3480156104a257600080fd5b50607c54610489906001600160a01b031681565b3480156104c257600080fd5b506103fa6104d1366004614bc7565b611120565b3480156104e257600080fd5b506104676104f1366004614d5d565b61134c565b34801561050257600080fd5b506103fa60795481565b34801561051857600080fd5b5061057a610527366004614acd565b600090815260716020526040902080546004820154600583015460068401546007850154600c8601546009870154600a880154600b909801546001600160a01b0390971698959794969395929491939092565b604080516001600160a01b03909a168a5260208a0198909852968801959095526060870193909352608086019190915260a085015260c084015260e0830152610100820152610120016103db565b3480156105d457600080fd5b50606654610489906001600160a01b031681565b3480156105f457600080fd5b50610467610603366004614acd565b611377565b34801561061457600080fd5b50610628610623366004614acd565b61139f565b60405190151581526020016103db565b34801561064457600080fd5b50610628610653366004614d91565b6113e5565b34801561066457600080fd5b506103fa610673366004614dc4565b61140e565b34801561068457600080fd5b50610628610693366004614e4e565b805160208183018101805160728252928201919093012091525460ff1681565b3480156106bf57600080fd5b506106d36106ce366004614acd565b6114ac565b6040516103db9190614e98565b3480156106ec57600080fd5b506104676115bc565b34801561070157600080fd5b50610628610710366004614acd565b60686020526000908152604090205460ff1681565b34801561073157600080fd5b50607354610489906001600160a01b031681565b34801561075157600080fd5b50610467610760366004614acd565b61162f565b34801561077157600080fd5b50610467610780366004614ed7565b6117a9565b610467610793366004615080565b6119f5565b3480156107a457600080fd5b506107de6107b3366004614acd565b6000908152607160205260409020600c8101546009820154600a830154600b90930154919390929190565b6040805194855260208501939093529183015260608201526080016103db565b34801561080a57600080fd5b50610628611b9e565b34801561081f57600080fd5b5061046761082e366004615105565b611baf565b34801561083f57600080fd5b5061046761084e366004614acd565b611e53565b34801561085f57600080fd5b50610628611e7b565b34801561087457600080fd5b5060765461062890600160a01b900460ff1681565b34801561089557600080fd5b506108a96108a4366004614acd565b611ec7565b6040516103db93929190615254565b3480156108c457600080fd5b506108d86108d336600461528d565b61208b565b6040516103db91906152a8565b3480156108f157600080fd5b50610467610900366004614d5d565b612184565b6103fa610913366004615316565b6121ac565b34801561092457600080fd5b5061095f61093336600461541e565b607060209081526000928352604080842090915290825290208054600182015460029092015490919083565b604080519384526020840192909252908201526060016103db565b34801561098657600080fd5b506104676126e5565b34801561099b57600080fd5b506104676109aa366004614acd565b61281f565b3480156109bb57600080fd5b506103fa612847565b3480156109d057600080fd5b506103fa612890565b6104676109e7366004614acd565b6128d5565b3480156109f857600080fd5b5060655461042f906001600160801b031681565b348015610a1857600080fd5b506103fa610a2736600461528d565b6129d0565b348015610a3857600080fd5b506103fa612a33565b348015610a4d57600080fd5b50610467610a5c366004615458565b612a3f565b348015610a6d57600080fd5b50610467610a7c366004615482565b612ad8565b348015610a8d57600080fd5b506108d8612b6a565b348015610aa257600080fd5b50610467612c39565b348015610ab757600080fd5b50610489610ac6366004614dc4565b6069602052600090815260409020546001600160a01b031681565b348015610aed57600080fd5b506103fa610afc36600461528d565b612cc0565b348015610b0d57600080fd5b506103fa607a5481565b348015610b2357600080fd5b50607654610489906001600160a01b031681565b348015610b4357600080fd5b50607454610489906001600160a01b031681565b348015610b6357600080fd5b506103fa60775481565b348015610b7957600080fd5b50610467610b8836600461528d565b612ec7565b348015610b9957600080fd5b50610467610ba83660046154ab565b612eef565b348015610bb957600080fd5b50610628610bc836600461541e565b612f1e565b348015610bd957600080fd5b50606754610489906001600160a01b031681565b348015610bf957600080fd5b506103fa606c5481565b348015610c0f57600080fd5b50610489610c1e366004614acd565b612f29565b348015610c2f57600080fd5b50610c7d610c3e36600461552b565b60009182526071602090815260408084206001600160a01b039093168452600e90920190529020805460019091015460ff808316936101009093041691565b60408051931515845260ff9092166020840152908201526060016103db565b348015610ca857600080fd5b50610467610cb7366004614acd565b612f81565b348015610cc857600080fd5b50610467610cd7366004614acd565b612fa9565b348015610ce857600080fd5b5061095f610cf736600461554e565b61ffff16600090815260706020908152604080832093835292905220805460018201546002909201549092565b348015610d3057600080fd5b50606654610d4b90600160a01b90046001600160601b031681565b6040516001600160601b0390911681526020016103db565b348015610d6f57600080fd5b50610d78612fd1565b6040516103db9190615571565b348015610d9157600080fd5b506103fa60785481565b610467610da9366004614acd565b613071565b607c546001600160a01b03163314610e235760405162461bcd60e51b815260206004820152602d60248201527f4d756c7469636861696e476f7665726e6f723a206f6e6c7920627265616b206760448201526c3630b9b99033bab0b93234b0b760991b60648201526084015b60405180910390fd5b607c54604051600080516020615d3a83398151915291610e51916001600160a01b03909116906000906155b9565b60405180910390a1607c80546001600160a01b0319169055828114610ec35760405162461bcd60e51b815260206004820152602260248201527f4d756c7469636861696e476f7665726e6f723a206172697479206d69736d61746044820152610c6d60f31b6064820152608401610e1a565b82610f105760405162461bcd60e51b815260206004820152601f60248201527f4d756c7469636861696e476f7665726e6f723a20656d707479206172726179006044820152606401610e1a565b60005b81811015611067576072838383818110610f2f57610f2f6155d3565b9050602002810190610f4191906155e9565b604051610f4f92919061562f565b9081526040519081900360200190205460ff16610fb15760405162461bcd60e51b815260206004820152602c6024820152600080516020615e2283398151915260448201526b081dda1a5d195b1a5cdd195960a21b6064820152608401610e1a565b61105e838383818110610fc657610fc66155d3565b9050602002810190610fd891906155e9565b8080601f01602080910402602001604051908101604052809392919081815260200183838082843760009201919091525050604080516060810190915260348082529092509050615cc06020830139878785818110611039576110396155d3565b905060200201602081019061104e919061528d565b6001600160a01b03169190613339565b50600101610f13565b50607c546001600160a01b0316156110db5760405162461bcd60e51b815260206004820152603160248201527f4d756c7469636861696e476f7665726e6f723a20627265616b20676c6173732060448201527019dd585c991a585b881b9bdd081b9d5b1b607a1b6064820152608401610e1a565b7fd2890cfc60e8b0f52b99dc2d17dca96f464cd183f75c665c63c98c9ed267913b3385858585604051611112959493929190615668565b60405180910390a150505050565b60745460405163782d6fe160e01b815260009182916001600160a01b039091169063782d6fe1906111579088908790600401615755565b602060405180830381865afa158015611174573d6000803e3d6000fd5b505050506040513d601f19601f82011682018060405250810190611198919061576e565b60765460405163782d6fe160e01b81529192506000916001600160a01b039091169063782d6fe1906111d09089908890600401615755565b602060405180830381865afa1580156111ed573d6000803e3d6000fd5b505050506040513d601f19601f82011682018060405250810190611211919061576e565b607354604051630748d63560e31b81529192506000916001600160a01b0390911690633a46b1a890611249908a908a90600401615755565b602060405180830381865afa158015611266573d6000803e3d6000fd5b505050506040513d601f19601f8201168201806040525081019061128a919061576e565b6075546076549192506000916001600160a01b039091169063782d6fe1908a90600160a01b900460ff166112be57886112c0565b895b6040518363ffffffff1660e01b81526004016112dd929190615755565b602060405180830381865afa1580156112fa573d6000803e3d6000fd5b505050506040513d601f19601f8201168201806040525081019061131e919061576e565b9050838361132c838561579d565b611336919061579d565b611340919061579d565b98975050505050505050565b33301461136b5760405162461bcd60e51b8152600401610e1a906157b0565b61137481613348565b50565b3330146113965760405162461bcd60e51b8152600401610e1a906157b0565b611374816133a4565b6000806113ab836114ac565b905060008160058111156113c1576113c1614e82565b14806113de575060018160058111156113dc576113dc614e82565b145b9392505050565b61ffff82166000908152606960205260409020546001600160a01b038281169116145b92915050565b60675460665460405163c23ee3c360e01b815261ffff84166004820152600060248201819052600160a01b9092046001600160601b0316604482015290916001600160a01b03169063c23ee3c3906064016040805180830381865afa925050508015611497575060408051601f3d908101601f19168201909252611494918101906157f1565b60015b6114a357506000919050565b5090505b919050565b600081606c54101580156114c05750600082115b61151c5760405162461bcd60e51b815260206004820152602760248201527f4d756c7469636861696e476f7665726e6f723a20696e76616c69642070726f706044820152661bdcd85b081a5960ca1b6064820152608401610e1a565b6000828152607160205260409020600d81015460ff16156115405750600292915050565b806006015442116115545750600092915050565b806007015442116115685750600192915050565b80600a01548160090154111580611584575060795481600c0154105b156115925750600392915050565b600d810154610100900460ff16156115ad5750600592915050565b50600492915050565b50919050565b6115c4613444565b6066546001600160a01b031633146115ee5760405162461bcd60e51b8152600401610e1a90615815565b6115f661348f565b7f5db9ee0a495bf2e6ff9c91a7834c1ba4fdd244a5e8aa4e537bd38aeae4b073aa336040516116259190614b9c565b60405180910390a1565b6000818152607160205260409020546001600160a01b03163314806116755750607a54600082815260716020526040902054611673906001600160a01b0316612cc0565b105b6116d15760405162461bcd60e51b815260206004820152602760248201527f4d756c7469636861696e476f7665726e6f723a20756e617574686f72697a65646044820152660818d85b98d95b60ca1b6064820152608401610e1a565b60006116dc826114ac565b905060008160058111156116f2576116f2614e82565b1461175d5760405162461bcd60e51b815260206004820152603560248201527f4d756c7469636861696e476f7665726e6f723a2063616e6e6f742063616e63656044820152741b081b9bdb881858dd1a5d99481c1c9bdc1bdcd85b605a1b6064820152608401610e1a565b6000828152607160205260409020600d8101805460ff191660011790556117826134db565b604051838152600080516020615da1833981519152906020015b60405180910390a1505050565b600054610100900460ff16158080156117c95750600054600160ff909116105b806117ea57506117d830613648565b1580156117ea575060005460ff166001145b61184d5760405162461bcd60e51b815260206004820152602e60248201527f496e697469616c697a61626c653a20636f6e747261637420697320616c72656160448201526d191e481a5b9a5d1a585b1a5e995960921b6064820152608401610e1a565b6000805460ff191660011790558015611870576000805461ff0019166101001790555b6020850151607380546001600160a01b039283166001600160a01b03199182161790915586516074805491841691831691909117905560408701516075805491841691831691909117905560608701516076805491909316911617905560808501516118db90613657565b6118e88560a0015161371f565b6118f58560c001516137d2565b6119028560e001516133a4565b611910856101000151613876565b61191e856101600151613928565b611926613969565b611934856101200151613998565b6119428561014001516139f9565b611950856101800151613a51565b61195984613348565b61196562061a80613ad8565b60005b828110156119a65761199e848483818110611985576119856155d3565b905060200281019061199791906155e9565b6001613b3c565b600101611968565b5080156119ee576000805461ff0019169055604051600181527f7f26b83ff96e1f2b6a682f133852f6798a09c465da95921460cefb3847402498906020015b60405180910390a15b5050505050565b3415611a435760405162461bcd60e51b815260206004820181905260248201527f576f726d686f6c654272696467653a206e6f2076616c756520616c6c6f7765646044820152606401610e1a565b6067546001600160a01b03163314611aa95760405162461bcd60e51b8152602060048201526024808201527f576f726d686f6c654272696467653a206f6e6c792072656c6179657220616c6c6044820152631bddd95960e21b6064820152608401610e1a565b611ab38284612f1e565b611b0a5760405162461bcd60e51b815260206004820152602260248201527f576f726d686f6c654272696467653a2073656e646572206e6f74207472757374604482015261195960f21b6064820152608401610e1a565b60008181526068602052604090205460ff1615611b7b5760405162461bcd60e51b815260206004820152602960248201527f576f726d686f6c654272696467653a206d65737361676520616c7265616479206044820152681c1c9bd8d95cdcd95960ba1b6064820152608401610e1a565b6000818152606860205260409020805460ff191660011790556119ee8286613ca9565b6065546001600160801b0316151590565b611bb7613f54565b6000611bc2836114ac565b6005811115611bd357611bd3614e82565b14611c1e5760405162461bcd60e51b81526020600482015260276024820152600080516020615ca08339815191526044820152662061637469766560c81b6064820152608401610e1a565b600260ff82161115611c6f5760405162461bcd60e51b81526020600482015260266024820152600080516020615d5a8339815191526044820152652076616c756560d01b6064820152608401610e1a565b6000828152607160209081526040808320338452600e8101909252909120805460ff1615611cef5760405162461bcd60e51b815260206004820152602760248201527f4d756c7469636861696e476f7665726e6f723a20766f74657220616c726561646044820152661e481d9bdd195960ca1b6064820152608401610e1a565b6000611d043384600401548560080154611120565b905080600003611d655760405162461bcd60e51b815260206004820152602660248201527f4d756c7469636861696e476f7665726e6f723a20766f74657220686173206e6f60448201526520766f74657360d01b6064820152608401610e1a565b60ff8416611d8c5780836009016000828254611d81919061579d565b90915550611dd29050565b60001960ff851601611dac578083600a016000828254611d81919061579d565b60011960ff851601611dd2578083600b016000828254611dcc919061579d565b90915550505b8083600c016000828254611de6919061579d565b9091555050815460ff8516610100810261ffff1990921691909117600190811784558301829055604080513381526020810188905290810191909152606081018290527f2c9deb38f462962eadbd85a9d3a4120503ee091f1582eaaa10aa8c6797651d29906080016119e5565b333014611e725760405162461bcd60e51b8152600401610e1a906157b0565b61137481613657565b6065546000906001600160801b031615611ebf57606554611eae906001600160801b03600160801b820481169116615863565b6001600160801b0316421115905090565b60005b905090565b606080606060716000858152602001908152602001600020600101805480602002602001604051908101604052809291908181526020018280548015611f3657602002820191906000526020600020905b81546001600160a01b03168152600190910190602001808311611f18575b5050505050925060716000858152602001908152602001600020600201805480602002602001604051908101604052809291908181526020018280548015611f9d57602002820191906000526020600020905b815481526020019060010190808311611f89575b505050600087815260716020908152604080832060030180548251818502810185019093528083529698509095909450925084015b8282101561207e578382906000526020600020018054611ff190615883565b80601f016020809104026020016040519081016040528092919081815260200182805461201d90615883565b801561206a5780601f1061203f5761010080835404028352916020019161206a565b820191906000526020600020905b81548152906001019060200180831161204d57829003601f168201915b505050505081526020019060010190611fd2565b5050505090509193909250565b60606000612098836129d0565b6001600160401b038111156120af576120af614bfa565b6040519080825280602002602001820160405280156120d8578160200160208202803683370190505b506001600160a01b0384166000908152606f60205260408120919250906120fe90613f9c565b90506000805b825181101561217a5761212f838281518110612122576121226155d3565b602002602001015161139f565b1561217257828181518110612146576121466155d3565b6020026020010151848381518110612160576121606155d3565b60209081029190910101526001909101905b600101612104565b5091949350505050565b3330146121a35760405162461bcd60e51b8152600401610e1a906157b0565b61137481613fa9565b60006121b6613f54565b607a546121d3336121c86001426158b7565b6104d16001436158b7565b10156122455760405162461bcd60e51b815260206004820152603b60248201527f4d756c7469636861696e476f7665726e6f723a2070726f706f73657220766f7460448201527a195cc818995b1bddc81c1c9bdc1bdcd85b081d1a1c995cda1bdb19602a1b6064820152608401610e1a565b83518551148015612257575082518551145b6122cb576040805162461bcd60e51b81526020600482015260248101919091527f4d756c7469636861696e476f7665726e6f723a2070726f706f73616c2066756e60448201527f6374696f6e20696e666f726d6174696f6e206172697479206d69736d617463686064820152608401610e1a565b845160000361232d5760405162461bcd60e51b815260206004820152602860248201527f4d756c7469636861696e476f7665726e6f723a206d7573742070726f7669646560448201526720616374696f6e7360c01b6064820152608401610e1a565b60008251116123975760405162461bcd60e51b815260206004820152603060248201527f4d756c7469636861696e476f7665726e6f723a206465736372697074696f6e2060448201526f63616e206e6f7420626520656d70747960801b6064820152608401610e1a565b61239f6134db565b60006123aa336129d0565b9050607854811061241f5760405162461bcd60e51b815260206004820152603960248201527f4d756c7469636861696e476f7665726e6f723a20746f6f206d616e79206c69766044820152783290383937b837b9b0b639903337b9103a3434b9903ab9b2b960391b6064820152608401610e1a565b506000805b855181101561245c5785818151811061243f5761243f6155d3565b602002602001015182612452919061579d565b9150600101612424565b5050606c805490600061246e836158ca565b9091555050606c5460009081526071602052604081209060609042906124956001836158b7565b90506000607b54836124a7919061579d565b90506000607754826124b9919061579d565b86546001600160a01b031916331787558b519091506124e190600188019060208e0190614973565b5089516124f790600288019060208d01906149d4565b50885161250d90600388019060208c0190614a0f565b5060048601839055600586018490556125276001436158b7565b60088701556006860182905560078601819055606c54604051612555919085908790869086906020016158e3565b60405160208183030381529060405294507f95f03e437e6d5037418f12bef80fc7e0a5f27754c078a1d5d3f62d39bac44e50606c54338d8d8d89888f6040516125a5989796959493929190615906565b60405180910390a15050606c54336000908152606f602052604090206125cd9350915061407a565b61263d5760405162461bcd60e51b815260206004820152603b60248201527f4d756c7469636861696e476f7665726e6f723a20757365722063616e6e6f742060448201527a616464207468652073616d652070726f706f73616c20747769636560281b6064820152608401610e1a565b606c5461264c90606d9061407a565b6126cc5760405162461bcd60e51b8152602060048201526044602482018190527f4d756c7469636861696e476f7665726e6f723a2063616e6e6f74206164642074908201527f68652073616d652070726f706f73616c20747769636520746f20676c6f62616c606482015263081cd95d60e21b608482015260a401610e1a565b6126d581614086565b606c54925050505b949350505050565b6126ed614323565b60006126f9606d613f9c565b905060005b815181101561281657600061272b83838151811061271e5761271e6155d3565b60200260200101516114ac565b9050600581600581111561274157612741614e82565b141580156127615750600381600581111561275e5761275e614e82565b14155b801561277f5750600281600581111561277c5761277c614e82565b14155b1561280d5760016071600085858151811061279c5761279c6155d3565b60200260200101518152602001908152602001600020600d0160006101000a81548160ff021916908315150217905550600080516020615da18339815191528383815181106127ed576127ed6155d3565b602002602001015160405161280491815260200190565b60405180910390a15b506001016126fe565b506113746134db565b33301461283e5760405162461bcd60e51b8152600401610e1a906157b0565b611374816137d2565b600080612854606d613f9c565b905060005b815181101561288b57612877828281518110612122576121226155d3565b15612883576001909201915b600101612859565b505090565b6000808061289e606a6143f8565b905060005b818110156128cd576128b9610673606a83614402565b6128c3908461579d565b92506001016128a3565b509092915050565b60006128e0826114ac565b905060008160058111156128f6576128f6614e82565b1461294d5760405162461bcd60e51b815260206004820152602160248201527f4d756c7469636861696e476f7665726e6f723a20696e76616c696420737461746044820152606560f81b6064820152608401610e1a565b600082815260716020908152604080832060048101546005820154600683015460078401549451939695612985958a959091016158e3565b604051602081830303815290604052905061299f81614086565b7f99544206c0c7eeb094511c6325a8ded7774d05b33e180bb186e006adb40c1bf88482604051611112929190615988565b6001600160a01b0381166000908152606f6020526040812081906129f390613f9c565b90506000805b8251811015612a2b57612a17838281518110612122576121226155d3565b15612a23576001909101905b6001016129f9565b509392505050565b6000611ec2606a6143f8565b333014612a5e5760405162461bcd60e51b8152600401610e1a906157b0565b607580546001600160a01b0319166001600160a01b0384169081179091556076805460ff60a01b1916600160a01b841515908102919091179091556040805192835260208301919091527fcb81550299f8062d66ed81a8c8cb01b10da7835931b490dedff5e781931a82a291015b60405180910390a15050565b333014612af75760405162461bcd60e51b8152600401610e1a906157b0565b62061a806001600160601b0382161015612b615760405162461bcd60e51b815260206004820152602560248201527f4d756c7469636861696e476f7665726e6f723a20676173206c696d697420746f6044820152646f206c6f7760d81b6064820152608401610e1a565b61137481613ad8565b60606000612b76612847565b90506000816001600160401b03811115612b9257612b92614bfa565b604051908082528060200260200182016040528015612bbb578160200160208202803683370190505b5090506000612bca606d613f9c565b90506000805b825181101561217a57612bee838281518110612122576121226155d3565b15612c3157828181518110612c0557612c056155d3565b6020026020010151848381518110612c1f57612c1f6155d3565b60209081029190910101526001909101905b600101612bd0565b612c41613f54565b612c49611b9e565b612cb65760405162461bcd60e51b815260206004820152603860248201527f436f6e666967757261626c655061757365477561726469616e3a20646964206e6044820152776f742070617573652c20736f2063616e6e6f74206b69636b60401b6064820152608401610e1a565b612cbe61348f565b565b60745460405163b4b5ea5760e01b815260009182916001600160a01b039091169063b4b5ea5790612cf5908690600401614b9c565b602060405180830381865afa158015612d12573d6000803e3d6000fd5b505050506040513d601f19601f82011682018060405250810190612d36919061576e565b60755460405163b4b5ea5760e01b81529192506000916001600160a01b039091169063b4b5ea5790612d6c908790600401614b9c565b602060405180830381865afa158015612d89573d6000803e3d6000fd5b505050506040513d601f19601f82011682018060405250810190612dad919061576e565b60765460405163b4b5ea5760e01b81529192506000916001600160a01b039091169063b4b5ea5790612de3908890600401614b9c565b602060405180830381865afa158015612e00573d6000803e3d6000fd5b505050506040513d601f19601f82011682018060405250810190612e24919061576e565b6073546040516309ab24eb60e41b81529192506000916001600160a01b0390911690639ab24eb090612e5a908990600401614b9c565b602060405180830381865afa158015612e77573d6000803e3d6000fd5b505050506040513d601f19601f82011682018060405250810190612e9b919061576e565b90508382612ea9858461579d565b612eb3919061579d565b612ebd919061579d565b9695505050505050565b333014612ee65760405162461bcd60e51b8152600401610e1a906157b0565b61137481613928565b333014612f0e5760405162461bcd60e51b8152600401610e1a906157b0565b612f19838383613b3c565b505050565b60006113de83610653845b600060a082901c15612f7d5760405162461bcd60e51b815260206004820152601f60248201527f576f726d686f6c654272696467653a20696e76616c69642061646472657373006044820152606401610e1a565b5090565b333014612fa05760405162461bcd60e51b8152600401610e1a906157b0565b6113748161371f565b333014612fc85760405162461bcd60e51b8152600401610e1a906157b0565b61137481613876565b60606000612fdf606a6143f8565b90506000816001600160401b03811115612ffb57612ffb614bfa565b604051908082528060200260200182016040528015613024578160200160208202803683370190505b50905060005b8281101561306a5761303d606a82614402565b82828151811061304f5761304f6155d3565b61ffff9092166020928302919091019091015260010161302a565b5092915050565b613079613f54565b6004613084826114ac565b600581111561309557613095614e82565b146131165760405162461bcd60e51b8152602060048201526044602482018190527f4d756c7469636861696e476f7665726e6f723a2070726f706f73616c2063616e908201527f206f6e6c792062652065786563757465642069662069742069732053756363656064820152631959195960e21b608482015260a401610e1a565b6000818152607160205260408120815b600182015481101561316757816002018181548110613147576131476155d3565b90600052602060002001548361315d919061579d565b9250600101613126565b503482146131c15760405162461bcd60e51b815260206004820152602160248201527f4d756c7469636861696e476f7665726e6f723a20696e76616c69642076616c756044820152606560f81b6064820152608401610e1a565b600d8101805461ff0019166101001790556131da6134db565b60005b6001820154811015613308576132ff826003018281548110613201576132016155d3565b90600052602060002001805461321690615883565b80601f016020809104026020016040519081016040528092919081815260200182805461324290615883565b801561328f5780601f106132645761010080835404028352916020019161328f565b820191906000526020600020905b81548152906001019060200180831161327257829003601f168201915b50505050508360020183815481106132a9576132a96155d3565b9060005260206000200154604051806060016040528060278152602001615d7a602791398560010185815481106132e2576132e26155d3565b6000918252602090912001546001600160a01b031692919061440e565b506001016131dd565b506040518381527f712ae1383f79ac853f8d882153778e0260ef8f03b504e2866e0593e04d2b291f9060200161179c565b60606126dd848460008561440e565b60005b81518110156133a057613398828281518110613369576133696155d3565b602002602001015160000151838381518110613387576133876155d3565b6020026020010151602001516144e9565b60010161334b565b5050565b676765c793fa10079d601a1b81111561340a5760405162461bcd60e51b815260206004820152602260248201527f4d756c7469636861696e476f7665726e6f723a20696e76616c69642071756f72604482015261756d60f01b6064820152608401610e1a565b60798054908290556040517f881e29202a36aa27b2e7dbd1086b0679e9212ac38029ba9959623b58d66a56b290612acc90839085906159a1565b61344c611e7b565b612cbe5760405162461bcd60e51b815260206004820152601460248201527314185d5cd8589b194e881b9bdd081c185d5cd95960621b6044820152606401610e1a565b606680546001600160a01b031981169091556001600160a01b03166134b46000614658565b6040516000906001600160a01b03831690600080516020615c80833981519152908390a350565b60006134e7606d613f9c565b905060005b81518110156133a057600061350c83838151811061271e5761271e6155d3565b9050600381600581111561352257613522614e82565b148061353f5750600281600581111561353d5761353d614e82565b145b8061355b5750600581600581111561355957613559614e82565b145b1561363f57613602606f60006071600087878151811061357d5761357d6155d3565b6020026020010151815260200190815260200160002060000160009054906101000a90046001600160a01b03166001600160a01b03166001600160a01b031681526020019081526020016000208484815181106135dc576135dc6155d3565b6020026020010151604051806080016040528060468152602001615cf4604691396146a2565b61363f606d848481518110613619576136196155d3565b6020026020010151604051806080016040528060418152602001615de1604191396146a2565b506001016134ec565b6001600160a01b03163b151590565b6954b40b1f852bda000000811015801561367c57506a295be96e640669720000008111155b6136e55760405162461bcd60e51b815260206004820152603460248201527f4d756c7469636861696e476f7665726e6f723a2070726f706f73616c207468726044820152736573686f6c64206f7574206f6620626f756e647360601b6064820152608401610e1a565b607a8054908290556040517f9b772ef27711c872f217a0c52a72ba00d7552f2d6c3b3d0f0593fc2549359df390612acc90839085906159a1565b610e1081101580156137345750621275008111155b6137985760405162461bcd60e51b815260206004820152602f60248201527f4d756c7469636861696e476f7665726e6f723a20766f74696e6720706572696f60448201526e64206f7574206f6620626f756e647360881b6064820152608401610e1a565b607b8054908290556040517f0157f874643e34dea2d71607bde6378f09880b59546f9e2386608eb7154b897590612acc90839085906159a1565b610e1081101580156137e75750621275008111155b61383c5760405162461bcd60e51b81526020600482015260326024820152600080516020615d5a8339815191526044820152710818dbdb1b1958dd1a5bdb881c195c9a5bd960721b6064820152608401610e1a565b60778054908290556040517fca438bea0881e082cea91d9c56e46b52e389fad3ae6b8aaa62463b14c72f65e090612acc90839085906159a1565b8015801590613886575060148111155b6138ee5760405162461bcd60e51b815260206004820152603360248201527f4d756c7469636861696e476f7665726e6f723a20696e76616c6964206d61782060448201527275736572206c6976652070726f706f73616c7360681b6064820152608401610e1a565b60788054908290556040517f89dbd13c686bb51f9357f13e1cefc3c495ddeb2db0989036a9685904877aba8b90612acc90839085906159a1565b607c80546001600160a01b038381166001600160a01b0319831617909255604051911690600080516020615d3a83398151915290612acc90839085906155b9565b600054610100900460ff166139905760405162461bcd60e51b8152600401610e1a906159af565b612cbe6146cb565b606580546001600160801b03838116600160801b908102828416179384905560408051938290048316808552919094049091166020830152917ff6e1f1afec511d8b8e9a65bb53c947ac99ea4211fb22e0d6a0e331d55d7345f89101612acc565b606680546001600160a01b0319166001600160a01b03831617905580613a1f6000614658565b816001600160a01b0316816001600160a01b0316600080516020615c8083398151915260405160405180910390a35050565b6067546001600160a01b031615613ab65760405162461bcd60e51b815260206004820152602360248201527f576f726d686f6c654272696467653a2072656c6179657220616c7265616479206044820152621cd95d60ea1b6064820152608401610e1a565b606780546001600160a01b0319166001600160a01b0392909216919091179055565b606680546001600160601b03838116600160a01b8181026001600160a01b0385161790945560408051949093049091168084526020840191909152917f5ccd21ad0b9c241d63daee4d43a957379ac1bef51da6554ef0d581c5ad09f5bb9101612acc565b801515600103613bd35760728383604051613b5892919061562f565b9081526040519081900360200190205460ff1615613bce5760405162461bcd60e51b815260206004820152602d60248201527f4d756c7469636861696e476f7665726e6f723a2063616c6c6461746120616c7260448201526c1958591e48185c1c1c9bdd9959609a1b6064820152608401610e1a565b613c44565b60728383604051613be592919061562f565b9081526040519081900360200190205460ff16613c445760405162461bcd60e51b81526020600482015260296024820152600080516020615e2283398151915260448201526808185c1c1c9bdd995960ba1b6064820152608401610e1a565b8060728484604051613c5792919061562f565b908152604051908190036020018120805492151560ff19909316929092179091557f140cf3352e7f796348bea7183809e6a7b907e826b581091dab21cbaf6c24b03e9061179c908590859085906159fa565b8051608014613d0d5760405162461bcd60e51b815260206004820152602a60248201527f4d756c7469636861696e476f7665726e6f723a20696e76616c6964207061796c6044820152690dec2c840d8cadccee8d60b31b6064820152608401610e1a565b60008060008084806020019051810190613d279190615a20565b61ffff8a16600090815260706020908152604080832087845290915290208054949850929650909450925090158015613d6257506001810154155b8015613d7057506002810154155b613dcf5760405162461bcd60e51b815260206004820152602a60248201527f4d756c7469636861696e476f7665726e6f723a20766f746520616c72656164796044820152690818dbdb1b1958dd195960b21b6064820152608401610e1a565b6001613dda866114ac565b6005811115613deb57613deb614e82565b14613e5b5760405162461bcd60e51b81526020600482015260466024820152600080516020615ca083398151915260448201527f20696e2063726f737320636861696e20766f746520636f6c6c656374696f6e206064820152651c195c9a5bd960d21b608482015260a401610e1a565b8381556001810183905560028101829055600085815260716020526040812060098101805491928792613e8f90849061579d565b925050819055508381600a016000828254613eaa919061579d565b925050819055508281600b016000828254613ec5919061579d565b90915550839050613ed6858761579d565b613ee0919061579d565b81600c016000828254613ef3919061579d565b90915550506040805187815261ffff8a16602082015290810186905260608101859052608081018490527fa6a83478dd60ce81218bc436542c31ae5bfdf856146db87dae8c5fe7ec69d82d9060a00160405180910390a15050505050505050565b613f5c611e7b565b15612cbe5760405162461bcd60e51b815260206004820152601060248201526f14185d5cd8589b194e881c185d5cd95960821b6044820152606401610e1a565b606060006113de836146fe565b60005b81518110156133a0576000828281518110613fc957613fc96155d3565b6020908102919091018101515161ffff811660008181526069909352604090922080546001600160a01b0319169055915061400690606a9061475a565b6140525760405162461bcd60e51b815260206004820152601f60248201527f576f726d686f6c654272696467653a20636861696e206e6f74206164646564006044820152606401610e1a565b60405160009061ffff831690600080516020615e42833981519152908390a350600101613fac565b60006113de8383614766565b3461408f612890565b146140f25760405162461bcd60e51b815260206004820152602d60248201527f576f726d686f6c654272696467653a20746f74616c20636f7374206e6f74206560448201526c7175616c20746f2071756f746560981b6064820152608401610e1a565b60006140fe606a6143f8565b90506000805b8281101561427e576000614119606a83614402565b905060006141268261140e565b60675461ffff84166000908152606960205260408082205460665491516347f66e8160e11b81529495506001600160a01b0393841694638fecdd0294879461418a948a94909216928e926001600160601b03600160a01b9091041690600401615a56565b60206040518083038185885af1935050505080156141c5575060408051601f3d908101601f191682019092526141c291810190615aa6565b60015b614215576141d3818561579d565b93507fe943c14b34c02fdf811683cd7901c2eeb54a7b8a97b055debcec6eb66b800a7482878360405161420893929190615acf565b60405180910390a1614274565b5061ffff8216600090815260696020526040908190205490517f47cab59001e84a2b56fab55afd46305539b786ad54299920d86f20d524a2ba449161426b91859185916001600160a01b03909116908b90615afc565b60405180910390a15b5050600101614104565b508015612f1957604051600090339083908381818185875af1925050503d80600081146142c7576040519150601f19603f3d011682016040523d82523d6000602084013e6142cc565b606091505b505090508061431d5760405162461bcd60e51b815260206004820152601d60248201527f576f726d686f6c654272696467653a20726566756e64206661696c65640000006044820152606401610e1a565b50505050565b61432b613f54565b6066546001600160a01b031633146143555760405162461bcd60e51b8152600401610e1a90615815565b61435d611b9e565b156143c05760405162461bcd60e51b815260206004820152602d60248201527f436f6e666967757261626c655061757365477561726469616e3a20706175736560448201526c08185b1c9958591e481d5cd959609a1b6064820152608401610e1a565b6143c942614658565b7f62e78cea01bee320cd4e420270b5ea74000d11b0c9f74754ebdbfc544b05a258336040516116259190614b9c565b6000611408825490565b60006113de83836147b5565b60608247101561446f5760405162461bcd60e51b815260206004820152602660248201527f416464726573733a20696e73756666696369656e742062616c616e636520666f6044820152651c8818d85b1b60d21b6064820152608401610e1a565b600080866001600160a01b0316858760405161448b9190615b2d565b60006040518083038185875af1925050503d80600081146144c8576040519150601f19603f3d011682016040523d82523d6000602084013e6144cd565b606091505b50915091506144de878383876147df565b979650505050505050565b61ffff82166000908152606960205260409020546001600160a01b03161561454d5760405162461bcd60e51b81526020600482015260236024820152600080516020615dc183398151915260448201526219195960ea1b6064820152608401610e1a565b6001600160a01b0381166145b25760405162461bcd60e51b815260206004820152602660248201527f576f726d686f6c654272696467653a20696e76616c696420746172676574206160448201526564647265737360d01b6064820152608401610e1a565b6145c1606a61ffff841661407a565b61460e5760405162461bcd60e51b815260206004820152602a6024820152600080516020615dc1833981519152604482015269191959081d1bc81cd95d60b21b6064820152608401610e1a565b61ffff821660008181526069602052604080822080546001600160a01b0319166001600160a01b0386169081179091559051909291600080516020615e4283398151915291a35050565b606580546001600160801b0319166001600160801b0383169081179091556040517ff9a602433e136b05c194852c92724c3069fe46ca433ff9ec750396286472012990600090a250565b6146ac838361475a565b819061431d5760405162461bcd60e51b8152600401610e1a9190615b49565b600054610100900460ff166146f25760405162461bcd60e51b8152600401610e1a906159af565b6033805460ff19169055565b60608160000180548060200260200160405190810160405280929190818152602001828054801561474e57602002820191906000526020600020905b81548152602001906001019080831161473a575b50505050509050919050565b60006113de8383614856565b60008181526001830160205260408120546147ad57508154600181810184556000848152602080822090930184905584548482528286019093526040902091909155611408565b506000611408565b60008260000182815481106147cc576147cc6155d3565b9060005260206000200154905092915050565b6060831561484c578251600003614845576147f985613648565b6148455760405162461bcd60e51b815260206004820152601d60248201527f416464726573733a2063616c6c20746f206e6f6e2d636f6e74726163740000006044820152606401610e1a565b50816126dd565b6126dd8383614949565b6000818152600183016020526040812054801561493f57600061487a6001836158b7565b855490915060009061488e906001906158b7565b90508181146148f35760008660000182815481106148ae576148ae6155d3565b90600052602060002001549050808760000184815481106148d1576148d16155d3565b6000918252602080832090910192909255918252600188019052604090208390555b855486908061490457614904615b5c565b600190038181906000526020600020016000905590558560010160008681526020019081526020016000206000905560019350505050611408565b6000915050611408565b8151156149595781518083602001fd5b8060405162461bcd60e51b8152600401610e1a9190615b49565b8280548282559060005260206000209081019282156149c8579160200282015b828111156149c857825182546001600160a01b0319166001600160a01b03909116178255602090920191600190910190614993565b50612f7d929150614a61565b8280548282559060005260206000209081019282156149c8579160200282015b828111156149c85782518255916020019190600101906149f4565b828054828255906000526020600020908101928215614a55579160200282015b82811115614a555782518290614a459082615bc0565b5091602001919060010190614a2f565b50612f7d929150614a76565b5b80821115612f7d5760008155600101614a62565b80821115612f7d576000614a8a8282614a93565b50600101614a76565b508054614a9f90615883565b6000825580601f10614aaf575050565b601f0160209004906000526020600020908101906113749190614a61565b600060208284031215614adf57600080fd5b5035919050565b60008083601f840112614af857600080fd5b5081356001600160401b03811115614b0f57600080fd5b6020830191508360208260051b8501011115614b2a57600080fd5b9250929050565b60008060008060408587031215614b4757600080fd5b84356001600160401b0380821115614b5e57600080fd5b614b6a88838901614ae6565b90965094506020870135915080821115614b8357600080fd5b50614b9087828801614ae6565b95989497509550505050565b6001600160a01b0391909116815260200190565b80356001600160a01b03811681146114a757600080fd5b600080600060608486031215614bdc57600080fd5b614be584614bb0565b95602085013595506040909401359392505050565b634e487b7160e01b600052604160045260246000fd5b604080519081016001600160401b0381118282101715614c3257614c32614bfa565b60405290565b6040516101a081016001600160401b0381118282101715614c3257614c32614bfa565b604051601f8201601f191681016001600160401b0381118282101715614c8357614c83614bfa565b604052919050565b60006001600160401b03821115614ca457614ca4614bfa565b5060051b60200190565b803561ffff811681146114a757600080fd5b600082601f830112614cd157600080fd5b81356020614ce6614ce183614c8b565b614c5b565b82815260069290921b84018101918181019086841115614d0557600080fd5b8286015b84811015614d525760408189031215614d225760008081fd5b614d2a614c10565b614d3382614cae565b8152614d40858301614bb0565b81860152835291830191604001614d09565b509695505050505050565b600060208284031215614d6f57600080fd5b81356001600160401b03811115614d8557600080fd5b6126dd84828501614cc0565b60008060408385031215614da457600080fd5b614dad83614cae565b9150614dbb60208401614bb0565b90509250929050565b600060208284031215614dd657600080fd5b6113de82614cae565b600082601f830112614df057600080fd5b81356001600160401b03811115614e0957614e09614bfa565b614e1c601f8201601f1916602001614c5b565b818152846020838601011115614e3157600080fd5b816020850160208301376000918101602001919091529392505050565b600060208284031215614e6057600080fd5b81356001600160401b03811115614e7657600080fd5b6126dd84828501614ddf565b634e487b7160e01b600052602160045260246000fd5b6020810160068310614eba57634e487b7160e01b600052602160045260246000fd5b91905290565b80356001600160801b03811681146114a757600080fd5b6000806000808486036101e0811215614eef57600080fd5b6101a080821215614eff57600080fd5b614f07614c38565b9150614f1287614bb0565b8252614f2060208801614bb0565b6020830152614f3160408801614bb0565b6040830152614f4260608801614bb0565b60608301526080870135608083015260a087013560a083015260c087013560c083015260e087013560e0830152610100808801358184015250610120614f89818901614ec0565b90830152610140614f9b888201614bb0565b90830152610160614fad888201614bb0565b90830152610180614fbf888201614bb0565b908301529094508501356001600160401b0380821115614fde57600080fd5b614fea88838901614cc0565b94506101c0870135915080821115614b8357600080fd5b600082601f83011261501257600080fd5b81356020615022614ce183614c8b565b82815260059290921b8401810191818101908684111561504157600080fd5b8286015b84811015614d525780356001600160401b038111156150645760008081fd5b6150728986838b0101614ddf565b845250918301918301615045565b600080600080600060a0868803121561509857600080fd5b85356001600160401b03808211156150af57600080fd5b6150bb89838a01614ddf565b965060208801359150808211156150d157600080fd5b506150de88828901615001565b945050604086013592506150f460608701614cae565b949793965091946080013592915050565b6000806040838503121561511857600080fd5b82359150602083013560ff8116811461513057600080fd5b809150509250929050565b600081518084526020808501945080840160005b838110156151745781516001600160a01b03168752958201959082019060010161514f565b509495945050505050565b600081518084526020808501945080840160005b8381101561517457815187529582019590820190600101615193565b60005b838110156151ca5781810151838201526020016151b2565b50506000910152565b600081518084526151eb8160208601602086016151af565b601f01601f19169290920160200192915050565b600081518084526020808501808196508360051b8101915082860160005b858110156152475782840389526152358483516151d3565b9885019893509084019060010161521d565b5091979650505050505050565b606081526000615267606083018661513b565b8281036020840152615279818661517f565b90508281036040840152612ebd81856151ff565b60006020828403121561529f57600080fd5b6113de82614bb0565b6020815260006113de602083018461517f565b600082601f8301126152cc57600080fd5b813560206152dc614ce183614c8b565b82815260059290921b840181019181810190868411156152fb57600080fd5b8286015b84811015614d5257803583529183019183016152ff565b6000806000806080858703121561532c57600080fd5b84356001600160401b038082111561534357600080fd5b818701915087601f83011261535757600080fd5b81356020615367614ce183614c8b565b82815260059290921b8401810191818101908b84111561538657600080fd5b948201945b838610156153ab5761539c86614bb0565b8252948201949082019061538b565b985050880135925050808211156153c157600080fd5b6153cd888389016152bb565b945060408701359150808211156153e357600080fd5b6153ef88838901615001565b9350606087013591508082111561540557600080fd5b5061541287828801614ddf565b91505092959194509250565b6000806040838503121561543157600080fd5b61543a83614cae565b946020939093013593505050565b803580151581146114a757600080fd5b6000806040838503121561546b57600080fd5b61547483614bb0565b9150614dbb60208401615448565b60006020828403121561549457600080fd5b81356001600160601b03811681146113de57600080fd5b6000806000604084860312156154c057600080fd5b83356001600160401b03808211156154d757600080fd5b818601915086601f8301126154eb57600080fd5b8135818111156154fa57600080fd5b87602082850101111561550c57600080fd5b6020928301955093506155229186019050615448565b90509250925092565b6000806040838503121561553e57600080fd5b82359150614dbb60208401614bb0565b6000806040838503121561556157600080fd5b82359150614dbb60208401614cae565b6020808252825182820181905260009190848201906040850190845b818110156155ad57835161ffff168352928401929184019160010161558d565b50909695505050505050565b6001600160a01b0392831681529116602082015260400190565b634e487b7160e01b600052603260045260246000fd5b6000808335601e1984360301811261560057600080fd5b8301803591506001600160401b0382111561561a57600080fd5b602001915036819003821315614b2a57600080fd5b8183823760009101908152919050565b81835281816020850137506000828201602090810191909152601f909101601f19169091010190565b6001600160a01b03868116825260606020808401829052908301869052600091879160808501845b898110156156b557836156a286614bb0565b1682529382019390820190600101615690565b5085810360408701528681528181019350600587901b8101820192508760005b8881101561574457828503601f190186528135368b9003601e190181126156fb57600080fd5b8a0184810190356001600160401b0381111561571657600080fd5b80360382131561572557600080fd5b61573087828461563f565b9786019796505050908301906001016156d5565b50929b9a5050505050505050505050565b6001600160a01b03929092168252602082015260400190565b60006020828403121561578057600080fd5b5051919050565b634e487b7160e01b600052601160045260246000fd5b8082018082111561140857611408615787565b60208082526021908201527f4d756c7469636861696e476f7665726e6f723a206f6e6c7920676f7665726e6f6040820152603960f91b606082015260800190565b6000806040838503121561580457600080fd5b505080516020909101519092909150565b6020808252602e908201527f436f6e666967757261626c655061757365477561726469616e3a206f6e6c792060408201526d3830bab9b29033bab0b93234b0b760911b606082015260800190565b6001600160801b0381811683821601908082111561306a5761306a615787565b600181811c9082168061589757607f821691505b6020821081036115b657634e487b7160e01b600052602260045260246000fd5b8181038181111561140857611408615787565b6000600182016158dc576158dc615787565b5060010190565b948552602085019390935260408401919091526060830152608082015260a00190565b8881526001600160a01b0388166020820152610100604082018190526000906159318382018a61513b565b90508281036060840152615945818961517f565b9050828103608084015261595981886151ff565b90508560a08401528460c084015282810360e084015261597981856151d3565b9b9a5050505050505050505050565b8281526040602082015260006126dd60408301846151d3565b918252602082015260400190565b6020808252602b908201527f496e697469616c697a61626c653a20636f6e7472616374206973206e6f74206960408201526a6e697469616c697a696e6760a81b606082015260800190565b604081526000615a0e60408301858761563f565b90508215156020830152949350505050565b60008060008060808587031215615a3657600080fd5b505082516020840151604085015160609095015191969095509092509050565b61ffff861681526001600160a01b038516602082015260a060408201819052600090615a84908301866151d3565b6060830194909452506001600160601b03919091166080909101529392505050565b600060208284031215615ab857600080fd5b81516001600160401b03811681146113de57600080fd5b61ffff84168152606060208201526000615aec60608301856151d3565b9050826040830152949350505050565b61ffff8516815283602082015260018060a01b0383166040820152608060608201526000612ebd60808301846151d3565b60008251615b3f8184602087016151af565b9190910192915050565b6020815260006113de60208301846151d3565b634e487b7160e01b600052603160045260246000fd5b601f821115612f1957600081815260208120601f850160051c81016020861015615b995750805b601f850160051c820191505b81811015615bb857828155600101615ba5565b505050505050565b81516001600160401b03811115615bd957615bd9614bfa565b615bed81615be78454615883565b84615b72565b602080601f831160018114615c225760008415615c0a5750858301515b600019600386901b1c1916600185901b178555615bb8565b600085815260208120601f198616915b82811015615c5157888601518255948401946001909101908401615c32565b5085821015615c6f5787850151600019600388901b60f8161c191681555b5050505050600190811b0190555056fecaaa282fb2cbeb3df8763925c47fce27f7d642a513ca61ece90ac2dd6acb5ceb4d756c7469636861696e476f7665726e6f723a2070726f706f73616c206e6f744d756c7469636861696e476f7665726e6f723a20627265616b20676c61737320677561726469616e2063616c6c206661696c65644d756c7469636861696e476f7665726e6f723a20636f756c64206e6f742072656d6f76652070726f706f73616c2066726f6d2075736572206c6976652070726f706f73616c7319be0cefd4235c57b29c828297a3e160306f359677ce5dc07f5b4f546fc29de64d756c7469636861696e476f7665726e6f723a20696e76616c696420766f74654d756c7469636861696e476f7665726e6f723a20657865637574652063616c6c206661696c6564789cf55be980739dad1d0699b93b58e806b51c9d96619bfa8fe0a28abaa7b30c576f726d686f6c654272696467653a20636861696e20616c72656164792061644d756c7469636861696e476f7665726e6f723a20636f756c64206e6f742072656d6f76652070726f706f73616c2066726f6d206c6976652070726f706f73616c734d756c7469636861696e476f7665726e6f723a2063616c6c64617461206e6f7440408703d30ddad046e1af438394d2996712767ef13391ae7d9d21fa9eb63df5a2646970667358221220b84e1ac306954af987fcec9f13db331c9a8e9660dc5d645418eb9a3acf42b18864736f6c63430008130033",
    "linkReferences": {}
  },
  "methodIdentifiers": {
    "addExternalChainConfigs((uint16,address)[])": "13cb1652",
    "breakGlassGuardian()": "0fbc82b8",
    "bridgeCost(uint16)": "37d6d162",
    "bridgeCostAll()": "912f8a65",
    "cancel(uint256)": "40e58ee5",
    "castVote(uint256,uint8)": "56781388",
    "chainAddressVotes(uint256,uint16)": "f5c18022",
    "chainVoteCollectorVotes(uint16,uint256)": "80e6769d",
    "crossChainVoteCollectionPeriod()": "c798d6b1",
    "currentUserLiveProposals(address)": "99f99c8e",
    "distributor()": "bfe10928",
    "execute(uint256)": "fe0d94c1",
    "executeBreakGlass(address[],bytes[])": "06a108ec",
    "fromWormholeFormat(bytes32)": "e17563df",
    "gasLimit()": "f68016b7",
    "getAllTargetChains()": "f9bae9d0",
    "getAllTargetChainsLength()": "9ba9c39d",
    "getCurrentVotes(address)": "b4b5ea57",
    "getNumLiveProposals()": "8cd96644",
    "getProposalData(uint256)": "6e768530",
    "getReceipt(uint256,address)": "e23a9a52",
    "getUserLiveProposals(address)": "75a80a57",
    "getVotes(address,uint256,uint256)": "11fd26f4",
    "initialize((address,address,address,address,uint256,uint256,uint256,uint256,uint256,uint128,address,address,address),(uint16,address)[],bytes[])": "4b7e9209",
    "isTrustedSender(uint16,address)": "35a2017d",
    "isTrustedSender(uint16,bytes32)": "d4f3826b",
    "kickGuardian()": "a8d164ac",
    "liveProposals()": "a62fb563",
    "maxUserLiveProposals()": "fc3452c9",
    "pause()": "8456cb59",
    "pauseDuration()": "0526679c",
    "pauseGuardian()": "24a3d622",
    "pauseStartTime()": "94d7eaa4",
    "pauseUsed()": "55703ceb",
    "paused()": "5c975abb",
    "processedNonces(bytes32)": "404a4edb",
    "proposalActive(uint256)": "35743ac9",
    "proposalCount()": "da35c664",
    "proposalInformation(uint256)": "1fb6b132",
    "proposalThreshold()": "b58131b0",
    "proposalVotes(uint256)": "544ffc9c",
    "proposals(uint256)": "013cf08b",
    "propose(address[],uint256[],bytes[],string)": "7d5e81e2",
    "quorum()": "1703a018",
    "rebroadcastProposal(uint256)": "9380a704",
    "receiveWormholeMessages(bytes,bytes[],bytes32,uint16,bytes32)": "529dca32",
    "removeExternalChainConfigs((uint16,address)[])": "79173a2d",
    "setBreakGlassGuardian(address)": "c9ba036b",
    "setGasLimit(uint96)": "9ffe56f7",
    "setNewStakedWell(address,bool)": "9d47ea55",
    "state(uint256)": "3e4f49e6",
    "stkWell()": "0d3cfee2",
    "targetAddress(uint16)": "ae8e397f",
    "unpause()": "3f4ba83a",
    "updateApprovedCalldata(bytes,bool)": "d2c0cefd",
    "updateCrossChainVoteCollectionPeriod(uint256)": "87850f81",
    "updateMaxUserLiveProposals(uint256)": "f3804cff",
    "updateProposalThreshold(uint256)": "57ad6279",
    "updateQuorum(uint256)": "35680dc2",
    "updateVotingPeriod(uint256)": "ef00ef43",
    "useTimestamps()": "6bda81bf",
    "votingPeriod()": "02a251a3",
    "well()": "c0878f0c",
    "whitelistedCalldatas(bytes)": "39cbd602",
    "wormholeRelayer()": "da25b725",
    "xWell()": "406ea4a2"
  },
  "id": 118
}