{
  "abi": [
    {
      "inputs": [
        {
          "internalType": "address",
          "name": "wormholeCore",
          "type": "address"
        },
        {
          "internalType": "uint256",
          "name": "_proposalDelay",
          "type": "uint256"
        },
        {
          "internalType": "uint256",
          "name": "_permissionlessUnpauseTime",
          "type": "uint256"
        },
        {
          "components": [
            {
              "internalType": "uint16",
              "name": "chainId",
              "type": "uint16"
            },
            {
              "internalType": "address",
              "name": "addr",
              "type": "address"
            }
          ],
          "internalType": "struct ITemporalGovernor.TrustedSender[]",
          "name": "_trustedSenders",
          "type": "tuple[]"
        }
      ],
      "stateMutability": "nonpayable",
      "type": "constructor"
    },
    {
      "anonymous": false,
      "inputs": [
        {
          "indexed": false,
          "internalType": "address",
          "name": "target",
          "type": "address"
        },
        {
          "indexed": false,
          "internalType": "uint256",
          "name": "value",
          "type": "uint256"
        },
        {
          "indexed": false,
          "internalType": "bytes",
          "name": "data",
          "type": "bytes"
        }
      ],
      "name": "ExecutedTransaction",
      "type": "event"
    },
    {
      "anonymous": false,
      "inputs": [
        {
          "indexed": true,
          "internalType": "uint256",
          "name": "timestamp",
          "type": "uint256"
        }
      ],
      "name": "GuardianPauseGranted",
      "type": "event"
    },
    {
      "anonymous": false,
      "inputs": [
        {
          "indexed": true,
          "internalType": "address",
          "name": "guardian",
          "type": "address"
        }
      ],
      "name": "GuardianRevoked",
      "type": "event"
    },
    {
      "anonymous": false,
      "inputs": [
        {
          "indexed": true,
          "internalType": "address",
          "name": "previousOwner",
          "type": "address"
        },
        {
          "indexed": true,
          "internalType": "address",
          "name": "newOwner",
          "type": "address"
        }
      ],
      "name": "OwnershipTransferred",
      "type": "event"
    },
    {
      "anonymous": false,
      "inputs": [
        {
          "indexed": false,
          "internalType": "address",
          "name": "account",
          "type": "address"
        }
      ],
      "name": "Paused",
      "type": "event"
    },
    {
      "anonymous": false,
      "inputs": [
        {
          "indexed": true,
          "internalType": "uint256",
          "name": "timestamp",
          "type": "uint256"
        }
      ],
      "name": "PermissionlessUnpaused",
      "type": "event"
    },
    {
      "anonymous": false,
      "inputs": [
        {
          "indexed": false,
          "internalType": "address",
          "name": "intendedRecipient",
          "type": "address"
        },
        {
          "indexed": false,
          "internalType": "address[]",
          "name": "targets",
          "type": "address[]"
        },
        {
          "indexed": false,
          "internalType": "uint256[]",
          "name": "values",
          "type": "uint256[]"
        },
        {
          "indexed": false,
          "internalType": "bytes[]",
          "name": "calldatas",
          "type": "bytes[]"
        }
      ],
      "name": "QueuedTransaction",
      "type": "event"
    },
    {
      "anonymous": false,
      "inputs": [
        {
          "indexed": false,
          "internalType": "uint16",
          "name": "chainId",
          "type": "uint16"
        },
        {
          "indexed": false,
          "internalType": "address",
          "name": "addr",
          "type": "address"
        },
        {
          "indexed": false,
          "internalType": "bool",
          "name": "added",
          "type": "bool"
        }
      ],
      "name": "TrustedSenderUpdated",
      "type": "event"
    },
    {
      "anonymous": false,
      "inputs": [
        {
          "indexed": false,
          "internalType": "address",
          "name": "account",
          "type": "address"
        }
      ],
      "name": "Unpaused",
      "type": "event"
    },
    {
      "inputs": [
        {
          "internalType": "address",
          "name": "addr",
          "type": "address"
        }
      ],
      "name": "addressToBytes",
      "outputs": [
        {
          "internalType": "bytes32",
          "name": "",
          "type": "bytes32"
        }
      ],
      "stateMutability": "pure",
      "type": "function"
    },
    {
      "inputs": [
        {
          "internalType": "uint16",
          "name": "chainId",
          "type": "uint16"
        }
      ],
      "name": "allTrustedSenders",
      "outputs": [
        {
          "internalType": "bytes32[]",
          "name": "",
          "type": "bytes32[]"
        }
      ],
      "stateMutability": "view",
      "type": "function"
    },
    {
      "inputs": [
        {
          "internalType": "bytes",
          "name": "VAA",
          "type": "bytes"
        }
      ],
      "name": "executeProposal",
      "outputs": [],
      "stateMutability": "nonpayable",
      "type": "function"
    },
    {
      "inputs": [
        {
          "internalType": "bytes",
          "name": "VAA",
          "type": "bytes"
        }
      ],
      "name": "fastTrackProposalExecution",
      "outputs": [],
      "stateMutability": "nonpayable",
      "type": "function"
    },
    {
      "inputs": [],
      "name": "grantGuardiansPause",
      "outputs": [],
      "stateMutability": "nonpayable",
      "type": "function"
    },
    {
      "inputs": [],
      "name": "guardianPauseAllowed",
      "outputs": [
        {
          "internalType": "bool",
          "name": "",
          "type": "bool"
        }
      ],
      "stateMutability": "view",
      "type": "function"
    },
    {
      "inputs": [
        {
          "internalType": "uint16",
          "name": "chainId",
          "type": "uint16"
        },
        {
          "internalType": "address",
          "name": "addr",
          "type": "address"
        }
      ],
      "name": "isTrustedSender",
      "outputs": [
        {
          "internalType": "bool",
          "name": "",
          "type": "bool"
        }
      ],
      "stateMutability": "view",
      "type": "function"
    },
    {
      "inputs": [
        {
          "internalType": "uint16",
          "name": "chainId",
          "type": "uint16"
        },
        {
          "internalType": "bytes32",
          "name": "addr",
          "type": "bytes32"
        }
      ],
      "name": "isTrustedSender",
      "outputs": [
        {
          "internalType": "bool",
          "name": "",
          "type": "bool"
        }
      ],
      "stateMutability": "view",
      "type": "function"
    },
    {
      "inputs": [],
      "name": "lastPauseTime",
      "outputs": [
        {
          "internalType": "uint248",
          "name": "",
          "type": "uint248"
        }
      ],
      "stateMutability": "view",
      "type": "function"
    },
    {
      "inputs": [],
      "name": "owner",
      "outputs": [
        {
          "internalType": "address",
          "name": "",
          "type": "address"
        }
      ],
      "stateMutability": "view",
      "type": "function"
    },
    {
      "inputs": [],
      "name": "paused",
      "outputs": [
        {
          "internalType": "bool",
          "name": "",
          "type": "bool"
        }
      ],
      "stateMutability": "view",
      "type": "function"
    },
    {
      "inputs": [],
      "name": "permissionlessUnpause",
      "outputs": [],
      "stateMutability": "nonpayable",
      "type": "function"
    },
    {
      "inputs": [],
      "name": "permissionlessUnpauseTime",
      "outputs": [
        {
          "internalType": "uint256",
          "name": "",
          "type": "uint256"
        }
      ],
      "stateMutability": "view",
      "type": "function"
    },
    {
      "inputs": [],
      "name": "proposalDelay",
      "outputs": [
        {
          "internalType": "uint256",
          "name": "",
          "type": "uint256"
        }
      ],
      "stateMutability": "view",
      "type": "function"
    },
    {
      "inputs": [
        {
          "internalType": "bytes",
          "name": "VAA",
          "type": "bytes"
        }
      ],
      "name": "queueProposal",
      "outputs": [],
      "stateMutability": "nonpayable",
      "type": "function"
    },
    {
      "inputs": [
        {
          "internalType": "bytes32",
          "name": "",
          "type": "bytes32"
        }
      ],
      "name": "queuedTransactions",
      "outputs": [
        {
          "internalType": "bool",
          "name": "executed",
          "type": "bool"
        },
        {
          "internalType": "uint248",
          "name": "queueTime",
          "type": "uint248"
        }
      ],
      "stateMutability": "view",
      "type": "function"
    },
    {
      "inputs": [],
      "name": "renounceOwnership",
      "outputs": [],
      "stateMutability": "nonpayable",
      "type": "function"
    },
    {
      "inputs": [],
      "name": "revokeGuardian",
      "outputs": [],
      "stateMutability": "nonpayable",
      "type": "function"
    },
    {
      "inputs": [
        {
          "components": [
            {
              "internalType": "uint16",
              "name": "chainId",
              "type": "uint16"
            },
            {
              "internalType": "address",
              "name": "addr",
              "type": "address"
            }
          ],
          "internalType": "struct ITemporalGovernor.TrustedSender[]",
          "name": "_trustedSenders",
          "type": "tuple[]"
        }
      ],
      "name": "setTrustedSenders",
      "outputs": [],
      "stateMutability": "nonpayable",
      "type": "function"
    },
    {
      "inputs": [],
      "name": "togglePause",
      "outputs": [],
      "stateMutability": "nonpayable",
      "type": "function"
    },
    {
      "inputs": [
        {
          "internalType": "address",
          "name": "newOwner",
          "type": "address"
        }
      ],
      "name": "transferOwnership",
      "outputs": [],
      "stateMutability": "nonpayable",
      "type": "function"
    },
    {
      "inputs": [
        {
          "components": [
            {
              "internalType": "uint16",
              "name": "chainId",
              "type": "uint16"
            },
            {
              "internalType": "address",
              "name": "addr",
              "type": "address"
            }
          ],
          "internalType": "struct ITemporalGovernor.TrustedSender[]",
          "name": "_trustedSenders",
          "type": "tuple[]"
        }
      ],
      "name": "unSetTrustedSenders",
      "outputs": [],
      "stateMutability": "nonpayable",
      "type": "function"
    },
    {
      "inputs": [],
      "name": "wormholeBridge",
      "outputs": [
        {
          "internalType": "contract IWormhole",
          "name": "",
          "type": "address"
        }
      ],
      "stateMutability": "view",
      "type": "function"
    }
  ],
  "bytecode": {
    "object": "0x60e0604052600180546001600160f81b0316600160f81b1790553480156200002657600080fd5b506040516200262a3803806200262a83398101604081905262000049916200027e565b620000543362000128565b6000805460ff60a01b191681556001600160a01b03851660805260a084905260c08390525b81518110156200011d5762000107620000b8838381518110620000a057620000a062000397565b6020026020010151602001516200017860201b60201c565b60026000858581518110620000d157620000d162000397565b60200260200101516000015161ffff1661ffff1681526020019081526020016000206200018460201b62000b6d1790919060201c565b50806200011481620003ad565b91505062000079565b5050505050620003d5565b600080546001600160a01b038381166001600160a01b0319831681178455604051919092169283917f8be0079c531659141344cd1fd0a4f28419497f9722a3daafe3b4186f6b6457e09190a35050565b6001600160a01b031690565b60006200019283836200019b565b90505b92915050565b6000818152600183016020526040812054620001e45750815460018181018455600084815260208082209093018490558454848252828601909352604090209190915562000195565b50600062000195565b80516001600160a01b03811681146200020557600080fd5b919050565b634e487b7160e01b600052604160045260246000fd5b604080519081016001600160401b03811182821017156200024557620002456200020a565b60405290565b604051601f8201601f191681016001600160401b03811182821017156200027657620002766200020a565b604052919050565b600080600080608085870312156200029557600080fd5b620002a085620001ed565b935060208086015193506040808701519350606087015160018060401b0380821115620002cc57600080fd5b818901915089601f830112620002e157600080fd5b815181811115620002f657620002f66200020a565b62000306858260051b016200024b565b818152858101925060069190911b83018501908b8211156200032757600080fd5b928501925b81841015620003875784848d031215620003465760008081fd5b6200035062000220565b845161ffff81168114620003645760008081fd5b815262000373858801620001ed565b81880152835292840192918501916200032c565b989b979a50959850505050505050565b634e487b7160e01b600052603260045260246000fd5b600060018201620003ce57634e487b7160e01b600052601160045260246000fd5b5060010190565b60805160a05160c051612209620004216000396000818161016c01526108480152600081816102de0152610d2201526000818161020201528181610bd901526110cd01526122096000f3fe608060405234801561001057600080fd5b506004361061014d5760003560e01c80638ab9b2e1116100c3578063c4ae31681161007c578063c4ae316814610310578063d4f3826b14610318578063dd310f871461032b578063ded8454a14610333578063f2b065371461034d578063f2fde38b1461039f57600080fd5b80638ab9b2e11461027d5780638da5cb5b1461029d57806391b4ded9146102ae578063a78b17cc146102d9578063b44be09514610300578063be6a2f0c1461030857600080fd5b80634a354891116101155780634a354891146101ea57806352a80085146101fd5780635c975abb1461023c57806363c6c6a31461024e578063715018a614610261578063885167421461026957600080fd5b80630878d3fb146101525780631045e9661461016757806330faa259146101a157806335a2017d146101b45780633f4b28f4146101d7575b600080fd5b610165610160366004611767565b6103b2565b005b61018e7f000000000000000000000000000000000000000000000000000000000000000081565b6040519081526020015b60405180910390f35b6101656101af366004611898565b610509565b6101c76101c236600461193d565b61051f565b6040519015158152602001610198565b6101656101e5366004611898565b61053d565b6101656101f8366004611767565b610550565b6102247f000000000000000000000000000000000000000000000000000000000000000081565b6040516001600160a01b039091168152602001610198565b600054600160a01b900460ff166101c7565b61016561025c366004611898565b610681565b610165610692565b6001546101c790600160f81b900460ff1681565b61029061028b366004611976565b6106a6565b604051610198919061199a565b6000546001600160a01b0316610224565b6001546102c1906001600160f81b031681565b6040516001600160f81b039091168152602001610198565b61018e7f000000000000000000000000000000000000000000000000000000000000000081565b61016561075f565b610165610835565b610165610933565b6101c76103263660046119de565b610a22565b610165610a3f565b61018e610341366004611a0a565b6001600160a01b031690565b61038061035b366004611a27565b60036020526000908152604090205460ff81169061010090046001600160f81b031682565b6040805192151583526001600160f81b03909116602083015201610198565b6101656103ad366004611a0a565b610af7565b3330146103da5760405162461bcd60e51b81526004016103d190611a40565b60405180910390fd5b60005b818110156105045761045b6104158484848181106103fd576103fd611a9d565b90506040020160200160208101906103419190611a0a565b6002600086868681811061042b5761042b611a9d565b6104419260206040909202019081019150611976565b61ffff168152602081019190915260400160002090610b79565b507fad5ad009fb0380817906297d4db849c9a30b93e0d3761c005ef8c487d923922483838381811061048f5761048f611a9d565b6104a59260206040909202019081019150611976565b8484848181106104b7576104b7611a9d565b90506040020160200160208101906104cf9190611a0a565b6040805161ffff90931683526001600160a01b03909116602083015260009082015260600160405180910390a16001016103dd565b505050565b610511610b85565b61051c816000610bd2565b50565b6000610534836001600160a01b038416610a22565b90505b92915050565b61054561106c565b61051c816001610bd2565b33301461056f5760405162461bcd60e51b81526004016103d190611a40565b60005b81811015610504576105d86105928484848181106103fd576103fd611a9d565b600260008686868181106105a8576105a8611a9d565b6105be9260206040909202019081019150611976565b61ffff168152602081019190915260400160002090610b6d565b507fad5ad009fb0380817906297d4db849c9a30b93e0d3761c005ef8c487d923922483838381811061060c5761060c611a9d565b6106229260206040909202019081019150611976565b84848481811061063457610634611a9d565b905060400201602001602081019061064c9190611a0a565b6040805161ffff90931683526001600160a01b03909116602083015260019082015260600160405180910390a1600101610572565b610689610b85565b61051c816110c6565b61069a61106c565b6106a46000611364565b565b61ffff81166000908152600260205260408120606091906106c6906113b4565b67ffffffffffffffff8111156106de576106de6117dc565b604051908082528060200260200182016040528015610707578160200160208202803683370190505b50905060005b81518110156107585761ffff8416600090815260026020526040902061073390826113be565b82828151811061074557610745611a9d565b602090810291909101015260010161070d565b5092915050565b6000546001600160a01b03163381148061077857503330145b6107d55760405162461bcd60e51b815260206004820152602860248201527f54656d706f72616c476f7665726e6f723a2063616e6e6f74207265766f6b652060448201526733bab0b93234b0b760c11b60648201526084016103d1565b6107df6000611364565b6000600181905554600160a01b900460ff16156107fe576107fe6113ca565b6040516001600160a01b038216907f0c92d12d8037dd6d77aed8d12addd54d5eb2a6801541a1bf87c9822e78eea42190600090a250565b61083d61141f565b6001544290610876907f0000000000000000000000000000000000000000000000000000000000000000906001600160f81b0316611ac9565b11156108d45760405162461bcd60e51b815260206004820152602760248201527f54656d706f72616c476f7665726e6f723a206e6f7420706173742070617573656044820152662077696e646f7760c81b60648201526084016103d1565b600180546001600160f81b03191690556108ec6113ca565b600154600160f81b900460ff161561090657610906611adc565b60405142907f5607d774129cad49296363738883d35576762c63e621f31b16c5e2214e2c03b490600090a2565b61093b61106c565b600054600160a01b900460ff161561095a576109556113ca565b610a08565b600154600160f81b900460ff166109c85760405162461bcd60e51b815260206004820152602c60248201527f54656d706f72616c476f7665726e6f723a20677561726469616e20706175736560448201526b081b9bdd08185b1b1bddd95960a21b60648201526084016103d1565b600180546001600160f81b031690556109e04261146f565b600180546001600160f81b0319166001600160f81b0392909216919091179055610a086114dc565b600154600160f81b900460ff16156106a4576106a4611adc565b61ffff82166000908152600260205260408120610534908361151f565b333014610ac25760405162461bcd60e51b8152602060048201526044602482018190527f54656d706f72616c476f7665726e6f723a204f6e6c79207468697320636f6e74908201527f726163742063616e20757064617465206772616e7420677561726469616e20706064820152636175736560e01b608482015260a4016103d1565b600160f81b60015560405142907f309f3735db2677e216920b5dc9d0b76108f0fa9fc1176a6701bd4e77f5065ac190600090a2565b610aff61106c565b6001600160a01b038116610b645760405162461bcd60e51b815260206004820152602660248201527f4f776e61626c653a206e6577206f776e657220697320746865207a65726f206160448201526564647265737360d01b60648201526084016103d1565b61051c81611364565b60006105348383611537565b60006105348383611586565b600054600160a01b900460ff16156106a45760405162461bcd60e51b815260206004820152601060248201526f14185d5cd8589b194e881c185d5cd95960821b60448201526064016103d1565b60008060007f00000000000000000000000000000000000000000000000000000000000000006001600160a01b031663c0fd8bde866040518263ffffffff1660e01b8152600401610c239190611b42565b600060405180830381865afa158015610c40573d6000803e3d6000fd5b505050506040513d6000823e601f3d908101601f19168201604052610c689190810190611ccf565b925092509250818190610c8e5760405162461bcd60e51b81526004016103d19190611b42565b5083610db85761014083015160009081526003602052604081205461010090046001600160f81b03169003610d055760405162461bcd60e51b815260206004820152601f60248201527f54656d706f72616c476f7665726e6f723a207478206e6f74207175657565640060448201526064016103d1565b6101408301516000908152600360205260409020544290610d55907f00000000000000000000000000000000000000000000000000000000000000009061010090046001600160f81b0316611ac9565b1115610db35760405162461bcd60e51b815260206004820152602760248201527f54656d706f72616c476f7665726e6f723a2074696d656c6f636b206e6f7420666044820152661a5b9a5cda195960ca1b60648201526084016103d1565b610e1c565b61014083015160009081526003602052604081205461010090046001600160f81b03169003610e1c57610dea4261146f565b610140840151600090815260036020526040902080546001600160f81b03929092166101000260ff9092169190911790555b6080830151606084015161ffff166000908152600260205260409020610e419161151f565b610e5d5760405162461bcd60e51b81526004016103d190611e27565b61014083015160009081526003602052604090205460ff1615610ed05760405162461bcd60e51b815260206004820152602560248201527f54656d706f72616c476f7665726e6f723a20747820616c72656164792065786560448201526418dd5d195960da1b60648201526084016103d1565b6101408301516000908152600360209081526040909120805460ff1916600117905560e0840151805160609283928392610f109290820181019101611f4b565b91955093509150610f249050838383611679565b60005b8351811015611061576000848281518110610f4457610f44611a9d565b602002602001015190506000848381518110610f6257610f62611a9d565b602002602001015190506000848481518110610f8057610f80611a9d565b60200260200101519050600080846001600160a01b03168484604051610fa69190612049565b60006040518083038185875af1925050503d8060008114610fe3576040519150601f19603f3d011682016040523d82523d6000602084013e610fe8565b606091505b509150915081819061100d5760405162461bcd60e51b81526004016103d19190611b42565b507faf022f6b53b11c364e2dfc0aea08eb9416c94f2661451ea82ead8831385617a685858560405161104193929190612065565b60405180910390a15050505050808061105990612095565b915050610f27565b505050505050505050565b6000546001600160a01b031633146106a45760405162461bcd60e51b815260206004820181905260248201527f4f776e61626c653a2063616c6c6572206973206e6f7420746865206f776e657260448201526064016103d1565b60008060007f00000000000000000000000000000000000000000000000000000000000000006001600160a01b031663c0fd8bde856040518263ffffffff1660e01b81526004016111179190611b42565b600060405180830381865afa158015611134573d6000803e3d6000fd5b505050506040513d6000823e601f3d908101601f1916820160405261115c9190810190611ccf565b9250925092508181906111825760405162461bcd60e51b81526004016103d19190611b42565b50600060608060608660e001518060200190518101906111a29190611f4b565b929650909450925090506111b7838383611679565b6001600160a01b038416301461121f5760405162461bcd60e51b815260206004820152602760248201527f54656d706f72616c476f7665726e6f723a20496e636f7272656374206465737460448201526634b730ba34b7b760c91b60648201526084016103d1565b6080870151606088015161ffff1660009081526002602052604090206112449161151f565b6112605760405162461bcd60e51b81526004016103d190611e27565b61014087015160009081526003602052604090205461010090046001600160f81b0316156112e15760405162461bcd60e51b815260206004820152602860248201527f54656d706f72616c476f7665726e6f723a204d65737361676520616c726561646044820152671e481c5d595d595960c21b60648201526084016103d1565b6112ea4261146f565b6101408801516000908152600360205260409081902080546001600160f81b03939093166101000260ff90931692909217909155517fc486294e67e6b98e19d854bb8a606f314e248d45e842a98b09a51be7b13ce2a590611352908690869086908690612103565b60405180910390a15050505050505050565b600080546001600160a01b038381166001600160a01b0319831681178455604051919092169283917f8be0079c531659141344cd1fd0a4f28419497f9722a3daafe3b4186f6b6457e09190a35050565b6000610537825490565b6000610534838361173d565b6113d261141f565b6000805460ff60a01b191690557f5db9ee0a495bf2e6ff9c91a7834c1ba4fdd244a5e8aa4e537bd38aeae4b073aa335b6040516001600160a01b03909116815260200160405180910390a1565b600054600160a01b900460ff166106a45760405162461bcd60e51b815260206004820152601460248201527314185d5cd8589b194e881b9bdd081c185d5cd95960621b60448201526064016103d1565b60006001600160f81b038211156114d85760405162461bcd60e51b815260206004820152602760248201527f53616665436173743a2076616c756520646f65736e27742066697420696e20326044820152663438206269747360c81b60648201526084016103d1565b5090565b6114e4610b85565b6000805460ff60a01b1916600160a01b1790557f62e78cea01bee320cd4e420270b5ea74000d11b0c9f74754ebdbfc544b05a2586114023390565b60008181526001830160205260408120541515610534565b600081815260018301602052604081205461157e57508154600181810184556000848152602080822090930184905584548482528286019093526040902091909155610537565b506000610537565b6000818152600183016020526040812054801561166f5760006115aa6001836121aa565b85549091506000906115be906001906121aa565b90508181146116235760008660000182815481106115de576115de611a9d565b906000526020600020015490508087600001848154811061160157611601611a9d565b6000918252602080832090910192909255918252600188019052604090208390555b8554869080611634576116346121bd565b600190038181906000526020600020016000905590558560010160008681526020019081526020016000206000905560019350505050610537565b6000915050610537565b82516000036116ca5760405162461bcd60e51b815260206004820181905260248201527f54656d706f72616c476f7665726e6f723a20456d7074792070726f706f73616c60448201526064016103d1565b815183511480156116dc575080518351145b6105045760405162461bcd60e51b815260206004820152602c60248201527f54656d706f72616c476f7665726e6f723a204172697479206d69736d6174636860448201526b08199bdc881c185e5b1bd85960a21b60648201526084016103d1565b600082600001828154811061175457611754611a9d565b9060005260206000200154905092915050565b6000806020838503121561177a57600080fd5b823567ffffffffffffffff8082111561179257600080fd5b818501915085601f8301126117a657600080fd5b8135818111156117b557600080fd5b8660208260061b85010111156117ca57600080fd5b60209290920196919550909350505050565b634e487b7160e01b600052604160045260246000fd5b6040516080810167ffffffffffffffff81118282101715611815576118156117dc565b60405290565b604051610160810167ffffffffffffffff81118282101715611815576118156117dc565b604051601f8201601f1916810167ffffffffffffffff81118282101715611868576118686117dc565b604052919050565b600067ffffffffffffffff82111561188a5761188a6117dc565b50601f01601f191660200190565b6000602082840312156118aa57600080fd5b813567ffffffffffffffff8111156118c157600080fd5b8201601f810184136118d257600080fd5b80356118e56118e082611870565b61183f565b8181528560208385010111156118fa57600080fd5b81602084016020830137600091810160200191909152949350505050565b61ffff8116811461051c57600080fd5b6001600160a01b038116811461051c57600080fd5b6000806040838503121561195057600080fd5b823561195b81611918565b9150602083013561196b81611928565b809150509250929050565b60006020828403121561198857600080fd5b813561199381611918565b9392505050565b6020808252825182820181905260009190848201906040850190845b818110156119d2578351835292840192918401916001016119b6565b50909695505050505050565b600080604083850312156119f157600080fd5b82356119fc81611918565b946020939093013593505050565b600060208284031215611a1c57600080fd5b813561199381611928565b600060208284031215611a3957600080fd5b5035919050565b6020808252603f908201527f54656d706f72616c476f7665726e6f723a204f6e6c79207468697320636f6e7460408201527f726163742063616e2075706461746520747275737465642073656e6465727300606082015260800190565b634e487b7160e01b600052603260045260246000fd5b634e487b7160e01b600052601160045260246000fd5b8082018082111561053757610537611ab3565b634e487b7160e01b600052600160045260246000fd5b60005b83811015611b0d578181015183820152602001611af5565b50506000910152565b60008151808452611b2e816020860160208601611af2565b601f01601f19169290920160200192915050565b6020815260006105346020830184611b16565b805160ff81168114611b6657600080fd5b919050565b805163ffffffff81168114611b6657600080fd5b8051611b6681611918565b805167ffffffffffffffff81168114611b6657600080fd5b600082601f830112611bb357600080fd5b8151611bc16118e082611870565b818152846020838601011115611bd657600080fd5b611be7826020830160208701611af2565b949350505050565b600067ffffffffffffffff821115611c0957611c096117dc565b5060051b60200190565b600082601f830112611c2457600080fd5b81516020611c346118e083611bef565b82815260079290921b84018101918181019086841115611c5357600080fd5b8286015b84811015611cb45760808189031215611c705760008081fd5b611c786117f2565b8151815284820151858201526040611c91818401611b55565b908201526060611ca2838201611b55565b90820152835291830191608001611c57565b509695505050505050565b80518015158114611b6657600080fd5b600080600060608486031215611ce457600080fd5b835167ffffffffffffffff80821115611cfc57600080fd5b908501906101608288031215611d1157600080fd5b611d1961181b565b611d2283611b55565b8152611d3060208401611b6b565b6020820152611d4160408401611b6b565b6040820152611d5260608401611b7f565b606082015260808301516080820152611d6d60a08401611b8a565b60a0820152611d7e60c08401611b55565b60c082015260e083015182811115611d9557600080fd5b611da189828601611ba2565b60e083015250610100611db5818501611b6b565b908201526101208381015183811115611dcd57600080fd5b611dd98a828701611c13565b918301919091525061014083810151908201529450611dfa60208701611cbf565b93506040860151915080821115611e1057600080fd5b50611e1d86828701611ba2565b9150509250925092565b60208082526029908201527f54656d706f72616c476f7665726e6f723a20496e76616c696420456d6974746560408201526872204164647265737360b81b606082015260800190565b600082601f830112611e8157600080fd5b81516020611e916118e083611bef565b82815260059290921b84018101918181019086841115611eb057600080fd5b8286015b84811015611cb45780518352918301918301611eb4565b600082601f830112611edc57600080fd5b81516020611eec6118e083611bef565b82815260059290921b84018101918181019086841115611f0b57600080fd5b8286015b84811015611cb457805167ffffffffffffffff811115611f2f5760008081fd5b611f3d8986838b0101611ba2565b845250918301918301611f0f565b60008060008060808587031215611f6157600080fd5b8451611f6c81611928565b8094505060208086015167ffffffffffffffff80821115611f8c57600080fd5b818801915088601f830112611fa057600080fd5b8151611fae6118e082611bef565b81815260059190911b8301840190848101908b831115611fcd57600080fd5b938501935b82851015611ff4578451611fe581611928565b82529385019390850190611fd2565b60408b0151909850945050508083111561200d57600080fd5b61201989848a01611e70565b9450606088015192508083111561202f57600080fd5b505061203d87828801611ecb565b91505092959194509250565b6000825161205b818460208701611af2565b9190910192915050565b60018060a01b038416815282602082015260606040820152600061208c6060830184611b16565b95945050505050565b6000600182016120a7576120a7611ab3565b5060010190565b600081518084526020808501808196508360051b8101915082860160005b858110156120f65782840389526120e4848351611b16565b988501989350908401906001016120cc565b5091979650505050505050565b6001600160a01b0385811682526080602080840182905286519184018290526000928782019290919060a0860190855b81811015612151578551851683529483019491830191600101612133565b5050858103604087015287518082529082019350915080870160005b838110156121895781518552938201939082019060010161216d565b50505050828103606084015261219f81856120ae565b979650505050505050565b8181038181111561053757610537611ab3565b634e487b7160e01b600052603160045260246000fdfea264697066735822122068b10e4169628abfe954b47587c0b25cc97c0e06258ee22b2b2f8115dd2d0c3664736f6c63430008110033",
    "linkReferences": {}
  },
  "methodIdentifiers": {
    "addressToBytes(address)": "ded8454a",
    "allTrustedSenders(uint16)": "8ab9b2e1",
    "executeProposal(bytes)": "30faa259",
    "fastTrackProposalExecution(bytes)": "3f4b28f4",
    "grantGuardiansPause()": "dd310f87",
    "guardianPauseAllowed()": "88516742",
    "isTrustedSender(uint16,address)": "35a2017d",
    "isTrustedSender(uint16,bytes32)": "d4f3826b",
    "lastPauseTime()": "91b4ded9",
    "owner()": "8da5cb5b",
    "paused()": "5c975abb",
    "permissionlessUnpause()": "be6a2f0c",
    "permissionlessUnpauseTime()": "1045e966",
    "proposalDelay()": "a78b17cc",
    "queueProposal(bytes)": "63c6c6a3",
    "queuedTransactions(bytes32)": "f2b06537",
    "renounceOwnership()": "715018a6",
    "revokeGuardian()": "b44be095",
    "setTrustedSenders((uint16,address)[])": "4a354891",
    "togglePause()": "c4ae3168",
    "transferOwnership(address)": "f2fde38b",
    "unSetTrustedSenders((uint16,address)[])": "0878d3fb",
    "wormholeBridge()": "52a80085"
  },
  "id": 78
}