{
  "_format": "hh-sol-artifact-1",
  "contractName": "TokenSaleDistributorProxy",
  "sourceName": "moonwell-contracts-private/contracts/tokensale/TokenSaleDistributorProxy.sol",
  "abi": [
    {
      "inputs": [],
      "stateMutability": "nonpayable",
      "type": "constructor"
    },
    {
      "anonymous": false,
      "inputs": [
        {
          "indexed": false,
          "internalType": "address",
          "name": "newAdmin",
          "type": "address"
        }
      ],
      "name": "AdminChanged",
      "type": "event"
    },
    {
      "anonymous": false,
      "inputs": [
        {
          "indexed": false,
          "internalType": "address",
          "name": "newImpl",
          "type": "address"
        }
      ],
      "name": "ImplChanged",
      "type": "event"
    },
    {
      "stateMutability": "payable",
      "type": "fallback"
    },
    {
      "inputs": [],
      "name": "acceptPendingAdmin",
      "outputs": [],
      "stateMutability": "nonpayable",
      "type": "function"
    },
    {
      "inputs": [],
      "name": "acceptPendingImplementation",
      "outputs": [],
      "stateMutability": "nonpayable",
      "type": "function"
    },
    {
      "inputs": [],
      "name": "admin",
      "outputs": [
        {
          "internalType": "address",
          "name": "",
          "type": "address"
        }
      ],
      "stateMutability": "view",
      "type": "function"
    },
    {
      "inputs": [],
      "name": "implementation",
      "outputs": [
        {
          "internalType": "address",
          "name": "",
          "type": "address"
        }
      ],
      "stateMutability": "view",
      "type": "function"
    },
    {
      "inputs": [],
      "name": "pendingAdmin",
      "outputs": [
        {
          "internalType": "address",
          "name": "",
          "type": "address"
        }
      ],
      "stateMutability": "view",
      "type": "function"
    },
    {
      "inputs": [],
      "name": "pendingImplementation",
      "outputs": [
        {
          "internalType": "address",
          "name": "",
          "type": "address"
        }
      ],
      "stateMutability": "view",
      "type": "function"
    },
    {
      "inputs": [
        {
          "internalType": "address",
          "name": "newAdmin",
          "type": "address"
        }
      ],
      "name": "setPendingAdmin",
      "outputs": [],
      "stateMutability": "nonpayable",
      "type": "function"
    },
    {
      "inputs": [
        {
          "internalType": "address",
          "name": "newImplementation",
          "type": "address"
        }
      ],
      "name": "setPendingImplementation",
      "outputs": [],
      "stateMutability": "nonpayable",
      "type": "function"
    }
  ],
  "bytecode": "0x608060405234801561001057600080fd5b506001600081905580546001600160a01b031916331790556107cf806100376000396000f3fe60806040526004361061007b5760003560e01c80634dd18bf51161004e5780634dd18bf5146101be5780635c60da1b146101de578063709920c11461020b578063f851a440146102205761007b565b806309ed43c91461010457806316ec205c14610126578063267822471461013b578063396f7b2314610191575b60035460405160009173ffffffffffffffffffffffffffffffffffffffff16906100a8908390369061074c565b600060405180830381855af49150503d80600081146100e3576040519150601f19603f3d011682016040523d82523d6000602084013e6100e8565b606091505b505090506040513d806000833e828015610100578183f35b8183fd5b34801561011057600080fd5b5061012461011f36600461075c565b61024d565b005b34801561013257600080fd5b50610124610397565b34801561014757600080fd5b506002546101689073ffffffffffffffffffffffffffffffffffffffff1681565b60405173ffffffffffffffffffffffffffffffffffffffff909116815260200160405180910390f35b34801561019d57600080fd5b506004546101689073ffffffffffffffffffffffffffffffffffffffff1681565b3480156101ca57600080fd5b506101246101d936600461075c565b6104e5565b3480156101ea57600080fd5b506003546101689073ffffffffffffffffffffffffffffffffffffffff1681565b34801561021757600080fd5b5061012461062a565b34801561022c57600080fd5b506001546101689073ffffffffffffffffffffffffffffffffffffffff1681565b60015473ffffffffffffffffffffffffffffffffffffffff1633146102d3576040517f08c379a000000000000000000000000000000000000000000000000000000000815260206004820152600a60248201527f61646d696e206f6e6c790000000000000000000000000000000000000000000060448201526064015b60405180910390fd5b73ffffffffffffffffffffffffffffffffffffffff8116610350576040517f08c379a000000000000000000000000000000000000000000000000000000000815260206004820152601a60248201527f43616e6e6f742073657420746f207a65726f206164647265737300000000000060448201526064016102ca565b600480547fffffffffffffffffffffffff00000000000000000000000000000000000000001673ffffffffffffffffffffffffffffffffffffffff92909216919091179055565b60045473ffffffffffffffffffffffffffffffffffffffff16331480156103d5575060045473ffffffffffffffffffffffffffffffffffffffff1615155b610461576040517f08c379a000000000000000000000000000000000000000000000000000000000815260206004820152603660248201527f4f6e6c79207468652070656e64696e6720696d706c656d656e746174696f6e2060448201527f636f6e74726163742063616e2063616c6c20746869730000000000000000000060648201526084016102ca565b600480546003805473ffffffffffffffffffffffffffffffffffffffff83167fffffffffffffffffffffffff000000000000000000000000000000000000000091821681179092559091169091556040519081527f71c6652673eb67790348b38b966a87b710bf7596bafa96d43f09f9c6872bd5a1906020015b60405180910390a1565b60015473ffffffffffffffffffffffffffffffffffffffff163314610566576040517f08c379a000000000000000000000000000000000000000000000000000000000815260206004820152600a60248201527f61646d696e206f6e6c790000000000000000000000000000000000000000000060448201526064016102ca565b73ffffffffffffffffffffffffffffffffffffffff81166105e3576040517f08c379a000000000000000000000000000000000000000000000000000000000815260206004820152601a60248201527f43616e6e6f742073657420746f207a65726f206164647265737300000000000060448201526064016102ca565b600280547fffffffffffffffffffffffff00000000000000000000000000000000000000001673ffffffffffffffffffffffffffffffffffffffff92909216919091179055565b60025473ffffffffffffffffffffffffffffffffffffffff1633148015610668575060025473ffffffffffffffffffffffffffffffffffffffff1615155b6106ce576040517f08c379a000000000000000000000000000000000000000000000000000000000815260206004820181905260248201527f43616c6c6572206d757374206265207468652070656e64696e672061646d696e60448201526064016102ca565b600280546001805473ffffffffffffffffffffffffffffffffffffffff83167fffffffffffffffffffffffff000000000000000000000000000000000000000091821681179092559091169091556040519081527f7ce7ec0b50378fb6c0186ffb5f48325f6593fcb4ca4386f21861af3129188f5c906020016104db565b8183823760009101908152919050565b60006020828403121561076e57600080fd5b813573ffffffffffffffffffffffffffffffffffffffff8116811461079257600080fd5b939250505056fea2646970667358221220dd7e6a5197874b821c183df0f03cfbb8bb6872f033e316da4ffd55f41adad3f264736f6c634300080a0033",
  "linkReferences": {},
  "deployedLinkReferences": {}
}