{
  "abi": [
    {
      "inputs": [],
      "stateMutability": "nonpayable",
      "type": "constructor"
    },
    {
      "anonymous": false,
      "inputs": [
        {
          "indexed": false,
          "internalType": "uint256",
          "name": "error",
          "type": "uint256"
        },
        {
          "indexed": false,
          "internalType": "uint256",
          "name": "info",
          "type": "uint256"
        },
        {
          "indexed": false,
          "internalType": "uint256",
          "name": "detail",
          "type": "uint256"
        }
      ],
      "name": "Failure",
      "type": "event"
    },
    {
      "anonymous": false,
      "inputs": [
        {
          "indexed": false,
          "internalType": "address",
          "name": "oldAdmin",
          "type": "address"
        },
        {
          "indexed": false,
          "internalType": "address",
          "name": "newAdmin",
          "type": "address"
        }
      ],
      "name": "NewAdmin",
      "type": "event"
    },
    {
      "anonymous": false,
      "inputs": [
        {
          "indexed": false,
          "internalType": "address",
          "name": "oldImplementation",
          "type": "address"
        },
        {
          "indexed": false,
          "internalType": "address",
          "name": "newImplementation",
          "type": "address"
        }
      ],
      "name": "NewImplementation",
      "type": "event"
    },
    {
      "anonymous": false,
      "inputs": [
        {
          "indexed": false,
          "internalType": "address",
          "name": "oldPendingAdmin",
          "type": "address"
        },
        {
          "indexed": false,
          "internalType": "address",
          "name": "newPendingAdmin",
          "type": "address"
        }
      ],
      "name": "NewPendingAdmin",
      "type": "event"
    },
    {
      "anonymous": false,
      "inputs": [
        {
          "indexed": false,
          "internalType": "address",
          "name": "oldPendingImplementation",
          "type": "address"
        },
        {
          "indexed": false,
          "internalType": "address",
          "name": "newPendingImplementation",
          "type": "address"
        }
      ],
      "name": "NewPendingImplementation",
      "type": "event"
    },
    {
      "stateMutability": "nonpayable",
      "type": "fallback"
    },
    {
      "inputs": [],
      "name": "_acceptAdmin",
      "outputs": [
        {
          "internalType": "uint256",
          "name": "",
          "type": "uint256"
        }
      ],
      "stateMutability": "nonpayable",
      "type": "function"
    },
    {
      "inputs": [],
      "name": "_acceptImplementation",
      "outputs": [
        {
          "internalType": "uint256",
          "name": "",
          "type": "uint256"
        }
      ],
      "stateMutability": "nonpayable",
      "type": "function"
    },
    {
      "inputs": [
        {
          "internalType": "address",
          "name": "newPendingAdmin",
          "type": "address"
        }
      ],
      "name": "_setPendingAdmin",
      "outputs": [
        {
          "internalType": "uint256",
          "name": "",
          "type": "uint256"
        }
      ],
      "stateMutability": "nonpayable",
      "type": "function"
    },
    {
      "inputs": [
        {
          "internalType": "address",
          "name": "newPendingImplementation",
          "type": "address"
        }
      ],
      "name": "_setPendingImplementation",
      "outputs": [
        {
          "internalType": "uint256",
          "name": "",
          "type": "uint256"
        }
      ],
      "stateMutability": "nonpayable",
      "type": "function"
    },
    {
      "inputs": [],
      "name": "admin",
      "outputs": [
        {
          "internalType": "address",
          "name": "",
          "type": "address"
        }
      ],
      "stateMutability": "view",
      "type": "function"
    },
    {
      "inputs": [],
      "name": "comptrollerImplementation",
      "outputs": [
        {
          "internalType": "address",
          "name": "",
          "type": "address"
        }
      ],
      "stateMutability": "view",
      "type": "function"
    },
    {
      "inputs": [],
      "name": "pendingAdmin",
      "outputs": [
        {
          "internalType": "address",
          "name": "",
          "type": "address"
        }
      ],
      "stateMutability": "view",
      "type": "function"
    },
    {
      "inputs": [],
      "name": "pendingComptrollerImplementation",
      "outputs": [
        {
          "internalType": "address",
          "name": "",
          "type": "address"
        }
      ],
      "stateMutability": "view",
      "type": "function"
    }
  ],
  "bytecode": {
    "object": "0x608060405234801561001057600080fd5b50600080546001600160a01b03191633179055610584806100326000396000f3fe608060405234801561001057600080fd5b50600436106100885760003560e01c8063dcfbc0c71161005b578063dcfbc0c71461016f578063e992a04114610182578063e9c714f214610195578063f851a4401461019d57610088565b80632678224714610103578063b71d1a0c14610133578063bb82aa5e14610154578063c1e8033414610167575b6002546040516000916001600160a01b0316906100a890839036906104ff565b600060405180830381855af49150503d80600081146100e3576040519150601f19603f3d011682016040523d82523d6000602084013e6100e8565b606091505b505090506040513d6000823e8180156100ff573d82f35b3d82fd5b600154610116906001600160a01b031681565b6040516001600160a01b0390911681526020015b60405180910390f35b61014661014136600461050f565b6101b0565b60405190815260200161012a565b600254610116906001600160a01b031681565b61014661023d565b600354610116906001600160a01b031681565b61014661019036600461050f565b610333565b6101466103ac565b600054610116906001600160a01b031681565b600080546001600160a01b031633146101d5576101cf6001600e610486565b92915050565b600180546001600160a01b038481166001600160a01b031983168117909355604080519190921680825260208201939093527fca4f2f25d0898edd99413412fb94012f9e54ec8142f9b093e7720646a95b16a991015b60405180910390a160005b9392505050565b6003546000906001600160a01b03163314158061026357506003546001600160a01b0316155b1561027857610273600180610486565b905090565b60028054600380546001600160a01b038082166001600160a01b031980861682179096559490911690915560408051919092168082526020820184905292917fd604de94d45953f9138079ec1b82d533cb2160c906d1076d1f7ed54befbca97a910160405180910390a1600354604080516001600160a01b03808516825290921660208301527fe945ccee5d701fc83f9b8aa8ca94ea4219ec1fcbd4f4cab4f0ea57c5c3e1d81591015b60405180910390a160009250505090565b600080546001600160a01b03163314610352576101cf6001600f610486565b600380546001600160a01b038481166001600160a01b031983168117909355604080519190921680825260208201939093527fe945ccee5d701fc83f9b8aa8ca94ea4219ec1fcbd4f4cab4f0ea57c5c3e1d815910161022b565b6001546000906001600160a01b0316331415806103c7575033155b156103d85761027360016000610486565b60008054600180546001600160a01b038082166001600160a01b031980861682179096559490911690915560408051919092168082526020820184905292917ff9ffabca9c8276e99321725bcb43fb076a6c66a54b7f21c4e8146d8519b417dc910160405180910390a1600154604080516001600160a01b03808516825290921660208301527fca4f2f25d0898edd99413412fb94012f9e54ec8142f9b093e7720646a95b16a99101610322565b60007f45b96fe442630264581b197e84bbada861235052c5a1aadfff9ea4e40a969aa08360118111156104bb576104bb610538565b8360148111156104cd576104cd610538565b60408051928352602083019190915260009082015260600160405180910390a182601181111561023657610236610538565b8183823760009101908152919050565b60006020828403121561052157600080fd5b81356001600160a01b038116811461023657600080fd5b634e487b7160e01b600052602160045260246000fdfea2646970667358221220e2e3b193e41337f5071c35053b526a0b1be4a21454ded7c19ee02d78e5f7614764736f6c63430008110033",
    "linkReferences": {}
  },
  "methodIdentifiers": {
    "_acceptAdmin()": "e9c714f2",
    "_acceptImplementation()": "c1e80334",
    "_setPendingAdmin(address)": "b71d1a0c",
    "_setPendingImplementation(address)": "e992a041",
    "admin()": "f851a440",
    "comptrollerImplementation()": "bb82aa5e",
    "pendingAdmin()": "26782247",
    "pendingComptrollerImplementation()": "dcfbc0c7"
  },
  "id": 102
}