{
  "abi": [
    {
      "type": "constructor",
      "inputs": [],
      "stateMutability": "nonpayable"
    },
    {
      "type": "function",
      "name": "acceptOwnership",
      "inputs": [],
      "outputs": [],
      "stateMutability": "nonpayable"
    },
    {
      "type": "function",
      "name": "bridgeCost",
      "inputs": [
        {
          "name": "dstWormholeChainId",
          "type": "uint16",
          "internalType": "uint16"
        }
      ],
      "outputs": [
        {
          "name": "gasCost",
          "type": "uint256",
          "internalType": "uint256"
        }
      ],
      "stateMutability": "view"
    },
    {
      "type": "function",
      "name": "bridgeCostAll",
      "inputs": [],
      "outputs": [
        {
          "name": "",
          "type": "uint256",
          "internalType": "uint256"
        }
      ],
      "stateMutability": "view"
    },
    {
      "type": "function",
      "name": "castVote",
      "inputs": [
        {
          "name": "proposalId",
          "type": "uint256",
          "internalType": "uint256"
        },
        {
          "name": "voteValue",
          "type": "uint8",
          "internalType": "uint8"
        }
      ],
      "outputs": [],
      "stateMutability": "nonpayable"
    },
    {
      "type": "function",
      "name": "emitVotes",
      "inputs": [
        {
          "name": "proposalId",
          "type": "uint256",
          "internalType": "uint256"
        }
      ],
      "outputs": [],
      "stateMutability": "payable"
    },
    {
      "type": "function",
      "name": "fromWormholeFormat",
      "inputs": [
        {
          "name": "whFormatAddress",
          "type": "bytes32",
          "internalType": "bytes32"
        }
      ],
      "outputs": [
        {
          "name": "",
          "type": "address",
          "internalType": "address"
        }
      ],
      "stateMutability": "pure"
    },
    {
      "type": "function",
      "name": "gasLimit",
      "inputs": [],
      "outputs": [
        {
          "name": "",
          "type": "uint96",
          "internalType": "uint96"
        }
      ],
      "stateMutability": "view"
    },
    {
      "type": "function",
      "name": "getAllTargetChains",
      "inputs": [],
      "outputs": [
        {
          "name": "",
          "type": "uint16[]",
          "internalType": "uint16[]"
        }
      ],
      "stateMutability": "view"
    },
    {
      "type": "function",
      "name": "getAllTargetChainsLength",
      "inputs": [],
      "outputs": [
        {
          "name": "",
          "type": "uint256",
          "internalType": "uint256"
        }
      ],
      "stateMutability": "view"
    },
    {
      "type": "function",
      "name": "getReceipt",
      "inputs": [
        {
          "name": "proposalId",
          "type": "uint256",
          "internalType": "uint256"
        },
        {
          "name": "voter",
          "type": "address",
          "internalType": "address"
        }
      ],
      "outputs": [
        {
          "name": "hasVoted",
          "type": "bool",
          "internalType": "bool"
        },
        {
          "name": "voteValue",
          "type": "uint8",
          "internalType": "uint8"
        },
        {
          "name": "votes",
          "type": "uint256",
          "internalType": "uint256"
        }
      ],
      "stateMutability": "view"
    },
    {
      "type": "function",
      "name": "getVotes",
      "inputs": [
        {
          "name": "account",
          "type": "address",
          "internalType": "address"
        },
        {
          "name": "timestamp",
          "type": "uint256",
          "internalType": "uint256"
        }
      ],
      "outputs": [
        {
          "name": "",
          "type": "uint256",
          "internalType": "uint256"
        }
      ],
      "stateMutability": "view"
    },
    {
      "type": "function",
      "name": "initialize",
      "inputs": [
        {
          "name": "_xWell",
          "type": "address",
          "internalType": "address"
        },
        {
          "name": "_stkWell",
          "type": "address",
          "internalType": "address"
        },
        {
          "name": "_moonbeamGovernor",
          "type": "address",
          "internalType": "address"
        },
        {
          "name": "_wormholeRelayer",
          "type": "address",
          "internalType": "address"
        },
        {
          "name": "_moonbeamWormholeChainId",
          "type": "uint16",
          "internalType": "uint16"
        },
        {
          "name": "_owner",
          "type": "address",
          "internalType": "address"
        }
      ],
      "outputs": [],
      "stateMutability": "nonpayable"
    },
    {
      "type": "function",
      "name": "isTrustedSender",
      "inputs": [
        {
          "name": "chainId",
          "type": "uint16",
          "internalType": "uint16"
        },
        {
          "name": "addr",
          "type": "address",
          "internalType": "address"
        }
      ],
      "outputs": [
        {
          "name": "",
          "type": "bool",
          "internalType": "bool"
        }
      ],
      "stateMutability": "view"
    },
    {
      "type": "function",
      "name": "isTrustedSender",
      "inputs": [
        {
          "name": "chainId",
          "type": "uint16",
          "internalType": "uint16"
        },
        {
          "name": "addr",
          "type": "bytes32",
          "internalType": "bytes32"
        }
      ],
      "outputs": [
        {
          "name": "",
          "type": "bool",
          "internalType": "bool"
        }
      ],
      "stateMutability": "view"
    },
    {
      "type": "function",
      "name": "owner",
      "inputs": [],
      "outputs": [
        {
          "name": "",
          "type": "address",
          "internalType": "address"
        }
      ],
      "stateMutability": "view"
    },
    {
      "type": "function",
      "name": "pendingOwner",
      "inputs": [],
      "outputs": [
        {
          "name": "",
          "type": "address",
          "internalType": "address"
        }
      ],
      "stateMutability": "view"
    },
    {
      "type": "function",
      "name": "processedNonces",
      "inputs": [
        {
          "name": "nonce",
          "type": "bytes32",
          "internalType": "bytes32"
        }
      ],
      "outputs": [
        {
          "name": "processed",
          "type": "bool",
          "internalType": "bool"
        }
      ],
      "stateMutability": "view"
    },
    {
      "type": "function",
      "name": "proposalInformation",
      "inputs": [
        {
          "name": "proposalId",
          "type": "uint256",
          "internalType": "uint256"
        }
      ],
      "outputs": [
        {
          "name": "voteSnapshotTimestamp",
          "type": "uint256",
          "internalType": "uint256"
        },
        {
          "name": "votingStartTime",
          "type": "uint256",
          "internalType": "uint256"
        },
        {
          "name": "votingEndTime",
          "type": "uint256",
          "internalType": "uint256"
        },
        {
          "name": "crossChainVoteCollectionEndTimestamp",
          "type": "uint256",
          "internalType": "uint256"
        },
        {
          "name": "totalVotes",
          "type": "uint256",
          "internalType": "uint256"
        },
        {
          "name": "forVotes",
          "type": "uint256",
          "internalType": "uint256"
        },
        {
          "name": "againstVotes",
          "type": "uint256",
          "internalType": "uint256"
        },
        {
          "name": "abstainVotes",
          "type": "uint256",
          "internalType": "uint256"
        }
      ],
      "stateMutability": "view"
    },
    {
      "type": "function",
      "name": "proposalVotes",
      "inputs": [
        {
          "name": "proposalId",
          "type": "uint256",
          "internalType": "uint256"
        }
      ],
      "outputs": [
        {
          "name": "totalVotes",
          "type": "uint256",
          "internalType": "uint256"
        },
        {
          "name": "forVotes",
          "type": "uint256",
          "internalType": "uint256"
        },
        {
          "name": "againstVotes",
          "type": "uint256",
          "internalType": "uint256"
        },
        {
          "name": "abstainVotes",
          "type": "uint256",
          "internalType": "uint256"
        }
      ],
      "stateMutability": "view"
    },
    {
      "type": "function",
      "name": "proposals",
      "inputs": [
        {
          "name": "proposalId",
          "type": "uint256",
          "internalType": "uint256"
        }
      ],
      "outputs": [
        {
          "name": "votingStartTime",
          "type": "uint256",
          "internalType": "uint256"
        },
        {
          "name": "voteSnapshotTimestamp",
          "type": "uint256",
          "internalType": "uint256"
        },
        {
          "name": "votingEndTime",
          "type": "uint256",
          "internalType": "uint256"
        },
        {
          "name": "crossChainVoteCollectionEndTimestamp",
          "type": "uint256",
          "internalType": "uint256"
        },
        {
          "name": "votes",
          "type": "tuple",
          "internalType": "struct IMultichainVoteCollection.MultichainVotes",
          "components": [
            {
              "name": "forVotes",
              "type": "uint256",
              "internalType": "uint256"
            },
            {
              "name": "againstVotes",
              "type": "uint256",
              "internalType": "uint256"
            },
            {
              "name": "abstainVotes",
              "type": "uint256",
              "internalType": "uint256"
            },
            {
              "name": "totalVotes",
              "type": "uint256",
              "internalType": "uint256"
            }
          ]
        }
      ],
      "stateMutability": "view"
    },
    {
      "type": "function",
      "name": "receiveWormholeMessages",
      "inputs": [
        {
          "name": "payload",
          "type": "bytes",
          "internalType": "bytes"
        },
        {
          "name": "",
          "type": "bytes[]",
          "internalType": "bytes[]"
        },
        {
          "name": "senderAddress",
          "type": "bytes32",
          "internalType": "bytes32"
        },
        {
          "name": "sourceChain",
          "type": "uint16",
          "internalType": "uint16"
        },
        {
          "name": "nonce",
          "type": "bytes32",
          "internalType": "bytes32"
        }
      ],
      "outputs": [],
      "stateMutability": "payable"
    },
    {
      "type": "function",
      "name": "renounceOwnership",
      "inputs": [],
      "outputs": [],
      "stateMutability": "nonpayable"
    },
    {
      "type": "function",
      "name": "setGasLimit",
      "inputs": [
        {
          "name": "newGasLimit",
          "type": "uint96",
          "internalType": "uint96"
        }
      ],
      "outputs": [],
      "stateMutability": "nonpayable"
    },
    {
      "type": "function",
      "name": "setNewStakedWell",
      "inputs": [
        {
          "name": "newStakedWell",
          "type": "address",
          "internalType": "address"
        }
      ],
      "outputs": [],
      "stateMutability": "nonpayable"
    },
    {
      "type": "function",
      "name": "stkWell",
      "inputs": [],
      "outputs": [
        {
          "name": "",
          "type": "address",
          "internalType": "contract SnapshotInterface"
        }
      ],
      "stateMutability": "view"
    },
    {
      "type": "function",
      "name": "targetAddress",
      "inputs": [
        {
          "name": "chainId",
          "type": "uint16",
          "internalType": "uint16"
        }
      ],
      "outputs": [
        {
          "name": "target",
          "type": "address",
          "internalType": "address"
        }
      ],
      "stateMutability": "view"
    },
    {
      "type": "function",
      "name": "transferOwnership",
      "inputs": [
        {
          "name": "newOwner",
          "type": "address",
          "internalType": "address"
        }
      ],
      "outputs": [],
      "stateMutability": "nonpayable"
    },
    {
      "type": "function",
      "name": "wormholeRelayer",
      "inputs": [],
      "outputs": [
        {
          "name": "",
          "type": "address",
          "internalType": "contract IWormholeRelayer"
        }
      ],
      "stateMutability": "view"
    },
    {
      "type": "function",
      "name": "xWell",
      "inputs": [],
      "outputs": [
        {
          "name": "",
          "type": "address",
          "internalType": "contract xWELL"
        }
      ],
      "stateMutability": "view"
    },
    {
      "type": "event",
      "name": "BridgeOutFailed",
      "inputs": [
        {
          "name": "dstChainId",
          "type": "uint16",
          "indexed": false,
          "internalType": "uint16"
        },
        {
          "name": "payload",
          "type": "bytes",
          "indexed": false,
          "internalType": "bytes"
        },
        {
          "name": "refundAmount",
          "type": "uint256",
          "indexed": false,
          "internalType": "uint256"
        }
      ],
      "anonymous": false
    },
    {
      "type": "event",
      "name": "BridgeOutSuccess",
      "inputs": [
        {
          "name": "dstWormholeChainId",
          "type": "uint16",
          "indexed": false,
          "internalType": "uint16"
        },
        {
          "name": "cost",
          "type": "uint256",
          "indexed": false,
          "internalType": "uint256"
        },
        {
          "name": "dst",
          "type": "address",
          "indexed": false,
          "internalType": "address"
        },
        {
          "name": "payload",
          "type": "bytes",
          "indexed": false,
          "internalType": "bytes"
        }
      ],
      "anonymous": false
    },
    {
      "type": "event",
      "name": "GasLimitUpdated",
      "inputs": [
        {
          "name": "oldGasLimit",
          "type": "uint96",
          "indexed": false,
          "internalType": "uint96"
        },
        {
          "name": "newGasLimit",
          "type": "uint96",
          "indexed": false,
          "internalType": "uint96"
        }
      ],
      "anonymous": false
    },
    {
      "type": "event",
      "name": "Initialized",
      "inputs": [
        {
          "name": "version",
          "type": "uint8",
          "indexed": false,
          "internalType": "uint8"
        }
      ],
      "anonymous": false
    },
    {
      "type": "event",
      "name": "NewStakedWellSet",
      "inputs": [
        {
          "name": "newStakedWell",
          "type": "address",
          "indexed": false,
          "internalType": "address"
        }
      ],
      "anonymous": false
    },
    {
      "type": "event",
      "name": "OwnershipTransferStarted",
      "inputs": [
        {
          "name": "previousOwner",
          "type": "address",
          "indexed": true,
          "internalType": "address"
        },
        {
          "name": "newOwner",
          "type": "address",
          "indexed": true,
          "internalType": "address"
        }
      ],
      "anonymous": false
    },
    {
      "type": "event",
      "name": "OwnershipTransferred",
      "inputs": [
        {
          "name": "previousOwner",
          "type": "address",
          "indexed": true,
          "internalType": "address"
        },
        {
          "name": "newOwner",
          "type": "address",
          "indexed": true,
          "internalType": "address"
        }
      ],
      "anonymous": false
    },
    {
      "type": "event",
      "name": "ProposalCreated",
      "inputs": [
        {
          "name": "proposalId",
          "type": "uint256",
          "indexed": false,
          "internalType": "uint256"
        },
        {
          "name": "votingStartTime",
          "type": "uint256",
          "indexed": false,
          "internalType": "uint256"
        },
        {
          "name": "votingEndTime",
          "type": "uint256",
          "indexed": false,
          "internalType": "uint256"
        },
        {
          "name": "votingCollectionEndTime",
          "type": "uint256",
          "indexed": false,
          "internalType": "uint256"
        }
      ],
      "anonymous": false
    },
    {
      "type": "event",
      "name": "TargetAddressUpdated",
      "inputs": [
        {
          "name": "dstChainId",
          "type": "uint16",
          "indexed": true,
          "internalType": "uint16"
        },
        {
          "name": "target",
          "type": "address",
          "indexed": true,
          "internalType": "address"
        }
      ],
      "anonymous": false
    },
    {
      "type": "event",
      "name": "VoteCast",
      "inputs": [
        {
          "name": "voter",
          "type": "address",
          "indexed": false,
          "internalType": "address"
        },
        {
          "name": "proposalId",
          "type": "uint256",
          "indexed": false,
          "internalType": "uint256"
        },
        {
          "name": "voteValue",
          "type": "uint8",
          "indexed": false,
          "internalType": "uint8"
        },
        {
          "name": "votes",
          "type": "uint256",
          "indexed": false,
          "internalType": "uint256"
        }
      ],
      "anonymous": false
    },
    {
      "type": "event",
      "name": "VotesEmitted",
      "inputs": [
        {
          "name": "proposalId",
          "type": "uint256",
          "indexed": false,
          "internalType": "uint256"
        },
        {
          "name": "forVotes",
          "type": "uint256",
          "indexed": false,
          "internalType": "uint256"
        },
        {
          "name": "againstVotes",
          "type": "uint256",
          "indexed": false,
          "internalType": "uint256"
        },
        {
          "name": "abstainVotes",
          "type": "uint256",
          "indexed": false,
          "internalType": "uint256"
        }
      ],
      "anonymous": false
    }
  ],
  "bytecode": {
    "object": "0x608060405234801561001057600080fd5b5061001961001e565b6100dd565b600554610100900460ff161561008a5760405162461bcd60e51b815260206004820152602760248201527f496e697469616c697a61626c653a20636f6e747261637420697320696e697469604482015266616c697a696e6760c81b606482015260840160405180910390fd5b60055460ff908116146100db576005805460ff191660ff9081179091556040519081527f7f26b83ff96e1f2b6a682f133852f6798a09c465da95921460cefb38474024989060200160405180910390a15b565b6124bc80620000ed6000396000f3fe6080604052600436106101525760003560e01c8063013cf08b146101575780630d3cfee21461021c5780631fb6b1321461024957806325bcde0d146102e357806335a2017d1461030557806337d6d16214610335578063404a4edb14610363578063406ea4a214610393578063529dca32146103b3578063544ffc9c146103c6578063567813881461041c5780636d6b1ac91461043c578063715018a61461044f57806379ba5097146104645780638086c34f146104795780638da5cb5b14610499578063912f8a65146104ae5780639ba9c39d146104c35780639ffe56f7146104d8578063ae8e397f146104f8578063d4f3826b1461052e578063da25b7251461054e578063e17563df14610575578063e23a9a5214610595578063e30c39781461060e578063eb9019d414610623578063f2fde38b14610643578063f68016b714610663578063f9bae9d01461069b575b600080fd5b34801561016357600080fd5b506101ce610172366004611d6c565b609e60209081526000918252604091829020805460018201546002830154600384015486516080810188526004860154815260058601549681019690965260068501549686019690965260079093015460608501529093909285565b6040805195865260208087019590955285810193909352606080860192909252805160808601529283015160a08501529082015160c0840152015160e0820152610100015b60405180910390f35b34801561022857600080fd5b50609d5461023c906001600160a01b031681565b6040516102139190611d85565b34801561025557600080fd5b506102a8610264366004611d6c565b6000908152609e6020526040902060018101548154600283015460038401546007850154600486015460058701546006909701549597949693959294919390929091565b604080519889526020890197909752958701949094526060860192909252608085015260a084015260c083015260e082015261010001610213565b3480156102ef57600080fd5b506103036102fe366004611db0565b6106bd565b005b34801561031157600080fd5b50610325610320366004611ddd565b61071b565b6040519015158152602001610213565b34801561034157600080fd5b50610355610350366004611e10565b610744565b604051908152602001610213565b34801561036f57600080fd5b5061032561037e366004611d6c565b60016020526000908152604090205460ff1681565b34801561039f57600080fd5b50609c5461023c906001600160a01b031681565b6103036103c1366004611ee0565b6107dd565b3480156103d257600080fd5b5061040c6103e1366004611d6c565b6000908152609e60205260409020600781015460048201546005830154600690930154919390929190565b6040516102139493929190611fe8565b34801561042857600080fd5b50610303610437366004612003565b61099c565b61030361044a366004611d6c565b610c7b565b34801561045b57600080fd5b50610303610e2b565b34801561047057600080fd5b50610303610e3f565b34801561048557600080fd5b50610303610494366004612039565b610ebd565b3480156104a557600080fd5b5061023c61102c565b3480156104ba57600080fd5b5061035561103b565b3480156104cf57600080fd5b50610355611080565b3480156104e457600080fd5b506103036104f33660046120ad565b611091565b34801561050457600080fd5b5061023c610513366004611e10565b6002602052600090815260409020546001600160a01b031681565b34801561053a57600080fd5b506103256105493660046120d6565b611112565b34801561055a57600080fd5b5060005461023c90600160601b90046001600160a01b031681565b34801561058157600080fd5b5061023c610590366004611d6c565b611128565b3480156105a157600080fd5b506105ef6105b0366004612100565b6000918252609e602090815260408084206001600160a01b039093168452600890920190529020805460019091015460ff808316936101009093041691565b60408051931515845260ff909216602084015290820152606001610213565b34801561061a57600080fd5b5061023c611180565b34801561062f57600080fd5b5061035561063e366004612123565b61118f565b34801561064f57600080fd5b5061030361065e366004611db0565b611280565b34801561066f57600080fd5b50600054610683906001600160601b031681565b6040516001600160601b039091168152602001610213565b3480156106a757600080fd5b506106b06112e6565b604051610213919061213f565b6106c5611386565b609d80546001600160a01b0319166001600160a01b0383161790556040517f43dfe988c048a907024e51a61dc9248b3f56c2fdc4dc81d8102fd83d47f4549390610710908390611d85565b60405180910390a150565b61ffff82166000908152600260205260409020546001600160a01b038281169116145b92915050565b6000805460405163c23ee3c360e01b815261ffff84166004820152602481018390526001600160601b0382166044820152600160601b9091046001600160a01b03169063c23ee3c3906064016040805180830381865afa9250505080156107c8575060408051601f3d908101601f191682019092526107c591810190612187565b60015b6107d457506000919050565b5090505b919050565b34156108305760405162461bcd60e51b815260206004820181905260248201527f576f726d686f6c654272696467653a206e6f2076616c756520616c6c6f77656460448201526064015b60405180910390fd5b600054600160601b90046001600160a01b0316331461089d5760405162461bcd60e51b8152602060048201526024808201527f576f726d686f6c654272696467653a206f6e6c792072656c6179657220616c6c6044820152631bddd95960e21b6064820152608401610827565b6108a78284611112565b6108fe5760405162461bcd60e51b815260206004820152602260248201527f576f726d686f6c654272696467653a2073656e646572206e6f74207472757374604482015261195960f21b6064820152608401610827565b60008181526001602052604090205460ff161561096f5760405162461bcd60e51b815260206004820152602960248201527f576f726d686f6c654272696467653a206d65737361676520616c7265616479206044820152681c1c9bd8d95cdcd95960ba1b6064820152608401610827565b6000818152600160208190526040909120805460ff1916909117905561099582866113e5565b5050505050565b6000828152609e602052604090208054421015610a065760405162461bcd60e51b81526020600482015260346024820152600080516020612467833981519152604482015273081a185cc81b9bdd081cdd185c9d1959081e595d60621b6064820152608401610827565b4281600201541015610a5b5760405162461bcd60e51b815260206004820152602a6024820152600080516020612467833981519152604482015269081a185cc8195b99195960b21b6064820152608401610827565b600260ff83161115610ab25760405162461bcd60e51b815260206004820152602c60248201526000805160206123e783398151915260448201526b6420766f74652076616c756560a01b6064820152608401610827565b3360009081526008820160205260409020805460ff1615610b195760405162461bcd60e51b815260206004820152602d60248201526000805160206123c783398151915260448201526c185b1c9958591e481d9bdd1959609a1b6064820152608401610827565b6000610b2933846001015461118f565b905080600003610b7e5760405162461bcd60e51b815260206004820152602c60248201526000805160206123c783398151915260448201526b686173206e6f20766f74657360a01b6064820152608401610827565b6004830160ff8516610ba95781816000016000828254610b9e91906121ab565b90915550610bef9050565b60001960ff861601610bc95781816001016000828254610b9e91906121ab565b60011960ff861601610bef5781816002016000828254610be991906121ab565b90915550505b81816003016000828254610c0391906121ab565b9091555050825460ff8616610100810261ffff1990921691909117600190811785558401839055604080513381526020810189905290810191909152606081018390527f2c9deb38f462962eadbd85a9d3a4120503ee091f1582eaaa10aa8c6797651d299060800160405180910390a1505050505050565b6000818152609e6020526040902060078101546004820190610ce55760405162461bcd60e51b815260206004820152602f602482015260008051602061240783398151915260448201526e616c20686173206e6f20766f74657360881b6064820152608401610827565b42826002015410610d3d5760405162461bcd60e51b815260206004820152602e602482015260008051602061246783398151915260448201526d081a185cc81b9bdd08195b99195960921b6064820152608401610827565b4282600301541015610da35760405162461bcd60e51b815260206004820152603b602482015260008051602061246783398151915260448201527a0818dbdb1b1958dd1a5bdb881c1a185cd9481a185cc8195b991959602a1b6064820152608401610827565b610ddd83826000015483600101548460020154604051602001610dc99493929190611fe8565b6040516020818303038152906040526116fb565b7f44f270c11affb1d984bdedb82262f8ce644184e7a700a5ba840556f2a9bcff9e83826000015483600101548460020154604051610e1e9493929190611fe8565b60405180910390a1505050565b610e33611386565b610e3d6000611991565b565b3380610e49611180565b6001600160a01b031614610eb15760405162461bcd60e51b815260206004820152602960248201527f4f776e61626c6532537465703a2063616c6c6572206973206e6f7420746865206044820152683732bb9037bbb732b960b91b6064820152608401610827565b610eba81611991565b50565b600554610100900460ff1615808015610edd5750600554600160ff909116105b80610ef75750303b158015610ef7575060055460ff166001145b610f5a5760405162461bcd60e51b815260206004820152602e60248201527f496e697469616c697a61626c653a20636f6e747261637420697320616c72656160448201526d191e481a5b9a5d1a585b1a5e995960921b6064820152608401610827565b6005805460ff191660011790558015610f7d576005805461ff0019166101001790555b609c80546001600160a01b03808a166001600160a01b031992831617909255609d805492891692909116919091179055610fb783866119aa565b610fc084611b2b565b610fcc62061a80611bbf565b610fd4611c20565b610fdd82611991565b8015611023576005805461ff0019169055604051600181527f7f26b83ff96e1f2b6a682f133852f6798a09c465da95921460cefb38474024989060200160405180910390a15b50505050505050565b6038546001600160a01b031690565b600080806110496003611c4f565b905060005b8181101561107857611064610350600383611c59565b61106e90846121ab565b925060010161104e565b509092915050565b600061108c6003611c4f565b905090565b611099611386565b62061a806001600160601b03821610156111095760405162461bcd60e51b815260206004820152602b60248201527f4d756c7469636861696e566f7465436f6c6c656374696f6e3a20676173206c6960448201526a6d697420746f6f206c6f7760a81b6064820152608401610827565b610eba81611bbf565b60006111218361032084611128565b9392505050565b600060a082901c1561117c5760405162461bcd60e51b815260206004820152601f60248201527f576f726d686f6c654272696467653a20696e76616c69642061646472657373006044820152606401610827565b5090565b606a546001600160a01b031690565b609d5460405163782d6fe160e01b81526000916001600160a01b03169063782d6fe1906111c290869086906004016121cc565b602060405180830381865afa1580156111df573d6000803e3d6000fd5b505050506040513d601f19601f8201168201806040525081019061120391906121e5565b609c54604051630748d63560e31b81526001600160a01b0390911690633a46b1a89061123590879087906004016121cc565b602060405180830381865afa158015611252573d6000803e3d6000fd5b505050506040513d601f19601f8201168201806040525081019061127691906121e5565b61112191906121ab565b611288611386565b606a80546001600160a01b0319166001600160a01b0383169081179091556112ae61102c565b6001600160a01b03167f38d16b8cac22d99fc7c124b9cd0de2d3fa1faef420bfe791d8c362d765e2270060405160405180910390a350565b606060006112f46003611c4f565b90506000816001600160401b0381111561131057611310611e2b565b604051908082528060200260200182016040528015611339578160200160208202803683370190505b50905060005b8281101561137f57611352600382611c59565b828281518110611364576113646121fe565b61ffff9092166020928302919091019091015260010161133f565b5092915050565b3361138f61102c565b6001600160a01b031614610e3d5760405162461bcd60e51b815260206004820181905260248201527f4f776e61626c653a2063616c6c6572206973206e6f7420746865206f776e65726044820152606401610827565b805160a01461143d5760405162461bcd60e51b815260206004820152603060248201526000805160206123e783398151915260448201526f0c840e0c2f2d8dec2c840d8cadccee8d60831b6064820152608401610827565b6000806000806000858060200190518101906114599190612214565b6000858152609e602052604090205494995092975090955093509150156114ca5760405162461bcd60e51b81526020600482015260316024820152600080516020612407833981519152604482015270616c20616c72656164792065786973747360781b6064820152608401610827565b4282116115285760405162461bcd60e51b815260206004820152603860248201526000805160206124278339815191526044820152776d65206d75737420626520696e207468652066757475726560401b6064820152608401610827565b8284106115a75760405162461bcd60e51b815260206004820152604160248201527f4d756c7469636861696e566f7465436f6c6c656374696f6e3a20736e6170736860448201527f6f742074696d65206d757374206265206265666f72652073746172742074696d6064820152606560f81b608482015260a401610827565b81831061161b5760405162461bcd60e51b815260206004820152603c60248201527f4d756c7469636861696e566f7465436f6c6c656374696f6e3a2073746172742060448201527b74696d65206d757374206265206265666f726520656e642074696d6560201b6064820152608401610827565b80821061168c5760405162461bcd60e51b8152602060048201526045602482015260008051602061242783398151915260448201527f6d65206d757374206265206265666f726520766f746520636f6c6c656374696f6064820152641b88195b9960da1b608482015260a401610827565b6000858152609e60205260409081902084815560028101849055600381018390556001810186905590517fafbd5d299242bf861d198949ad835672e2e35b2e1838cee606a0b5aec2b4fa42906116e9908890879087908790611fe8565b60405180910390a15050505050505050565b3461170461103b565b146117675760405162461bcd60e51b815260206004820152602d60248201527f576f726d686f6c654272696467653a20746f74616c20636f7374206e6f74206560448201526c7175616c20746f2071756f746560981b6064820152608401610827565b60006117736003611c4f565b90506000805b828110156118eb57600061178e600383611c59565b9050600061179b82610744565b6000805461ffff85168252600260205260408083205490516347f66e8160e11b81529394506001600160a01b03600160601b8304811694638fecdd029487946117f7948a9416928e92916001600160601b03169060040161229a565b60206040518083038185885af193505050508015611832575060408051601f3d908101601f1916820190925261182f918101906122ea565b60015b6118825761184081856121ab565b93507fe943c14b34c02fdf811683cd7901c2eeb54a7b8a97b055debcec6eb66b800a7482878360405161187593929190612313565b60405180910390a16118e1565b5061ffff8216600090815260026020526040908190205490517f47cab59001e84a2b56fab55afd46305539b786ad54299920d86f20d524a2ba44916118d891859185916001600160a01b03909116908b90612340565b60405180910390a15b5050600101611779565b50801561198c57604051600090339083908381818185875af1925050503d8060008114611934576040519150601f19603f3d011682016040523d82523d6000602084013e611939565b606091505b505090508061198a5760405162461bcd60e51b815260206004820152601d60248201527f576f726d686f6c654272696467653a20726566756e64206661696c65640000006044820152606401610827565b505b505050565b606a80546001600160a01b0319169055610eba81611c65565b61ffff82166000908152600260205260409020546001600160a01b031615611a0e5760405162461bcd60e51b8152602060048201526023602482015260008051602061244783398151915260448201526219195960ea1b6064820152608401610827565b6001600160a01b038116611a735760405162461bcd60e51b815260206004820152602660248201527f576f726d686f6c654272696467653a20696e76616c696420746172676574206160448201526564647265737360d01b6064820152608401610827565b611a82600361ffff8416611cb7565b611acf5760405162461bcd60e51b815260206004820152602a6024820152600080516020612447833981519152604482015269191959081d1bc81cd95d60b21b6064820152608401610827565b61ffff821660008181526002602052604080822080546001600160a01b0319166001600160a01b03861690811790915590519092917f40408703d30ddad046e1af438394d2996712767ef13391ae7d9d21fa9eb63df591a35050565b600054600160601b90046001600160a01b031615611b975760405162461bcd60e51b815260206004820152602360248201527f576f726d686f6c654272696467653a2072656c6179657220616c7265616479206044820152621cd95d60ea1b6064820152608401610827565b600080546001600160a01b03909216600160601b026001600160601b03909216919091179055565b600080546001600160601b038381166001600160601b031983168117909355604080519190921680825260208201939093527f5ccd21ad0b9c241d63daee4d43a957379ac1bef51da6554ef0d581c5ad09f5bb910160405180910390a15050565b600554610100900460ff16611c475760405162461bcd60e51b81526004016108279061237b565b610e3d611cc3565b600061073e825490565b60006111218383611cf3565b603880546001600160a01b038381166001600160a01b0319831681179093556040519116919082907f8be0079c531659141344cd1fd0a4f28419497f9722a3daafe3b4186f6b6457e090600090a35050565b60006111218383611d1d565b600554610100900460ff16611cea5760405162461bcd60e51b81526004016108279061237b565b610e3d33611991565b6000826000018281548110611d0a57611d0a6121fe565b9060005260206000200154905092915050565b6000818152600183016020526040812054611d645750815460018181018455600084815260208082209093018490558454848252828601909352604090209190915561073e565b50600061073e565b600060208284031215611d7e57600080fd5b5035919050565b6001600160a01b0391909116815260200190565b80356001600160a01b03811681146107d857600080fd5b600060208284031215611dc257600080fd5b61112182611d99565b803561ffff811681146107d857600080fd5b60008060408385031215611df057600080fd5b611df983611dcb565b9150611e0760208401611d99565b90509250929050565b600060208284031215611e2257600080fd5b61112182611dcb565b634e487b7160e01b600052604160045260246000fd5b604051601f8201601f191681016001600160401b0381118282101715611e6957611e69611e2b565b604052919050565b600082601f830112611e8257600080fd5b81356001600160401b03811115611e9b57611e9b611e2b565b611eae601f8201601f1916602001611e41565b818152846020838601011115611ec357600080fd5b816020850160208301376000918101602001919091529392505050565b600080600080600060a08688031215611ef857600080fd5b85356001600160401b0380821115611f0f57600080fd5b611f1b89838a01611e71565b9650602091508188013581811115611f3257600080fd5b8801601f81018a13611f4357600080fd5b803582811115611f5557611f55611e2b565b8060051b611f64858201611e41565b918252828101850191858101908d841115611f7e57600080fd5b86850192505b83831015611fba57823586811115611f9c5760008081fd5b611faa8f8983890101611e71565b8352509186019190860190611f84565b809a505050505050505060408601359250611fd760608701611dcb565b949793965091946080013592915050565b93845260208401929092526040830152606082015260800190565b6000806040838503121561201657600080fd5b82359150602083013560ff8116811461202e57600080fd5b809150509250929050565b60008060008060008060c0878903121561205257600080fd5b61205b87611d99565b955061206960208801611d99565b945061207760408801611d99565b935061208560608801611d99565b925061209360808801611dcb565b91506120a160a08801611d99565b90509295509295509295565b6000602082840312156120bf57600080fd5b81356001600160601b038116811461112157600080fd5b600080604083850312156120e957600080fd5b6120f283611dcb565b946020939093013593505050565b6000806040838503121561211357600080fd5b82359150611e0760208401611d99565b6000806040838503121561213657600080fd5b6120f283611d99565b6020808252825182820181905260009190848201906040850190845b8181101561217b57835161ffff168352928401929184019160010161215b565b50909695505050505050565b6000806040838503121561219a57600080fd5b505080516020909101519092909150565b8082018082111561073e57634e487b7160e01b600052601160045260246000fd5b6001600160a01b03929092168252602082015260400190565b6000602082840312156121f757600080fd5b5051919050565b634e487b7160e01b600052603260045260246000fd5b600080600080600060a0868803121561222c57600080fd5b5050835160208501516040860151606087015160809097015192989197509594509092509050565b6000815180845260005b8181101561227a5760208185018101518683018201520161225e565b506000602082860101526020601f19601f83011685010191505092915050565b61ffff861681526001600160a01b038516602082015260a0604082018190526000906122c890830186612254565b6060830194909452506001600160601b03919091166080909101529392505050565b6000602082840312156122fc57600080fd5b81516001600160401b038116811461112157600080fd5b61ffff841681526060602082015260006123306060830185612254565b9050826040830152949350505050565b61ffff8516815283602082015260018060a01b03831660408201526080606082015260006123716080830184612254565b9695505050505050565b6020808252602b908201527f496e697469616c697a61626c653a20636f6e7472616374206973206e6f74206960408201526a6e697469616c697a696e6760a81b60608201526080019056fe4d756c7469636861696e566f7465436f6c6c656374696f6e3a20766f746572204d756c7469636861696e566f7465436f6c6c656374696f6e3a20696e76616c694d756c7469636861696e566f7465436f6c6c656374696f6e3a2070726f706f734d756c7469636861696e566f7465436f6c6c656374696f6e3a20656e64207469576f726d686f6c654272696467653a20636861696e20616c72656164792061644d756c7469636861696e566f7465436f6c6c656374696f6e3a20566f74696e67a2646970667358221220fe4f00cd37a1e23cf3710701088fb791489c3dc56b5639d11fd7849dc776b08264736f6c63430008130033",
    "linkReferences": {}
  },
  "methodIdentifiers": {
    "acceptOwnership()": "79ba5097",
    "bridgeCost(uint16)": "37d6d162",
    "bridgeCostAll()": "912f8a65",
    "castVote(uint256,uint8)": "56781388",
    "emitVotes(uint256)": "6d6b1ac9",
    "fromWormholeFormat(bytes32)": "e17563df",
    "gasLimit()": "f68016b7",
    "getAllTargetChains()": "f9bae9d0",
    "getAllTargetChainsLength()": "9ba9c39d",
    "getReceipt(uint256,address)": "e23a9a52",
    "getVotes(address,uint256)": "eb9019d4",
    "initialize(address,address,address,address,uint16,address)": "8086c34f",
    "isTrustedSender(uint16,address)": "35a2017d",
    "isTrustedSender(uint16,bytes32)": "d4f3826b",
    "owner()": "8da5cb5b",
    "pendingOwner()": "e30c3978",
    "processedNonces(bytes32)": "404a4edb",
    "proposalInformation(uint256)": "1fb6b132",
    "proposalVotes(uint256)": "544ffc9c",
    "proposals(uint256)": "013cf08b",
    "receiveWormholeMessages(bytes,bytes[],bytes32,uint16,bytes32)": "529dca32",
    "renounceOwnership()": "715018a6",
    "setGasLimit(uint96)": "9ffe56f7",
    "setNewStakedWell(address)": "25bcde0d",
    "stkWell()": "0d3cfee2",
    "targetAddress(uint16)": "ae8e397f",
    "transferOwnership(address)": "f2fde38b",
    "wormholeRelayer()": "da25b725",
    "xWell()": "406ea4a2"
  },
  "id": 120
}