{
  "abi": [
    {
      "inputs": [
        {
          "internalType": "contract WETH9",
          "name": "_weth",
          "type": "address"
        },
        {
          "internalType": "contract MErc20",
          "name": "_mToken",
          "type": "address"
        }
      ],
      "stateMutability": "nonpayable",
      "type": "constructor"
    },
    {
      "inputs": [],
      "name": "mToken",
      "outputs": [
        {
          "internalType": "contract MErc20",
          "name": "",
          "type": "address"
        }
      ],
      "stateMutability": "view",
      "type": "function"
    },
    {
      "inputs": [
        {
          "internalType": "address",
          "name": "recipient",
          "type": "address"
        }
      ],
      "name": "mint",
      "outputs": [],
      "stateMutability": "payable",
      "type": "function"
    },
    {
      "inputs": [
        {
          "internalType": "uint256",
          "name": "mTokenRedeemAmount",
          "type": "uint256"
        },
        {
          "internalType": "address",
          "name": "recipient",
          "type": "address"
        }
      ],
      "name": "redeem",
      "outputs": [],
      "stateMutability": "nonpayable",
      "type": "function"
    },
    {
      "inputs": [],
      "name": "weth",
      "outputs": [
        {
          "internalType": "contract WETH9",
          "name": "",
          "type": "address"
        }
      ],
      "stateMutability": "view",
      "type": "function"
    },
    {
      "stateMutability": "payable",
      "type": "receive"
    }
  ],
  "bytecode": {
    "object": "0x60c060405234801561001057600080fd5b50604051610b8b380380610b8b83398101604081905261002f916100d0565b6001600160a01b03828116608081905290821660a081905260405163095ea7b360e01b81526004810191909152600019602482015263095ea7b3906044016020604051808303816000875af115801561008c573d6000803e3d6000fd5b505050506040513d601f19601f820116820180604052508101906100b0919061010a565b505050610133565b6001600160a01b03811681146100cd57600080fd5b50565b600080604083850312156100e357600080fd5b82516100ee816100b8565b60208401519092506100ff816100b8565b809150509250929050565b60006020828403121561011c57600080fd5b8151801515811461012c57600080fd5b9392505050565b60805160a051610a046101876000396000818160e60152818161018e0152818161027c015281816102f101528181610328015261036601526000818160610152818161010a015261043d0152610a046000f3fe6080604052600436106100435760003560e01c80633fc8cef31461004f5780636a6278421461009f5780637bde82f2146100b4578063c3b6f939146100d457600080fd5b3661004a57005b600080fd5b34801561005b57600080fd5b506100837f000000000000000000000000000000000000000000000000000000000000000081565b6040516001600160a01b03909116815260200160405180910390f35b6100b26100ad3660046108d2565b610108565b005b3480156100c057600080fd5b506100b26100cf3660046108f4565b61031b565b3480156100e057600080fd5b506100837f000000000000000000000000000000000000000000000000000000000000000081565b7f00000000000000000000000000000000000000000000000000000000000000006001600160a01b031663d0e30db0346040518263ffffffff1660e01b81526004016000604051808303818588803b15801561016357600080fd5b505af1158015610177573d6000803e3d6000fd5b505060405163140e25ad60e31b81523460048201527f00000000000000000000000000000000000000000000000000000000000000006001600160a01b0316935063a0712d68925060240190506020604051808303816000875af11580156101e3573d6000803e3d6000fd5b505050506040513d601f19601f820116820180604052508101906102079190610920565b156102595760405162461bcd60e51b815260206004820152601760248201527f57455448526f757465723a206d696e74206661696c656400000000000000000060448201526064015b60405180910390fd5b6040516370a0823160e01b81523060048201526103189082906001600160a01b037f000000000000000000000000000000000000000000000000000000000000000016906370a0823190602401602060405180830381865afa1580156102c3573d6000803e3d6000fd5b505050506040513d601f19601f820116820180604052508101906102e79190610920565b6001600160a01b037f00000000000000000000000000000000000000000000000000000000000000001691906105b0565b50565b6103506001600160a01b037f000000000000000000000000000000000000000000000000000000000000000016333085610613565b60405163db006a7560e01b8152600481018390527f00000000000000000000000000000000000000000000000000000000000000006001600160a01b03169063db006a75906024016020604051808303816000875af11580156103b7573d6000803e3d6000fd5b505050506040513d601f19601f820116820180604052508101906103db9190610920565b156104285760405162461bcd60e51b815260206004820152601960248201527f57455448526f757465723a2072656465656d206661696c6564000000000000006044820152606401610250565b6040516370a0823160e01b81523060048201527f00000000000000000000000000000000000000000000000000000000000000006001600160a01b031690632e1a7d4d9082906370a0823190602401602060405180830381865afa158015610494573d6000803e3d6000fd5b505050506040513d601f19601f820116820180604052508101906104b89190610920565b6040518263ffffffff1660e01b81526004016104d691815260200190565b600060405180830381600087803b1580156104f057600080fd5b505af1158015610504573d6000803e3d6000fd5b505050506000816001600160a01b03164760405160006040518083038185875af1925050503d8060008114610555576040519150601f19603f3d011682016040523d82523d6000602084013e61055a565b606091505b50509050806105ab5760405162461bcd60e51b815260206004820152601f60248201527f57455448526f757465723a20455448207472616e73666572206661696c6564006044820152606401610250565b505050565b6040516001600160a01b0383166024820152604481018290526105ab90849063a9059cbb60e01b906064015b60408051601f198184030181529190526020810180516001600160e01b03166001600160e01b031990931692909217909152610651565b6040516001600160a01b038085166024830152831660448201526064810182905261064b9085906323b872dd60e01b906084016105dc565b50505050565b60006106a6826040518060400160405280602081526020017f5361666545524332303a206c6f772d6c6576656c2063616c6c206661696c6564815250856001600160a01b03166107269092919063ffffffff16565b90508051600014806106c75750808060200190518101906106c79190610939565b6105ab5760405162461bcd60e51b815260206004820152602a60248201527f5361666545524332303a204552433230206f7065726174696f6e20646964206e6044820152691bdd081cdd58d8d9595960b21b6064820152608401610250565b6060610735848460008561073d565b949350505050565b60608247101561079e5760405162461bcd60e51b815260206004820152602660248201527f416464726573733a20696e73756666696369656e742062616c616e636520666f6044820152651c8818d85b1b60d21b6064820152608401610250565b600080866001600160a01b031685876040516107ba919061097f565b60006040518083038185875af1925050503d80600081146107f7576040519150601f19603f3d011682016040523d82523d6000602084013e6107fc565b606091505b509150915061080d87838387610818565b979650505050505050565b60608315610887578251600003610880576001600160a01b0385163b6108805760405162461bcd60e51b815260206004820152601d60248201527f416464726573733a2063616c6c20746f206e6f6e2d636f6e74726163740000006044820152606401610250565b5081610735565b610735838381511561089c5781518083602001fd5b8060405162461bcd60e51b8152600401610250919061099b565b80356001600160a01b03811681146108cd57600080fd5b919050565b6000602082840312156108e457600080fd5b6108ed826108b6565b9392505050565b6000806040838503121561090757600080fd5b82359150610917602084016108b6565b90509250929050565b60006020828403121561093257600080fd5b5051919050565b60006020828403121561094b57600080fd5b815180151581146108ed57600080fd5b60005b8381101561097657818101518382015260200161095e565b50506000910152565b6000825161099181846020870161095b565b9190910192915050565b60208152600082518060208401526109ba81604085016020870161095b565b601f01601f1916919091016040019291505056fea26469706673582212201343ca5d23f0dda5fd069d5c6ee2c9f04e519e79cadc74001c18ea7a0a3a080964736f6c63430008110033",
    "linkReferences": {}
  },
  "methodIdentifiers": {
    "mToken()": "c3b6f939",
    "mint(address)": "6a627842",
    "redeem(uint256,address)": "7bde82f2",
    "weth()": "3fc8cef3"
  },
  "id": 104
}