{
  "abi": [
    {
      "type": "constructor",
      "inputs": [
        {
          "name": "xerc20",
          "type": "address",
          "internalType": "address"
        },
        {
          "name": "erc20",
          "type": "address",
          "internalType": "address"
        }
      ],
      "stateMutability": "nonpayable"
    },
    {
      "type": "function",
      "name": "ERC20",
      "inputs": [],
      "outputs": [
        {
          "name": "",
          "type": "address",
          "internalType": "contract IERC20"
        }
      ],
      "stateMutability": "view"
    },
    {
      "type": "function",
      "name": "XERC20",
      "inputs": [],
      "outputs": [
        {
          "name": "",
          "type": "address",
          "internalType": "contract IXERC20"
        }
      ],
      "stateMutability": "view"
    },
    {
      "type": "function",
      "name": "deposit",
      "inputs": [
        {
          "name": "amount",
          "type": "uint256",
          "internalType": "uint256"
        }
      ],
      "outputs": [],
      "stateMutability": "nonpayable"
    },
    {
      "type": "function",
      "name": "depositTo",
      "inputs": [
        {
          "name": "to",
          "type": "address",
          "internalType": "address"
        },
        {
          "name": "amount",
          "type": "uint256",
          "internalType": "uint256"
        }
      ],
      "outputs": [],
      "stateMutability": "nonpayable"
    },
    {
      "type": "function",
      "name": "withdraw",
      "inputs": [
        {
          "name": "amount",
          "type": "uint256",
          "internalType": "uint256"
        }
      ],
      "outputs": [],
      "stateMutability": "nonpayable"
    },
    {
      "type": "function",
      "name": "withdrawTo",
      "inputs": [
        {
          "name": "to",
          "type": "address",
          "internalType": "address"
        },
        {
          "name": "amount",
          "type": "uint256",
          "internalType": "uint256"
        }
      ],
      "outputs": [],
      "stateMutability": "nonpayable"
    },
    {
      "type": "event",
      "name": "Deposit",
      "inputs": [
        {
          "name": "_sender",
          "type": "address",
          "indexed": false,
          "internalType": "address"
        },
        {
          "name": "_amount",
          "type": "uint256",
          "indexed": false,
          "internalType": "uint256"
        }
      ],
      "anonymous": false
    },
    {
      "type": "event",
      "name": "Withdraw",
      "inputs": [
        {
          "name": "_sender",
          "type": "address",
          "indexed": false,
          "internalType": "address"
        },
        {
          "name": "_amount",
          "type": "uint256",
          "indexed": false,
          "internalType": "uint256"
        }
      ],
      "anonymous": false
    }
  ],
  "bytecode": {
    "object": "0x60c060405234801561001057600080fd5b5060405161084b38038061084b83398101604081905261002f91610062565b6001600160a01b039182166080521660a052610095565b80516001600160a01b038116811461005d57600080fd5b919050565b6000806040838503121561007557600080fd5b61007e83610046565b915061008c60208401610046565b90509250929050565b60805160a0516107776100d46000396000818160ea0152818161021d01526102530152600081816094015281816101ac01526102a101526107776000f3fe608060405234801561001057600080fd5b50600436106100625760003560e01c8063205c2878146100675780632e1a7d4d1461007c578063b20a0fb91461008f578063b6b55f25146100d2578063cc4aa204146100e5578063ffaad6a51461010c575b600080fd5b61007a610075366004610654565b61011f565b005b61007a61008a36600461068c565b61012d565b6100b67f000000000000000000000000000000000000000000000000000000000000000081565b6040516001600160a01b03909116815260200160405180910390f35b61007a6100e036600461068c565b61013a565b6100b67f000000000000000000000000000000000000000000000000000000000000000081565b61007a61011a366004610654565b610144565b610129828261014e565b5050565b610137338261014e565b50565b6101373382610246565b6101298282610246565b604080516001600160a01b0384168152602081018390527f884edad9ce6fa2440d8a54cc123490eb96d2768479d49ff9c7366125a9424364910160405180910390a1604051632770a7eb60e21b8152336004820152602481018290527f00000000000000000000000000000000000000000000000000000000000000006001600160a01b031690639dc29fac90604401600060405180830381600087803b1580156101f857600080fd5b505af115801561020c573d6000803e3d6000fd5b506101299250506001600160a01b037f00000000000000000000000000000000000000000000000000000000000000001690508383610344565b61027b6001600160a01b037f0000000000000000000000000000000000000000000000000000000000000000163330846103ac565b6040516340c10f1960e01b81526001600160a01b038381166004830152602482018390527f000000000000000000000000000000000000000000000000000000000000000016906340c10f1990604401600060405180830381600087803b1580156102e557600080fd5b505af11580156102f9573d6000803e3d6000fd5b5050604080516001600160a01b0386168152602081018590527fe1fffcc4923d04b559f4d29a8bfc6cda04eb5b0d3c460751c2402c5c5cc9109c935001905060405180910390a15050565b6040516001600160a01b0383166024820152604481018290526103a790849063a9059cbb60e01b906064015b60408051601f198184030181529190526020810180516001600160e01b03166001600160e01b0319909316929092179091526103ea565b505050565b6040516001600160a01b03808516602483015283166044820152606481018290526103e49085906323b872dd60e01b90608401610370565b50505050565b600061043f826040518060400160405280602081526020017f5361666545524332303a206c6f772d6c6576656c2063616c6c206661696c6564815250856001600160a01b03166104c49092919063ffffffff16565b905080516000148061046057508080602001905181019061046091906106a5565b6103a75760405162461bcd60e51b815260206004820152602a60248201527f5361666545524332303a204552433230206f7065726174696f6e20646964206e6044820152691bdd081cdd58d8d9595960b21b60648201526084015b60405180910390fd5b60606104d384846000856104db565b949350505050565b60608247101561053c5760405162461bcd60e51b815260206004820152602660248201527f416464726573733a20696e73756666696369656e742062616c616e636520666f6044820152651c8818d85b1b60d21b60648201526084016104bb565b600080866001600160a01b0316858760405161055891906106f2565b60006040518083038185875af1925050503d8060008114610595576040519150601f19603f3d011682016040523d82523d6000602084013e61059a565b606091505b50915091506105ab878383876105b6565b979650505050505050565b6060831561062557825160000361061e576001600160a01b0385163b61061e5760405162461bcd60e51b815260206004820152601d60248201527f416464726573733a2063616c6c20746f206e6f6e2d636f6e747261637400000060448201526064016104bb565b50816104d3565b6104d3838381511561063a5781518083602001fd5b8060405162461bcd60e51b81526004016104bb919061070e565b6000806040838503121561066757600080fd5b82356001600160a01b038116811461067e57600080fd5b946020939093013593505050565b60006020828403121561069e57600080fd5b5035919050565b6000602082840312156106b757600080fd5b815180151581146106c757600080fd5b9392505050565b60005b838110156106e95781810151838201526020016106d1565b50506000910152565b600082516107048184602087016106ce565b9190910192915050565b602081526000825180602084015261072d8160408501602087016106ce565b601f01601f1916919091016040019291505056fea264697066735822122031f5f3c87c351bd72cd032fc04e773968c24e9ada5e5c4fa49f3e83822e56c4064736f6c63430008130033",
    "linkReferences": {}
  },
  "methodIdentifiers": {
    "ERC20()": "cc4aa204",
    "XERC20()": "b20a0fb9",
    "deposit(uint256)": "b6b55f25",
    "depositTo(address,uint256)": "ffaad6a5",
    "withdraw(uint256)": "2e1a7d4d",
    "withdrawTo(address,uint256)": "205c2878"
  },
  "id": 196
}