{
  "abi": [
    {
      "type": "constructor",
      "inputs": [],
      "stateMutability": "nonpayable"
    },
    {
      "type": "function",
      "name": "CLOCK_MODE",
      "inputs": [],
      "outputs": [
        {
          "name": "",
          "type": "string",
          "internalType": "string"
        }
      ],
      "stateMutability": "view"
    },
    {
      "type": "function",
      "name": "DOMAIN_SEPARATOR",
      "inputs": [],
      "outputs": [
        {
          "name": "",
          "type": "bytes32",
          "internalType": "bytes32"
        }
      ],
      "stateMutability": "view"
    },
    {
      "type": "function",
      "name": "MAX_PAUSE_DURATION",
      "inputs": [],
      "outputs": [
        {
          "name": "",
          "type": "uint256",
          "internalType": "uint256"
        }
      ],
      "stateMutability": "view"
    },
    {
      "type": "function",
      "name": "MAX_RATE_LIMIT_PER_SECOND",
      "inputs": [],
      "outputs": [
        {
          "name": "",
          "type": "uint128",
          "internalType": "uint128"
        }
      ],
      "stateMutability": "view"
    },
    {
      "type": "function",
      "name": "MAX_SUPPLY",
      "inputs": [],
      "outputs": [
        {
          "name": "",
          "type": "uint256",
          "internalType": "uint256"
        }
      ],
      "stateMutability": "view"
    },
    {
      "type": "function",
      "name": "MIN_BUFFER_CAP",
      "inputs": [],
      "outputs": [
        {
          "name": "",
          "type": "uint112",
          "internalType": "uint112"
        }
      ],
      "stateMutability": "view"
    },
    {
      "type": "function",
      "name": "acceptOwnership",
      "inputs": [],
      "outputs": [],
      "stateMutability": "nonpayable"
    },
    {
      "type": "function",
      "name": "addBridge",
      "inputs": [
        {
          "name": "newBridge",
          "type": "tuple",
          "internalType": "struct MintLimits.RateLimitMidPointInfo",
          "components": [
            {
              "name": "bufferCap",
              "type": "uint112",
              "internalType": "uint112"
            },
            {
              "name": "rateLimitPerSecond",
              "type": "uint128",
              "internalType": "uint128"
            },
            {
              "name": "bridge",
              "type": "address",
              "internalType": "address"
            }
          ]
        }
      ],
      "outputs": [],
      "stateMutability": "nonpayable"
    },
    {
      "type": "function",
      "name": "addBridges",
      "inputs": [
        {
          "name": "newBridges",
          "type": "tuple[]",
          "internalType": "struct MintLimits.RateLimitMidPointInfo[]",
          "components": [
            {
              "name": "bufferCap",
              "type": "uint112",
              "internalType": "uint112"
            },
            {
              "name": "rateLimitPerSecond",
              "type": "uint128",
              "internalType": "uint128"
            },
            {
              "name": "bridge",
              "type": "address",
              "internalType": "address"
            }
          ]
        }
      ],
      "outputs": [],
      "stateMutability": "nonpayable"
    },
    {
      "type": "function",
      "name": "allowance",
      "inputs": [
        {
          "name": "owner",
          "type": "address",
          "internalType": "address"
        },
        {
          "name": "spender",
          "type": "address",
          "internalType": "address"
        }
      ],
      "outputs": [
        {
          "name": "",
          "type": "uint256",
          "internalType": "uint256"
        }
      ],
      "stateMutability": "view"
    },
    {
      "type": "function",
      "name": "approve",
      "inputs": [
        {
          "name": "spender",
          "type": "address",
          "internalType": "address"
        },
        {
          "name": "amount",
          "type": "uint256",
          "internalType": "uint256"
        }
      ],
      "outputs": [
        {
          "name": "",
          "type": "bool",
          "internalType": "bool"
        }
      ],
      "stateMutability": "nonpayable"
    },
    {
      "type": "function",
      "name": "balanceOf",
      "inputs": [
        {
          "name": "account",
          "type": "address",
          "internalType": "address"
        }
      ],
      "outputs": [
        {
          "name": "",
          "type": "uint256",
          "internalType": "uint256"
        }
      ],
      "stateMutability": "view"
    },
    {
      "type": "function",
      "name": "buffer",
      "inputs": [
        {
          "name": "from",
          "type": "address",
          "internalType": "address"
        }
      ],
      "outputs": [
        {
          "name": "",
          "type": "uint256",
          "internalType": "uint256"
        }
      ],
      "stateMutability": "view"
    },
    {
      "type": "function",
      "name": "bufferCap",
      "inputs": [
        {
          "name": "from",
          "type": "address",
          "internalType": "address"
        }
      ],
      "outputs": [
        {
          "name": "",
          "type": "uint256",
          "internalType": "uint256"
        }
      ],
      "stateMutability": "view"
    },
    {
      "type": "function",
      "name": "burn",
      "inputs": [
        {
          "name": "user",
          "type": "address",
          "internalType": "address"
        },
        {
          "name": "amount",
          "type": "uint256",
          "internalType": "uint256"
        }
      ],
      "outputs": [],
      "stateMutability": "nonpayable"
    },
    {
      "type": "function",
      "name": "burningCurrentLimitOf",
      "inputs": [
        {
          "name": "bridge",
          "type": "address",
          "internalType": "address"
        }
      ],
      "outputs": [
        {
          "name": "limit",
          "type": "uint256",
          "internalType": "uint256"
        }
      ],
      "stateMutability": "view"
    },
    {
      "type": "function",
      "name": "burningMaxLimitOf",
      "inputs": [
        {
          "name": "bridge",
          "type": "address",
          "internalType": "address"
        }
      ],
      "outputs": [
        {
          "name": "limit",
          "type": "uint256",
          "internalType": "uint256"
        }
      ],
      "stateMutability": "view"
    },
    {
      "type": "function",
      "name": "checkpoints",
      "inputs": [
        {
          "name": "account",
          "type": "address",
          "internalType": "address"
        },
        {
          "name": "pos",
          "type": "uint32",
          "internalType": "uint32"
        }
      ],
      "outputs": [
        {
          "name": "",
          "type": "tuple",
          "internalType": "struct ERC20VotesUpgradeable.Checkpoint",
          "components": [
            {
              "name": "fromBlock",
              "type": "uint32",
              "internalType": "uint32"
            },
            {
              "name": "votes",
              "type": "uint224",
              "internalType": "uint224"
            }
          ]
        }
      ],
      "stateMutability": "view"
    },
    {
      "type": "function",
      "name": "clock",
      "inputs": [],
      "outputs": [
        {
          "name": "",
          "type": "uint48",
          "internalType": "uint48"
        }
      ],
      "stateMutability": "view"
    },
    {
      "type": "function",
      "name": "decimals",
      "inputs": [],
      "outputs": [
        {
          "name": "",
          "type": "uint8",
          "internalType": "uint8"
        }
      ],
      "stateMutability": "view"
    },
    {
      "type": "function",
      "name": "decreaseAllowance",
      "inputs": [
        {
          "name": "spender",
          "type": "address",
          "internalType": "address"
        },
        {
          "name": "subtractedValue",
          "type": "uint256",
          "internalType": "uint256"
        }
      ],
      "outputs": [
        {
          "name": "",
          "type": "bool",
          "internalType": "bool"
        }
      ],
      "stateMutability": "nonpayable"
    },
    {
      "type": "function",
      "name": "delegate",
      "inputs": [
        {
          "name": "delegatee",
          "type": "address",
          "internalType": "address"
        }
      ],
      "outputs": [],
      "stateMutability": "nonpayable"
    },
    {
      "type": "function",
      "name": "delegateBySig",
      "inputs": [
        {
          "name": "delegatee",
          "type": "address",
          "internalType": "address"
        },
        {
          "name": "nonce",
          "type": "uint256",
          "internalType": "uint256"
        },
        {
          "name": "expiry",
          "type": "uint256",
          "internalType": "uint256"
        },
        {
          "name": "v",
          "type": "uint8",
          "internalType": "uint8"
        },
        {
          "name": "r",
          "type": "bytes32",
          "internalType": "bytes32"
        },
        {
          "name": "s",
          "type": "bytes32",
          "internalType": "bytes32"
        }
      ],
      "outputs": [],
      "stateMutability": "nonpayable"
    },
    {
      "type": "function",
      "name": "delegates",
      "inputs": [
        {
          "name": "account",
          "type": "address",
          "internalType": "address"
        }
      ],
      "outputs": [
        {
          "name": "",
          "type": "address",
          "internalType": "address"
        }
      ],
      "stateMutability": "view"
    },
    {
      "type": "function",
      "name": "eip712Domain",
      "inputs": [],
      "outputs": [
        {
          "name": "fields",
          "type": "bytes1",
          "internalType": "bytes1"
        },
        {
          "name": "name",
          "type": "string",
          "internalType": "string"
        },
        {
          "name": "version",
          "type": "string",
          "internalType": "string"
        },
        {
          "name": "chainId",
          "type": "uint256",
          "internalType": "uint256"
        },
        {
          "name": "verifyingContract",
          "type": "address",
          "internalType": "address"
        },
        {
          "name": "salt",
          "type": "bytes32",
          "internalType": "bytes32"
        },
        {
          "name": "extensions",
          "type": "uint256[]",
          "internalType": "uint256[]"
        }
      ],
      "stateMutability": "view"
    },
    {
      "type": "function",
      "name": "getPastTotalSupply",
      "inputs": [
        {
          "name": "timepoint",
          "type": "uint256",
          "internalType": "uint256"
        }
      ],
      "outputs": [
        {
          "name": "",
          "type": "uint256",
          "internalType": "uint256"
        }
      ],
      "stateMutability": "view"
    },
    {
      "type": "function",
      "name": "getPastVotes",
      "inputs": [
        {
          "name": "account",
          "type": "address",
          "internalType": "address"
        },
        {
          "name": "timepoint",
          "type": "uint256",
          "internalType": "uint256"
        }
      ],
      "outputs": [
        {
          "name": "",
          "type": "uint256",
          "internalType": "uint256"
        }
      ],
      "stateMutability": "view"
    },
    {
      "type": "function",
      "name": "getVotes",
      "inputs": [
        {
          "name": "account",
          "type": "address",
          "internalType": "address"
        }
      ],
      "outputs": [
        {
          "name": "",
          "type": "uint256",
          "internalType": "uint256"
        }
      ],
      "stateMutability": "view"
    },
    {
      "type": "function",
      "name": "grantPauseGuardian",
      "inputs": [
        {
          "name": "newPauseGuardian",
          "type": "address",
          "internalType": "address"
        }
      ],
      "outputs": [],
      "stateMutability": "nonpayable"
    },
    {
      "type": "function",
      "name": "increaseAllowance",
      "inputs": [
        {
          "name": "spender",
          "type": "address",
          "internalType": "address"
        },
        {
          "name": "addedValue",
          "type": "uint256",
          "internalType": "uint256"
        }
      ],
      "outputs": [
        {
          "name": "",
          "type": "bool",
          "internalType": "bool"
        }
      ],
      "stateMutability": "nonpayable"
    },
    {
      "type": "function",
      "name": "initialize",
      "inputs": [
        {
          "name": "tokenName",
          "type": "string",
          "internalType": "string"
        },
        {
          "name": "tokenSymbol",
          "type": "string",
          "internalType": "string"
        },
        {
          "name": "tokenOwner",
          "type": "address",
          "internalType": "address"
        },
        {
          "name": "newRateLimits",
          "type": "tuple[]",
          "internalType": "struct MintLimits.RateLimitMidPointInfo[]",
          "components": [
            {
              "name": "bufferCap",
              "type": "uint112",
              "internalType": "uint112"
            },
            {
              "name": "rateLimitPerSecond",
              "type": "uint128",
              "internalType": "uint128"
            },
            {
              "name": "bridge",
              "type": "address",
              "internalType": "address"
            }
          ]
        },
        {
          "name": "newPauseDuration",
          "type": "uint128",
          "internalType": "uint128"
        },
        {
          "name": "newPauseGuardian",
          "type": "address",
          "internalType": "address"
        }
      ],
      "outputs": [],
      "stateMutability": "nonpayable"
    },
    {
      "type": "function",
      "name": "kickGuardian",
      "inputs": [],
      "outputs": [],
      "stateMutability": "nonpayable"
    },
    {
      "type": "function",
      "name": "maxPauseDuration",
      "inputs": [],
      "outputs": [
        {
          "name": "",
          "type": "uint256",
          "internalType": "uint256"
        }
      ],
      "stateMutability": "pure"
    },
    {
      "type": "function",
      "name": "maxRateLimitPerSecond",
      "inputs": [],
      "outputs": [
        {
          "name": "",
          "type": "uint128",
          "internalType": "uint128"
        }
      ],
      "stateMutability": "pure"
    },
    {
      "type": "function",
      "name": "maxSupply",
      "inputs": [],
      "outputs": [
        {
          "name": "",
          "type": "uint256",
          "internalType": "uint256"
        }
      ],
      "stateMutability": "pure"
    },
    {
      "type": "function",
      "name": "minBufferCap",
      "inputs": [],
      "outputs": [
        {
          "name": "",
          "type": "uint112",
          "internalType": "uint112"
        }
      ],
      "stateMutability": "pure"
    },
    {
      "type": "function",
      "name": "mint",
      "inputs": [
        {
          "name": "user",
          "type": "address",
          "internalType": "address"
        },
        {
          "name": "amount",
          "type": "uint256",
          "internalType": "uint256"
        }
      ],
      "outputs": [],
      "stateMutability": "nonpayable"
    },
    {
      "type": "function",
      "name": "mintingCurrentLimitOf",
      "inputs": [
        {
          "name": "minter",
          "type": "address",
          "internalType": "address"
        }
      ],
      "outputs": [
        {
          "name": "limit",
          "type": "uint256",
          "internalType": "uint256"
        }
      ],
      "stateMutability": "view"
    },
    {
      "type": "function",
      "name": "mintingMaxLimitOf",
      "inputs": [
        {
          "name": "minter",
          "type": "address",
          "internalType": "address"
        }
      ],
      "outputs": [
        {
          "name": "limit",
          "type": "uint256",
          "internalType": "uint256"
        }
      ],
      "stateMutability": "view"
    },
    {
      "type": "function",
      "name": "name",
      "inputs": [],
      "outputs": [
        {
          "name": "",
          "type": "string",
          "internalType": "string"
        }
      ],
      "stateMutability": "view"
    },
    {
      "type": "function",
      "name": "nonces",
      "inputs": [
        {
          "name": "owner",
          "type": "address",
          "internalType": "address"
        }
      ],
      "outputs": [
        {
          "name": "",
          "type": "uint256",
          "internalType": "uint256"
        }
      ],
      "stateMutability": "view"
    },
    {
      "type": "function",
      "name": "numCheckpoints",
      "inputs": [
        {
          "name": "account",
          "type": "address",
          "internalType": "address"
        }
      ],
      "outputs": [
        {
          "name": "",
          "type": "uint32",
          "internalType": "uint32"
        }
      ],
      "stateMutability": "view"
    },
    {
      "type": "function",
      "name": "owner",
      "inputs": [],
      "outputs": [
        {
          "name": "",
          "type": "address",
          "internalType": "address"
        }
      ],
      "stateMutability": "view"
    },
    {
      "type": "function",
      "name": "ownerUnpause",
      "inputs": [],
      "outputs": [],
      "stateMutability": "nonpayable"
    },
    {
      "type": "function",
      "name": "pause",
      "inputs": [],
      "outputs": [],
      "stateMutability": "nonpayable"
    },
    {
      "type": "function",
      "name": "pauseDuration",
      "inputs": [],
      "outputs": [
        {
          "name": "",
          "type": "uint128",
          "internalType": "uint128"
        }
      ],
      "stateMutability": "view"
    },
    {
      "type": "function",
      "name": "pauseGuardian",
      "inputs": [],
      "outputs": [
        {
          "name": "",
          "type": "address",
          "internalType": "address"
        }
      ],
      "stateMutability": "view"
    },
    {
      "type": "function",
      "name": "pauseStartTime",
      "inputs": [],
      "outputs": [
        {
          "name": "",
          "type": "uint128",
          "internalType": "uint128"
        }
      ],
      "stateMutability": "view"
    },
    {
      "type": "function",
      "name": "pauseUsed",
      "inputs": [],
      "outputs": [
        {
          "name": "",
          "type": "bool",
          "internalType": "bool"
        }
      ],
      "stateMutability": "view"
    },
    {
      "type": "function",
      "name": "paused",
      "inputs": [],
      "outputs": [
        {
          "name": "",
          "type": "bool",
          "internalType": "bool"
        }
      ],
      "stateMutability": "view"
    },
    {
      "type": "function",
      "name": "pendingOwner",
      "inputs": [],
      "outputs": [
        {
          "name": "",
          "type": "address",
          "internalType": "address"
        }
      ],
      "stateMutability": "view"
    },
    {
      "type": "function",
      "name": "permit",
      "inputs": [
        {
          "name": "owner",
          "type": "address",
          "internalType": "address"
        },
        {
          "name": "spender",
          "type": "address",
          "internalType": "address"
        },
        {
          "name": "value",
          "type": "uint256",
          "internalType": "uint256"
        },
        {
          "name": "deadline",
          "type": "uint256",
          "internalType": "uint256"
        },
        {
          "name": "v",
          "type": "uint8",
          "internalType": "uint8"
        },
        {
          "name": "r",
          "type": "bytes32",
          "internalType": "bytes32"
        },
        {
          "name": "s",
          "type": "bytes32",
          "internalType": "bytes32"
        }
      ],
      "outputs": [],
      "stateMutability": "nonpayable"
    },
    {
      "type": "function",
      "name": "rateLimitPerSecond",
      "inputs": [
        {
          "name": "from",
          "type": "address",
          "internalType": "address"
        }
      ],
      "outputs": [
        {
          "name": "",
          "type": "uint256",
          "internalType": "uint256"
        }
      ],
      "stateMutability": "view"
    },
    {
      "type": "function",
      "name": "rateLimits",
      "inputs": [
        {
          "name": "bridge",
          "type": "address",
          "internalType": "address"
        }
      ],
      "outputs": [
        {
          "name": "rateLimitPerSecond",
          "type": "uint128",
          "internalType": "uint128"
        },
        {
          "name": "bufferCap",
          "type": "uint112",
          "internalType": "uint112"
        },
        {
          "name": "lastBufferUsedTime",
          "type": "uint32",
          "internalType": "uint32"
        },
        {
          "name": "bufferStored",
          "type": "uint112",
          "internalType": "uint112"
        },
        {
          "name": "midPoint",
          "type": "uint112",
          "internalType": "uint112"
        }
      ],
      "stateMutability": "view"
    },
    {
      "type": "function",
      "name": "removeBridge",
      "inputs": [
        {
          "name": "bridge",
          "type": "address",
          "internalType": "address"
        }
      ],
      "outputs": [],
      "stateMutability": "nonpayable"
    },
    {
      "type": "function",
      "name": "removeBridges",
      "inputs": [
        {
          "name": "bridges",
          "type": "address[]",
          "internalType": "address[]"
        }
      ],
      "outputs": [],
      "stateMutability": "nonpayable"
    },
    {
      "type": "function",
      "name": "renounceOwnership",
      "inputs": [],
      "outputs": [],
      "stateMutability": "nonpayable"
    },
    {
      "type": "function",
      "name": "setBufferCap",
      "inputs": [
        {
          "name": "bridge",
          "type": "address",
          "internalType": "address"
        },
        {
          "name": "newBufferCap",
          "type": "uint256",
          "internalType": "uint256"
        }
      ],
      "outputs": [],
      "stateMutability": "nonpayable"
    },
    {
      "type": "function",
      "name": "setPauseDuration",
      "inputs": [
        {
          "name": "newPauseDuration",
          "type": "uint128",
          "internalType": "uint128"
        }
      ],
      "outputs": [],
      "stateMutability": "nonpayable"
    },
    {
      "type": "function",
      "name": "setRateLimitPerSecond",
      "inputs": [
        {
          "name": "bridge",
          "type": "address",
          "internalType": "address"
        },
        {
          "name": "newRateLimitPerSecond",
          "type": "uint128",
          "internalType": "uint128"
        }
      ],
      "outputs": [],
      "stateMutability": "nonpayable"
    },
    {
      "type": "function",
      "name": "symbol",
      "inputs": [],
      "outputs": [
        {
          "name": "",
          "type": "string",
          "internalType": "string"
        }
      ],
      "stateMutability": "view"
    },
    {
      "type": "function",
      "name": "totalSupply",
      "inputs": [],
      "outputs": [
        {
          "name": "",
          "type": "uint256",
          "internalType": "uint256"
        }
      ],
      "stateMutability": "view"
    },
    {
      "type": "function",
      "name": "transfer",
      "inputs": [
        {
          "name": "to",
          "type": "address",
          "internalType": "address"
        },
        {
          "name": "amount",
          "type": "uint256",
          "internalType": "uint256"
        }
      ],
      "outputs": [
        {
          "name": "",
          "type": "bool",
          "internalType": "bool"
        }
      ],
      "stateMutability": "nonpayable"
    },
    {
      "type": "function",
      "name": "transferFrom",
      "inputs": [
        {
          "name": "from",
          "type": "address",
          "internalType": "address"
        },
        {
          "name": "to",
          "type": "address",
          "internalType": "address"
        },
        {
          "name": "amount",
          "type": "uint256",
          "internalType": "uint256"
        }
      ],
      "outputs": [
        {
          "name": "",
          "type": "bool",
          "internalType": "bool"
        }
      ],
      "stateMutability": "nonpayable"
    },
    {
      "type": "function",
      "name": "transferOwnership",
      "inputs": [
        {
          "name": "newOwner",
          "type": "address",
          "internalType": "address"
        }
      ],
      "outputs": [],
      "stateMutability": "nonpayable"
    },
    {
      "type": "function",
      "name": "unpause",
      "inputs": [],
      "outputs": [],
      "stateMutability": "nonpayable"
    },
    {
      "type": "event",
      "name": "Approval",
      "inputs": [
        {
          "name": "owner",
          "type": "address",
          "indexed": true,
          "internalType": "address"
        },
        {
          "name": "spender",
          "type": "address",
          "indexed": true,
          "internalType": "address"
        },
        {
          "name": "value",
          "type": "uint256",
          "indexed": false,
          "internalType": "uint256"
        }
      ],
      "anonymous": false
    },
    {
      "type": "event",
      "name": "BridgeLimitsSet",
      "inputs": [
        {
          "name": "bridge",
          "type": "address",
          "indexed": true,
          "internalType": "address"
        },
        {
          "name": "bufferCap",
          "type": "uint256",
          "indexed": false,
          "internalType": "uint256"
        }
      ],
      "anonymous": false
    },
    {
      "type": "event",
      "name": "ConfigurationChanged",
      "inputs": [
        {
          "name": "bridge",
          "type": "address",
          "indexed": true,
          "internalType": "address"
        },
        {
          "name": "bufferCap",
          "type": "uint112",
          "indexed": false,
          "internalType": "uint112"
        },
        {
          "name": "rateLimitPerSecond",
          "type": "uint128",
          "indexed": false,
          "internalType": "uint128"
        }
      ],
      "anonymous": false
    },
    {
      "type": "event",
      "name": "DelegateChanged",
      "inputs": [
        {
          "name": "delegator",
          "type": "address",
          "indexed": true,
          "internalType": "address"
        },
        {
          "name": "fromDelegate",
          "type": "address",
          "indexed": true,
          "internalType": "address"
        },
        {
          "name": "toDelegate",
          "type": "address",
          "indexed": true,
          "internalType": "address"
        }
      ],
      "anonymous": false
    },
    {
      "type": "event",
      "name": "DelegateVotesChanged",
      "inputs": [
        {
          "name": "delegate",
          "type": "address",
          "indexed": true,
          "internalType": "address"
        },
        {
          "name": "previousBalance",
          "type": "uint256",
          "indexed": false,
          "internalType": "uint256"
        },
        {
          "name": "newBalance",
          "type": "uint256",
          "indexed": false,
          "internalType": "uint256"
        }
      ],
      "anonymous": false
    },
    {
      "type": "event",
      "name": "EIP712DomainChanged",
      "inputs": [],
      "anonymous": false
    },
    {
      "type": "event",
      "name": "Initialized",
      "inputs": [
        {
          "name": "version",
          "type": "uint8",
          "indexed": false,
          "internalType": "uint8"
        }
      ],
      "anonymous": false
    },
    {
      "type": "event",
      "name": "OwnershipTransferStarted",
      "inputs": [
        {
          "name": "previousOwner",
          "type": "address",
          "indexed": true,
          "internalType": "address"
        },
        {
          "name": "newOwner",
          "type": "address",
          "indexed": true,
          "internalType": "address"
        }
      ],
      "anonymous": false
    },
    {
      "type": "event",
      "name": "OwnershipTransferred",
      "inputs": [
        {
          "name": "previousOwner",
          "type": "address",
          "indexed": true,
          "internalType": "address"
        },
        {
          "name": "newOwner",
          "type": "address",
          "indexed": true,
          "internalType": "address"
        }
      ],
      "anonymous": false
    },
    {
      "type": "event",
      "name": "PauseDurationUpdated",
      "inputs": [
        {
          "name": "oldPauseDuration",
          "type": "uint256",
          "indexed": false,
          "internalType": "uint256"
        },
        {
          "name": "newPauseDuration",
          "type": "uint256",
          "indexed": false,
          "internalType": "uint256"
        }
      ],
      "anonymous": false
    },
    {
      "type": "event",
      "name": "PauseGuardianUpdated",
      "inputs": [
        {
          "name": "oldPauseGuardian",
          "type": "address",
          "indexed": true,
          "internalType": "address"
        },
        {
          "name": "newPauseGuardian",
          "type": "address",
          "indexed": true,
          "internalType": "address"
        }
      ],
      "anonymous": false
    },
    {
      "type": "event",
      "name": "PauseTimeUpdated",
      "inputs": [
        {
          "name": "newPauseStartTime",
          "type": "uint256",
          "indexed": true,
          "internalType": "uint256"
        }
      ],
      "anonymous": false
    },
    {
      "type": "event",
      "name": "Paused",
      "inputs": [
        {
          "name": "account",
          "type": "address",
          "indexed": false,
          "internalType": "address"
        }
      ],
      "anonymous": false
    },
    {
      "type": "event",
      "name": "Transfer",
      "inputs": [
        {
          "name": "from",
          "type": "address",
          "indexed": true,
          "internalType": "address"
        },
        {
          "name": "to",
          "type": "address",
          "indexed": true,
          "internalType": "address"
        },
        {
          "name": "value",
          "type": "uint256",
          "indexed": false,
          "internalType": "uint256"
        }
      ],
      "anonymous": false
    },
    {
      "type": "event",
      "name": "Unpaused",
      "inputs": [
        {
          "name": "account",
          "type": "address",
          "indexed": false,
          "internalType": "address"
        }
      ],
      "anonymous": false
    }
  ],
  "bytecode": {
    "object": "0x60806040523480156200001157600080fd5b506200001c62000022565b620000e3565b600154610100900460ff16156200008f5760405162461bcd60e51b815260206004820152602760248201527f496e697469616c697a61626c653a20636f6e747261637420697320696e697469604482015266616c697a696e6760c81b606482015260840160405180910390fd5b60015460ff90811614620000e1576001805460ff191660ff9081179091556040519081527f7f26b83ff96e1f2b6a682f133852f6798a09c465da95921460cefb38474024989060200160405180910390a15b565b61484f80620000f36000396000f3fe608060405234801561001057600080fd5b50600436106103e65760003560e01c806372e3ddaa1161020a578063a457c2d711610125578063d505accf116100b8578063e30c397811610087578063e30c397814610939578063f1127ed81461094b578063f2fde38b14610988578063f5b7cfbf1461099b578063f6b87b72146109ae57600080fd5b8063d505accf146108ee578063d5abeb0114610901578063dd62ed3e14610913578063de44472e1461092657600080fd5b8063bae2c849116100f4578063bae2c849146108b5578063c1eb713714610470578063c3cda520146108c8578063cbda9e51146108db57600080fd5b8063a457c2d714610876578063a8d164ac14610889578063a9059cbb14610891578063b9162895146108a457600080fd5b80638e539e8c1161019d57806395d89b411161016c57806395d89b4114610835578063998955d31461083d5780639ab24eb0146108505780639dc29fac1461086357600080fd5b80638e539e8c146107e95780638f7639a5146107fc57806391ddadf41461080b57806394d7eaa41461082157600080fd5b80638456cb59116101d95780638456cb59146107a257806384b0196e146107aa578063891107db146107c55780638da5cb5b146107d857600080fd5b806372e3ddaa146106d057806379ba5097146106e35780637a14c7d2146106eb5780637ecebe001461078f57600080fd5b806339509351116103055780635a69558d1161029857806364433d271161026757806364433d271461065b578063651fd268146106645780636fcfff451461067757806370a082311461069f578063715018a6146106c857600080fd5b80635a69558d146105fb5780635c19a95c1461060e5780635c975abb1461062157806363dbf73b1461062957600080fd5b80634499eb15116102d45780634499eb15146105a05780634bf5d7e9146105b357806355703ceb146105bb578063587cde1e146105cf57600080fd5b8063395093511461055f5780633a46b1a8146105725780633f4ba83a1461058557806340c10f191461058d57600080fd5b8063217f99031161037d57806329bcd9fe1161034c57806329bcd9fe1461050d578063313ce5671461053557806332cb6b0c146105445780633644e5151461055757600080fd5b8063217f9903146104b457806323b872dd146104c457806324a3d622146104d75780632799657d1461050357600080fd5b80630c05f82c116103b95780630c05f82c146104705780630f861ca31461049157806318160ddd146104995780631ec4e7b7146104a157600080fd5b806304df017d146103eb5780630526679c1461040057806306fdde0314610438578063095ea7b31461044d575b600080fd5b6103fe6103f9366004613db0565b6109c1565b005b6101955461041b90600160801b90046001600160801b031681565b6040516001600160801b0390911681526020015b60405180910390f35b6104406109d5565b60405161042f9190613e11565b61046061045b366004613e24565b610a67565b604051901515815260200161042f565b61048361047e366004613db0565b610a81565b60405190815260200161042f565b6103fe610a8c565b610483610aa6565b6103fe6104af366004613db0565b610ab6565b69054b40b1f852bda0000061041b565b6104606104d2366004613e4e565b610acf565b610196546104eb906001600160a01b031681565b6040516001600160a01b03909116815260200161042f565b61048362278d0081565b61051d683635c9adc5dea0000081565b6040516001600160701b03909116815260200161042f565b6040516012815260200161042f565b6104836b1027e72f1f1281308800000081565b610483610af3565b61046061056d366004613e24565b610afd565b610483610580366004613e24565b610b1f565b6103fe610ba2565b6103fe61059b366004613e24565b610c13565b6103fe6105ae366004613e24565b610c29565b610440610c8a565b610195546001600160801b03161515610460565b6104eb6105dd366004613db0565b6001600160a01b03908116600090815260cd60205260409020541690565b6103fe610609366004613f65565b610d0c565b6103fe61061c366004613db0565b610d1d565b610460610d27565b610483610637366004613db0565b6001600160a01b03166000908152602081905260409020546001600160801b031690565b62278d00610483565b610483610672366004613db0565b610d73565b61068a610685366004613db0565b610d7e565b60405163ffffffff909116815260200161042f565b6104836106ad366004613db0565b6001600160a01b031660009081526034602052604090205490565b6103fe610da0565b6104836106de366004613db0565b610db2565b6103fe610e3f565b61074a6106f9366004613db0565b600060208190529081526040902080546001909101546001600160801b038216916001600160701b03600160801b90910481169163ffffffff811691600160201b8204811691600160901b90041685565b604080516001600160801b0390961686526001600160701b03948516602087015263ffffffff909316928501929092528216606084015216608082015260a00161042f565b61048361079d366004613db0565b610eb7565b6103fe610ed5565b6107b2610fb1565b60405161042f9796959493929190613f81565b6103fe6107d336600461403b565b61104f565b60ff546001600160a01b03166104eb565b6104836107f73660046140d8565b611060565b683635c9adc5dea0000061051d565b60405165ffffffffffff4216815260200161042f565b6101955461041b906001600160801b031681565b6104406110c0565b61048361084b366004613db0565b6110cf565b61048361085e366004613db0565b6110ed565b6103fe610871366004613e24565b61116e565b610460610884366004613e24565b611180565b6103fe6111fb565b61046061089f366004613e24565b61128a565b61041b69054b40b1f852bda0000081565b6103fe6108c33660046140f1565b611298565b6103fe6108d6366004614135565b6112aa565b6103fe6108e936600461418d565b6113e0565b6103fe6108fc3660046141a8565b61144d565b6b1027e72f1f12813088000000610483565b610483610921366004614212565b6115b1565b6103fe61093436600461431c565b6115dc565b610131546001600160a01b03166104eb565b61095e6109593660046143d5565b611788565b60408051825163ffffffff1681526020928301516001600160e01b0316928101929092520161042f565b6103fe610996366004613db0565b61180b565b6103fe6109a9366004614415565b61187d565b6104836109bc366004613db0565b61188e565b6109c96118b9565b6109d281611913565b50565b6060603780546109e49061444a565b80601f0160208091040260200160405190810160405280929190818152602001828054610a109061444a565b8015610a5d5780601f10610a3257610100808354040283529160200191610a5d565b820191906000526020600020905b815481529060010190602001808311610a4057829003601f168201915b5050505050905090565b600033610a758185856119f8565b60019150505b92915050565b6000610a7b8261188e565b610a946118b9565b610a9c611b1c565b610aa4611b67565b565b6000610ab160365490565b905090565b610abe6118b9565b610ac6611baa565b6109d281611bf2565b600033610add858285611c5d565b610ae8858585611c6d565b506001949350505050565b6000610ab1611e2f565b600033610a75818585610b1083836115b1565b610b1a9190614494565b6119f8565b60004265ffffffffffff168210610b795760405162461bcd60e51b815260206004820152601960248201527804552433230566f7465733a20667574757265206c6f6f6b757603c1b60448201526064015b60405180910390fd5b6001600160a01b038316600090815260ce60205260409020610b9b9083611e39565b9392505050565b610baa611b1c565b610196546001600160a01b03163314610bd55760405162461bcd60e51b8152600401610b70906144a7565b610bdd611f21565b6040513381527f5db9ee0a495bf2e6ff9c91a7834c1ba4fdd244a5e8aa4e537bd38aeae4b073aa906020015b60405180910390a1565b610c1b611baa565b610c258282611f80565b5050565b610c316118b9565b610c4382610c3e83611f94565b612001565b816001600160a01b03167f95285a889cc4780f8d9cb87aabb3a7f1bf6cf8e14c2549844e611a2811823b9582604051610c7e91815260200190565b60405180910390a25050565b60604265ffffffffffff16610c9c4290565b65ffffffffffff1614610ce35760405162461bcd60e51b815260206004820152600f60248201526e496e636f727265637420636c6f636b60881b6044820152606401610b70565b5060408051808201909152600e81526d06d6f64653d74696d657374616d760941b602082015290565b610d146118b9565b6109d281612170565b6109d23382612445565b610195546000906001600160801b031615610d6d5761019554610d5c906001600160801b03600160801b8204811691166144f5565b6001600160801b0316421115905090565b50600090565b6000610a7b82610db2565b6001600160a01b038116600090815260ce6020526040812054610a7b906124bf565b610da86118b9565b610aa46000612524565b6001600160a01b038116600090815260208190526040808220905163384cbabd60e11b8152600481019190915273__$39f97053b54a73ca0670656c479a2f30a5$__90637099757a90602401602060405180830381865af4158015610e1b573d6000803e3d6000fd5b505050506040513d601f19601f82011682018060405250810190610a7b919061451c565b6101315433906001600160a01b03168114610eae5760405162461bcd60e51b815260206004820152602960248201527f4f776e61626c6532537465703a2063616c6c6572206973206e6f7420746865206044820152683732bb9037bbb732b960b91b6064820152608401610b70565b6109d281612524565b6001600160a01b0381166000908152609a6020526040812054610a7b565b610edd611baa565b610196546001600160a01b03163314610f085760405162461bcd60e51b8152600401610b70906144a7565b610195546001600160801b031615610f785760405162461bcd60e51b815260206004820152602d60248201527f436f6e666967757261626c655061757365477561726469616e3a20706175736560448201526c08185b1c9958591e481d5cd959609a1b6064820152608401610b70565b610f814261253e565b6040513381527f62e78cea01bee320cd4e420270b5ea74000d11b0c9f74754ebdbfc544b05a25890602001610c09565b6000606080600080600060606066546000801b148015610fd15750606754155b6110155760405162461bcd60e51b81526020600482015260156024820152741152540dcc4c8e88155b9a5b9a5d1a585b1a5e9959605a1b6044820152606401610b70565b61101d612589565b611025612598565b60408051600080825260208201909252600f60f81b9b939a50919850469750309650945092509050565b6110576118b9565b6109d2816125a7565b60004265ffffffffffff1682106110b55760405162461bcd60e51b815260206004820152601960248201527804552433230566f7465733a20667574757265206c6f6f6b757603c1b6044820152606401610b70565b610a7b60cf83611e39565b6060603880546109e49061444a565b60006110da82610db2565b6110e38361188e565b610a7b9190614535565b6001600160a01b038116600090815260ce6020526040812054801561115b576001600160a01b038316600090815260ce602052604090208054600019830190811061113a5761113a614548565b600091825260209091200154600160201b90046001600160e01b031661115e565b60005b6001600160e01b03169392505050565b611176611baa565b610c2582826125e7565b6000338161118e82866115b1565b9050838110156111ee5760405162461bcd60e51b815260206004820152602560248201527f45524332303a2064656372656173656420616c6c6f77616e63652062656c6f77604482015264207a65726f60d81b6064820152608401610b70565b610ae882868684036119f8565b611203611baa565b610195546001600160801b03166112825760405162461bcd60e51b815260206004820152603860248201527f436f6e666967757261626c655061757365477561726469616e3a20646964206e60448201527f6f742070617573652c20736f2063616e6e6f74206b69636b00000000000000006064820152608401610b70565b610aa4611f21565b600033610a75818585611c6d565b6112a06118b9565b610c258282612606565b834211156112fa5760405162461bcd60e51b815260206004820152601d60248201527f4552433230566f7465733a207369676e617475726520657870697265640000006044820152606401610b70565b604080517fe48329057bfd03d55e49b547132e39cffd9c1820ad7b9d4c5307691425d15adf60208201526001600160a01b0388169181019190915260608101869052608081018590526000906113749061136c9060a001604051602081830303815290604052805190602001206126ec565b858585612719565b905061137f81612741565b86146113cd5760405162461bcd60e51b815260206004820152601960248201527f4552433230566f7465733a20696e76616c6964206e6f6e6365000000000000006044820152606401610b70565b6113d78188612445565b50505050505050565b6113e86118b9565b62278d00816001600160801b031611156114445760405162461bcd60e51b815260206004820152601e60248201527f7857454c4c3a207061757365206475726174696f6e20746f6f206c6f6e6700006044820152606401610b70565b6109d281612769565b8342111561149d5760405162461bcd60e51b815260206004820152601d60248201527f45524332305065726d69743a206578706972656420646561646c696e650000006044820152606401610b70565b60007f6e71edae12b1b97f4d1f60370fef10105fa2faae0126114a169c64845d6126c98888886114cc8c612741565b6040805160208101969096526001600160a01b0394851690860152929091166060840152608083015260a082015260c0810186905260e0016040516020818303038152906040528051906020012090506000611527826126ec565b9050600061153782878787612719565b9050896001600160a01b0316816001600160a01b03161461159a5760405162461bcd60e51b815260206004820152601e60248201527f45524332305065726d69743a20696e76616c6964207369676e617475726500006044820152606401610b70565b6115a58a8a8a6119f8565b50505050505050505050565b6001600160a01b03918216600090815260356020908152604080832093909416825291909152205490565b600154610100900460ff16158080156115f957506001805460ff16105b806116125750303b15801561161257506001805460ff16145b6116755760405162461bcd60e51b815260206004820152602e60248201527f496e697469616c697a61626c653a20636f6e747261637420697320616c72656160448201526d191e481a5b9a5d1a585b1a5e995960921b6064820152608401610b70565b6001805460ff1916811790558015611697576001805461ff0019166101001790555b62278d00836001600160801b031611156116f35760405162461bcd60e51b815260206004820152601e60248201527f7857454c4c3a207061757365206475726174696f6e20746f6f206c6f6e6700006044820152606401610b70565b6116fd87876127d2565b61170687612803565b61170e61284d565b6117178461287c565b61171f6128bc565b61172882611bf2565b61173183612769565b61173a85612524565b80156113d7576001805461ff00191681556040519081527f7f26b83ff96e1f2b6a682f133852f6798a09c465da95921460cefb3847402498906020015b60405180910390a150505050505050565b60408051808201909152600080825260208201526001600160a01b038316600090815260ce60205260409020805463ffffffff84169081106117cc576117cc614548565b60009182526020918290206040805180820190915291015463ffffffff81168252600160201b90046001600160e01b0316918101919091529392505050565b6118136118b9565b61013180546001600160a01b0383166001600160a01b0319909116811790915561184560ff546001600160a01b031690565b6001600160a01b03167f38d16b8cac22d99fc7c124b9cd0de2d3fa1faef420bfe791d8c362d765e2270060405160405180910390a350565b6118856118b9565b6109d28161287c565b6001600160a01b0316600090815260208190526040902054600160801b90046001600160701b031690565b60ff546001600160a01b03163314610aa45760405162461bcd60e51b815260206004820181905260248201527f4f776e61626c653a2063616c6c6572206973206e6f7420746865206f776e65726044820152606401610b70565b6001600160a01b038116600090815260208190526040812054600160801b90046001600160701b031690036119a45760405162461bcd60e51b815260206004820152603160248201527f4d696e744c696d6974733a2063616e6e6f742072656d6f7665206e6f6e2d65786044820152701a5cdd195b9d081c985d19481b1a5b5a5d607a1b6064820152608401610b70565b6001600160a01b03811660008181526020819052604080822080546001600160f01b0319168155600101829055516000805160206147fa833981519152916119ed91819061455e565b60405180910390a250565b6001600160a01b038316611a5a5760405162461bcd60e51b8152602060048201526024808201527f45524332303a20617070726f76652066726f6d20746865207a65726f206164646044820152637265737360e01b6064820152608401610b70565b6001600160a01b038216611abb5760405162461bcd60e51b815260206004820152602260248201527f45524332303a20617070726f766520746f20746865207a65726f206164647265604482015261737360f01b6064820152608401610b70565b6001600160a01b0383811660008181526035602090815260408083209487168084529482529182902085905590518481527f8c5be1e5ebec7d5bd14f71427d1e84f3dd0314c0f7b2291e5b200ac8c7c3b925910160405180910390a3505050565b611b24610d27565b610aa45760405162461bcd60e51b815260206004820152601460248201527314185d5cd8589b194e881b9bdd081c185d5cd95960621b6044820152606401610b70565b611b6f611b1c565b610163805460ff191690556040513381527f5db9ee0a495bf2e6ff9c91a7834c1ba4fdd244a5e8aa4e537bd38aeae4b073aa90602001610c09565b611bb2610d27565b15610aa45760405162461bcd60e51b815260206004820152601060248201526f14185d5cd8589b194e881c185d5cd95960821b6044820152606401610b70565b61019680546001600160a01b0319166001600160a01b03831617905580611c19600061253e565b816001600160a01b0316816001600160a01b03167fcaaa282fb2cbeb3df8763925c47fce27f7d642a513ca61ece90ac2dd6acb5ceb60405160405180910390a35050565b611c688383836128eb565b505050565b6001600160a01b038316611cd15760405162461bcd60e51b815260206004820152602560248201527f45524332303a207472616e736665722066726f6d20746865207a65726f206164604482015264647265737360d81b6064820152608401610b70565b6001600160a01b038216611d335760405162461bcd60e51b815260206004820152602360248201527f45524332303a207472616e7366657220746f20746865207a65726f206164647260448201526265737360e81b6064820152608401610b70565b611d3e83838361295f565b6001600160a01b03831660009081526034602052604090205481811015611db65760405162461bcd60e51b815260206004820152602660248201527f45524332303a207472616e7366657220616d6f756e7420657863656564732062604482015265616c616e636560d01b6064820152608401610b70565b6001600160a01b0380851660008181526034602052604080822086860390559286168082529083902080548601905591517fddf252ad1be2c89b69c2b068fc378daa952ba7f163c4a11628f55a4df523b3ef90611e169086815260200190565b60405180910390a3611e298484846129c9565b50505050565b6000610ab16129fb565b815460009081816005811115611e93576000611e5484612a6f565b611e5e9085614535565b600088815260209020909150869082015463ffffffff161115611e8357809150611e91565b611e8e816001614494565b92505b505b80821015611ee0576000611ea78383612b57565b600088815260209020909150869082015463ffffffff161115611ecc57809150611eda565b611ed7816001614494565b92505b50611e93565b8015611f0b5760008681526020902081016000190154600160201b90046001600160e01b0316611f0e565b60005b6001600160e01b03169695505050505050565b61019680546001600160a01b031981169091556001600160a01b0316611f47600061253e565b6040516000906001600160a01b038316907fcaaa282fb2cbeb3df8763925c47fce27f7d642a513ca61ece90ac2dd6acb5ceb908390a350565b611f8a3382612b72565b610c258282612bf3565b60006001600160701b03821115611ffd5760405162461bcd60e51b815260206004820152602760248201527f53616665436173743a2076616c756520646f65736e27742066697420696e20316044820152663132206269747360c81b6064820152608401610b70565b5090565b806001600160701b03166000036120645760405162461bcd60e51b815260206004820152602160248201527f4d696e744c696d6974733a206275666665724361702063616e6e6f74206265206044820152600360fc1b6064820152608401610b70565b6001600160a01b038216600090815260208190526040812054600160801b90046001600160701b031690036120ab5760405162461bcd60e51b8152600401610b7090614580565b683635c9adc5dea000006001600160701b0382161161210c5760405162461bcd60e51b815260206004820181905260248201527f4d696e744c696d6974733a20627566666572206361702062656c6f77206d696e6044820152606401610b70565b6001600160a01b038216600090815260208190526040902061212e9082612c07565b6001600160a01b038216600081815260208190526040908190205490516000805160206147fa83398151915291610c7e9185916001600160801b03169061455e565b69054b40b1f852bda000006001600160801b031681602001516001600160801b031611156121b05760405162461bcd60e51b8152600401610b70906145c3565b60408101516001600160a01b03166122155760405162461bcd60e51b815260206004820152602260248201527f4d696e744c696d6974733a20696e76616c696420627269646765206164647265604482015261737360f01b6064820152608401610b70565b6040818101516001600160a01b0316600090815260208190522054600160801b90046001600160701b03161561229b5760405162461bcd60e51b815260206004820152602560248201527f4d696e744c696d6974733a2072617465206c696d697420616c72656164792065604482015264786973747360d81b6064820152608401610b70565b8051683635c9adc5dea000006001600160701b03909116116122ff5760405162461bcd60e51b815260206004820181905260248201527f4d696e744c696d6974733a20627566666572206361702062656c6f77206d696e6044820152606401610b70565b6040518060a0016040528082602001516001600160801b0316815260200182600001516001600160701b031681526020014263ffffffff1681526020016002836000015161234d9190614620565b6001600160701b031681526020016002836000015161236c9190614620565b6001600160701b03908116909152604083810180516001600160a01b03908116600090815260208181529084902086518154888401516001600160801b039092166001600160f01b031990911617600160801b918816919091021781558685015160019091018054606089015160809099015163ffffffff9093166001600160901b031990911617600160201b98881698909802979097176001600160901b0316600160901b9190961602949094179094555184519285015191519316926000805160206147fa833981519152926119ed92909161455e565b6001600160a01b03828116600081815260cd6020818152604080842080546034845282862054949093528787166001600160a01b03198416811790915590519190951694919391928592917f3134e8a2e6d97e929a7e54011ea5485d7d196dd5f0ba4d4ef95803e8e3fc257f9190a4611e29828483612cfb565b600063ffffffff821115611ffd5760405162461bcd60e51b815260206004820152602660248201527f53616665436173743a2076616c756520646f65736e27742066697420696e203360448201526532206269747360d01b6064820152608401610b70565b61013180546001600160a01b03191690556109d281612e38565b61019580546001600160801b0319166001600160801b0383169081179091556040517ff9a602433e136b05c194852c92724c3069fe46ca433ff9ec750396286472012990600090a250565b6060606880546109e49061444a565b6060606980546109e49061444a565b60005b8151811015610c25576125d58282815181106125c8576125c8614548565b6020026020010151611913565b806125df81614646565b9150506125aa565b6125f13382612e8a565b6125fc823383611c5d565b610c258282612f0d565b69054b40b1f852bda000006001600160801b03821611156126395760405162461bcd60e51b8152600401610b70906145c3565b6001600160a01b038216600090815260208190526040812054600160801b90046001600160701b031690036126805760405162461bcd60e51b8152600401610b7090614580565b6001600160a01b03821660009081526020819052604090206126a29082612f17565b6001600160a01b038216600081815260208190526040908190205490516000805160206147fa83398151915291610c7e91600160801b9091046001600160701b031690859061455e565b6000610a7b6126f9611e2f565b8360405161190160f01b8152600281019290925260228201526042902090565b600080600061272a87878787612f82565b9150915061273781613046565b5095945050505050565b6001600160a01b0381166000908152609a602052604090208054600181018255905b50919050565b61019580546001600160801b03838116600160801b908102828416179384905560408051938290048316808552919094049091166020830152917ff6e1f1afec511d8b8e9a65bb53c947ac99ea4211fb22e0d6a0e331d55d7345f8910160405180910390a15050565b600154610100900460ff166127f95760405162461bcd60e51b8152600401610b709061465f565b610c258282613190565b600154610100900460ff1661282a5760405162461bcd60e51b8152600401610b709061465f565b6109d281604051806040016040528060018152602001603160f81b8152506131d0565b600154610100900460ff166128745760405162461bcd60e51b8152600401610b709061465f565b610aa461321f565b60005b8151811015610c25576128aa82828151811061289d5761289d614548565b6020026020010151612170565b806128b481614646565b91505061287f565b600154610100900460ff166128e35760405162461bcd60e51b8152600401610b709061465f565b610aa461324f565b60006128f784846115b1565b90506000198114611e2957818110156129525760405162461bcd60e51b815260206004820152601d60248201527f45524332303a20696e73756666696369656e7420616c6c6f77616e63650000006044820152606401610b70565b611e2984848484036119f8565b306001600160a01b03831603611c685760405162461bcd60e51b815260206004820152602960248201527f7845524332303a2063616e6e6f74207472616e7366657220746f20746f6b656e6044820152680818dbdb9d1c9858dd60ba1b6064820152608401610b70565b6001600160a01b03838116600090815260cd6020526040808220548584168352912054611c6892918216911683612cfb565b60007f8b73c3c69bb8fe3d512ecc4cf759cc79239f7b179b0ffacaa9a75d522b39400f612a26613283565b612a2e6132dc565b60408051602081019490945283019190915260608201524660808201523060a082015260c00160405160208183030381529060405280519060200120905090565b600081600003612a8157506000919050565b60006001612a8e8461330d565b901c6001901b90506001818481612aa757612aa761460a565b048201901c90506001818481612abf57612abf61460a565b048201901c90506001818481612ad757612ad761460a565b048201901c90506001818481612aef57612aef61460a565b048201901c90506001818481612b0757612b0761460a565b048201901c90506001818481612b1f57612b1f61460a565b048201901c90506001818481612b3757612b3761460a565b048201901c9050610b9b81828581612b5157612b5161460a565b046133a1565b6000612b6660028484186146aa565b610b9b90848416614494565b80600003612bd15760405162461bcd60e51b815260206004820152602660248201527f4d696e744c696d6974733a206465706c65746520616d6f756e742063616e6e6f60448201526507420626520360d41b6064820152608401610b70565b6001600160a01b0382166000908152602081905260409020610c2590826133b7565b612bfd8282613510565b610c25828261359f565b612c1082613602565b81546001600160701b03828116600160801b9081026dffffffffffffffffffffffffffff60801b19841617855590910416612c4c600283614620565b6001840180546001600160901b0316600160901b6001600160701b03938416021790819055838216600160201b9091049091161115612cb45760018301805471ffffffffffffffffffffffffffff000000001916600160201b6001600160701b038516021790555b604080518281526001600160701b03841660208201527f52d0e582769dcd1e242b38b9a795ef4699f2eca0f23b1d8f94368efb27bcd5ff91015b60405180910390a1505050565b816001600160a01b0316836001600160a01b031614158015612d1d5750600081115b15611c68576001600160a01b03831615612dab576001600160a01b038316600090815260ce602052604081208190612d58906136438561364f565b91509150846001600160a01b03167fdec2bacdd2f05b59de34da9b523dff8be42e5e38e818c82fdb0bae774387a7248383604051612da0929190918252602082015260400190565b60405180910390a250505b6001600160a01b03821615611c68576001600160a01b038216600090815260ce602052604081208190612de1906137b68561364f565b91509150836001600160a01b03167fdec2bacdd2f05b59de34da9b523dff8be42e5e38e818c82fdb0bae774387a7248383604051612e29929190918252602082015260400190565b60405180910390a25050505050565b60ff80546001600160a01b038381166001600160a01b0319831681179093556040519116919082907f8be0079c531659141344cd1fd0a4f28419497f9722a3daafe3b4186f6b6457e090600090a35050565b80600003612eeb5760405162461bcd60e51b815260206004820152602860248201527f4d696e744c696d6974733a207265706c656e69736820616d6f756e742063616e60448201526706e6f7420626520360c41b6064820152608401610b70565b6001600160a01b0382166000908152602081905260409020610c2590826137c2565b610c25828261391e565b612f2082613602565b81546001600160801b038281166001600160801b031983161784556040519116907fc1d6758c9eb8ba949914722321f508e4cd1e14d3ff96773ef5950336d8a2c63a90612cee90839085909182526001600160801b0316602082015260400190565b6000807f7fffffffffffffffffffffffffffffff5d576e7357a4501ddfe92f46681b20a0831115612fb9575060009050600361303d565b6040805160008082526020820180845289905260ff881692820192909252606081018690526080810185905260019060a0016020604051602081039080840390855afa15801561300d573d6000803e3d6000fd5b5050604051601f1901519150506001600160a01b0381166130365760006001925092505061303d565b9150600090505b94509492505050565b600081600481111561305a5761305a6146be565b036130625750565b6001816004811115613076576130766146be565b036130c35760405162461bcd60e51b815260206004820152601860248201527f45434453413a20696e76616c6964207369676e617475726500000000000000006044820152606401610b70565b60028160048111156130d7576130d76146be565b036131245760405162461bcd60e51b815260206004820152601f60248201527f45434453413a20696e76616c6964207369676e6174757265206c656e677468006044820152606401610b70565b6003816004811115613138576131386146be565b036109d25760405162461bcd60e51b815260206004820152602260248201527f45434453413a20696e76616c6964207369676e6174757265202773272076616c604482015261756560f01b6064820152608401610b70565b600154610100900460ff166131b75760405162461bcd60e51b8152600401610b709061465f565b60376131c38382614722565b506038611c688282614722565b600154610100900460ff166131f75760405162461bcd60e51b8152600401610b709061465f565b60686132038382614722565b5060696132108282614722565b50506000606681905560675550565b600154610100900460ff166132465760405162461bcd60e51b8152600401610b709061465f565b610aa433612524565b600154610100900460ff166132765760405162461bcd60e51b8152600401610b709061465f565b610163805460ff19169055565b60008061328e612589565b8051909150156132a5578051602090910120919050565b60665480156132b45792915050565b7fc5d2460186f7233c927e7db2dcc703c0e500b653ca82273b7bfad8045d85a4709250505090565b6000806132e7612598565b8051909150156132fe578051602090910120919050565b60675480156132b45792915050565b600080608083901c1561332257608092831c92015b604083901c1561333457604092831c92015b602083901c1561334657602092831c92015b601083901c1561335857601092831c92015b600883901c1561336a57600892831c92015b600483901c1561337c57600492831c92015b600283901c1561338e57600292831c92015b600183901c15610a7b5760010192915050565b60008183106133b05781610b9b565b5090919050565b60405163384cbabd60e11b81526004810183905260009073__$39f97053b54a73ca0670656c479a2f30a5$__90637099757a90602401602060405180830381865af415801561340a573d6000803e3d6000fd5b505050506040513d601f19601f8201168201806040525081019061342e919061451c565b9050808211156134805760405162461bcd60e51b815260206004820152601b60248201527f526174654c696d697465643a2072617465206c696d69742068697400000000006044820152606401610b70565b42600061348d8484614535565b6001860180546001600160701b038316600160201b026001600160901b031990911663ffffffff8616171790556040519091507fc89b99870f6dd9f35bdd8bada9a4e2a6ba2862d2b5be9eaf54f6b8a6987368fe9061350190869084909182526001600160701b0316602082015260400190565b60405180910390a15050505050565b61351a8282613936565b6001600160e01b0361352a610aa6565b11156135915760405162461bcd60e51b815260206004820152603060248201527f4552433230566f7465733a20746f74616c20737570706c79207269736b73206f60448201526f766572666c6f77696e6720766f74657360801b6064820152608401610b70565b611e2960cf6137b68361364f565b6b1027e72f1f128130880000006135b4610aa6565b1115610c255760405162461bcd60e51b815260206004820152601b60248201527f7845524332303a206d617820737570706c7920657863656564656400000000006044820152606401610b70565b600061360d82613a0b565b600190920180546001600160701b03909316600160201b026001600160901b031990931663ffffffff4216179290921790915550565b6000610b9b8284614535565b8254600090819081811561369b5760008781526020902082016000190160408051808201909152905463ffffffff81168252600160201b90046001600160e01b031660208201526136b0565b60408051808201909152600080825260208201525b905080602001516001600160e01b031693506136d084868863ffffffff16565b92506000821180156136f05750805163ffffffff1665ffffffffffff4216145b15613734576136fe83613be4565b60008881526020902083016000190180546001600160e01b0392909216600160201b0263ffffffff9092169190911790556137ac565b86604051806040016040528061375761374a4290565b65ffffffffffff166124bf565b63ffffffff16815260200161376b86613be4565b6001600160e01b039081169091528254600181018455600093845260209384902083519490930151909116600160201b0263ffffffff909316929092179101555b5050935093915050565b6000610b9b8284614494565b60405163384cbabd60e11b81526004810183905260009073__$39f97053b54a73ca0670656c479a2f30a5$__90637099757a90602401602060405180830381865af4158015613815573d6000803e3d6000fd5b505050506040513d601f19601f82011682018060405250810190613839919061451c565b8354909150600160801b90046001600160701b0316600061385a8484614494565b9050818111156138ac5760405162461bcd60e51b815260206004820181905260248201527f526174654c696d697465643a2062756666657220636170206f766572666c6f776044820152606401610b70565b6001850180544263ffffffff81166001600160901b031990921691909117600160201b6001600160701b03851690810291909117909255604080518781526020810193909352909183917fa12a2ce7ad9b82acb79323b5a1a949482ffbdc18a9f572c5b3f8ad46ef203e139101611777565b6139288282613c4d565b611e2960cf6136438361364f565b6001600160a01b03821661398c5760405162461bcd60e51b815260206004820152601f60248201527f45524332303a206d696e7420746f20746865207a65726f2061646472657373006044820152606401610b70565b6139986000838361295f565b80603660008282546139aa9190614494565b90915550506001600160a01b0382166000818152603460209081526040808320805486019055518481527fddf252ad1be2c89b69c2b068fc378daa952ba7f163c4a11628f55a4df523b3ef910160405180910390a3610c25600083836129c9565b6001810154815460009163ffffffff908116420316908290613a379083906001600160801b03166147e2565b60018501549091506001600160701b03600160901b82048116600160201b909204161015613b1d57600184015473__$05676d21dc7bab436adf701a8674cb2c55$__90637ae2b5c790613a9b908490600160201b90046001600160701b0316614494565b600187015460405160e084901b6001600160e01b03191681526004810192909252600160901b90046001600160701b03166024820152604401602060405180830381865af4158015613af1573d6000803e3d6000fd5b505050506040513d601f19601f82011682018060405250810190613b15919061451c565b949350505050565b60018401546001600160701b03600160901b82048116600160201b909204161115613bca576001840154600160201b90046001600160701b0316811180613b8b575060018401546001600160701b03600160901b8204811691613b89918491600160201b900416614535565b105b15613baa5750505060010154600160901b90046001600160701b031690565b6001840154613b15908290600160201b90046001600160701b0316614535565b50505060010154600160201b90046001600160701b031690565b60006001600160e01b03821115611ffd5760405162461bcd60e51b815260206004820152602760248201527f53616665436173743a2076616c756520646f65736e27742066697420696e20326044820152663234206269747360c81b6064820152608401610b70565b6001600160a01b038216613cad5760405162461bcd60e51b815260206004820152602160248201527f45524332303a206275726e2066726f6d20746865207a65726f206164647265736044820152607360f81b6064820152608401610b70565b613cb98260008361295f565b6001600160a01b03821660009081526034602052604090205481811015613d2d5760405162461bcd60e51b815260206004820152602260248201527f45524332303a206275726e20616d6f756e7420657863656564732062616c616e604482015261636560f01b6064820152608401610b70565b6001600160a01b03831660008181526034602090815260408083208686039055603680548790039055518581529192917fddf252ad1be2c89b69c2b068fc378daa952ba7f163c4a11628f55a4df523b3ef910160405180910390a3611c68836000846129c9565b80356001600160a01b0381168114613dab57600080fd5b919050565b600060208284031215613dc257600080fd5b610b9b82613d94565b6000815180845260005b81811015613df157602081850181015186830182015201613dd5565b506000602082860101526020601f19601f83011685010191505092915050565b602081526000610b9b6020830184613dcb565b60008060408385031215613e3757600080fd5b613e4083613d94565b946020939093013593505050565b600080600060608486031215613e6357600080fd5b613e6c84613d94565b9250613e7a60208501613d94565b9150604084013590509250925092565b634e487b7160e01b600052604160045260246000fd5b604051601f8201601f1916810167ffffffffffffffff81118282101715613ec957613ec9613e8a565b604052919050565b80356001600160801b0381168114613dab57600080fd5b600060608284031215613efa57600080fd5b6040516060810181811067ffffffffffffffff82111715613f1d57613f1d613e8a565b60405290508082356001600160701b0381168114613f3a57600080fd5b8152613f4860208401613ed1565b6020820152613f5960408401613d94565b60408201525092915050565b600060608284031215613f7757600080fd5b610b9b8383613ee8565b60ff60f81b881681526000602060e081840152613fa160e084018a613dcb565b8381036040850152613fb3818a613dcb565b606085018990526001600160a01b038816608086015260a0850187905284810360c0860152855180825283870192509083019060005b8181101561400557835183529284019291840191600101613fe9565b50909c9b505050505050505050505050565b600067ffffffffffffffff82111561403157614031613e8a565b5060051b60200190565b6000602080838503121561404e57600080fd5b823567ffffffffffffffff81111561406557600080fd5b8301601f8101851361407657600080fd5b803561408961408482614017565b613ea0565b81815260059190911b820183019083810190878311156140a857600080fd5b928401925b828410156140cd576140be84613d94565b825292840192908401906140ad565b979650505050505050565b6000602082840312156140ea57600080fd5b5035919050565b6000806040838503121561410457600080fd5b61410d83613d94565b915061411b60208401613ed1565b90509250929050565b803560ff81168114613dab57600080fd5b60008060008060008060c0878903121561414e57600080fd5b61415787613d94565b9550602087013594506040870135935061417360608801614124565b92506080870135915060a087013590509295509295509295565b60006020828403121561419f57600080fd5b610b9b82613ed1565b600080600080600080600060e0888a0312156141c357600080fd5b6141cc88613d94565b96506141da60208901613d94565b955060408801359450606088013593506141f660808901614124565b925060a0880135915060c0880135905092959891949750929550565b6000806040838503121561422557600080fd5b61422e83613d94565b915061411b60208401613d94565b600082601f83011261424d57600080fd5b813567ffffffffffffffff81111561426757614267613e8a565b61427a601f8201601f1916602001613ea0565b81815284602083860101111561428f57600080fd5b816020850160208301376000918101602001919091529392505050565b600082601f8301126142bd57600080fd5b813560206142cd61408483614017565b828152606092830285018201928282019190878511156142ec57600080fd5b8387015b8581101561430f576143028982613ee8565b84529284019281016142f0565b5090979650505050505050565b60008060008060008060c0878903121561433557600080fd5b863567ffffffffffffffff8082111561434d57600080fd5b6143598a838b0161423c565b9750602089013591508082111561436f57600080fd5b61437b8a838b0161423c565b965061438960408a01613d94565b9550606089013591508082111561439f57600080fd5b506143ac89828a016142ac565b9350506143bb60808801613ed1565b91506143c960a08801613d94565b90509295509295509295565b600080604083850312156143e857600080fd5b6143f183613d94565b9150602083013563ffffffff8116811461440a57600080fd5b809150509250929050565b60006020828403121561442757600080fd5b813567ffffffffffffffff81111561443e57600080fd5b613b15848285016142ac565b600181811c9082168061445e57607f821691505b60208210810361276357634e487b7160e01b600052602260045260246000fd5b634e487b7160e01b600052601160045260246000fd5b80820180821115610a7b57610a7b61447e565b6020808252602e908201527f436f6e666967757261626c655061757365477561726469616e3a206f6e6c792060408201526d3830bab9b29033bab0b93234b0b760911b606082015260800190565b6001600160801b038181168382160190808211156145155761451561447e565b5092915050565b60006020828403121561452e57600080fd5b5051919050565b81810381811115610a7b57610a7b61447e565b634e487b7160e01b600052603260045260246000fd5b6001600160701b039290921682526001600160801b0316602082015260400190565b60208082526023908201527f4d696e744c696d6974733a206e6f6e2d6578697374656e742072617465206c696040820152621b5a5d60ea1b606082015260800190565b60208082526027908201527f4d696e744c696d6974733a20726174654c696d69745065725365636f6e6420746040820152660dede40d0d2ced60cb1b606082015260800190565b634e487b7160e01b600052601260045260246000fd5b60006001600160701b038084168061463a5761463a61460a565b92169190910492915050565b6000600182016146585761465861447e565b5060010190565b6020808252602b908201527f496e697469616c697a61626c653a20636f6e7472616374206973206e6f74206960408201526a6e697469616c697a696e6760a81b606082015260800190565b6000826146b9576146b961460a565b500490565b634e487b7160e01b600052602160045260246000fd5b601f821115611c6857600081815260208120601f850160051c810160208610156146fb5750805b601f850160051c820191505b8181101561471a57828155600101614707565b505050505050565b815167ffffffffffffffff81111561473c5761473c613e8a565b6147508161474a845461444a565b846146d4565b602080601f831160018114614785576000841561476d5750858301515b600019600386901b1c1916600185901b17855561471a565b600085815260208120601f198616915b828110156147b457888601518255948401946001909101908401614795565b50858210156147d25787850151600019600388901b60f8161c191681555b5050505050600190811b01905550565b8082028115828204841417610a7b57610a7b61447e56feb4ff6a860e04455b1ce16833b74cde19765c95e55c5e7e4f5a69e9707d8cc96da2646970667358221220ff181a9d1cd40b72bbec80743e3599cec9f8f725eb76531f5e074978f9a83fb964736f6c63430008130033",
    "linkReferences": {
      "lib/zelt/src/lib/RateLimitMidpointCommonLibrary.sol": {
        "RateLimitMidpointCommonLibrary": [
          {
            "start": 3796,
            "length": 20
          },
          {
            "start": 13507,
            "length": 20
          },
          {
            "start": 14542,
            "length": 20
          }
        ]
      },
      "lib/zelt/src/util/Math.sol": {
        "Math": [
          {
            "start": 15193,
            "length": 20
          }
        ]
      }
    }
  },
  "methodIdentifiers": {
    "CLOCK_MODE()": "4bf5d7e9",
    "DOMAIN_SEPARATOR()": "3644e515",
    "MAX_PAUSE_DURATION()": "2799657d",
    "MAX_RATE_LIMIT_PER_SECOND()": "b9162895",
    "MAX_SUPPLY()": "32cb6b0c",
    "MIN_BUFFER_CAP()": "29bcd9fe",
    "acceptOwnership()": "79ba5097",
    "addBridge((uint112,uint128,address))": "5a69558d",
    "addBridges((uint112,uint128,address)[])": "f5b7cfbf",
    "allowance(address,address)": "dd62ed3e",
    "approve(address,uint256)": "095ea7b3",
    "balanceOf(address)": "70a08231",
    "buffer(address)": "72e3ddaa",
    "bufferCap(address)": "f6b87b72",
    "burn(address,uint256)": "9dc29fac",
    "burningCurrentLimitOf(address)": "998955d3",
    "burningMaxLimitOf(address)": "c1eb7137",
    "checkpoints(address,uint32)": "f1127ed8",
    "clock()": "91ddadf4",
    "decimals()": "313ce567",
    "decreaseAllowance(address,uint256)": "a457c2d7",
    "delegate(address)": "5c19a95c",
    "delegateBySig(address,uint256,uint256,uint8,bytes32,bytes32)": "c3cda520",
    "delegates(address)": "587cde1e",
    "eip712Domain()": "84b0196e",
    "getPastTotalSupply(uint256)": "8e539e8c",
    "getPastVotes(address,uint256)": "3a46b1a8",
    "getVotes(address)": "9ab24eb0",
    "grantPauseGuardian(address)": "1ec4e7b7",
    "increaseAllowance(address,uint256)": "39509351",
    "initialize(string,string,address,(uint112,uint128,address)[],uint128,address)": "de44472e",
    "kickGuardian()": "a8d164ac",
    "maxPauseDuration()": "64433d27",
    "maxRateLimitPerSecond()": "217f9903",
    "maxSupply()": "d5abeb01",
    "minBufferCap()": "8f7639a5",
    "mint(address,uint256)": "40c10f19",
    "mintingCurrentLimitOf(address)": "651fd268",
    "mintingMaxLimitOf(address)": "0c05f82c",
    "name()": "06fdde03",
    "nonces(address)": "7ecebe00",
    "numCheckpoints(address)": "6fcfff45",
    "owner()": "8da5cb5b",
    "ownerUnpause()": "0f861ca3",
    "pause()": "8456cb59",
    "pauseDuration()": "0526679c",
    "pauseGuardian()": "24a3d622",
    "pauseStartTime()": "94d7eaa4",
    "pauseUsed()": "55703ceb",
    "paused()": "5c975abb",
    "pendingOwner()": "e30c3978",
    "permit(address,address,uint256,uint256,uint8,bytes32,bytes32)": "d505accf",
    "rateLimitPerSecond(address)": "63dbf73b",
    "rateLimits(address)": "7a14c7d2",
    "removeBridge(address)": "04df017d",
    "removeBridges(address[])": "891107db",
    "renounceOwnership()": "715018a6",
    "setBufferCap(address,uint256)": "4499eb15",
    "setPauseDuration(uint128)": "cbda9e51",
    "setRateLimitPerSecond(address,uint128)": "bae2c849",
    "symbol()": "95d89b41",
    "totalSupply()": "18160ddd",
    "transfer(address,uint256)": "a9059cbb",
    "transferFrom(address,address,uint256)": "23b872dd",
    "transferOwnership(address)": "f2fde38b",
    "unpause()": "3f4ba83a"
  },
  "id": 206
}